{
	"contracts/FunctionContract.sol": {
		"PayableContract": {
			"abi": [
				{
					"inputs": [],
					"name": "getContractBalance",
					"outputs": [
						{
							"internalType": "uint256",
							"name": "",
							"type": "uint256"
						}
					],
					"stateMutability": "view",
					"type": "function"
				},
				{
					"inputs": [],
					"name": "getReceivedAmount",
					"outputs": [
						{
							"internalType": "uint256",
							"name": "",
							"type": "uint256"
						}
					],
					"stateMutability": "view",
					"type": "function"
				},
				{
					"inputs": [],
					"name": "receiveEther",
					"outputs": [],
					"stateMutability": "payable",
					"type": "function"
				}
			],
			"devdoc": {
				"kind": "dev",
				"methods": {},
				"version": 1
			},
			"evm": {
				"assembly": "    /* \"contracts/FunctionContract.sol\":406:909  contract PayableContract {... */\n  mstore(0x40, 0x80)\n  callvalue\n  dup1\n  iszero\n  tag_1\n  jumpi\n  0x00\n  dup1\n  revert\ntag_1:\n  pop\n  dataSize(sub_0)\n  dup1\n  dataOffset(sub_0)\n  0x00\n  codecopy\n  0x00\n  return\nstop\n\nsub_0: assembly {\n        /* \"contracts/FunctionContract.sol\":406:909  contract PayableContract {... */\n      mstore(0x40, 0x80)\n      jumpi(tag_1, lt(calldatasize, 0x04))\n      shr(0xe0, calldataload(0x00))\n      dup1\n      0x6f9fb98a\n      eq\n      tag_2\n      jumpi\n      dup1\n      0xa3912ec8\n      eq\n      tag_3\n      jumpi\n      dup1\n      0xdba3f076\n      eq\n      tag_4\n      jumpi\n    tag_1:\n      0x00\n      dup1\n      revert\n        /* \"contracts/FunctionContract.sol\":804:906  function getContractBalance() public view returns (uint) {... */\n    tag_2:\n      callvalue\n      dup1\n      iszero\n      tag_5\n      jumpi\n      0x00\n      dup1\n      revert\n    tag_5:\n      pop\n      tag_6\n      tag_7\n      jump\t// in\n    tag_6:\n      mload(0x40)\n      dup1\n      dup3\n      dup2\n      mstore\n      0x20\n      add\n      swap2\n      pop\n      pop\n      mload(0x40)\n      dup1\n      swap2\n      sub\n      swap1\n      return\n        /* \"contracts/FunctionContract.sol\":524:606  function receiveEther() payable public {... */\n    tag_3:\n      tag_8\n      tag_9\n      jump\t// in\n    tag_8:\n      stop\n        /* \"contracts/FunctionContract.sol\":652:746  function getReceivedAmount() public view returns (uint) {... */\n    tag_4:\n      callvalue\n      dup1\n      iszero\n      tag_10\n      jumpi\n      0x00\n      dup1\n      revert\n    tag_10:\n      pop\n      tag_11\n      tag_12\n      jump\t// in\n    tag_11:\n      mload(0x40)\n      dup1\n      dup3\n      dup2\n      mstore\n      0x20\n      add\n      swap2\n      pop\n      pop\n      mload(0x40)\n      dup1\n      swap2\n      sub\n      swap1\n      return\n        /* \"contracts/FunctionContract.sol\":804:906  function getContractBalance() public view returns (uint) {... */\n    tag_7:\n        /* \"contracts/FunctionContract.sol\":855:859  uint */\n      0x00\n        /* \"contracts/FunctionContract.sol\":878:899  address(this).balance */\n      selfbalance\n        /* \"contracts/FunctionContract.sol\":871:899  return address(this).balance */\n      swap1\n      pop\n        /* \"contracts/FunctionContract.sol\":804:906  function getContractBalance() public view returns (uint) {... */\n      swap1\n      jump\t// out\n        /* \"contracts/FunctionContract.sol\":524:606  function receiveEther() payable public {... */\n    tag_9:\n        /* \"contracts/FunctionContract.sol\":590:599  msg.value */\n      callvalue\n        /* \"contracts/FunctionContract.sol\":573:587  receivedAmount */\n      0x00\n        /* \"contracts/FunctionContract.sol\":573:599  receivedAmount = msg.value */\n      dup2\n      swap1\n      sstore\n      pop\n        /* \"contracts/FunctionContract.sol\":524:606  function receiveEther() payable public {... */\n      jump\t// out\n        /* \"contracts/FunctionContract.sol\":652:746  function getReceivedAmount() public view returns (uint) {... */\n    tag_12:\n        /* \"contracts/FunctionContract.sol\":702:706  uint */\n      0x00\n        /* \"contracts/FunctionContract.sol\":725:739  receivedAmount */\n      dup1\n      sload\n        /* \"contracts/FunctionContract.sol\":718:739  return receivedAmount */\n      swap1\n      pop\n        /* \"contracts/FunctionContract.sol\":652:746  function getReceivedAmount() public view returns (uint) {... */\n      swap1\n      jump\t// out\n\n    auxdata: 0xa2646970667358221220dca302ec39da9f55f7d6fc1bedd9cb3aa24db7351bc7529725a0a88ca0e05eaa64736f6c63430007060033\n}\n",
				"bytecode": {
					"linkReferences": {},
					"object": "608060405234801561001057600080fd5b5060dd8061001f6000396000f3fe60806040526004361060305760003560e01c80636f9fb98a146035578063a3912ec814605d578063dba3f076146065575b600080fd5b348015604057600080fd5b506047608d565b6040518082815260200191505060405180910390f35b60636095565b005b348015607057600080fd5b506077609e565b6040518082815260200191505060405180910390f35b600047905090565b34600081905550565b6000805490509056fea2646970667358221220dca302ec39da9f55f7d6fc1bedd9cb3aa24db7351bc7529725a0a88ca0e05eaa64736f6c63430007060033",
					"opcodes": "PUSH1 0x80 PUSH1 0x40 MSTORE CALLVALUE DUP1 ISZERO PUSH2 0x10 JUMPI PUSH1 0x0 DUP1 REVERT JUMPDEST POP PUSH1 0xDD DUP1 PUSH2 0x1F PUSH1 0x0 CODECOPY PUSH1 0x0 RETURN INVALID PUSH1 0x80 PUSH1 0x40 MSTORE PUSH1 0x4 CALLDATASIZE LT PUSH1 0x30 JUMPI PUSH1 0x0 CALLDATALOAD PUSH1 0xE0 SHR DUP1 PUSH4 0x6F9FB98A EQ PUSH1 0x35 JUMPI DUP1 PUSH4 0xA3912EC8 EQ PUSH1 0x5D JUMPI DUP1 PUSH4 0xDBA3F076 EQ PUSH1 0x65 JUMPI JUMPDEST PUSH1 0x0 DUP1 REVERT JUMPDEST CALLVALUE DUP1 ISZERO PUSH1 0x40 JUMPI PUSH1 0x0 DUP1 REVERT JUMPDEST POP PUSH1 0x47 PUSH1 0x8D JUMP JUMPDEST PUSH1 0x40 MLOAD DUP1 DUP3 DUP2 MSTORE PUSH1 0x20 ADD SWAP2 POP POP PUSH1 0x40 MLOAD DUP1 SWAP2 SUB SWAP1 RETURN JUMPDEST PUSH1 0x63 PUSH1 0x95 JUMP JUMPDEST STOP JUMPDEST CALLVALUE DUP1 ISZERO PUSH1 0x70 JUMPI PUSH1 0x0 DUP1 REVERT JUMPDEST POP PUSH1 0x77 PUSH1 0x9E JUMP JUMPDEST PUSH1 0x40 MLOAD DUP1 DUP3 DUP2 MSTORE PUSH1 0x20 ADD SWAP2 POP POP PUSH1 0x40 MLOAD DUP1 SWAP2 SUB SWAP1 RETURN JUMPDEST PUSH1 0x0 SELFBALANCE SWAP1 POP SWAP1 JUMP JUMPDEST CALLVALUE PUSH1 0x0 DUP2 SWAP1 SSTORE POP JUMP JUMPDEST PUSH1 0x0 DUP1 SLOAD SWAP1 POP SWAP1 JUMP INVALID LOG2 PUSH5 0x6970667358 0x22 SLT KECCAK256 0xDC LOG3 MUL 0xEC CODECOPY 0xDA SWAP16 SSTORE 0xF7 0xD6 0xFC SHL 0xED 0xD9 0xCB GASPRICE LOG2 0x4D 0xB7 CALLDATALOAD SHL 0xC7 MSTORE SWAP8 0x25 LOG0 0xA8 DUP13 LOG0 0xE0 0x5E 0xAA PUSH5 0x736F6C6343 STOP SMOD MOD STOP CALLER "
				},
				"gasEstimates": {
					"creation": {
						"codeDepositCost": "44200",
						"executionCost": "93",
						"totalCost": "44293"
					},
					"external": {
						"getContractBalance()": "193",
						"getReceivedAmount()": "1035",
						"receiveEther()": "20133"
					}
				},
				"methodIdentifiers": {
					"getContractBalance()": "6f9fb98a",
					"getReceivedAmount()": "dba3f076",
					"receiveEther()": "a3912ec8"
				}
			},
			"storageLayout": {
				"storage": [
					{
						"astId": 40,
						"contract": "contracts/FunctionContract.sol:PayableContract",
						"label": "receivedAmount",
						"offset": 0,
						"slot": "0",
						"type": "t_uint256"
					}
				],
				"types": {
					"t_uint256": {
						"encoding": "inplace",
						"label": "uint256",
						"numberOfBytes": "32"
					}
				}
			},
			"userdoc": {
				"kind": "user",
				"methods": {},
				"version": 1
			}
		}
	}
}