{
	"contracts/FunctionContract.sol": {
		"Tambahan": {
			"abi": [
				{
					"inputs": [
						{
							"internalType": "uint256",
							"name": "a",
							"type": "uint256"
						},
						{
							"internalType": "uint256",
							"name": "b",
							"type": "uint256"
						},
						{
							"internalType": "uint256",
							"name": "c",
							"type": "uint256"
						}
					],
					"name": "tambah",
					"outputs": [
						{
							"internalType": "uint256",
							"name": "hasil",
							"type": "uint256"
						}
					],
					"stateMutability": "pure",
					"type": "function"
				},
				{
					"inputs": [
						{
							"internalType": "uint256",
							"name": "a",
							"type": "uint256"
						},
						{
							"internalType": "uint256",
							"name": "b",
							"type": "uint256"
						}
					],
					"name": "tambah",
					"outputs": [
						{
							"internalType": "uint256",
							"name": "hasil",
							"type": "uint256"
						}
					],
					"stateMutability": "pure",
					"type": "function"
				}
			],
			"devdoc": {
				"kind": "dev",
				"methods": {},
				"version": 1
			},
			"evm": {
				"assembly": "    /* \"contracts/FunctionContract.sol\":911:1161  contract Tambahan {... */\n  mstore(0x40, 0x80)\n  callvalue\n  dup1\n  iszero\n  tag_1\n  jumpi\n  0x00\n  dup1\n  revert\ntag_1:\n  pop\n  dataSize(sub_0)\n  dup1\n  dataOffset(sub_0)\n  0x00\n  codecopy\n  0x00\n  return\nstop\n\nsub_0: assembly {\n        /* \"contracts/FunctionContract.sol\":911:1161  contract Tambahan {... */\n      mstore(0x40, 0x80)\n      callvalue\n      dup1\n      iszero\n      tag_1\n      jumpi\n      0x00\n      dup1\n      revert\n    tag_1:\n      pop\n      jumpi(tag_2, lt(calldatasize, 0x04))\n      shr(0xe0, calldataload(0x00))\n      dup1\n      0x6a3e66b9\n      eq\n      tag_3\n      jumpi\n      dup1\n      0xf604bf57\n      eq\n      tag_4\n      jumpi\n    tag_2:\n      0x00\n      dup1\n      revert\n        /* \"contracts/FunctionContract.sol\":1049:1158  function tambah(uint a, uint b, uint c) public pure returns(uint hasil){... */\n    tag_3:\n      tag_5\n      0x04\n      dup1\n      calldatasize\n      sub\n      0x60\n      dup2\n      lt\n      iszero\n      tag_6\n      jumpi\n      0x00\n      dup1\n      revert\n    tag_6:\n      dup2\n      add\n      swap1\n      dup1\n      dup1\n      calldataload\n      swap1\n      0x20\n      add\n      swap1\n      swap3\n      swap2\n      swap1\n      dup1\n      calldataload\n      swap1\n      0x20\n      add\n      swap1\n      swap3\n      swap2\n      swap1\n      dup1\n      calldataload\n      swap1\n      0x20\n      add\n      swap1\n      swap3\n      swap2\n      swap1\n      pop\n      pop\n      pop\n      tag_7\n      jump\t// in\n    tag_5:\n      mload(0x40)\n      dup1\n      dup3\n      dup2\n      mstore\n      0x20\n      add\n      swap2\n      pop\n      pop\n      mload(0x40)\n      dup1\n      swap2\n      sub\n      swap1\n      return\n        /* \"contracts/FunctionContract.sol\":950:1043  function tambah(uint a, uint b) public pure returns(uint hasil){... */\n    tag_4:\n      tag_8\n      0x04\n      dup1\n      calldatasize\n      sub\n      0x40\n      dup2\n      lt\n      iszero\n      tag_9\n      jumpi\n      0x00\n      dup1\n      revert\n    tag_9:\n      dup2\n      add\n      swap1\n      dup1\n      dup1\n      calldataload\n      swap1\n      0x20\n      add\n      swap1\n      swap3\n      swap2\n      swap1\n      dup1\n      calldataload\n      swap1\n      0x20\n      add\n      swap1\n      swap3\n      swap2\n      swap1\n      pop\n      pop\n      pop\n      tag_10\n      jump\t// in\n    tag_8:\n      mload(0x40)\n      dup1\n      dup3\n      dup2\n      mstore\n      0x20\n      add\n      swap2\n      pop\n      pop\n      mload(0x40)\n      dup1\n      swap2\n      sub\n      swap1\n      return\n        /* \"contracts/FunctionContract.sol\":1049:1158  function tambah(uint a, uint b, uint c) public pure returns(uint hasil){... */\n    tag_7:\n        /* \"contracts/FunctionContract.sol\":1109:1119  uint hasil */\n      0x00\n        /* \"contracts/FunctionContract.sol\":1146:1147  c */\n      dup2\n        /* \"contracts/FunctionContract.sol\":1142:1143  b */\n      dup4\n        /* \"contracts/FunctionContract.sol\":1138:1139  a */\n      dup6\n        /* \"contracts/FunctionContract.sol\":1138:1143  a + b */\n      add\n        /* \"contracts/FunctionContract.sol\":1138:1147  a + b + c */\n      add\n        /* \"contracts/FunctionContract.sol\":1130:1147  hasil = a + b + c */\n      swap1\n      pop\n        /* \"contracts/FunctionContract.sol\":1049:1158  function tambah(uint a, uint b, uint c) public pure returns(uint hasil){... */\n      swap4\n      swap3\n      pop\n      pop\n      pop\n      jump\t// out\n        /* \"contracts/FunctionContract.sol\":950:1043  function tambah(uint a, uint b) public pure returns(uint hasil){... */\n    tag_10:\n        /* \"contracts/FunctionContract.sol\":1002:1012  uint hasil */\n      0x00\n        /* \"contracts/FunctionContract.sol\":1035:1036  b */\n      dup2\n        /* \"contracts/FunctionContract.sol\":1031:1032  a */\n      dup4\n        /* \"contracts/FunctionContract.sol\":1031:1036  a + b */\n      add\n        /* \"contracts/FunctionContract.sol\":1023:1036  hasil = a + b */\n      swap1\n      pop\n        /* \"contracts/FunctionContract.sol\":950:1043  function tambah(uint a, uint b) public pure returns(uint hasil){... */\n      swap3\n      swap2\n      pop\n      pop\n      jump\t// out\n\n    auxdata: 0xa2646970667358221220768b5151e0fe7df5dbe56e36aeac37b6f8c3410aaa436b3f5d770b082ebff58464736f6c63430007060033\n}\n",
				"bytecode": {
					"linkReferences": {},
					"object": "608060405234801561001057600080fd5b50610126806100206000396000f3fe6080604052348015600f57600080fd5b506004361060325760003560e01c80636a3e66b9146037578063f604bf5714608a575b600080fd5b607460048036036060811015604b57600080fd5b8101908080359060200190929190803590602001909291908035906020019092919050505060d3565b6040518082815260200191505060405180910390f35b60bd60048036036040811015609e57600080fd5b81019080803590602001909291908035906020019092919050505060e3565b6040518082815260200191505060405180910390f35b6000818385010190509392505050565b600081830190509291505056fea2646970667358221220768b5151e0fe7df5dbe56e36aeac37b6f8c3410aaa436b3f5d770b082ebff58464736f6c63430007060033",
					"opcodes": "PUSH1 0x80 PUSH1 0x40 MSTORE CALLVALUE DUP1 ISZERO PUSH2 0x10 JUMPI PUSH1 0x0 DUP1 REVERT JUMPDEST POP PUSH2 0x126 DUP1 PUSH2 0x20 PUSH1 0x0 CODECOPY PUSH1 0x0 RETURN INVALID PUSH1 0x80 PUSH1 0x40 MSTORE CALLVALUE DUP1 ISZERO PUSH1 0xF JUMPI PUSH1 0x0 DUP1 REVERT JUMPDEST POP PUSH1 0x4 CALLDATASIZE LT PUSH1 0x32 JUMPI PUSH1 0x0 CALLDATALOAD PUSH1 0xE0 SHR DUP1 PUSH4 0x6A3E66B9 EQ PUSH1 0x37 JUMPI DUP1 PUSH4 0xF604BF57 EQ PUSH1 0x8A JUMPI JUMPDEST PUSH1 0x0 DUP1 REVERT JUMPDEST PUSH1 0x74 PUSH1 0x4 DUP1 CALLDATASIZE SUB PUSH1 0x60 DUP2 LT ISZERO PUSH1 0x4B JUMPI PUSH1 0x0 DUP1 REVERT JUMPDEST DUP2 ADD SWAP1 DUP1 DUP1 CALLDATALOAD SWAP1 PUSH1 0x20 ADD SWAP1 SWAP3 SWAP2 SWAP1 DUP1 CALLDATALOAD SWAP1 PUSH1 0x20 ADD SWAP1 SWAP3 SWAP2 SWAP1 DUP1 CALLDATALOAD SWAP1 PUSH1 0x20 ADD SWAP1 SWAP3 SWAP2 SWAP1 POP POP POP PUSH1 0xD3 JUMP JUMPDEST PUSH1 0x40 MLOAD DUP1 DUP3 DUP2 MSTORE PUSH1 0x20 ADD SWAP2 POP POP PUSH1 0x40 MLOAD DUP1 SWAP2 SUB SWAP1 RETURN JUMPDEST PUSH1 0xBD PUSH1 0x4 DUP1 CALLDATASIZE SUB PUSH1 0x40 DUP2 LT ISZERO PUSH1 0x9E JUMPI PUSH1 0x0 DUP1 REVERT JUMPDEST DUP2 ADD SWAP1 DUP1 DUP1 CALLDATALOAD SWAP1 PUSH1 0x20 ADD SWAP1 SWAP3 SWAP2 SWAP1 DUP1 CALLDATALOAD SWAP1 PUSH1 0x20 ADD SWAP1 SWAP3 SWAP2 SWAP1 POP POP POP PUSH1 0xE3 JUMP JUMPDEST PUSH1 0x40 MLOAD DUP1 DUP3 DUP2 MSTORE PUSH1 0x20 ADD SWAP2 POP POP PUSH1 0x40 MLOAD DUP1 SWAP2 SUB SWAP1 RETURN JUMPDEST PUSH1 0x0 DUP2 DUP4 DUP6 ADD ADD SWAP1 POP SWAP4 SWAP3 POP POP POP JUMP JUMPDEST PUSH1 0x0 DUP2 DUP4 ADD SWAP1 POP SWAP3 SWAP2 POP POP JUMP INVALID LOG2 PUSH5 0x6970667358 0x22 SLT KECCAK256 PUSH23 0x8B5151E0FE7DF5DBE56E36AEAC37B6F8C3410AAA436B3F 0x5D PUSH24 0xB082EBFF58464736F6C6343000706003300000000000000 "
				},
				"gasEstimates": {
					"creation": {
						"codeDepositCost": "58800",
						"executionCost": "111",
						"totalCost": "58911"
					},
					"external": {
						"tambah(uint256,uint256)": "335",
						"tambah(uint256,uint256,uint256)": "348"
					}
				},
				"methodIdentifiers": {
					"tambah(uint256,uint256)": "f604bf57",
					"tambah(uint256,uint256,uint256)": "6a3e66b9"
				}
			},
			"storageLayout": {
				"storage": [],
				"types": null
			},
			"userdoc": {
				"kind": "user",
				"methods": {},
				"version": 1
			}
		}
	}
}