{
	"contracts/VariableTypes.sol": {
		"VariableTypes": {
			"abi": [
				{
					"inputs": [],
					"name": "getHasil",
					"outputs": [
						{
							"internalType": "uint256",
							"name": "",
							"type": "uint256"
						}
					],
					"stateMutability": "view",
					"type": "function"
				},
				{
					"inputs": [
						{
							"internalType": "uint256",
							"name": "num1",
							"type": "uint256"
						},
						{
							"internalType": "uint256",
							"name": "num2",
							"type": "uint256"
						}
					],
					"name": "tambah",
					"outputs": [],
					"stateMutability": "nonpayable",
					"type": "function"
				}
			],
			"devdoc": {
				"kind": "dev",
				"methods": {},
				"version": 1
			},
			"evm": {
				"assembly": "    /* \"contracts/VariableTypes.sol\":64:356  contract VariableTypes {... */\n  mstore(0x40, 0x80)\n  callvalue\n  dup1\n  iszero\n  tag_1\n  jumpi\n  0x00\n  dup1\n  revert\ntag_1:\n  pop\n  dataSize(sub_0)\n  dup1\n  dataOffset(sub_0)\n  0x00\n  codecopy\n  0x00\n  return\nstop\n\nsub_0: assembly {\n        /* \"contracts/VariableTypes.sol\":64:356  contract VariableTypes {... */\n      mstore(0x40, 0x80)\n      callvalue\n      dup1\n      iszero\n      tag_1\n      jumpi\n      0x00\n      dup1\n      revert\n    tag_1:\n      pop\n      jumpi(tag_2, lt(calldatasize, 0x04))\n      shr(0xe0, calldataload(0x00))\n      dup1\n      0xf06bf1d2\n      eq\n      tag_3\n      jumpi\n      dup1\n      0xf604bf57\n      eq\n      tag_4\n      jumpi\n    tag_2:\n      0x00\n      dup1\n      revert\n        /* \"contracts/VariableTypes.sol\":281:352  function getHasil()public view returns(uint){... */\n    tag_3:\n      tag_5\n      tag_6\n      jump\t// in\n    tag_5:\n      mload(0x40)\n      tag_7\n      swap2\n      swap1\n      tag_8\n      jump\t// in\n    tag_7:\n      mload(0x40)\n      dup1\n      swap2\n      sub\n      swap1\n      return\n        /* \"contracts/VariableTypes.sol\":150:275  function tambah(uint num1, uint num2)  public {... */\n    tag_4:\n      tag_9\n      0x04\n      dup1\n      calldatasize\n      sub\n      dup2\n      add\n      swap1\n      tag_10\n      swap2\n      swap1\n      tag_11\n      jump\t// in\n    tag_10:\n      tag_12\n      jump\t// in\n    tag_9:\n      stop\n        /* \"contracts/VariableTypes.sol\":281:352  function getHasil()public view returns(uint){... */\n    tag_6:\n        /* \"contracts/VariableTypes.sol\":320:324  uint */\n      0x00\n        /* \"contracts/VariableTypes.sol\":342:345  sum */\n      dup1\n      sload\n        /* \"contracts/VariableTypes.sol\":335:345  return sum */\n      swap1\n      pop\n        /* \"contracts/VariableTypes.sol\":281:352  function getHasil()public view returns(uint){... */\n      swap1\n      jump\t// out\n        /* \"contracts/VariableTypes.sol\":150:275  function tambah(uint num1, uint num2)  public {... */\n    tag_12:\n        /* \"contracts/VariableTypes.sol\":222:231  uint temp */\n      0x00\n        /* \"contracts/VariableTypes.sol\":241:245  num2 */\n      dup2\n        /* \"contracts/VariableTypes.sol\":234:238  num1 */\n      dup4\n        /* \"contracts/VariableTypes.sol\":234:245  num1 + num2 */\n      tag_15\n      swap2\n      swap1\n      tag_16\n      jump\t// in\n    tag_15:\n        /* \"contracts/VariableTypes.sol\":222:245  uint temp = num1 + num2 */\n      swap1\n      pop\n        /* \"contracts/VariableTypes.sol\":262:266  temp */\n      dup1\n        /* \"contracts/VariableTypes.sol\":256:259  sum */\n      0x00\n        /* \"contracts/VariableTypes.sol\":256:266  sum = temp */\n      dup2\n      swap1\n      sstore\n      pop\n        /* \"contracts/VariableTypes.sol\":150:275  function tambah(uint num1, uint num2)  public {... */\n      pop\n      pop\n      pop\n      jump\t// out\n        /* \"#utility.yul\":7:146   */\n    tag_18:\n      0x00\n        /* \"#utility.yul\":91:97   */\n      dup2\n        /* \"#utility.yul\":78:98   */\n      calldataload\n        /* \"#utility.yul\":69:98   */\n      swap1\n      pop\n        /* \"#utility.yul\":107:140   */\n      tag_20\n        /* \"#utility.yul\":134:139   */\n      dup2\n        /* \"#utility.yul\":107:140   */\n      tag_21\n      jump\t// in\n    tag_20:\n        /* \"#utility.yul\":59:146   */\n      swap3\n      swap2\n      pop\n      pop\n      jump\t// out\n        /* \"#utility.yul\":152:559   */\n    tag_11:\n      0x00\n      dup1\n        /* \"#utility.yul\":277:279   */\n      0x40\n        /* \"#utility.yul\":265:274   */\n      dup4\n        /* \"#utility.yul\":256:263   */\n      dup6\n        /* \"#utility.yul\":252:275   */\n      sub\n        /* \"#utility.yul\":248:280   */\n      slt\n        /* \"#utility.yul\":245:247   */\n      iszero\n      tag_23\n      jumpi\n        /* \"#utility.yul\":293:294   */\n      0x00\n        /* \"#utility.yul\":290:291   */\n      dup1\n        /* \"#utility.yul\":283:295   */\n      revert\n        /* \"#utility.yul\":245:247   */\n    tag_23:\n        /* \"#utility.yul\":336:337   */\n      0x00\n        /* \"#utility.yul\":361:414   */\n      tag_24\n        /* \"#utility.yul\":406:413   */\n      dup6\n        /* \"#utility.yul\":397:403   */\n      dup3\n        /* \"#utility.yul\":386:395   */\n      dup7\n        /* \"#utility.yul\":382:404   */\n      add\n        /* \"#utility.yul\":361:414   */\n      tag_18\n      jump\t// in\n    tag_24:\n        /* \"#utility.yul\":351:414   */\n      swap3\n      pop\n        /* \"#utility.yul\":307:424   */\n      pop\n        /* \"#utility.yul\":463:465   */\n      0x20\n        /* \"#utility.yul\":489:542   */\n      tag_25\n        /* \"#utility.yul\":534:541   */\n      dup6\n        /* \"#utility.yul\":525:531   */\n      dup3\n        /* \"#utility.yul\":514:523   */\n      dup7\n        /* \"#utility.yul\":510:532   */\n      add\n        /* \"#utility.yul\":489:542   */\n      tag_18\n      jump\t// in\n    tag_25:\n        /* \"#utility.yul\":479:542   */\n      swap2\n      pop\n        /* \"#utility.yul\":434:552   */\n      pop\n        /* \"#utility.yul\":235:559   */\n      swap3\n      pop\n      swap3\n      swap1\n      pop\n      jump\t// out\n        /* \"#utility.yul\":565:683   */\n    tag_26:\n        /* \"#utility.yul\":652:676   */\n      tag_28\n        /* \"#utility.yul\":670:675   */\n      dup2\n        /* \"#utility.yul\":652:676   */\n      tag_29\n      jump\t// in\n    tag_28:\n        /* \"#utility.yul\":647:650   */\n      dup3\n        /* \"#utility.yul\":640:677   */\n      mstore\n        /* \"#utility.yul\":630:683   */\n      pop\n      pop\n      jump\t// out\n        /* \"#utility.yul\":689:911   */\n    tag_8:\n      0x00\n        /* \"#utility.yul\":820:822   */\n      0x20\n        /* \"#utility.yul\":809:818   */\n      dup3\n        /* \"#utility.yul\":805:823   */\n      add\n        /* \"#utility.yul\":797:823   */\n      swap1\n      pop\n        /* \"#utility.yul\":833:904   */\n      tag_31\n        /* \"#utility.yul\":901:902   */\n      0x00\n        /* \"#utility.yul\":890:899   */\n      dup4\n        /* \"#utility.yul\":886:903   */\n      add\n        /* \"#utility.yul\":877:883   */\n      dup5\n        /* \"#utility.yul\":833:904   */\n      tag_26\n      jump\t// in\n    tag_31:\n        /* \"#utility.yul\":787:911   */\n      swap3\n      swap2\n      pop\n      pop\n      jump\t// out\n        /* \"#utility.yul\":917:1222   */\n    tag_16:\n      0x00\n        /* \"#utility.yul\":976:996   */\n      tag_33\n        /* \"#utility.yul\":994:995   */\n      dup3\n        /* \"#utility.yul\":976:996   */\n      tag_29\n      jump\t// in\n    tag_33:\n        /* \"#utility.yul\":971:996   */\n      swap2\n      pop\n        /* \"#utility.yul\":1010:1030   */\n      tag_34\n        /* \"#utility.yul\":1028:1029   */\n      dup4\n        /* \"#utility.yul\":1010:1030   */\n      tag_29\n      jump\t// in\n    tag_34:\n        /* \"#utility.yul\":1005:1030   */\n      swap3\n      pop\n        /* \"#utility.yul\":1164:1165   */\n      dup3\n        /* \"#utility.yul\":1096:1162   */\n      0xffffffffffffffffffffffffffffffffffffffffffffffffffffffffffffffff\n        /* \"#utility.yul\":1092:1166   */\n      sub\n        /* \"#utility.yul\":1089:1090   */\n      dup3\n        /* \"#utility.yul\":1086:1167   */\n      gt\n        /* \"#utility.yul\":1083:1085   */\n      iszero\n      tag_35\n      jumpi\n        /* \"#utility.yul\":1170:1188   */\n      tag_36\n      tag_37\n      jump\t// in\n    tag_36:\n        /* \"#utility.yul\":1083:1085   */\n    tag_35:\n        /* \"#utility.yul\":1214:1215   */\n      dup3\n        /* \"#utility.yul\":1211:1212   */\n      dup3\n        /* \"#utility.yul\":1207:1216   */\n      add\n        /* \"#utility.yul\":1200:1216   */\n      swap1\n      pop\n        /* \"#utility.yul\":961:1222   */\n      swap3\n      swap2\n      pop\n      pop\n      jump\t// out\n        /* \"#utility.yul\":1228:1305   */\n    tag_29:\n      0x00\n        /* \"#utility.yul\":1294:1299   */\n      dup2\n        /* \"#utility.yul\":1283:1299   */\n      swap1\n      pop\n        /* \"#utility.yul\":1273:1305   */\n      swap2\n      swap1\n      pop\n      jump\t// out\n        /* \"#utility.yul\":1311:1491   */\n    tag_37:\n        /* \"#utility.yul\":1359:1436   */\n      0x4e487b7100000000000000000000000000000000000000000000000000000000\n        /* \"#utility.yul\":1356:1357   */\n      0x00\n        /* \"#utility.yul\":1349:1437   */\n      mstore\n        /* \"#utility.yul\":1456:1460   */\n      0x11\n        /* \"#utility.yul\":1453:1454   */\n      0x04\n        /* \"#utility.yul\":1446:1461   */\n      mstore\n        /* \"#utility.yul\":1480:1484   */\n      0x24\n        /* \"#utility.yul\":1477:1478   */\n      0x00\n        /* \"#utility.yul\":1470:1485   */\n      revert\n        /* \"#utility.yul\":1497:1619   */\n    tag_21:\n        /* \"#utility.yul\":1570:1594   */\n      tag_41\n        /* \"#utility.yul\":1588:1593   */\n      dup2\n        /* \"#utility.yul\":1570:1594   */\n      tag_29\n      jump\t// in\n    tag_41:\n        /* \"#utility.yul\":1563:1568   */\n      dup2\n        /* \"#utility.yul\":1560:1595   */\n      eq\n        /* \"#utility.yul\":1550:1552   */\n      tag_42\n      jumpi\n        /* \"#utility.yul\":1609:1610   */\n      0x00\n        /* \"#utility.yul\":1606:1607   */\n      dup1\n        /* \"#utility.yul\":1599:1611   */\n      revert\n        /* \"#utility.yul\":1550:1552   */\n    tag_42:\n        /* \"#utility.yul\":1540:1619   */\n      pop\n      jump\t// out\n\n    auxdata: 0xa2646970667358221220ff4881aa55a34474ccb144e517ce2acfff1a7f328d9681d09fd053a1389272b264736f6c63430008030033\n}\n",
				"bytecode": {
					"linkReferences": {},
					"object": "608060405234801561001057600080fd5b506101f1806100206000396000f3fe608060405234801561001057600080fd5b50600436106100365760003560e01c8063f06bf1d21461003b578063f604bf5714610059575b600080fd5b610043610075565b60405161005091906100fa565b60405180910390f35b610073600480360381019061006e91906100af565b61007e565b005b60008054905090565b6000818361008c9190610115565b905080600081905550505050565b6000813590506100a9816101a4565b92915050565b600080604083850312156100c257600080fd5b60006100d08582860161009a565b92505060206100e18582860161009a565b9150509250929050565b6100f48161016b565b82525050565b600060208201905061010f60008301846100eb565b92915050565b60006101208261016b565b915061012b8361016b565b9250827fffffffffffffffffffffffffffffffffffffffffffffffffffffffffffffffff038211156101605761015f610175565b5b828201905092915050565b6000819050919050565b7f4e487b7100000000000000000000000000000000000000000000000000000000600052601160045260246000fd5b6101ad8161016b565b81146101b857600080fd5b5056fea2646970667358221220ff4881aa55a34474ccb144e517ce2acfff1a7f328d9681d09fd053a1389272b264736f6c63430008030033",
					"opcodes": "PUSH1 0x80 PUSH1 0x40 MSTORE CALLVALUE DUP1 ISZERO PUSH2 0x10 JUMPI PUSH1 0x0 DUP1 REVERT JUMPDEST POP PUSH2 0x1F1 DUP1 PUSH2 0x20 PUSH1 0x0 CODECOPY PUSH1 0x0 RETURN INVALID PUSH1 0x80 PUSH1 0x40 MSTORE CALLVALUE DUP1 ISZERO PUSH2 0x10 JUMPI PUSH1 0x0 DUP1 REVERT JUMPDEST POP PUSH1 0x4 CALLDATASIZE LT PUSH2 0x36 JUMPI PUSH1 0x0 CALLDATALOAD PUSH1 0xE0 SHR DUP1 PUSH4 0xF06BF1D2 EQ PUSH2 0x3B JUMPI DUP1 PUSH4 0xF604BF57 EQ PUSH2 0x59 JUMPI JUMPDEST PUSH1 0x0 DUP1 REVERT JUMPDEST PUSH2 0x43 PUSH2 0x75 JUMP JUMPDEST PUSH1 0x40 MLOAD PUSH2 0x50 SWAP2 SWAP1 PUSH2 0xFA JUMP JUMPDEST PUSH1 0x40 MLOAD DUP1 SWAP2 SUB SWAP1 RETURN JUMPDEST PUSH2 0x73 PUSH1 0x4 DUP1 CALLDATASIZE SUB DUP2 ADD SWAP1 PUSH2 0x6E SWAP2 SWAP1 PUSH2 0xAF JUMP JUMPDEST PUSH2 0x7E JUMP JUMPDEST STOP JUMPDEST PUSH1 0x0 DUP1 SLOAD SWAP1 POP SWAP1 JUMP JUMPDEST PUSH1 0x0 DUP2 DUP4 PUSH2 0x8C SWAP2 SWAP1 PUSH2 0x115 JUMP JUMPDEST SWAP1 POP DUP1 PUSH1 0x0 DUP2 SWAP1 SSTORE POP POP POP POP JUMP JUMPDEST PUSH1 0x0 DUP2 CALLDATALOAD SWAP1 POP PUSH2 0xA9 DUP2 PUSH2 0x1A4 JUMP JUMPDEST SWAP3 SWAP2 POP POP JUMP JUMPDEST PUSH1 0x0 DUP1 PUSH1 0x40 DUP4 DUP6 SUB SLT ISZERO PUSH2 0xC2 JUMPI PUSH1 0x0 DUP1 REVERT JUMPDEST PUSH1 0x0 PUSH2 0xD0 DUP6 DUP3 DUP7 ADD PUSH2 0x9A JUMP JUMPDEST SWAP3 POP POP PUSH1 0x20 PUSH2 0xE1 DUP6 DUP3 DUP7 ADD PUSH2 0x9A JUMP JUMPDEST SWAP2 POP POP SWAP3 POP SWAP3 SWAP1 POP JUMP JUMPDEST PUSH2 0xF4 DUP2 PUSH2 0x16B JUMP JUMPDEST DUP3 MSTORE POP POP JUMP JUMPDEST PUSH1 0x0 PUSH1 0x20 DUP3 ADD SWAP1 POP PUSH2 0x10F PUSH1 0x0 DUP4 ADD DUP5 PUSH2 0xEB JUMP JUMPDEST SWAP3 SWAP2 POP POP JUMP JUMPDEST PUSH1 0x0 PUSH2 0x120 DUP3 PUSH2 0x16B JUMP JUMPDEST SWAP2 POP PUSH2 0x12B DUP4 PUSH2 0x16B JUMP JUMPDEST SWAP3 POP DUP3 PUSH32 0xFFFFFFFFFFFFFFFFFFFFFFFFFFFFFFFFFFFFFFFFFFFFFFFFFFFFFFFFFFFFFFFF SUB DUP3 GT ISZERO PUSH2 0x160 JUMPI PUSH2 0x15F PUSH2 0x175 JUMP JUMPDEST JUMPDEST DUP3 DUP3 ADD SWAP1 POP SWAP3 SWAP2 POP POP JUMP JUMPDEST PUSH1 0x0 DUP2 SWAP1 POP SWAP2 SWAP1 POP JUMP JUMPDEST PUSH32 0x4E487B7100000000000000000000000000000000000000000000000000000000 PUSH1 0x0 MSTORE PUSH1 0x11 PUSH1 0x4 MSTORE PUSH1 0x24 PUSH1 0x0 REVERT JUMPDEST PUSH2 0x1AD DUP2 PUSH2 0x16B JUMP JUMPDEST DUP2 EQ PUSH2 0x1B8 JUMPI PUSH1 0x0 DUP1 REVERT JUMPDEST POP JUMP INVALID LOG2 PUSH5 0x6970667358 0x22 SLT KECCAK256 SELFDESTRUCT 0x48 DUP2 0xAA SSTORE LOG3 DIFFICULTY PUSH21 0xCCB144E517CE2ACFFF1A7F328D9681D09FD053A138 SWAP3 PUSH19 0xB264736F6C6343000803003300000000000000 "
				},
				"gasEstimates": {
					"creation": {
						"codeDepositCost": "99400",
						"executionCost": "147",
						"totalCost": "99547"
					},
					"external": {
						"getHasil()": "1115",
						"tambah(uint256,uint256)": "infinite"
					}
				},
				"methodIdentifiers": {
					"getHasil()": "f06bf1d2",
					"tambah(uint256,uint256)": "f604bf57"
				}
			},
			"storageLayout": {
				"storage": [
					{
						"astId": 3,
						"contract": "contracts/VariableTypes.sol:VariableTypes",
						"label": "sum",
						"offset": 0,
						"slot": "0",
						"type": "t_uint256"
					}
				],
				"types": {
					"t_uint256": {
						"encoding": "inplace",
						"label": "uint256",
						"numberOfBytes": "32"
					}
				}
			},
			"userdoc": {
				"kind": "user",
				"methods": {},
				"version": 1
			}
		}
	}
}