{
	"contracts/VariableTypes.sol": {
		"EnumSaya": {
			"abi": [
				{
					"inputs": [],
					"name": "getEnum",
					"outputs": [
						{
							"internalType": "enum EnumSaya.Jobs",
							"name": "",
							"type": "uint8"
						}
					],
					"stateMutability": "pure",
					"type": "function"
				}
			],
			"devdoc": {
				"kind": "dev",
				"methods": {},
				"version": 1
			},
			"evm": {
				"assembly": "    /* \"contracts/VariableTypes.sol\":724:953  contract EnumSaya {... */\n  mstore(0x40, 0x80)\n  callvalue\n  dup1\n  iszero\n  tag_1\n  jumpi\n  0x00\n  dup1\n  revert\ntag_1:\n  pop\n  dataSize(sub_0)\n  dup1\n  dataOffset(sub_0)\n  0x00\n  codecopy\n  0x00\n  return\nstop\n\nsub_0: assembly {\n        /* \"contracts/VariableTypes.sol\":724:953  contract EnumSaya {... */\n      mstore(0x40, 0x80)\n      callvalue\n      dup1\n      iszero\n      tag_1\n      jumpi\n      0x00\n      dup1\n      revert\n    tag_1:\n      pop\n      jumpi(tag_2, lt(calldatasize, 0x04))\n      shr(0xe0, calldataload(0x00))\n      dup1\n      0xf0ebce5a\n      eq\n      tag_3\n      jumpi\n    tag_2:\n      0x00\n      dup1\n      revert\n        /* \"contracts/VariableTypes.sol\":868:951  function getEnum() public pure returns (Jobs){... */\n    tag_3:\n      tag_4\n      tag_5\n      jump\t// in\n    tag_4:\n      mload(0x40)\n      tag_6\n      swap2\n      swap1\n      tag_7\n      jump\t// in\n    tag_6:\n      mload(0x40)\n      dup1\n      swap2\n      sub\n      swap1\n      return\n    tag_5:\n        /* \"contracts/VariableTypes.sol\":908:912  Jobs */\n      0x00\n        /* \"contracts/VariableTypes.sol\":930:944  Jobs.DataEntry */\n      0x09\n        /* \"contracts/VariableTypes.sol\":923:944  return Jobs.DataEntry */\n      swap1\n      pop\n        /* \"contracts/VariableTypes.sol\":868:951  function getEnum() public pure returns (Jobs){... */\n      swap1\n      jump\t// out\n        /* \"#utility.yul\":7:148   */\n    tag_10:\n        /* \"#utility.yul\":99:141   */\n      tag_12\n        /* \"#utility.yul\":135:140   */\n      dup2\n        /* \"#utility.yul\":99:141   */\n      tag_13\n      jump\t// in\n    tag_12:\n        /* \"#utility.yul\":94:97   */\n      dup3\n        /* \"#utility.yul\":87:142   */\n      mstore\n        /* \"#utility.yul\":77:148   */\n      pop\n      pop\n      jump\t// out\n        /* \"#utility.yul\":154:386   */\n    tag_7:\n      0x00\n        /* \"#utility.yul\":290:292   */\n      0x20\n        /* \"#utility.yul\":279:288   */\n      dup3\n        /* \"#utility.yul\":275:293   */\n      add\n        /* \"#utility.yul\":267:293   */\n      swap1\n      pop\n        /* \"#utility.yul\":303:379   */\n      tag_15\n        /* \"#utility.yul\":376:377   */\n      0x00\n        /* \"#utility.yul\":365:374   */\n      dup4\n        /* \"#utility.yul\":361:378   */\n      add\n        /* \"#utility.yul\":352:358   */\n      dup5\n        /* \"#utility.yul\":303:379   */\n      tag_10\n      jump\t// in\n    tag_15:\n        /* \"#utility.yul\":257:386   */\n      swap3\n      swap2\n      pop\n      pop\n      jump\t// out\n        /* \"#utility.yul\":392:517   */\n    tag_16:\n      0x00\n        /* \"#utility.yul\":465:470   */\n      dup2\n        /* \"#utility.yul\":454:470   */\n      swap1\n      pop\n        /* \"#utility.yul\":471:511   */\n      tag_18\n        /* \"#utility.yul\":505:510   */\n      dup3\n        /* \"#utility.yul\":471:511   */\n      tag_19\n      jump\t// in\n    tag_18:\n        /* \"#utility.yul\":444:517   */\n      swap2\n      swap1\n      pop\n      jump\t// out\n        /* \"#utility.yul\":523:648   */\n    tag_13:\n      0x00\n        /* \"#utility.yul\":611:642   */\n      tag_21\n        /* \"#utility.yul\":636:641   */\n      dup3\n        /* \"#utility.yul\":611:642   */\n      tag_16\n      jump\t// in\n    tag_21:\n        /* \"#utility.yul\":598:642   */\n      swap1\n      pop\n        /* \"#utility.yul\":588:648   */\n      swap2\n      swap1\n      pop\n      jump\t// out\n        /* \"#utility.yul\":654:834   */\n    tag_22:\n        /* \"#utility.yul\":702:779   */\n      0x4e487b7100000000000000000000000000000000000000000000000000000000\n        /* \"#utility.yul\":699:700   */\n      0x00\n        /* \"#utility.yul\":692:780   */\n      mstore\n        /* \"#utility.yul\":799:803   */\n      0x21\n        /* \"#utility.yul\":796:797   */\n      0x04\n        /* \"#utility.yul\":789:804   */\n      mstore\n        /* \"#utility.yul\":823:827   */\n      0x24\n        /* \"#utility.yul\":820:821   */\n      0x00\n        /* \"#utility.yul\":813:828   */\n      revert\n        /* \"#utility.yul\":840:953   */\n    tag_19:\n        /* \"#utility.yul\":920:922   */\n      0x0a\n        /* \"#utility.yul\":913:918   */\n      dup2\n        /* \"#utility.yul\":910:923   */\n      lt\n        /* \"#utility.yul\":900:902   */\n      tag_25\n      jumpi\n        /* \"#utility.yul\":927:945   */\n      tag_26\n      tag_22\n      jump\t// in\n    tag_26:\n        /* \"#utility.yul\":900:902   */\n    tag_25:\n        /* \"#utility.yul\":890:953   */\n      pop\n      jump\t// out\n\n    auxdata: 0xa2646970667358221220ea632b186e623b56407f7d3b06d245c06cc3e89b0a5a7e531d4505c0bf48cc8464736f6c63430008030033\n}\n",
				"bytecode": {
					"linkReferences": {},
					"object": "608060405234801561001057600080fd5b5061010d806100206000396000f3fe6080604052348015600f57600080fd5b506004361060285760003560e01c8063f0ebce5a14602d575b600080fd5b60336047565b604051603e9190605d565b60405180910390f35b60006009905090565b6057816087565b82525050565b6000602082019050607060008301846050565b92915050565b600081905060828260c6565b919050565b60006090826076565b9050919050565b7f4e487b7100000000000000000000000000000000000000000000000000000000600052602160045260246000fd5b600a811060d45760d36097565b5b5056fea2646970667358221220ea632b186e623b56407f7d3b06d245c06cc3e89b0a5a7e531d4505c0bf48cc8464736f6c63430008030033",
					"opcodes": "PUSH1 0x80 PUSH1 0x40 MSTORE CALLVALUE DUP1 ISZERO PUSH2 0x10 JUMPI PUSH1 0x0 DUP1 REVERT JUMPDEST POP PUSH2 0x10D DUP1 PUSH2 0x20 PUSH1 0x0 CODECOPY PUSH1 0x0 RETURN INVALID PUSH1 0x80 PUSH1 0x40 MSTORE CALLVALUE DUP1 ISZERO PUSH1 0xF JUMPI PUSH1 0x0 DUP1 REVERT JUMPDEST POP PUSH1 0x4 CALLDATASIZE LT PUSH1 0x28 JUMPI PUSH1 0x0 CALLDATALOAD PUSH1 0xE0 SHR DUP1 PUSH4 0xF0EBCE5A EQ PUSH1 0x2D JUMPI JUMPDEST PUSH1 0x0 DUP1 REVERT JUMPDEST PUSH1 0x33 PUSH1 0x47 JUMP JUMPDEST PUSH1 0x40 MLOAD PUSH1 0x3E SWAP2 SWAP1 PUSH1 0x5D JUMP JUMPDEST PUSH1 0x40 MLOAD DUP1 SWAP2 SUB SWAP1 RETURN JUMPDEST PUSH1 0x0 PUSH1 0x9 SWAP1 POP SWAP1 JUMP JUMPDEST PUSH1 0x57 DUP2 PUSH1 0x87 JUMP JUMPDEST DUP3 MSTORE POP POP JUMP JUMPDEST PUSH1 0x0 PUSH1 0x20 DUP3 ADD SWAP1 POP PUSH1 0x70 PUSH1 0x0 DUP4 ADD DUP5 PUSH1 0x50 JUMP JUMPDEST SWAP3 SWAP2 POP POP JUMP JUMPDEST PUSH1 0x0 DUP2 SWAP1 POP PUSH1 0x82 DUP3 PUSH1 0xC6 JUMP JUMPDEST SWAP2 SWAP1 POP JUMP JUMPDEST PUSH1 0x0 PUSH1 0x90 DUP3 PUSH1 0x76 JUMP JUMPDEST SWAP1 POP SWAP2 SWAP1 POP JUMP JUMPDEST PUSH32 0x4E487B7100000000000000000000000000000000000000000000000000000000 PUSH1 0x0 MSTORE PUSH1 0x21 PUSH1 0x4 MSTORE PUSH1 0x24 PUSH1 0x0 REVERT JUMPDEST PUSH1 0xA DUP2 LT PUSH1 0xD4 JUMPI PUSH1 0xD3 PUSH1 0x97 JUMP JUMPDEST JUMPDEST POP JUMP INVALID LOG2 PUSH5 0x6970667358 0x22 SLT KECCAK256 0xEA PUSH4 0x2B186E62 EXTCODESIZE JUMP BLOCKHASH PUSH32 0x7D3B06D245C06CC3E89B0A5A7E531D4505C0BF48CC8464736F6C634300080300 CALLER "
				},
				"gasEstimates": {
					"creation": {
						"codeDepositCost": "53800",
						"executionCost": "105",
						"totalCost": "53905"
					},
					"external": {
						"getEnum()": "410"
					}
				},
				"methodIdentifiers": {
					"getEnum()": "f0ebce5a"
				}
			},
			"storageLayout": {
				"storage": [],
				"types": null
			},
			"userdoc": {
				"kind": "user",
				"methods": {},
				"version": 1
			}
		}
	}
}