{
	"contracts/VariableTypes.sol": {
		"Types": {
			"abi": [
				{
					"inputs": [],
					"name": "angkaku",
					"outputs": [
						{
							"internalType": "int32",
							"name": "",
							"type": "int32"
						}
					],
					"stateMutability": "view",
					"type": "function"
				},
				{
					"inputs": [],
					"name": "angkamu",
					"outputs": [
						{
							"internalType": "uint256",
							"name": "",
							"type": "uint256"
						}
					],
					"stateMutability": "view",
					"type": "function"
				},
				{
					"inputs": [],
					"name": "huruf",
					"outputs": [
						{
							"internalType": "bytes1",
							"name": "",
							"type": "bytes1"
						}
					],
					"stateMutability": "view",
					"type": "function"
				},
				{
					"inputs": [],
					"name": "kalimat",
					"outputs": [
						{
							"internalType": "string",
							"name": "",
							"type": "string"
						}
					],
					"stateMutability": "view",
					"type": "function"
				},
				{
					"inputs": [],
					"name": "tambah",
					"outputs": [],
					"stateMutability": "nonpayable",
					"type": "function"
				},
				{
					"inputs": [],
					"name": "ui_data",
					"outputs": [
						{
							"internalType": "uint32",
							"name": "",
							"type": "uint32"
						}
					],
					"stateMutability": "view",
					"type": "function"
				},
				{
					"inputs": [],
					"name": "valid",
					"outputs": [
						{
							"internalType": "bool",
							"name": "",
							"type": "bool"
						}
					],
					"stateMutability": "view",
					"type": "function"
				}
			],
			"devdoc": {
				"kind": "dev",
				"methods": {},
				"version": 1
			},
			"evm": {
				"assembly": "    /* \"contracts/VariableTypes.sol\":358:722  contract Types { ... */\n  mstore(0x40, 0x80)\n    /* \"contracts/VariableTypes.sol\":400:404  true */\n  0x01\n    /* \"contracts/VariableTypes.sol\":380:404  bool public valid = true */\n  0x00\n  dup1\n  0x0100\n  exp\n  dup2\n  sload\n  dup2\n  0xff\n  mul\n  not\n  and\n  swap1\n  dup4\n  iszero\n  iszero\n  mul\n  or\n  swap1\n  sstore\n  pop\n    /* \"contracts/VariableTypes.sol\":434:437  -32 */\n  0xffffffffffffffffffffffffffffffffffffffffffffffffffffffffffffffe0\n    /* \"contracts/VariableTypes.sol\":411:437  int32 public angkaku = -32 */\n  0x00\n  exp(0x0100, 0x01)\n  dup2\n  sload\n  dup2\n  0xffffffff\n  mul\n  not\n  and\n  swap1\n  dup4\n  0x03\n  signextend\n  0xffffffff\n  and\n  mul\n  or\n  swap1\n  sstore\n  pop\n    /* \"contracts/VariableTypes.sol\":465:466  1 */\n  0x01\n    /* \"contracts/VariableTypes.sol\":443:466  uint public angkamu = 1 */\n  dup1\n  sstore\n    /* \"contracts/VariableTypes.sol\":497:507  15_02_2025 */\n  0xe537c9\n    /* \"contracts/VariableTypes.sol\":473:507  uint32 public ui_data = 15_02_2025 */\n  0x02\n  exp(0x0100, 0x00)\n  dup2\n  sload\n  dup2\n  0xffffffff\n  mul\n  not\n  and\n  swap1\n  dup4\n  0xffffffff\n  and\n  mul\n  or\n  swap1\n  sstore\n  pop\n    /* \"contracts/VariableTypes.sol\":613:638  bytes1 public huruf = \"A\" */\n  0x4100000000000000000000000000000000000000000000000000000000000000\n  0x02\n  exp(0x0100, 0x05)\n  dup2\n  sload\n  dup2\n  0xff\n  mul\n  not\n  and\n  swap1\n  dup4\n  0xf8\n  shr\n  mul\n  or\n  swap1\n  sstore\n  pop\n    /* \"contracts/VariableTypes.sol\":659:717  string public kalimat = \"ini adalah kalimat dengan string\" */\n  mload(0x40)\n  dup1\n  0x40\n  add\n  0x40\n  mstore\n  dup1\n  0x20\n  dup2\n  mstore\n  0x20\n  add\n  0x696e69206164616c6168206b616c696d61742064656e67616e20737472696e67\n  dup2\n  mstore\n  pop\n  0x03\n  swap1\n  dup1\n  mload\n  swap1\n  0x20\n  add\n  swap1\n  tag_1\n  swap3\n  swap2\n  swap1\n  tag_2\n  jump\t// in\ntag_1:\n  pop\n    /* \"contracts/VariableTypes.sol\":358:722  contract Types { ... */\n  callvalue\n  dup1\n  iszero\n  tag_3\n  jumpi\n  0x00\n  dup1\n  revert\ntag_3:\n  pop\n  jump(tag_4)\ntag_2:\n  dup3\n  dup1\n  sload\n  tag_5\n  swap1\n  tag_6\n  jump\t// in\ntag_5:\n  swap1\n  0x00\n  mstore\n  keccak256(0x00, 0x20)\n  swap1\n  0x1f\n  add\n  0x20\n  swap1\n  div\n  dup2\n  add\n  swap3\n  dup3\n  tag_8\n  jumpi\n  0x00\n  dup6\n  sstore\n  jump(tag_7)\ntag_8:\n  dup3\n  0x1f\n  lt\n  tag_9\n  jumpi\n  dup1\n  mload\n  not(0xff)\n  and\n  dup4\n  dup1\n  add\n  or\n  dup6\n  sstore\n  jump(tag_7)\ntag_9:\n  dup3\n  dup1\n  add\n  0x01\n  add\n  dup6\n  sstore\n  dup3\n  iszero\n  tag_7\n  jumpi\n  swap2\n  dup3\n  add\ntag_10:\n  dup3\n  dup2\n  gt\n  iszero\n  tag_11\n  jumpi\n  dup3\n  mload\n  dup3\n  sstore\n  swap2\n  0x20\n  add\n  swap2\n  swap1\n  0x01\n  add\n  swap1\n  jump(tag_10)\ntag_11:\ntag_7:\n  pop\n  swap1\n  pop\n  tag_12\n  swap2\n  swap1\n  tag_13\n  jump\t// in\ntag_12:\n  pop\n  swap1\n  jump\t// out\ntag_13:\ntag_14:\n  dup1\n  dup3\n  gt\n  iszero\n  tag_15\n  jumpi\n  0x00\n  dup2\n  0x00\n  swap1\n  sstore\n  pop\n  0x01\n  add\n  jump(tag_14)\ntag_15:\n  pop\n  swap1\n  jump\t// out\n    /* \"#utility.yul\":7:327   */\ntag_6:\n  0x00\n    /* \"#utility.yul\":88:89   */\n  0x02\n    /* \"#utility.yul\":82:86   */\n  dup3\n    /* \"#utility.yul\":78:90   */\n  div\n    /* \"#utility.yul\":68:90   */\n  swap1\n  pop\n    /* \"#utility.yul\":135:136   */\n  0x01\n    /* \"#utility.yul\":129:133   */\n  dup3\n    /* \"#utility.yul\":125:137   */\n  and\n    /* \"#utility.yul\":156:174   */\n  dup1\n    /* \"#utility.yul\":146:148   */\n  tag_18\n  jumpi\n    /* \"#utility.yul\":212:216   */\n  0x7f\n    /* \"#utility.yul\":204:210   */\n  dup3\n    /* \"#utility.yul\":200:217   */\n  and\n    /* \"#utility.yul\":190:217   */\n  swap2\n  pop\n    /* \"#utility.yul\":146:148   */\ntag_18:\n    /* \"#utility.yul\":274:276   */\n  0x20\n    /* \"#utility.yul\":266:272   */\n  dup3\n    /* \"#utility.yul\":263:277   */\n  lt\n    /* \"#utility.yul\":243:261   */\n  dup2\n    /* \"#utility.yul\":240:278   */\n  eq\n    /* \"#utility.yul\":237:239   */\n  iszero\n  tag_19\n  jumpi\n    /* \"#utility.yul\":293:311   */\n  tag_20\n  tag_21\n  jump\t// in\ntag_20:\n    /* \"#utility.yul\":237:239   */\ntag_19:\n    /* \"#utility.yul\":58:327   */\n  pop\n  swap2\n  swap1\n  pop\n  jump\t// out\n    /* \"#utility.yul\":333:513   */\ntag_21:\n    /* \"#utility.yul\":381:458   */\n  0x4e487b7100000000000000000000000000000000000000000000000000000000\n    /* \"#utility.yul\":378:379   */\n  0x00\n    /* \"#utility.yul\":371:459   */\n  mstore\n    /* \"#utility.yul\":478:482   */\n  0x22\n    /* \"#utility.yul\":475:476   */\n  0x04\n    /* \"#utility.yul\":468:483   */\n  mstore\n    /* \"#utility.yul\":502:506   */\n  0x24\n    /* \"#utility.yul\":499:500   */\n  0x00\n    /* \"#utility.yul\":492:507   */\n  revert\n    /* \"contracts/VariableTypes.sol\":358:722  contract Types { ... */\ntag_4:\n  dataSize(sub_0)\n  dup1\n  dataOffset(sub_0)\n  0x00\n  codecopy\n  0x00\n  return\nstop\n\nsub_0: assembly {\n        /* \"contracts/VariableTypes.sol\":358:722  contract Types { ... */\n      mstore(0x40, 0x80)\n      callvalue\n      dup1\n      iszero\n      tag_1\n      jumpi\n      0x00\n      dup1\n      revert\n    tag_1:\n      pop\n      jumpi(tag_2, lt(calldatasize, 0x04))\n      shr(0xe0, calldataload(0x00))\n      dup1\n      0x74e80a49\n      gt\n      tag_10\n      jumpi\n      dup1\n      0x74e80a49\n      eq\n      tag_6\n      jumpi\n      dup1\n      0x861f708f\n      eq\n      tag_7\n      jumpi\n      dup1\n      0xc1991219\n      eq\n      tag_8\n      jumpi\n      dup1\n      0xd0c37748\n      eq\n      tag_9\n      jumpi\n      jump(tag_2)\n    tag_10:\n      dup1\n      0x1a4ae17a\n      eq\n      tag_3\n      jumpi\n      dup1\n      0x48898752\n      eq\n      tag_4\n      jumpi\n      dup1\n      0x72ee2df9\n      eq\n      tag_5\n      jumpi\n    tag_2:\n      0x00\n      dup1\n      revert\n        /* \"contracts/VariableTypes.sol\":613:638  bytes1 public huruf = \"A\" */\n    tag_3:\n      tag_11\n      tag_12\n      jump\t// in\n    tag_11:\n      mload(0x40)\n      tag_13\n      swap2\n      swap1\n      tag_14\n      jump\t// in\n    tag_13:\n      mload(0x40)\n      dup1\n      swap2\n      sub\n      swap1\n      return\n        /* \"contracts/VariableTypes.sol\":659:717  string public kalimat = \"ini adalah kalimat dengan string\" */\n    tag_4:\n      tag_15\n      tag_16\n      jump\t// in\n    tag_15:\n      mload(0x40)\n      tag_17\n      swap2\n      swap1\n      tag_18\n      jump\t// in\n    tag_17:\n      mload(0x40)\n      dup1\n      swap2\n      sub\n      swap1\n      return\n        /* \"contracts/VariableTypes.sol\":533:595  function tambah() public {... */\n    tag_5:\n      tag_19\n      tag_20\n      jump\t// in\n    tag_19:\n      stop\n        /* \"contracts/VariableTypes.sol\":411:437  int32 public angkaku = -32 */\n    tag_6:\n      tag_21\n      tag_22\n      jump\t// in\n    tag_21:\n      mload(0x40)\n      tag_23\n      swap2\n      swap1\n      tag_24\n      jump\t// in\n    tag_23:\n      mload(0x40)\n      dup1\n      swap2\n      sub\n      swap1\n      return\n        /* \"contracts/VariableTypes.sol\":473:507  uint32 public ui_data = 15_02_2025 */\n    tag_7:\n      tag_25\n      tag_26\n      jump\t// in\n    tag_25:\n      mload(0x40)\n      tag_27\n      swap2\n      swap1\n      tag_28\n      jump\t// in\n    tag_27:\n      mload(0x40)\n      dup1\n      swap2\n      sub\n      swap1\n      return\n        /* \"contracts/VariableTypes.sol\":380:404  bool public valid = true */\n    tag_8:\n      tag_29\n      tag_30\n      jump\t// in\n    tag_29:\n      mload(0x40)\n      tag_31\n      swap2\n      swap1\n      tag_32\n      jump\t// in\n    tag_31:\n      mload(0x40)\n      dup1\n      swap2\n      sub\n      swap1\n      return\n        /* \"contracts/VariableTypes.sol\":443:466  uint public angkamu = 1 */\n    tag_9:\n      tag_33\n      tag_34\n      jump\t// in\n    tag_33:\n      mload(0x40)\n      tag_35\n      swap2\n      swap1\n      tag_36\n      jump\t// in\n    tag_35:\n      mload(0x40)\n      dup1\n      swap2\n      sub\n      swap1\n      return\n        /* \"contracts/VariableTypes.sol\":613:638  bytes1 public huruf = \"A\" */\n    tag_12:\n      0x02\n      0x05\n      swap1\n      sload\n      swap1\n      0x0100\n      exp\n      swap1\n      div\n      0xf8\n      shl\n      dup2\n      jump\t// out\n        /* \"contracts/VariableTypes.sol\":659:717  string public kalimat = \"ini adalah kalimat dengan string\" */\n    tag_16:\n      0x03\n      dup1\n      sload\n      tag_37\n      swap1\n      tag_38\n      jump\t// in\n    tag_37:\n      dup1\n      0x1f\n      add\n      0x20\n      dup1\n      swap2\n      div\n      mul\n      0x20\n      add\n      mload(0x40)\n      swap1\n      dup2\n      add\n      0x40\n      mstore\n      dup1\n      swap3\n      swap2\n      swap1\n      dup2\n      dup2\n      mstore\n      0x20\n      add\n      dup3\n      dup1\n      sload\n      tag_39\n      swap1\n      tag_38\n      jump\t// in\n    tag_39:\n      dup1\n      iszero\n      tag_40\n      jumpi\n      dup1\n      0x1f\n      lt\n      tag_41\n      jumpi\n      0x0100\n      dup1\n      dup4\n      sload\n      div\n      mul\n      dup4\n      mstore\n      swap2\n      0x20\n      add\n      swap2\n      jump(tag_40)\n    tag_41:\n      dup3\n      add\n      swap2\n      swap1\n      0x00\n      mstore\n      keccak256(0x00, 0x20)\n      swap1\n    tag_42:\n      dup2\n      sload\n      dup2\n      mstore\n      swap1\n      0x01\n      add\n      swap1\n      0x20\n      add\n      dup1\n      dup4\n      gt\n      tag_42\n      jumpi\n      dup3\n      swap1\n      sub\n      0x1f\n      and\n      dup3\n      add\n      swap2\n    tag_40:\n      pop\n      pop\n      pop\n      pop\n      pop\n      dup2\n      jump\t// out\n        /* \"contracts/VariableTypes.sol\":533:595  function tambah() public {... */\n    tag_20:\n        /* \"contracts/VariableTypes.sol\":577:586  3.5 + 1.5 */\n      0x05\n        /* \"contracts/VariableTypes.sol\":568:574  result */\n      0x02\n      0x04\n        /* \"contracts/VariableTypes.sol\":568:586  result = 3.5 + 1.5 */\n      0x0100\n      exp\n      dup2\n      sload\n      dup2\n      0xff\n      mul\n      not\n      and\n      swap1\n      dup4\n      0xff\n      and\n      mul\n      or\n      swap1\n      sstore\n      pop\n        /* \"contracts/VariableTypes.sol\":533:595  function tambah() public {... */\n      jump\t// out\n        /* \"contracts/VariableTypes.sol\":411:437  int32 public angkaku = -32 */\n    tag_22:\n      0x00\n      0x01\n      swap1\n      sload\n      swap1\n      0x0100\n      exp\n      swap1\n      div\n      0x03\n      signextend\n      dup2\n      jump\t// out\n        /* \"contracts/VariableTypes.sol\":473:507  uint32 public ui_data = 15_02_2025 */\n    tag_26:\n      0x02\n      0x00\n      swap1\n      sload\n      swap1\n      0x0100\n      exp\n      swap1\n      div\n      0xffffffff\n      and\n      dup2\n      jump\t// out\n        /* \"contracts/VariableTypes.sol\":380:404  bool public valid = true */\n    tag_30:\n      0x00\n      dup1\n      sload\n      swap1\n      0x0100\n      exp\n      swap1\n      div\n      0xff\n      and\n      dup2\n      jump\t// out\n        /* \"contracts/VariableTypes.sol\":443:466  uint public angkamu = 1 */\n    tag_34:\n      sload(0x01)\n      dup2\n      jump\t// out\n        /* \"#utility.yul\":7:116   */\n    tag_45:\n        /* \"#utility.yul\":88:109   */\n      tag_47\n        /* \"#utility.yul\":103:108   */\n      dup2\n        /* \"#utility.yul\":88:109   */\n      tag_48\n      jump\t// in\n    tag_47:\n        /* \"#utility.yul\":83:86   */\n      dup3\n        /* \"#utility.yul\":76:110   */\n      mstore\n        /* \"#utility.yul\":66:116   */\n      pop\n      pop\n      jump\t// out\n        /* \"#utility.yul\":122:237   */\n    tag_49:\n        /* \"#utility.yul\":207:230   */\n      tag_51\n        /* \"#utility.yul\":224:229   */\n      dup2\n        /* \"#utility.yul\":207:230   */\n      tag_52\n      jump\t// in\n    tag_51:\n        /* \"#utility.yul\":202:205   */\n      dup3\n        /* \"#utility.yul\":195:231   */\n      mstore\n        /* \"#utility.yul\":185:237   */\n      pop\n      pop\n      jump\t// out\n        /* \"#utility.yul\":243:355   */\n    tag_53:\n        /* \"#utility.yul\":326:348   */\n      tag_55\n        /* \"#utility.yul\":342:347   */\n      dup2\n        /* \"#utility.yul\":326:348   */\n      tag_56\n      jump\t// in\n    tag_55:\n        /* \"#utility.yul\":321:324   */\n      dup3\n        /* \"#utility.yul\":314:349   */\n      mstore\n        /* \"#utility.yul\":304:355   */\n      pop\n      pop\n      jump\t// out\n        /* \"#utility.yul\":361:725   */\n    tag_57:\n      0x00\n        /* \"#utility.yul\":477:516   */\n      tag_59\n        /* \"#utility.yul\":510:515   */\n      dup3\n        /* \"#utility.yul\":477:516   */\n      tag_60\n      jump\t// in\n    tag_59:\n        /* \"#utility.yul\":532:603   */\n      tag_61\n        /* \"#utility.yul\":596:602   */\n      dup2\n        /* \"#utility.yul\":591:594   */\n      dup6\n        /* \"#utility.yul\":532:603   */\n      tag_62\n      jump\t// in\n    tag_61:\n        /* \"#utility.yul\":525:603   */\n      swap4\n      pop\n        /* \"#utility.yul\":612:664   */\n      tag_63\n        /* \"#utility.yul\":657:663   */\n      dup2\n        /* \"#utility.yul\":652:655   */\n      dup6\n        /* \"#utility.yul\":645:649   */\n      0x20\n        /* \"#utility.yul\":638:643   */\n      dup7\n        /* \"#utility.yul\":634:650   */\n      add\n        /* \"#utility.yul\":612:664   */\n      tag_64\n      jump\t// in\n    tag_63:\n        /* \"#utility.yul\":689:718   */\n      tag_65\n        /* \"#utility.yul\":711:717   */\n      dup2\n        /* \"#utility.yul\":689:718   */\n      tag_66\n      jump\t// in\n    tag_65:\n        /* \"#utility.yul\":684:687   */\n      dup5\n        /* \"#utility.yul\":680:719   */\n      add\n        /* \"#utility.yul\":673:719   */\n      swap2\n      pop\n        /* \"#utility.yul\":453:725   */\n      pop\n      swap3\n      swap2\n      pop\n      pop\n      jump\t// out\n        /* \"#utility.yul\":731:849   */\n    tag_67:\n        /* \"#utility.yul\":818:842   */\n      tag_69\n        /* \"#utility.yul\":836:841   */\n      dup2\n        /* \"#utility.yul\":818:842   */\n      tag_70\n      jump\t// in\n    tag_69:\n        /* \"#utility.yul\":813:816   */\n      dup3\n        /* \"#utility.yul\":806:843   */\n      mstore\n        /* \"#utility.yul\":796:849   */\n      pop\n      pop\n      jump\t// out\n        /* \"#utility.yul\":855:970   */\n    tag_71:\n        /* \"#utility.yul\":940:963   */\n      tag_73\n        /* \"#utility.yul\":957:962   */\n      dup2\n        /* \"#utility.yul\":940:963   */\n      tag_74\n      jump\t// in\n    tag_73:\n        /* \"#utility.yul\":935:938   */\n      dup3\n        /* \"#utility.yul\":928:964   */\n      mstore\n        /* \"#utility.yul\":918:970   */\n      pop\n      pop\n      jump\t// out\n        /* \"#utility.yul\":976:1186   */\n    tag_32:\n      0x00\n        /* \"#utility.yul\":1101:1103   */\n      0x20\n        /* \"#utility.yul\":1090:1099   */\n      dup3\n        /* \"#utility.yul\":1086:1104   */\n      add\n        /* \"#utility.yul\":1078:1104   */\n      swap1\n      pop\n        /* \"#utility.yul\":1114:1179   */\n      tag_76\n        /* \"#utility.yul\":1176:1177   */\n      0x00\n        /* \"#utility.yul\":1165:1174   */\n      dup4\n        /* \"#utility.yul\":1161:1178   */\n      add\n        /* \"#utility.yul\":1152:1158   */\n      dup5\n        /* \"#utility.yul\":1114:1179   */\n      tag_45\n      jump\t// in\n    tag_76:\n        /* \"#utility.yul\":1068:1186   */\n      swap3\n      swap2\n      pop\n      pop\n      jump\t// out\n        /* \"#utility.yul\":1192:1410   */\n    tag_14:\n      0x00\n        /* \"#utility.yul\":1321:1323   */\n      0x20\n        /* \"#utility.yul\":1310:1319   */\n      dup3\n        /* \"#utility.yul\":1306:1324   */\n      add\n        /* \"#utility.yul\":1298:1324   */\n      swap1\n      pop\n        /* \"#utility.yul\":1334:1403   */\n      tag_78\n        /* \"#utility.yul\":1400:1401   */\n      0x00\n        /* \"#utility.yul\":1389:1398   */\n      dup4\n        /* \"#utility.yul\":1385:1402   */\n      add\n        /* \"#utility.yul\":1376:1382   */\n      dup5\n        /* \"#utility.yul\":1334:1403   */\n      tag_49\n      jump\t// in\n    tag_78:\n        /* \"#utility.yul\":1288:1410   */\n      swap3\n      swap2\n      pop\n      pop\n      jump\t// out\n        /* \"#utility.yul\":1416:1630   */\n    tag_24:\n      0x00\n        /* \"#utility.yul\":1543:1545   */\n      0x20\n        /* \"#utility.yul\":1532:1541   */\n      dup3\n        /* \"#utility.yul\":1528:1546   */\n      add\n        /* \"#utility.yul\":1520:1546   */\n      swap1\n      pop\n        /* \"#utility.yul\":1556:1623   */\n      tag_80\n        /* \"#utility.yul\":1620:1621   */\n      0x00\n        /* \"#utility.yul\":1609:1618   */\n      dup4\n        /* \"#utility.yul\":1605:1622   */\n      add\n        /* \"#utility.yul\":1596:1602   */\n      dup5\n        /* \"#utility.yul\":1556:1623   */\n      tag_53\n      jump\t// in\n    tag_80:\n        /* \"#utility.yul\":1510:1630   */\n      swap3\n      swap2\n      pop\n      pop\n      jump\t// out\n        /* \"#utility.yul\":1636:1949   */\n    tag_18:\n      0x00\n        /* \"#utility.yul\":1787:1789   */\n      0x20\n        /* \"#utility.yul\":1776:1785   */\n      dup3\n        /* \"#utility.yul\":1772:1790   */\n      add\n        /* \"#utility.yul\":1764:1790   */\n      swap1\n      pop\n        /* \"#utility.yul\":1836:1845   */\n      dup2\n        /* \"#utility.yul\":1830:1834   */\n      dup2\n        /* \"#utility.yul\":1826:1846   */\n      sub\n        /* \"#utility.yul\":1822:1823   */\n      0x00\n        /* \"#utility.yul\":1811:1820   */\n      dup4\n        /* \"#utility.yul\":1807:1824   */\n      add\n        /* \"#utility.yul\":1800:1847   */\n      mstore\n        /* \"#utility.yul\":1864:1942   */\n      tag_82\n        /* \"#utility.yul\":1937:1941   */\n      dup2\n        /* \"#utility.yul\":1928:1934   */\n      dup5\n        /* \"#utility.yul\":1864:1942   */\n      tag_57\n      jump\t// in\n    tag_82:\n        /* \"#utility.yul\":1856:1942   */\n      swap1\n      pop\n        /* \"#utility.yul\":1754:1949   */\n      swap3\n      swap2\n      pop\n      pop\n      jump\t// out\n        /* \"#utility.yul\":1955:2177   */\n    tag_36:\n      0x00\n        /* \"#utility.yul\":2086:2088   */\n      0x20\n        /* \"#utility.yul\":2075:2084   */\n      dup3\n        /* \"#utility.yul\":2071:2089   */\n      add\n        /* \"#utility.yul\":2063:2089   */\n      swap1\n      pop\n        /* \"#utility.yul\":2099:2170   */\n      tag_84\n        /* \"#utility.yul\":2167:2168   */\n      0x00\n        /* \"#utility.yul\":2156:2165   */\n      dup4\n        /* \"#utility.yul\":2152:2169   */\n      add\n        /* \"#utility.yul\":2143:2149   */\n      dup5\n        /* \"#utility.yul\":2099:2170   */\n      tag_67\n      jump\t// in\n    tag_84:\n        /* \"#utility.yul\":2053:2177   */\n      swap3\n      swap2\n      pop\n      pop\n      jump\t// out\n        /* \"#utility.yul\":2183:2401   */\n    tag_28:\n      0x00\n        /* \"#utility.yul\":2312:2314   */\n      0x20\n        /* \"#utility.yul\":2301:2310   */\n      dup3\n        /* \"#utility.yul\":2297:2315   */\n      add\n        /* \"#utility.yul\":2289:2315   */\n      swap1\n      pop\n        /* \"#utility.yul\":2325:2394   */\n      tag_86\n        /* \"#utility.yul\":2391:2392   */\n      0x00\n        /* \"#utility.yul\":2380:2389   */\n      dup4\n        /* \"#utility.yul\":2376:2393   */\n      add\n        /* \"#utility.yul\":2367:2373   */\n      dup5\n        /* \"#utility.yul\":2325:2394   */\n      tag_71\n      jump\t// in\n    tag_86:\n        /* \"#utility.yul\":2279:2401   */\n      swap3\n      swap2\n      pop\n      pop\n      jump\t// out\n        /* \"#utility.yul\":2407:2506   */\n    tag_60:\n      0x00\n        /* \"#utility.yul\":2493:2498   */\n      dup2\n        /* \"#utility.yul\":2487:2499   */\n      mload\n        /* \"#utility.yul\":2477:2499   */\n      swap1\n      pop\n        /* \"#utility.yul\":2466:2506   */\n      swap2\n      swap1\n      pop\n      jump\t// out\n        /* \"#utility.yul\":2512:2681   */\n    tag_62:\n      0x00\n        /* \"#utility.yul\":2630:2636   */\n      dup3\n        /* \"#utility.yul\":2625:2628   */\n      dup3\n        /* \"#utility.yul\":2618:2637   */\n      mstore\n        /* \"#utility.yul\":2670:2674   */\n      0x20\n        /* \"#utility.yul\":2665:2668   */\n      dup3\n        /* \"#utility.yul\":2661:2675   */\n      add\n        /* \"#utility.yul\":2646:2675   */\n      swap1\n      pop\n        /* \"#utility.yul\":2608:2681   */\n      swap3\n      swap2\n      pop\n      pop\n      jump\t// out\n        /* \"#utility.yul\":2687:2777   */\n    tag_48:\n      0x00\n        /* \"#utility.yul\":2764:2769   */\n      dup2\n        /* \"#utility.yul\":2757:2770   */\n      iszero\n        /* \"#utility.yul\":2750:2771   */\n      iszero\n        /* \"#utility.yul\":2739:2771   */\n      swap1\n      pop\n        /* \"#utility.yul\":2729:2777   */\n      swap2\n      swap1\n      pop\n      jump\t// out\n        /* \"#utility.yul\":2783:2932   */\n    tag_52:\n      0x00\n        /* \"#utility.yul\":2859:2925   */\n      0xff00000000000000000000000000000000000000000000000000000000000000\n        /* \"#utility.yul\":2852:2857   */\n      dup3\n        /* \"#utility.yul\":2848:2926   */\n      and\n        /* \"#utility.yul\":2837:2926   */\n      swap1\n      pop\n        /* \"#utility.yul\":2827:2932   */\n      swap2\n      swap1\n      pop\n      jump\t// out\n        /* \"#utility.yul\":2938:3028   */\n    tag_56:\n      0x00\n        /* \"#utility.yul\":3016:3021   */\n      dup2\n        /* \"#utility.yul\":3013:3014   */\n      0x03\n        /* \"#utility.yul\":3002:3022   */\n      signextend\n        /* \"#utility.yul\":2991:3022   */\n      swap1\n      pop\n        /* \"#utility.yul\":2981:3028   */\n      swap2\n      swap1\n      pop\n      jump\t// out\n        /* \"#utility.yul\":3034:3111   */\n    tag_70:\n      0x00\n        /* \"#utility.yul\":3100:3105   */\n      dup2\n        /* \"#utility.yul\":3089:3105   */\n      swap1\n      pop\n        /* \"#utility.yul\":3079:3111   */\n      swap2\n      swap1\n      pop\n      jump\t// out\n        /* \"#utility.yul\":3117:3210   */\n    tag_74:\n      0x00\n        /* \"#utility.yul\":3193:3203   */\n      0xffffffff\n        /* \"#utility.yul\":3186:3191   */\n      dup3\n        /* \"#utility.yul\":3182:3204   */\n      and\n        /* \"#utility.yul\":3171:3204   */\n      swap1\n      pop\n        /* \"#utility.yul\":3161:3210   */\n      swap2\n      swap1\n      pop\n      jump\t// out\n        /* \"#utility.yul\":3216:3523   */\n    tag_64:\n        /* \"#utility.yul\":3284:3285   */\n      0x00\n        /* \"#utility.yul\":3294:3407   */\n    tag_95:\n        /* \"#utility.yul\":3308:3314   */\n      dup4\n        /* \"#utility.yul\":3305:3306   */\n      dup2\n        /* \"#utility.yul\":3302:3315   */\n      lt\n        /* \"#utility.yul\":3294:3407   */\n      iszero\n      tag_97\n      jumpi\n        /* \"#utility.yul\":3393:3394   */\n      dup1\n        /* \"#utility.yul\":3388:3391   */\n      dup3\n        /* \"#utility.yul\":3384:3395   */\n      add\n        /* \"#utility.yul\":3378:3396   */\n      mload\n        /* \"#utility.yul\":3374:3375   */\n      dup2\n        /* \"#utility.yul\":3369:3372   */\n      dup5\n        /* \"#utility.yul\":3365:3376   */\n      add\n        /* \"#utility.yul\":3358:3397   */\n      mstore\n        /* \"#utility.yul\":3330:3332   */\n      0x20\n        /* \"#utility.yul\":3327:3328   */\n      dup2\n        /* \"#utility.yul\":3323:3333   */\n      add\n        /* \"#utility.yul\":3318:3333   */\n      swap1\n      pop\n        /* \"#utility.yul\":3294:3407   */\n      jump(tag_95)\n    tag_97:\n        /* \"#utility.yul\":3425:3431   */\n      dup4\n        /* \"#utility.yul\":3422:3423   */\n      dup2\n        /* \"#utility.yul\":3419:3432   */\n      gt\n        /* \"#utility.yul\":3416:3418   */\n      iszero\n      tag_98\n      jumpi\n        /* \"#utility.yul\":3505:3506   */\n      0x00\n        /* \"#utility.yul\":3496:3502   */\n      dup5\n        /* \"#utility.yul\":3491:3494   */\n      dup5\n        /* \"#utility.yul\":3487:3503   */\n      add\n        /* \"#utility.yul\":3480:3507   */\n      mstore\n        /* \"#utility.yul\":3416:3418   */\n    tag_98:\n        /* \"#utility.yul\":3265:3523   */\n      pop\n      pop\n      pop\n      pop\n      jump\t// out\n        /* \"#utility.yul\":3529:3849   */\n    tag_38:\n      0x00\n        /* \"#utility.yul\":3610:3611   */\n      0x02\n        /* \"#utility.yul\":3604:3608   */\n      dup3\n        /* \"#utility.yul\":3600:3612   */\n      div\n        /* \"#utility.yul\":3590:3612   */\n      swap1\n      pop\n        /* \"#utility.yul\":3657:3658   */\n      0x01\n        /* \"#utility.yul\":3651:3655   */\n      dup3\n        /* \"#utility.yul\":3647:3659   */\n      and\n        /* \"#utility.yul\":3678:3696   */\n      dup1\n        /* \"#utility.yul\":3668:3670   */\n      tag_100\n      jumpi\n        /* \"#utility.yul\":3734:3738   */\n      0x7f\n        /* \"#utility.yul\":3726:3732   */\n      dup3\n        /* \"#utility.yul\":3722:3739   */\n      and\n        /* \"#utility.yul\":3712:3739   */\n      swap2\n      pop\n        /* \"#utility.yul\":3668:3670   */\n    tag_100:\n        /* \"#utility.yul\":3796:3798   */\n      0x20\n        /* \"#utility.yul\":3788:3794   */\n      dup3\n        /* \"#utility.yul\":3785:3799   */\n      lt\n        /* \"#utility.yul\":3765:3783   */\n      dup2\n        /* \"#utility.yul\":3762:3800   */\n      eq\n        /* \"#utility.yul\":3759:3761   */\n      iszero\n      tag_101\n      jumpi\n        /* \"#utility.yul\":3815:3833   */\n      tag_102\n      tag_103\n      jump\t// in\n    tag_102:\n        /* \"#utility.yul\":3759:3761   */\n    tag_101:\n        /* \"#utility.yul\":3580:3849   */\n      pop\n      swap2\n      swap1\n      pop\n      jump\t// out\n        /* \"#utility.yul\":3855:4035   */\n    tag_103:\n        /* \"#utility.yul\":3903:3980   */\n      0x4e487b7100000000000000000000000000000000000000000000000000000000\n        /* \"#utility.yul\":3900:3901   */\n      0x00\n        /* \"#utility.yul\":3893:3981   */\n      mstore\n        /* \"#utility.yul\":4000:4004   */\n      0x22\n        /* \"#utility.yul\":3997:3998   */\n      0x04\n        /* \"#utility.yul\":3990:4005   */\n      mstore\n        /* \"#utility.yul\":4024:4028   */\n      0x24\n        /* \"#utility.yul\":4021:4022   */\n      0x00\n        /* \"#utility.yul\":4014:4029   */\n      revert\n        /* \"#utility.yul\":4041:4143   */\n    tag_66:\n      0x00\n        /* \"#utility.yul\":4133:4135   */\n      0x1f\n        /* \"#utility.yul\":4129:4136   */\n      not\n        /* \"#utility.yul\":4124:4126   */\n      0x1f\n        /* \"#utility.yul\":4117:4122   */\n      dup4\n        /* \"#utility.yul\":4113:4127   */\n      add\n        /* \"#utility.yul\":4109:4137   */\n      and\n        /* \"#utility.yul\":4099:4137   */\n      swap1\n      pop\n        /* \"#utility.yul\":4089:4143   */\n      swap2\n      swap1\n      pop\n      jump\t// out\n\n    auxdata: 0xa2646970667358221220e3076c0ee3385611e8c93ab77cf7fec4a34e30a29c40822398ab41808eaaa6fa64736f6c63430008030033\n}\n",
				"bytecode": {
					"linkReferences": {},
					"object": "608060405260016000806101000a81548160ff0219169083151502179055507fffffffffffffffffffffffffffffffffffffffffffffffffffffffffffffffe0600060016101000a81548163ffffffff021916908360030b63ffffffff1602179055506001805562e537c9600260006101000a81548163ffffffff021916908363ffffffff1602179055507f4100000000000000000000000000000000000000000000000000000000000000600260056101000a81548160ff021916908360f81c02179055506040518060400160405280602081526020017f696e69206164616c6168206b616c696d61742064656e67616e20737472696e6781525060039080519060200190610110929190610123565b5034801561011d57600080fd5b50610227565b82805461012f906101c6565b90600052602060002090601f0160209004810192826101515760008555610198565b82601f1061016a57805160ff1916838001178555610198565b82800160010185558215610198579182015b8281111561019757825182559160200191906001019061017c565b5b5090506101a591906101a9565b5090565b5b808211156101c25760008160009055506001016101aa565b5090565b600060028204905060018216806101de57607f821691505b602082108114156101f2576101f16101f8565b5b50919050565b7f4e487b7100000000000000000000000000000000000000000000000000000000600052602260045260246000fd5b6104c2806102366000396000f3fe608060405234801561001057600080fd5b506004361061007d5760003560e01c806374e80a491161005b57806374e80a49146100c8578063861f708f146100e6578063c199121914610104578063d0c37748146101225761007d565b80631a4ae17a1461008257806348898752146100a057806372ee2df9146100be575b600080fd5b61008a610140565b60405161009791906102de565b60405180910390f35b6100a8610153565b6040516100b59190610314565b60405180910390f35b6100c66101e1565b005b6100d06101ff565b6040516100dd91906102f9565b60405180910390f35b6100ee610212565b6040516100fb9190610351565b60405180910390f35b61010c610228565b60405161011991906102c3565b60405180910390f35b61012a610239565b6040516101379190610336565b60405180910390f35b600260059054906101000a900460f81b81565b600380546101609061041a565b80601f016020809104026020016040519081016040528092919081815260200182805461018c9061041a565b80156101d95780601f106101ae576101008083540402835291602001916101d9565b820191906000526020600020905b8154815290600101906020018083116101bc57829003601f168201915b505050505081565b6005600260046101000a81548160ff021916908360ff160217905550565b600060019054906101000a900460030b81565b600260009054906101000a900463ffffffff1681565b60008054906101000a900460ff1681565b60015481565b61024881610388565b82525050565b61025781610394565b82525050565b610266816103c0565b82525050565b60006102778261036c565b6102818185610377565b93506102918185602086016103e7565b61029a8161047b565b840191505092915050565b6102ae816103cd565b82525050565b6102bd816103d7565b82525050565b60006020820190506102d8600083018461023f565b92915050565b60006020820190506102f3600083018461024e565b92915050565b600060208201905061030e600083018461025d565b92915050565b6000602082019050818103600083015261032e818461026c565b905092915050565b600060208201905061034b60008301846102a5565b92915050565b600060208201905061036660008301846102b4565b92915050565b600081519050919050565b600082825260208201905092915050565b60008115159050919050565b60007fff0000000000000000000000000000000000000000000000000000000000000082169050919050565b60008160030b9050919050565b6000819050919050565b600063ffffffff82169050919050565b60005b838110156104055780820151818401526020810190506103ea565b83811115610414576000848401525b50505050565b6000600282049050600182168061043257607f821691505b602082108114156104465761044561044c565b5b50919050565b7f4e487b7100000000000000000000000000000000000000000000000000000000600052602260045260246000fd5b6000601f19601f830116905091905056fea2646970667358221220e3076c0ee3385611e8c93ab77cf7fec4a34e30a29c40822398ab41808eaaa6fa64736f6c63430008030033",
					"opcodes": "PUSH1 0x80 PUSH1 0x40 MSTORE PUSH1 0x1 PUSH1 0x0 DUP1 PUSH2 0x100 EXP DUP2 SLOAD DUP2 PUSH1 0xFF MUL NOT AND SWAP1 DUP4 ISZERO ISZERO MUL OR SWAP1 SSTORE POP PUSH32 0xFFFFFFFFFFFFFFFFFFFFFFFFFFFFFFFFFFFFFFFFFFFFFFFFFFFFFFFFFFFFFFE0 PUSH1 0x0 PUSH1 0x1 PUSH2 0x100 EXP DUP2 SLOAD DUP2 PUSH4 0xFFFFFFFF MUL NOT AND SWAP1 DUP4 PUSH1 0x3 SIGNEXTEND PUSH4 0xFFFFFFFF AND MUL OR SWAP1 SSTORE POP PUSH1 0x1 DUP1 SSTORE PUSH3 0xE537C9 PUSH1 0x2 PUSH1 0x0 PUSH2 0x100 EXP DUP2 SLOAD DUP2 PUSH4 0xFFFFFFFF MUL NOT AND SWAP1 DUP4 PUSH4 0xFFFFFFFF AND MUL OR SWAP1 SSTORE POP PUSH32 0x4100000000000000000000000000000000000000000000000000000000000000 PUSH1 0x2 PUSH1 0x5 PUSH2 0x100 EXP DUP2 SLOAD DUP2 PUSH1 0xFF MUL NOT AND SWAP1 DUP4 PUSH1 0xF8 SHR MUL OR SWAP1 SSTORE POP PUSH1 0x40 MLOAD DUP1 PUSH1 0x40 ADD PUSH1 0x40 MSTORE DUP1 PUSH1 0x20 DUP2 MSTORE PUSH1 0x20 ADD PUSH32 0x696E69206164616C6168206B616C696D61742064656E67616E20737472696E67 DUP2 MSTORE POP PUSH1 0x3 SWAP1 DUP1 MLOAD SWAP1 PUSH1 0x20 ADD SWAP1 PUSH2 0x110 SWAP3 SWAP2 SWAP1 PUSH2 0x123 JUMP JUMPDEST POP CALLVALUE DUP1 ISZERO PUSH2 0x11D JUMPI PUSH1 0x0 DUP1 REVERT JUMPDEST POP PUSH2 0x227 JUMP JUMPDEST DUP3 DUP1 SLOAD PUSH2 0x12F SWAP1 PUSH2 0x1C6 JUMP JUMPDEST SWAP1 PUSH1 0x0 MSTORE PUSH1 0x20 PUSH1 0x0 KECCAK256 SWAP1 PUSH1 0x1F ADD PUSH1 0x20 SWAP1 DIV DUP2 ADD SWAP3 DUP3 PUSH2 0x151 JUMPI PUSH1 0x0 DUP6 SSTORE PUSH2 0x198 JUMP JUMPDEST DUP3 PUSH1 0x1F LT PUSH2 0x16A JUMPI DUP1 MLOAD PUSH1 0xFF NOT AND DUP4 DUP1 ADD OR DUP6 SSTORE PUSH2 0x198 JUMP JUMPDEST DUP3 DUP1 ADD PUSH1 0x1 ADD DUP6 SSTORE DUP3 ISZERO PUSH2 0x198 JUMPI SWAP2 DUP3 ADD JUMPDEST DUP3 DUP2 GT ISZERO PUSH2 0x197 JUMPI DUP3 MLOAD DUP3 SSTORE SWAP2 PUSH1 0x20 ADD SWAP2 SWAP1 PUSH1 0x1 ADD SWAP1 PUSH2 0x17C JUMP JUMPDEST JUMPDEST POP SWAP1 POP PUSH2 0x1A5 SWAP2 SWAP1 PUSH2 0x1A9 JUMP JUMPDEST POP SWAP1 JUMP JUMPDEST JUMPDEST DUP1 DUP3 GT ISZERO PUSH2 0x1C2 JUMPI PUSH1 0x0 DUP2 PUSH1 0x0 SWAP1 SSTORE POP PUSH1 0x1 ADD PUSH2 0x1AA JUMP JUMPDEST POP SWAP1 JUMP JUMPDEST PUSH1 0x0 PUSH1 0x2 DUP3 DIV SWAP1 POP PUSH1 0x1 DUP3 AND DUP1 PUSH2 0x1DE JUMPI PUSH1 0x7F DUP3 AND SWAP2 POP JUMPDEST PUSH1 0x20 DUP3 LT DUP2 EQ ISZERO PUSH2 0x1F2 JUMPI PUSH2 0x1F1 PUSH2 0x1F8 JUMP JUMPDEST JUMPDEST POP SWAP2 SWAP1 POP JUMP JUMPDEST PUSH32 0x4E487B7100000000000000000000000000000000000000000000000000000000 PUSH1 0x0 MSTORE PUSH1 0x22 PUSH1 0x4 MSTORE PUSH1 0x24 PUSH1 0x0 REVERT JUMPDEST PUSH2 0x4C2 DUP1 PUSH2 0x236 PUSH1 0x0 CODECOPY PUSH1 0x0 RETURN INVALID PUSH1 0x80 PUSH1 0x40 MSTORE CALLVALUE DUP1 ISZERO PUSH2 0x10 JUMPI PUSH1 0x0 DUP1 REVERT JUMPDEST POP PUSH1 0x4 CALLDATASIZE LT PUSH2 0x7D JUMPI PUSH1 0x0 CALLDATALOAD PUSH1 0xE0 SHR DUP1 PUSH4 0x74E80A49 GT PUSH2 0x5B JUMPI DUP1 PUSH4 0x74E80A49 EQ PUSH2 0xC8 JUMPI DUP1 PUSH4 0x861F708F EQ PUSH2 0xE6 JUMPI DUP1 PUSH4 0xC1991219 EQ PUSH2 0x104 JUMPI DUP1 PUSH4 0xD0C37748 EQ PUSH2 0x122 JUMPI PUSH2 0x7D JUMP JUMPDEST DUP1 PUSH4 0x1A4AE17A EQ PUSH2 0x82 JUMPI DUP1 PUSH4 0x48898752 EQ PUSH2 0xA0 JUMPI DUP1 PUSH4 0x72EE2DF9 EQ PUSH2 0xBE JUMPI JUMPDEST PUSH1 0x0 DUP1 REVERT JUMPDEST PUSH2 0x8A PUSH2 0x140 JUMP JUMPDEST PUSH1 0x40 MLOAD PUSH2 0x97 SWAP2 SWAP1 PUSH2 0x2DE JUMP JUMPDEST PUSH1 0x40 MLOAD DUP1 SWAP2 SUB SWAP1 RETURN JUMPDEST PUSH2 0xA8 PUSH2 0x153 JUMP JUMPDEST PUSH1 0x40 MLOAD PUSH2 0xB5 SWAP2 SWAP1 PUSH2 0x314 JUMP JUMPDEST PUSH1 0x40 MLOAD DUP1 SWAP2 SUB SWAP1 RETURN JUMPDEST PUSH2 0xC6 PUSH2 0x1E1 JUMP JUMPDEST STOP JUMPDEST PUSH2 0xD0 PUSH2 0x1FF JUMP JUMPDEST PUSH1 0x40 MLOAD PUSH2 0xDD SWAP2 SWAP1 PUSH2 0x2F9 JUMP JUMPDEST PUSH1 0x40 MLOAD DUP1 SWAP2 SUB SWAP1 RETURN JUMPDEST PUSH2 0xEE PUSH2 0x212 JUMP JUMPDEST PUSH1 0x40 MLOAD PUSH2 0xFB SWAP2 SWAP1 PUSH2 0x351 JUMP JUMPDEST PUSH1 0x40 MLOAD DUP1 SWAP2 SUB SWAP1 RETURN JUMPDEST PUSH2 0x10C PUSH2 0x228 JUMP JUMPDEST PUSH1 0x40 MLOAD PUSH2 0x119 SWAP2 SWAP1 PUSH2 0x2C3 JUMP JUMPDEST PUSH1 0x40 MLOAD DUP1 SWAP2 SUB SWAP1 RETURN JUMPDEST PUSH2 0x12A PUSH2 0x239 JUMP JUMPDEST PUSH1 0x40 MLOAD PUSH2 0x137 SWAP2 SWAP1 PUSH2 0x336 JUMP JUMPDEST PUSH1 0x40 MLOAD DUP1 SWAP2 SUB SWAP1 RETURN JUMPDEST PUSH1 0x2 PUSH1 0x5 SWAP1 SLOAD SWAP1 PUSH2 0x100 EXP SWAP1 DIV PUSH1 0xF8 SHL DUP2 JUMP JUMPDEST PUSH1 0x3 DUP1 SLOAD PUSH2 0x160 SWAP1 PUSH2 0x41A JUMP JUMPDEST DUP1 PUSH1 0x1F ADD PUSH1 0x20 DUP1 SWAP2 DIV MUL PUSH1 0x20 ADD PUSH1 0x40 MLOAD SWAP1 DUP2 ADD PUSH1 0x40 MSTORE DUP1 SWAP3 SWAP2 SWAP1 DUP2 DUP2 MSTORE PUSH1 0x20 ADD DUP3 DUP1 SLOAD PUSH2 0x18C SWAP1 PUSH2 0x41A JUMP JUMPDEST DUP1 ISZERO PUSH2 0x1D9 JUMPI DUP1 PUSH1 0x1F LT PUSH2 0x1AE JUMPI PUSH2 0x100 DUP1 DUP4 SLOAD DIV MUL DUP4 MSTORE SWAP2 PUSH1 0x20 ADD SWAP2 PUSH2 0x1D9 JUMP JUMPDEST DUP3 ADD SWAP2 SWAP1 PUSH1 0x0 MSTORE PUSH1 0x20 PUSH1 0x0 KECCAK256 SWAP1 JUMPDEST DUP2 SLOAD DUP2 MSTORE SWAP1 PUSH1 0x1 ADD SWAP1 PUSH1 0x20 ADD DUP1 DUP4 GT PUSH2 0x1BC JUMPI DUP3 SWAP1 SUB PUSH1 0x1F AND DUP3 ADD SWAP2 JUMPDEST POP POP POP POP POP DUP2 JUMP JUMPDEST PUSH1 0x5 PUSH1 0x2 PUSH1 0x4 PUSH2 0x100 EXP DUP2 SLOAD DUP2 PUSH1 0xFF MUL NOT AND SWAP1 DUP4 PUSH1 0xFF AND MUL OR SWAP1 SSTORE POP JUMP JUMPDEST PUSH1 0x0 PUSH1 0x1 SWAP1 SLOAD SWAP1 PUSH2 0x100 EXP SWAP1 DIV PUSH1 0x3 SIGNEXTEND DUP2 JUMP JUMPDEST PUSH1 0x2 PUSH1 0x0 SWAP1 SLOAD SWAP1 PUSH2 0x100 EXP SWAP1 DIV PUSH4 0xFFFFFFFF AND DUP2 JUMP JUMPDEST PUSH1 0x0 DUP1 SLOAD SWAP1 PUSH2 0x100 EXP SWAP1 DIV PUSH1 0xFF AND DUP2 JUMP JUMPDEST PUSH1 0x1 SLOAD DUP2 JUMP JUMPDEST PUSH2 0x248 DUP2 PUSH2 0x388 JUMP JUMPDEST DUP3 MSTORE POP POP JUMP JUMPDEST PUSH2 0x257 DUP2 PUSH2 0x394 JUMP JUMPDEST DUP3 MSTORE POP POP JUMP JUMPDEST PUSH2 0x266 DUP2 PUSH2 0x3C0 JUMP JUMPDEST DUP3 MSTORE POP POP JUMP JUMPDEST PUSH1 0x0 PUSH2 0x277 DUP3 PUSH2 0x36C JUMP JUMPDEST PUSH2 0x281 DUP2 DUP6 PUSH2 0x377 JUMP JUMPDEST SWAP4 POP PUSH2 0x291 DUP2 DUP6 PUSH1 0x20 DUP7 ADD PUSH2 0x3E7 JUMP JUMPDEST PUSH2 0x29A DUP2 PUSH2 0x47B JUMP JUMPDEST DUP5 ADD SWAP2 POP POP SWAP3 SWAP2 POP POP JUMP JUMPDEST PUSH2 0x2AE DUP2 PUSH2 0x3CD JUMP JUMPDEST DUP3 MSTORE POP POP JUMP JUMPDEST PUSH2 0x2BD DUP2 PUSH2 0x3D7 JUMP JUMPDEST DUP3 MSTORE POP POP JUMP JUMPDEST PUSH1 0x0 PUSH1 0x20 DUP3 ADD SWAP1 POP PUSH2 0x2D8 PUSH1 0x0 DUP4 ADD DUP5 PUSH2 0x23F JUMP JUMPDEST SWAP3 SWAP2 POP POP JUMP JUMPDEST PUSH1 0x0 PUSH1 0x20 DUP3 ADD SWAP1 POP PUSH2 0x2F3 PUSH1 0x0 DUP4 ADD DUP5 PUSH2 0x24E JUMP JUMPDEST SWAP3 SWAP2 POP POP JUMP JUMPDEST PUSH1 0x0 PUSH1 0x20 DUP3 ADD SWAP1 POP PUSH2 0x30E PUSH1 0x0 DUP4 ADD DUP5 PUSH2 0x25D JUMP JUMPDEST SWAP3 SWAP2 POP POP JUMP JUMPDEST PUSH1 0x0 PUSH1 0x20 DUP3 ADD SWAP1 POP DUP2 DUP2 SUB PUSH1 0x0 DUP4 ADD MSTORE PUSH2 0x32E DUP2 DUP5 PUSH2 0x26C JUMP JUMPDEST SWAP1 POP SWAP3 SWAP2 POP POP JUMP JUMPDEST PUSH1 0x0 PUSH1 0x20 DUP3 ADD SWAP1 POP PUSH2 0x34B PUSH1 0x0 DUP4 ADD DUP5 PUSH2 0x2A5 JUMP JUMPDEST SWAP3 SWAP2 POP POP JUMP JUMPDEST PUSH1 0x0 PUSH1 0x20 DUP3 ADD SWAP1 POP PUSH2 0x366 PUSH1 0x0 DUP4 ADD DUP5 PUSH2 0x2B4 JUMP JUMPDEST SWAP3 SWAP2 POP POP JUMP JUMPDEST PUSH1 0x0 DUP2 MLOAD SWAP1 POP SWAP2 SWAP1 POP JUMP JUMPDEST PUSH1 0x0 DUP3 DUP3 MSTORE PUSH1 0x20 DUP3 ADD SWAP1 POP SWAP3 SWAP2 POP POP JUMP JUMPDEST PUSH1 0x0 DUP2 ISZERO ISZERO SWAP1 POP SWAP2 SWAP1 POP JUMP JUMPDEST PUSH1 0x0 PUSH32 0xFF00000000000000000000000000000000000000000000000000000000000000 DUP3 AND SWAP1 POP SWAP2 SWAP1 POP JUMP JUMPDEST PUSH1 0x0 DUP2 PUSH1 0x3 SIGNEXTEND SWAP1 POP SWAP2 SWAP1 POP JUMP JUMPDEST PUSH1 0x0 DUP2 SWAP1 POP SWAP2 SWAP1 POP JUMP JUMPDEST PUSH1 0x0 PUSH4 0xFFFFFFFF DUP3 AND SWAP1 POP SWAP2 SWAP1 POP JUMP JUMPDEST PUSH1 0x0 JUMPDEST DUP4 DUP2 LT ISZERO PUSH2 0x405 JUMPI DUP1 DUP3 ADD MLOAD DUP2 DUP5 ADD MSTORE PUSH1 0x20 DUP2 ADD SWAP1 POP PUSH2 0x3EA JUMP JUMPDEST DUP4 DUP2 GT ISZERO PUSH2 0x414 JUMPI PUSH1 0x0 DUP5 DUP5 ADD MSTORE JUMPDEST POP POP POP POP JUMP JUMPDEST PUSH1 0x0 PUSH1 0x2 DUP3 DIV SWAP1 POP PUSH1 0x1 DUP3 AND DUP1 PUSH2 0x432 JUMPI PUSH1 0x7F DUP3 AND SWAP2 POP JUMPDEST PUSH1 0x20 DUP3 LT DUP2 EQ ISZERO PUSH2 0x446 JUMPI PUSH2 0x445 PUSH2 0x44C JUMP JUMPDEST JUMPDEST POP SWAP2 SWAP1 POP JUMP JUMPDEST PUSH32 0x4E487B7100000000000000000000000000000000000000000000000000000000 PUSH1 0x0 MSTORE PUSH1 0x22 PUSH1 0x4 MSTORE PUSH1 0x24 PUSH1 0x0 REVERT JUMPDEST PUSH1 0x0 PUSH1 0x1F NOT PUSH1 0x1F DUP4 ADD AND SWAP1 POP SWAP2 SWAP1 POP JUMP INVALID LOG2 PUSH5 0x6970667358 0x22 SLT KECCAK256 0xE3 SMOD PUSH13 0xEE3385611E8C93AB77CF7FEC4 LOG3 0x4E ADDRESS LOG2 SWAP13 BLOCKHASH DUP3 0x23 SWAP9 0xAB COINBASE DUP1 DUP15 0xAA 0xA6 STATICCALL PUSH5 0x736F6C6343 STOP ADDMOD SUB STOP CALLER "
				},
				"gasEstimates": {
					"creation": {
						"codeDepositCost": "243600",
						"executionCost": "infinite",
						"totalCost": "infinite"
					},
					"external": {
						"angkaku()": "1225",
						"angkamu()": "1195",
						"huruf()": "1222",
						"kalimat()": "infinite",
						"tambah()": "21106",
						"ui_data()": "1193",
						"valid()": "1212"
					}
				},
				"methodIdentifiers": {
					"angkaku()": "74e80a49",
					"angkamu()": "d0c37748",
					"huruf()": "1a4ae17a",
					"kalimat()": "48898752",
					"tambah()": "72ee2df9",
					"ui_data()": "861f708f",
					"valid()": "c1991219"
				}
			},
			"storageLayout": {
				"storage": [
					{
						"astId": 33,
						"contract": "contracts/VariableTypes.sol:Types",
						"label": "valid",
						"offset": 0,
						"slot": "0",
						"type": "t_bool"
					},
					{
						"astId": 37,
						"contract": "contracts/VariableTypes.sol:Types",
						"label": "angkaku",
						"offset": 1,
						"slot": "0",
						"type": "t_int32"
					},
					{
						"astId": 40,
						"contract": "contracts/VariableTypes.sol:Types",
						"label": "angkamu",
						"offset": 0,
						"slot": "1",
						"type": "t_uint256"
					},
					{
						"astId": 43,
						"contract": "contracts/VariableTypes.sol:Types",
						"label": "ui_data",
						"offset": 0,
						"slot": "2",
						"type": "t_uint32"
					},
					{
						"astId": 45,
						"contract": "contracts/VariableTypes.sol:Types",
						"label": "result",
						"offset": 4,
						"slot": "2",
						"type": "t_uint8"
					},
					{
						"astId": 58,
						"contract": "contracts/VariableTypes.sol:Types",
						"label": "huruf",
						"offset": 5,
						"slot": "2",
						"type": "t_bytes1"
					},
					{
						"astId": 61,
						"contract": "contracts/VariableTypes.sol:Types",
						"label": "kalimat",
						"offset": 0,
						"slot": "3",
						"type": "t_string_storage"
					}
				],
				"types": {
					"t_bool": {
						"encoding": "inplace",
						"label": "bool",
						"numberOfBytes": "1"
					},
					"t_bytes1": {
						"encoding": "inplace",
						"label": "bytes1",
						"numberOfBytes": "1"
					},
					"t_int32": {
						"encoding": "inplace",
						"label": "int32",
						"numberOfBytes": "4"
					},
					"t_string_storage": {
						"encoding": "bytes",
						"label": "string",
						"numberOfBytes": "32"
					},
					"t_uint256": {
						"encoding": "inplace",
						"label": "uint256",
						"numberOfBytes": "32"
					},
					"t_uint32": {
						"encoding": "inplace",
						"label": "uint32",
						"numberOfBytes": "4"
					},
					"t_uint8": {
						"encoding": "inplace",
						"label": "uint8",
						"numberOfBytes": "1"
					}
				}
			},
			"userdoc": {
				"kind": "user",
				"methods": {},
				"version": 1
			}
		}
	}
}