{
	"contracts/struct.sol": {
		"structure": {
			"abi": [
				{
					"inputs": [
						{
							"internalType": "uint256",
							"name": "",
							"type": "uint256"
						}
					],
					"name": "buku3",
					"outputs": [
						{
							"internalType": "string",
							"name": "title",
							"type": "string"
						},
						{
							"internalType": "string",
							"name": "author",
							"type": "string"
						},
						{
							"internalType": "uint256",
							"name": "id",
							"type": "uint256"
						},
						{
							"internalType": "bool",
							"name": "isReady",
							"type": "bool"
						}
					],
					"stateMutability": "view",
					"type": "function"
				},
				{
					"inputs": [],
					"name": "cekbuku1",
					"outputs": [
						{
							"internalType": "string",
							"name": "",
							"type": "string"
						},
						{
							"internalType": "string",
							"name": "",
							"type": "string"
						},
						{
							"internalType": "uint256",
							"name": "",
							"type": "uint256"
						},
						{
							"internalType": "bool",
							"name": "",
							"type": "bool"
						}
					],
					"stateMutability": "view",
					"type": "function"
				},
				{
					"inputs": [],
					"name": "cekbuku2",
					"outputs": [
						{
							"internalType": "string",
							"name": "",
							"type": "string"
						},
						{
							"internalType": "string",
							"name": "",
							"type": "string"
						}
					],
					"stateMutability": "view",
					"type": "function"
				},
				{
					"inputs": [
						{
							"internalType": "uint256",
							"name": "_index",
							"type": "uint256"
						}
					],
					"name": "cekbuku3",
					"outputs": [
						{
							"internalType": "string",
							"name": "",
							"type": "string"
						},
						{
							"internalType": "string",
							"name": "",
							"type": "string"
						},
						{
							"internalType": "uint256",
							"name": "",
							"type": "uint256"
						},
						{
							"internalType": "bool",
							"name": "",
							"type": "bool"
						}
					],
					"stateMutability": "view",
					"type": "function"
				},
				{
					"inputs": [
						{
							"internalType": "string",
							"name": "title",
							"type": "string"
						},
						{
							"internalType": "string",
							"name": "author",
							"type": "string"
						},
						{
							"internalType": "uint256",
							"name": "id",
							"type": "uint256"
						},
						{
							"internalType": "bool",
							"name": "isReady",
							"type": "bool"
						}
					],
					"name": "tambahbuk3",
					"outputs": [],
					"stateMutability": "nonpayable",
					"type": "function"
				},
				{
					"inputs": [],
					"name": "tambahbuku",
					"outputs": [],
					"stateMutability": "nonpayable",
					"type": "function"
				}
			],
			"devdoc": {
				"kind": "dev",
				"methods": {},
				"version": 1
			},
			"evm": {
				"assembly": "    /* \"contracts/struct.sol\":66:1137  contract structure {... */\n  mstore(0x40, 0x80)\n    /* \"contracts/struct.sol\":532:577  buku(\"Advance Routing\", \"Just me\", 11, false) */\n  mload(0x40)\n  dup1\n  0x80\n  add\n  0x40\n  mstore\n  dup1\n  mload(0x40)\n  dup1\n  0x40\n  add\n  0x40\n  mstore\n  dup1\n  0x0f\n  dup2\n  mstore\n  0x20\n  add\n  0x416476616e636520526f7574696e670000000000000000000000000000000000\n  dup2\n  mstore\n  pop\n  dup2\n  mstore\n  0x20\n  add\n  mload(0x40)\n  dup1\n  0x40\n  add\n  0x40\n  mstore\n  dup1\n  0x07\n  dup2\n  mstore\n  0x20\n  add\n  0x4a757374206d6500000000000000000000000000000000000000000000000000\n  dup2\n  mstore\n  pop\n  dup2\n  mstore\n  0x20\n  add\n    /* \"contracts/struct.sol\":567:569  11 */\n  0x0b\n    /* \"contracts/struct.sol\":532:577  buku(\"Advance Routing\", \"Just me\", 11, false) */\n  dup2\n  mstore\n  0x20\n  add\n    /* \"contracts/struct.sol\":571:576  false */\n  0x00\n    /* \"contracts/struct.sol\":532:577  buku(\"Advance Routing\", \"Just me\", 11, false) */\n  iszero\n  iszero\n  dup2\n  mstore\n  pop\n    /* \"contracts/struct.sol\":519:577  buku buku2 = buku(\"Advance Routing\", \"Just me\", 11, false) */\n  0x04\n  0x00\n  dup3\n  add\n  mload\n  dup2\n  0x00\n  add\n  swap1\n  dup2\n  tag_1\n  swap2\n  swap1\n  tag_2\n  jump\t// in\ntag_1:\n  pop\n  0x20\n  dup3\n  add\n  mload\n  dup2\n  0x01\n  add\n  swap1\n  dup2\n  tag_3\n  swap2\n  swap1\n  tag_2\n  jump\t// in\ntag_3:\n  pop\n  0x40\n  dup3\n  add\n  mload\n  dup2\n  0x02\n  add\n  sstore\n  0x60\n  dup3\n  add\n  mload\n  dup2\n  0x03\n  add\n  exp(0x0100, 0x00)\n  dup2\n  sload\n  dup2\n  0xff\n  mul\n  not\n  and\n  swap1\n  dup4\n  iszero\n  iszero\n  mul\n  or\n  swap1\n  sstore\n  pop\n  pop\n  pop\n    /* \"contracts/struct.sol\":66:1137  contract structure {... */\n  callvalue\n  dup1\n  iszero\n  tag_4\n  jumpi\n  0x00\n  dup1\n  revert\ntag_4:\n  pop\n  jump(tag_5)\n    /* \"#utility.yul\":7:106   */\ntag_6:\n    /* \"#utility.yul\":59:65   */\n  0x00\n    /* \"#utility.yul\":93:98   */\n  dup2\n    /* \"#utility.yul\":87:99   */\n  mload\n    /* \"#utility.yul\":77:99   */\n  swap1\n  pop\n    /* \"#utility.yul\":7:106   */\n  swap2\n  swap1\n  pop\n  jump\t// out\n    /* \"#utility.yul\":112:292   */\ntag_7:\n    /* \"#utility.yul\":160:237   */\n  0x4e487b7100000000000000000000000000000000000000000000000000000000\n    /* \"#utility.yul\":157:158   */\n  0x00\n    /* \"#utility.yul\":150:238   */\n  mstore\n    /* \"#utility.yul\":257:261   */\n  0x41\n    /* \"#utility.yul\":254:255   */\n  0x04\n    /* \"#utility.yul\":247:262   */\n  mstore\n    /* \"#utility.yul\":281:285   */\n  0x24\n    /* \"#utility.yul\":278:279   */\n  0x00\n    /* \"#utility.yul\":271:286   */\n  revert\n    /* \"#utility.yul\":298:478   */\ntag_8:\n    /* \"#utility.yul\":346:423   */\n  0x4e487b7100000000000000000000000000000000000000000000000000000000\n    /* \"#utility.yul\":343:344   */\n  0x00\n    /* \"#utility.yul\":336:424   */\n  mstore\n    /* \"#utility.yul\":443:447   */\n  0x22\n    /* \"#utility.yul\":440:441   */\n  0x04\n    /* \"#utility.yul\":433:448   */\n  mstore\n    /* \"#utility.yul\":467:471   */\n  0x24\n    /* \"#utility.yul\":464:465   */\n  0x00\n    /* \"#utility.yul\":457:472   */\n  revert\n    /* \"#utility.yul\":484:804   */\ntag_9:\n    /* \"#utility.yul\":528:534   */\n  0x00\n    /* \"#utility.yul\":565:566   */\n  0x02\n    /* \"#utility.yul\":559:563   */\n  dup3\n    /* \"#utility.yul\":555:567   */\n  div\n    /* \"#utility.yul\":545:567   */\n  swap1\n  pop\n    /* \"#utility.yul\":612:613   */\n  0x01\n    /* \"#utility.yul\":606:610   */\n  dup3\n    /* \"#utility.yul\":602:614   */\n  and\n    /* \"#utility.yul\":633:651   */\n  dup1\n    /* \"#utility.yul\":623:704   */\n  tag_31\n  jumpi\n    /* \"#utility.yul\":689:693   */\n  0x7f\n    /* \"#utility.yul\":681:687   */\n  dup3\n    /* \"#utility.yul\":677:694   */\n  and\n    /* \"#utility.yul\":667:694   */\n  swap2\n  pop\n    /* \"#utility.yul\":623:704   */\ntag_31:\n    /* \"#utility.yul\":751:753   */\n  0x20\n    /* \"#utility.yul\":743:749   */\n  dup3\n    /* \"#utility.yul\":740:754   */\n  lt\n    /* \"#utility.yul\":720:738   */\n  dup2\n    /* \"#utility.yul\":717:755   */\n  sub\n    /* \"#utility.yul\":714:798   */\n  tag_32\n  jumpi\n    /* \"#utility.yul\":770:788   */\n  tag_33\n  tag_8\n  jump\t// in\ntag_33:\n    /* \"#utility.yul\":714:798   */\ntag_32:\n    /* \"#utility.yul\":535:804   */\n  pop\n    /* \"#utility.yul\":484:804   */\n  swap2\n  swap1\n  pop\n  jump\t// out\n    /* \"#utility.yul\":810:951   */\ntag_10:\n    /* \"#utility.yul\":859:863   */\n  0x00\n    /* \"#utility.yul\":882:885   */\n  dup2\n    /* \"#utility.yul\":874:885   */\n  swap1\n  pop\n    /* \"#utility.yul\":905:908   */\n  dup2\n    /* \"#utility.yul\":902:903   */\n  0x00\n    /* \"#utility.yul\":895:909   */\n  mstore\n    /* \"#utility.yul\":939:943   */\n  0x20\n    /* \"#utility.yul\":936:937   */\n  0x00\n    /* \"#utility.yul\":926:944   */\n  keccak256\n    /* \"#utility.yul\":918:944   */\n  swap1\n  pop\n    /* \"#utility.yul\":810:951   */\n  swap2\n  swap1\n  pop\n  jump\t// out\n    /* \"#utility.yul\":957:1050   */\ntag_11:\n    /* \"#utility.yul\":994:1000   */\n  0x00\n    /* \"#utility.yul\":1041:1043   */\n  0x20\n    /* \"#utility.yul\":1036:1038   */\n  0x1f\n    /* \"#utility.yul\":1029:1034   */\n  dup4\n    /* \"#utility.yul\":1025:1039   */\n  add\n    /* \"#utility.yul\":1021:1044   */\n  div\n    /* \"#utility.yul\":1011:1044   */\n  swap1\n  pop\n    /* \"#utility.yul\":957:1050   */\n  swap2\n  swap1\n  pop\n  jump\t// out\n    /* \"#utility.yul\":1056:1163   */\ntag_12:\n    /* \"#utility.yul\":1100:1108   */\n  0x00\n    /* \"#utility.yul\":1150:1155   */\n  dup3\n    /* \"#utility.yul\":1144:1148   */\n  dup3\n    /* \"#utility.yul\":1140:1156   */\n  shl\n    /* \"#utility.yul\":1119:1156   */\n  swap1\n  pop\n    /* \"#utility.yul\":1056:1163   */\n  swap3\n  swap2\n  pop\n  pop\n  jump\t// out\n    /* \"#utility.yul\":1169:1562   */\ntag_13:\n    /* \"#utility.yul\":1238:1244   */\n  0x00\n    /* \"#utility.yul\":1288:1289   */\n  0x08\n    /* \"#utility.yul\":1276:1286   */\n  dup4\n    /* \"#utility.yul\":1272:1290   */\n  mul\n    /* \"#utility.yul\":1311:1408   */\n  tag_38\n    /* \"#utility.yul\":1341:1407   */\n  0xffffffffffffffffffffffffffffffffffffffffffffffffffffffffffffffff\n    /* \"#utility.yul\":1330:1339   */\n  dup3\n    /* \"#utility.yul\":1311:1408   */\n  tag_12\n  jump\t// in\ntag_38:\n    /* \"#utility.yul\":1429:1468   */\n  tag_39\n    /* \"#utility.yul\":1459:1467   */\n  dup7\n    /* \"#utility.yul\":1448:1457   */\n  dup4\n    /* \"#utility.yul\":1429:1468   */\n  tag_12\n  jump\t// in\ntag_39:\n    /* \"#utility.yul\":1417:1468   */\n  swap6\n  pop\n    /* \"#utility.yul\":1501:1505   */\n  dup1\n    /* \"#utility.yul\":1497:1506   */\n  not\n    /* \"#utility.yul\":1490:1495   */\n  dup5\n    /* \"#utility.yul\":1486:1507   */\n  and\n    /* \"#utility.yul\":1477:1507   */\n  swap4\n  pop\n    /* \"#utility.yul\":1550:1554   */\n  dup1\n    /* \"#utility.yul\":1540:1548   */\n  dup7\n    /* \"#utility.yul\":1536:1555   */\n  and\n    /* \"#utility.yul\":1529:1534   */\n  dup5\n    /* \"#utility.yul\":1526:1556   */\n  or\n    /* \"#utility.yul\":1516:1556   */\n  swap3\n  pop\n    /* \"#utility.yul\":1245:1562   */\n  pop\n  pop\n    /* \"#utility.yul\":1169:1562   */\n  swap4\n  swap3\n  pop\n  pop\n  pop\n  jump\t// out\n    /* \"#utility.yul\":1568:1645   */\ntag_14:\n    /* \"#utility.yul\":1605:1612   */\n  0x00\n    /* \"#utility.yul\":1634:1639   */\n  dup2\n    /* \"#utility.yul\":1623:1639   */\n  swap1\n  pop\n    /* \"#utility.yul\":1568:1645   */\n  swap2\n  swap1\n  pop\n  jump\t// out\n    /* \"#utility.yul\":1651:1711   */\ntag_15:\n    /* \"#utility.yul\":1679:1682   */\n  0x00\n    /* \"#utility.yul\":1700:1705   */\n  dup2\n    /* \"#utility.yul\":1693:1705   */\n  swap1\n  pop\n    /* \"#utility.yul\":1651:1711   */\n  swap2\n  swap1\n  pop\n  jump\t// out\n    /* \"#utility.yul\":1717:1859   */\ntag_16:\n    /* \"#utility.yul\":1767:1776   */\n  0x00\n    /* \"#utility.yul\":1800:1853   */\n  tag_43\n    /* \"#utility.yul\":1818:1852   */\n  tag_44\n    /* \"#utility.yul\":1827:1851   */\n  tag_45\n    /* \"#utility.yul\":1845:1850   */\n  dup5\n    /* \"#utility.yul\":1827:1851   */\n  tag_14\n  jump\t// in\ntag_45:\n    /* \"#utility.yul\":1818:1852   */\n  tag_15\n  jump\t// in\ntag_44:\n    /* \"#utility.yul\":1800:1853   */\n  tag_14\n  jump\t// in\ntag_43:\n    /* \"#utility.yul\":1787:1853   */\n  swap1\n  pop\n    /* \"#utility.yul\":1717:1859   */\n  swap2\n  swap1\n  pop\n  jump\t// out\n    /* \"#utility.yul\":1865:1940   */\ntag_17:\n    /* \"#utility.yul\":1908:1911   */\n  0x00\n    /* \"#utility.yul\":1929:1934   */\n  dup2\n    /* \"#utility.yul\":1922:1934   */\n  swap1\n  pop\n    /* \"#utility.yul\":1865:1940   */\n  swap2\n  swap1\n  pop\n  jump\t// out\n    /* \"#utility.yul\":1946:2215   */\ntag_18:\n    /* \"#utility.yul\":2056:2095   */\n  tag_48\n    /* \"#utility.yul\":2087:2094   */\n  dup4\n    /* \"#utility.yul\":2056:2095   */\n  tag_16\n  jump\t// in\ntag_48:\n    /* \"#utility.yul\":2117:2208   */\n  tag_49\n    /* \"#utility.yul\":2166:2207   */\n  tag_50\n    /* \"#utility.yul\":2190:2206   */\n  dup3\n    /* \"#utility.yul\":2166:2207   */\n  tag_17\n  jump\t// in\ntag_50:\n    /* \"#utility.yul\":2158:2164   */\n  dup5\n    /* \"#utility.yul\":2151:2155   */\n  dup5\n    /* \"#utility.yul\":2145:2156   */\n  sload\n    /* \"#utility.yul\":2117:2208   */\n  tag_13\n  jump\t// in\ntag_49:\n    /* \"#utility.yul\":2111:2115   */\n  dup3\n    /* \"#utility.yul\":2104:2209   */\n  sstore\n    /* \"#utility.yul\":2022:2215   */\n  pop\n    /* \"#utility.yul\":1946:2215   */\n  pop\n  pop\n  pop\n  jump\t// out\n    /* \"#utility.yul\":2221:2294   */\ntag_19:\n    /* \"#utility.yul\":2266:2269   */\n  0x00\n    /* \"#utility.yul\":2221:2294   */\n  swap1\n  jump\t// out\n    /* \"#utility.yul\":2300:2489   */\ntag_20:\n    /* \"#utility.yul\":2377:2409   */\n  tag_53\n  tag_19\n  jump\t// in\ntag_53:\n    /* \"#utility.yul\":2418:2483   */\n  tag_54\n    /* \"#utility.yul\":2476:2482   */\n  dup2\n    /* \"#utility.yul\":2468:2474   */\n  dup5\n    /* \"#utility.yul\":2462:2466   */\n  dup5\n    /* \"#utility.yul\":2418:2483   */\n  tag_18\n  jump\t// in\ntag_54:\n    /* \"#utility.yul\":2353:2489   */\n  pop\n    /* \"#utility.yul\":2300:2489   */\n  pop\n  pop\n  jump\t// out\n    /* \"#utility.yul\":2495:2681   */\ntag_21:\n    /* \"#utility.yul\":2555:2675   */\ntag_56:\n    /* \"#utility.yul\":2572:2575   */\n  dup2\n    /* \"#utility.yul\":2565:2570   */\n  dup2\n    /* \"#utility.yul\":2562:2576   */\n  lt\n    /* \"#utility.yul\":2555:2675   */\n  iszero\n  tag_58\n  jumpi\n    /* \"#utility.yul\":2626:2665   */\n  tag_59\n    /* \"#utility.yul\":2663:2664   */\n  0x00\n    /* \"#utility.yul\":2656:2661   */\n  dup3\n    /* \"#utility.yul\":2626:2665   */\n  tag_20\n  jump\t// in\ntag_59:\n    /* \"#utility.yul\":2599:2600   */\n  0x01\n    /* \"#utility.yul\":2592:2597   */\n  dup2\n    /* \"#utility.yul\":2588:2601   */\n  add\n    /* \"#utility.yul\":2579:2601   */\n  swap1\n  pop\n    /* \"#utility.yul\":2555:2675   */\n  jump(tag_56)\ntag_58:\n    /* \"#utility.yul\":2495:2681   */\n  pop\n  pop\n  jump\t// out\n    /* \"#utility.yul\":2687:3230   */\ntag_22:\n    /* \"#utility.yul\":2788:2790   */\n  0x1f\n    /* \"#utility.yul\":2783:2786   */\n  dup3\n    /* \"#utility.yul\":2780:2791   */\n  gt\n    /* \"#utility.yul\":2777:3223   */\n  iszero\n  tag_61\n  jumpi\n    /* \"#utility.yul\":2822:2860   */\n  tag_62\n    /* \"#utility.yul\":2854:2859   */\n  dup2\n    /* \"#utility.yul\":2822:2860   */\n  tag_10\n  jump\t// in\ntag_62:\n    /* \"#utility.yul\":2906:2935   */\n  tag_63\n    /* \"#utility.yul\":2924:2934   */\n  dup5\n    /* \"#utility.yul\":2906:2935   */\n  tag_11\n  jump\t// in\ntag_63:\n    /* \"#utility.yul\":2896:2904   */\n  dup2\n    /* \"#utility.yul\":2892:2936   */\n  add\n    /* \"#utility.yul\":3089:3091   */\n  0x20\n    /* \"#utility.yul\":3077:3087   */\n  dup6\n    /* \"#utility.yul\":3074:3092   */\n  lt\n    /* \"#utility.yul\":3071:3120   */\n  iszero\n  tag_64\n  jumpi\n    /* \"#utility.yul\":3110:3118   */\n  dup2\n    /* \"#utility.yul\":3095:3118   */\n  swap1\n  pop\n    /* \"#utility.yul\":3071:3120   */\ntag_64:\n    /* \"#utility.yul\":3133:3213   */\n  tag_65\n    /* \"#utility.yul\":3189:3211   */\n  tag_66\n    /* \"#utility.yul\":3207:3210   */\n  dup6\n    /* \"#utility.yul\":3189:3211   */\n  tag_11\n  jump\t// in\ntag_66:\n    /* \"#utility.yul\":3179:3187   */\n  dup4\n    /* \"#utility.yul\":3175:3212   */\n  add\n    /* \"#utility.yul\":3162:3173   */\n  dup3\n    /* \"#utility.yul\":3133:3213   */\n  tag_21\n  jump\t// in\ntag_65:\n    /* \"#utility.yul\":2792:3223   */\n  pop\n  pop\n    /* \"#utility.yul\":2777:3223   */\ntag_61:\n    /* \"#utility.yul\":2687:3230   */\n  pop\n  pop\n  pop\n  jump\t// out\n    /* \"#utility.yul\":3236:3353   */\ntag_23:\n    /* \"#utility.yul\":3290:3298   */\n  0x00\n    /* \"#utility.yul\":3340:3345   */\n  dup3\n    /* \"#utility.yul\":3334:3338   */\n  dup3\n    /* \"#utility.yul\":3330:3346   */\n  shr\n    /* \"#utility.yul\":3309:3346   */\n  swap1\n  pop\n    /* \"#utility.yul\":3236:3353   */\n  swap3\n  swap2\n  pop\n  pop\n  jump\t// out\n    /* \"#utility.yul\":3359:3528   */\ntag_24:\n    /* \"#utility.yul\":3403:3409   */\n  0x00\n    /* \"#utility.yul\":3436:3487   */\n  tag_69\n    /* \"#utility.yul\":3484:3485   */\n  0x00\n    /* \"#utility.yul\":3480:3486   */\n  not\n    /* \"#utility.yul\":3472:3477   */\n  dup5\n    /* \"#utility.yul\":3469:3470   */\n  0x08\n    /* \"#utility.yul\":3465:3478   */\n  mul\n    /* \"#utility.yul\":3436:3487   */\n  tag_23\n  jump\t// in\ntag_69:\n    /* \"#utility.yul\":3432:3488   */\n  not\n    /* \"#utility.yul\":3517:3521   */\n  dup1\n    /* \"#utility.yul\":3511:3515   */\n  dup4\n    /* \"#utility.yul\":3507:3522   */\n  and\n    /* \"#utility.yul\":3497:3522   */\n  swap2\n  pop\n    /* \"#utility.yul\":3410:3528   */\n  pop\n    /* \"#utility.yul\":3359:3528   */\n  swap3\n  swap2\n  pop\n  pop\n  jump\t// out\n    /* \"#utility.yul\":3533:3828   */\ntag_25:\n    /* \"#utility.yul\":3609:3613   */\n  0x00\n    /* \"#utility.yul\":3755:3784   */\n  tag_71\n    /* \"#utility.yul\":3780:3783   */\n  dup4\n    /* \"#utility.yul\":3774:3778   */\n  dup4\n    /* \"#utility.yul\":3755:3784   */\n  tag_24\n  jump\t// in\ntag_71:\n    /* \"#utility.yul\":3747:3784   */\n  swap2\n  pop\n    /* \"#utility.yul\":3817:3820   */\n  dup3\n    /* \"#utility.yul\":3814:3815   */\n  0x02\n    /* \"#utility.yul\":3810:3821   */\n  mul\n    /* \"#utility.yul\":3804:3808   */\n  dup3\n    /* \"#utility.yul\":3801:3822   */\n  or\n    /* \"#utility.yul\":3793:3822   */\n  swap1\n  pop\n    /* \"#utility.yul\":3533:3828   */\n  swap3\n  swap2\n  pop\n  pop\n  jump\t// out\n    /* \"#utility.yul\":3833:5228   */\ntag_2:\n    /* \"#utility.yul\":3950:3987   */\n  tag_73\n    /* \"#utility.yul\":3983:3986   */\n  dup3\n    /* \"#utility.yul\":3950:3987   */\n  tag_6\n  jump\t// in\ntag_73:\n    /* \"#utility.yul\":4052:4070   */\n  0xffffffffffffffff\n    /* \"#utility.yul\":4044:4050   */\n  dup2\n    /* \"#utility.yul\":4041:4071   */\n  gt\n    /* \"#utility.yul\":4038:4094   */\n  iszero\n  tag_74\n  jumpi\n    /* \"#utility.yul\":4074:4092   */\n  tag_75\n  tag_7\n  jump\t// in\ntag_75:\n    /* \"#utility.yul\":4038:4094   */\ntag_74:\n    /* \"#utility.yul\":4118:4156   */\n  tag_76\n    /* \"#utility.yul\":4150:4154   */\n  dup3\n    /* \"#utility.yul\":4144:4155   */\n  sload\n    /* \"#utility.yul\":4118:4156   */\n  tag_9\n  jump\t// in\ntag_76:\n    /* \"#utility.yul\":4203:4270   */\n  tag_77\n    /* \"#utility.yul\":4263:4269   */\n  dup3\n    /* \"#utility.yul\":4255:4261   */\n  dup3\n    /* \"#utility.yul\":4249:4253   */\n  dup6\n    /* \"#utility.yul\":4203:4270   */\n  tag_22\n  jump\t// in\ntag_77:\n    /* \"#utility.yul\":4297:4298   */\n  0x00\n    /* \"#utility.yul\":4321:4325   */\n  0x20\n    /* \"#utility.yul\":4308:4325   */\n  swap1\n  pop\n    /* \"#utility.yul\":4353:4355   */\n  0x1f\n    /* \"#utility.yul\":4345:4351   */\n  dup4\n    /* \"#utility.yul\":4342:4356   */\n  gt\n    /* \"#utility.yul\":4370:4371   */\n  0x01\n    /* \"#utility.yul\":4365:4983   */\n  dup2\n  eq\n  tag_79\n  jumpi\n    /* \"#utility.yul\":5027:5028   */\n  0x00\n    /* \"#utility.yul\":5044:5050   */\n  dup5\n    /* \"#utility.yul\":5041:5118   */\n  iszero\n  tag_80\n  jumpi\n    /* \"#utility.yul\":5093:5102   */\n  dup3\n    /* \"#utility.yul\":5088:5091   */\n  dup8\n    /* \"#utility.yul\":5084:5103   */\n  add\n    /* \"#utility.yul\":5078:5104   */\n  mload\n    /* \"#utility.yul\":5069:5104   */\n  swap1\n  pop\n    /* \"#utility.yul\":5041:5118   */\ntag_80:\n    /* \"#utility.yul\":5144:5211   */\n  tag_81\n    /* \"#utility.yul\":5204:5210   */\n  dup6\n    /* \"#utility.yul\":5197:5202   */\n  dup3\n    /* \"#utility.yul\":5144:5211   */\n  tag_25\n  jump\t// in\ntag_81:\n    /* \"#utility.yul\":5138:5142   */\n  dup7\n    /* \"#utility.yul\":5131:5212   */\n  sstore\n    /* \"#utility.yul\":5000:5222   */\n  pop\n    /* \"#utility.yul\":4335:5222   */\n  jump(tag_78)\n    /* \"#utility.yul\":4365:4983   */\ntag_79:\n    /* \"#utility.yul\":4417:4421   */\n  0x1f\n    /* \"#utility.yul\":4413:4422   */\n  not\n    /* \"#utility.yul\":4405:4411   */\n  dup5\n    /* \"#utility.yul\":4401:4423   */\n  and\n    /* \"#utility.yul\":4451:4488   */\n  tag_82\n    /* \"#utility.yul\":4483:4487   */\n  dup7\n    /* \"#utility.yul\":4451:4488   */\n  tag_10\n  jump\t// in\ntag_82:\n    /* \"#utility.yul\":4510:4511   */\n  0x00\n    /* \"#utility.yul\":4524:4732   */\ntag_83:\n    /* \"#utility.yul\":4538:4545   */\n  dup3\n    /* \"#utility.yul\":4535:4536   */\n  dup2\n    /* \"#utility.yul\":4532:4546   */\n  lt\n    /* \"#utility.yul\":4524:4732   */\n  iszero\n  tag_85\n  jumpi\n    /* \"#utility.yul\":4617:4626   */\n  dup5\n    /* \"#utility.yul\":4612:4615   */\n  dup10\n    /* \"#utility.yul\":4608:4627   */\n  add\n    /* \"#utility.yul\":4602:4628   */\n  mload\n    /* \"#utility.yul\":4594:4600   */\n  dup3\n    /* \"#utility.yul\":4587:4629   */\n  sstore\n    /* \"#utility.yul\":4668:4669   */\n  0x01\n    /* \"#utility.yul\":4660:4666   */\n  dup3\n    /* \"#utility.yul\":4656:4670   */\n  add\n    /* \"#utility.yul\":4646:4670   */\n  swap2\n  pop\n    /* \"#utility.yul\":4715:4717   */\n  0x20\n    /* \"#utility.yul\":4704:4713   */\n  dup6\n    /* \"#utility.yul\":4700:4718   */\n  add\n    /* \"#utility.yul\":4687:4718   */\n  swap5\n  pop\n    /* \"#utility.yul\":4561:4565   */\n  0x20\n    /* \"#utility.yul\":4558:4559   */\n  dup2\n    /* \"#utility.yul\":4554:4566   */\n  add\n    /* \"#utility.yul\":4549:4566   */\n  swap1\n  pop\n    /* \"#utility.yul\":4524:4732   */\n  jump(tag_83)\ntag_85:\n    /* \"#utility.yul\":4760:4766   */\n  dup7\n    /* \"#utility.yul\":4751:4758   */\n  dup4\n    /* \"#utility.yul\":4748:4767   */\n  lt\n    /* \"#utility.yul\":4745:4924   */\n  iszero\n  tag_86\n  jumpi\n    /* \"#utility.yul\":4818:4827   */\n  dup5\n    /* \"#utility.yul\":4813:4816   */\n  dup10\n    /* \"#utility.yul\":4809:4828   */\n  add\n    /* \"#utility.yul\":4803:4829   */\n  mload\n    /* \"#utility.yul\":4861:4909   */\n  tag_87\n    /* \"#utility.yul\":4903:4907   */\n  0x1f\n    /* \"#utility.yul\":4895:4901   */\n  dup10\n    /* \"#utility.yul\":4891:4908   */\n  and\n    /* \"#utility.yul\":4880:4889   */\n  dup3\n    /* \"#utility.yul\":4861:4909   */\n  tag_24\n  jump\t// in\ntag_87:\n    /* \"#utility.yul\":4853:4859   */\n  dup4\n    /* \"#utility.yul\":4846:4910   */\n  sstore\n    /* \"#utility.yul\":4768:4924   */\n  pop\n    /* \"#utility.yul\":4745:4924   */\ntag_86:\n    /* \"#utility.yul\":4970:4971   */\n  0x01\n    /* \"#utility.yul\":4966:4967   */\n  0x02\n    /* \"#utility.yul\":4958:4964   */\n  dup9\n    /* \"#utility.yul\":4954:4968   */\n  mul\n    /* \"#utility.yul\":4950:4972   */\n  add\n    /* \"#utility.yul\":4944:4948   */\n  dup9\n    /* \"#utility.yul\":4937:4973   */\n  sstore\n    /* \"#utility.yul\":4372:4983   */\n  pop\n  pop\n  pop\n    /* \"#utility.yul\":4335:5222   */\ntag_78:\n  pop\n    /* \"#utility.yul\":3925:5228   */\n  pop\n  pop\n  pop\n    /* \"#utility.yul\":3833:5228   */\n  pop\n  pop\n  jump\t// out\n    /* \"contracts/struct.sol\":66:1137  contract structure {... */\ntag_5:\n  dataSize(sub_0)\n  dup1\n  dataOffset(sub_0)\n  0x00\n  codecopy\n  0x00\n  return\nstop\n\nsub_0: assembly {\n        /* \"contracts/struct.sol\":66:1137  contract structure {... */\n      mstore(0x40, 0x80)\n      callvalue\n      dup1\n      iszero\n      tag_1\n      jumpi\n      0x00\n      dup1\n      revert\n    tag_1:\n      pop\n      jumpi(tag_2, lt(calldatasize, 0x04))\n      shr(0xe0, calldataload(0x00))\n      dup1\n      0x52a158dd\n      eq\n      tag_3\n      jumpi\n      dup1\n      0x8c62ffde\n      eq\n      tag_4\n      jumpi\n      dup1\n      0x9960ee22\n      eq\n      tag_5\n      jumpi\n      dup1\n      0xa9d817e8\n      eq\n      tag_6\n      jumpi\n      dup1\n      0xe7bf2ba7\n      eq\n      tag_7\n      jumpi\n      dup1\n      0xea625179\n      eq\n      tag_8\n      jumpi\n    tag_2:\n      0x00\n      dup1\n      revert\n        /* \"contracts/struct.sol\":237:330  function tambahbuku() public {... */\n    tag_3:\n      tag_9\n      tag_10\n      jump\t// in\n    tag_9:\n      stop\n        /* \"contracts/struct.sol\":336:494  function cekbuku1() public view returns (string memory, string memory, uint, bool){... */\n    tag_4:\n      tag_11\n      tag_12\n      jump\t// in\n    tag_11:\n      mload(0x40)\n      tag_13\n      swap5\n      swap4\n      swap3\n      swap2\n      swap1\n      tag_14\n      jump\t// in\n    tag_13:\n      mload(0x40)\n      dup1\n      swap2\n      sub\n      swap1\n      return\n        /* \"contracts/struct.sol\":584:705  function cekbuku2() public view returns (string memory, string memory){... */\n    tag_5:\n      tag_15\n      tag_16\n      jump\t// in\n    tag_15:\n      mload(0x40)\n      tag_17\n      swap3\n      swap2\n      swap1\n      tag_18\n      jump\t// in\n    tag_17:\n      mload(0x40)\n      dup1\n      swap2\n      sub\n      swap1\n      return\n        /* \"contracts/struct.sol\":769:923  function tambahbuk3(string memory title, string memory author, uint id, bool isReady) public {... */\n    tag_6:\n      tag_19\n      0x04\n      dup1\n      calldatasize\n      sub\n      dup2\n      add\n      swap1\n      tag_20\n      swap2\n      swap1\n      tag_21\n      jump\t// in\n    tag_20:\n      tag_22\n      jump\t// in\n    tag_19:\n      stop\n        /* \"contracts/struct.sol\":929:1130  function cekbuku3(uint _index) public view returns (string memory, string memory, uint, bool){... */\n    tag_7:\n      tag_23\n      0x04\n      dup1\n      calldatasize\n      sub\n      dup2\n      add\n      swap1\n      tag_24\n      swap2\n      swap1\n      tag_25\n      jump\t// in\n    tag_24:\n      tag_26\n      jump\t// in\n    tag_23:\n      mload(0x40)\n      tag_27\n      swap5\n      swap4\n      swap3\n      swap2\n      swap1\n      tag_14\n      jump\t// in\n    tag_27:\n      mload(0x40)\n      dup1\n      swap2\n      sub\n      swap1\n      return\n        /* \"contracts/struct.sol\":743:762  buku[] public buku3 */\n    tag_8:\n      tag_28\n      0x04\n      dup1\n      calldatasize\n      sub\n      dup2\n      add\n      swap1\n      tag_29\n      swap2\n      swap1\n      tag_25\n      jump\t// in\n    tag_29:\n      tag_30\n      jump\t// in\n    tag_28:\n      mload(0x40)\n      tag_31\n      swap5\n      swap4\n      swap3\n      swap2\n      swap1\n      tag_14\n      jump\t// in\n    tag_31:\n      mload(0x40)\n      dup1\n      swap2\n      sub\n      swap1\n      return\n        /* \"contracts/struct.sol\":237:330  function tambahbuku() public {... */\n    tag_10:\n        /* \"contracts/struct.sol\":284:323  buku(\"Basic Networking\", \"Me\", 1, true) */\n      mload(0x40)\n      dup1\n      0x80\n      add\n      0x40\n      mstore\n      dup1\n      mload(0x40)\n      dup1\n      0x40\n      add\n      0x40\n      mstore\n      dup1\n      0x10\n      dup2\n      mstore\n      0x20\n      add\n      0x4261736963204e6574776f726b696e6700000000000000000000000000000000\n      dup2\n      mstore\n      pop\n      dup2\n      mstore\n      0x20\n      add\n      mload(0x40)\n      dup1\n      0x40\n      add\n      0x40\n      mstore\n      dup1\n      0x02\n      dup2\n      mstore\n      0x20\n      add\n      0x4d65000000000000000000000000000000000000000000000000000000000000\n      dup2\n      mstore\n      pop\n      dup2\n      mstore\n      0x20\n      add\n        /* \"contracts/struct.sol\":315:316  1 */\n      0x01\n        /* \"contracts/struct.sol\":284:323  buku(\"Basic Networking\", \"Me\", 1, true) */\n      dup2\n      mstore\n      0x20\n      add\n        /* \"contracts/struct.sol\":318:322  true */\n      0x01\n        /* \"contracts/struct.sol\":284:323  buku(\"Basic Networking\", \"Me\", 1, true) */\n      iszero\n      iszero\n      dup2\n      mstore\n      pop\n        /* \"contracts/struct.sol\":276:281  buku1 */\n      0x00\n        /* \"contracts/struct.sol\":276:323  buku1 = buku(\"Basic Networking\", \"Me\", 1, true) */\n      dup1\n      dup3\n      add\n      mload\n      dup2\n      0x00\n      add\n      swap1\n      dup2\n      tag_33\n      swap2\n      swap1\n      tag_34\n      jump\t// in\n    tag_33:\n      pop\n      0x20\n      dup3\n      add\n      mload\n      dup2\n      0x01\n      add\n      swap1\n      dup2\n      tag_35\n      swap2\n      swap1\n      tag_34\n      jump\t// in\n    tag_35:\n      pop\n      0x40\n      dup3\n      add\n      mload\n      dup2\n      0x02\n      add\n      sstore\n      0x60\n      dup3\n      add\n      mload\n      dup2\n      0x03\n      add\n      exp(0x0100, 0x00)\n      dup2\n      sload\n      dup2\n      0xff\n      mul\n      not\n      and\n      swap1\n      dup4\n      iszero\n      iszero\n      mul\n      or\n      swap1\n      sstore\n      pop\n      swap1\n      pop\n      pop\n        /* \"contracts/struct.sol\":237:330  function tambahbuku() public {... */\n      jump\t// out\n        /* \"contracts/struct.sol\":336:494  function cekbuku1() public view returns (string memory, string memory, uint, bool){... */\n    tag_12:\n        /* \"contracts/struct.sol\":377:390  string memory */\n      0x60\n        /* \"contracts/struct.sol\":392:405  string memory */\n      dup1\n        /* \"contracts/struct.sol\":407:411  uint */\n      0x00\n        /* \"contracts/struct.sol\":413:417  bool */\n      dup1\n        /* \"contracts/struct.sol\":436:441  buku1 */\n      0x00\n        /* \"contracts/struct.sol\":436:447  buku1.title */\n      dup1\n      add\n        /* \"contracts/struct.sol\":449:454  buku1 */\n      0x00\n        /* \"contracts/struct.sol\":449:461  buku1.author */\n      0x01\n      add\n        /* \"contracts/struct.sol\":463:468  buku1 */\n      0x00\n        /* \"contracts/struct.sol\":463:471  buku1.id */\n      0x02\n      add\n      sload\n        /* \"contracts/struct.sol\":473:478  buku1 */\n      0x00\n        /* \"contracts/struct.sol\":473:486  buku1.isReady */\n      0x03\n      add\n      0x00\n      swap1\n      sload\n      swap1\n      0x0100\n      exp\n      swap1\n      div\n      0xff\n      and\n        /* \"contracts/struct.sol\":428:487  return (buku1.title, buku1.author, buku1.id, buku1.isReady) */\n      dup4\n      dup1\n      sload\n      tag_37\n      swap1\n      tag_38\n      jump\t// in\n    tag_37:\n      dup1\n      0x1f\n      add\n      0x20\n      dup1\n      swap2\n      div\n      mul\n      0x20\n      add\n      mload(0x40)\n      swap1\n      dup2\n      add\n      0x40\n      mstore\n      dup1\n      swap3\n      swap2\n      swap1\n      dup2\n      dup2\n      mstore\n      0x20\n      add\n      dup3\n      dup1\n      sload\n      tag_39\n      swap1\n      tag_38\n      jump\t// in\n    tag_39:\n      dup1\n      iszero\n      tag_40\n      jumpi\n      dup1\n      0x1f\n      lt\n      tag_41\n      jumpi\n      0x0100\n      dup1\n      dup4\n      sload\n      div\n      mul\n      dup4\n      mstore\n      swap2\n      0x20\n      add\n      swap2\n      jump(tag_40)\n    tag_41:\n      dup3\n      add\n      swap2\n      swap1\n      0x00\n      mstore\n      keccak256(0x00, 0x20)\n      swap1\n    tag_42:\n      dup2\n      sload\n      dup2\n      mstore\n      swap1\n      0x01\n      add\n      swap1\n      0x20\n      add\n      dup1\n      dup4\n      gt\n      tag_42\n      jumpi\n      dup3\n      swap1\n      sub\n      0x1f\n      and\n      dup3\n      add\n      swap2\n    tag_40:\n      pop\n      pop\n      pop\n      pop\n      pop\n      swap4\n      pop\n      dup3\n      dup1\n      sload\n      tag_43\n      swap1\n      tag_38\n      jump\t// in\n    tag_43:\n      dup1\n      0x1f\n      add\n      0x20\n      dup1\n      swap2\n      div\n      mul\n      0x20\n      add\n      mload(0x40)\n      swap1\n      dup2\n      add\n      0x40\n      mstore\n      dup1\n      swap3\n      swap2\n      swap1\n      dup2\n      dup2\n      mstore\n      0x20\n      add\n      dup3\n      dup1\n      sload\n      tag_44\n      swap1\n      tag_38\n      jump\t// in\n    tag_44:\n      dup1\n      iszero\n      tag_45\n      jumpi\n      dup1\n      0x1f\n      lt\n      tag_46\n      jumpi\n      0x0100\n      dup1\n      dup4\n      sload\n      div\n      mul\n      dup4\n      mstore\n      swap2\n      0x20\n      add\n      swap2\n      jump(tag_45)\n    tag_46:\n      dup3\n      add\n      swap2\n      swap1\n      0x00\n      mstore\n      keccak256(0x00, 0x20)\n      swap1\n    tag_47:\n      dup2\n      sload\n      dup2\n      mstore\n      swap1\n      0x01\n      add\n      swap1\n      0x20\n      add\n      dup1\n      dup4\n      gt\n      tag_47\n      jumpi\n      dup3\n      swap1\n      sub\n      0x1f\n      and\n      dup3\n      add\n      swap2\n    tag_45:\n      pop\n      pop\n      pop\n      pop\n      pop\n      swap3\n      pop\n      swap4\n      pop\n      swap4\n      pop\n      swap4\n      pop\n      swap4\n      pop\n        /* \"contracts/struct.sol\":336:494  function cekbuku1() public view returns (string memory, string memory, uint, bool){... */\n      swap1\n      swap2\n      swap3\n      swap4\n      jump\t// out\n        /* \"contracts/struct.sol\":584:705  function cekbuku2() public view returns (string memory, string memory){... */\n    tag_16:\n        /* \"contracts/struct.sol\":625:638  string memory */\n      0x60\n        /* \"contracts/struct.sol\":640:653  string memory */\n      dup1\n        /* \"contracts/struct.sol\":672:677  buku2 */\n      0x04\n        /* \"contracts/struct.sol\":672:683  buku2.title */\n      0x00\n      add\n        /* \"contracts/struct.sol\":685:690  buku2 */\n      0x04\n        /* \"contracts/struct.sol\":685:697  buku2.author */\n      0x01\n      add\n        /* \"contracts/struct.sol\":664:698  return (buku2.title, buku2.author) */\n      dup2\n      dup1\n      sload\n      tag_49\n      swap1\n      tag_38\n      jump\t// in\n    tag_49:\n      dup1\n      0x1f\n      add\n      0x20\n      dup1\n      swap2\n      div\n      mul\n      0x20\n      add\n      mload(0x40)\n      swap1\n      dup2\n      add\n      0x40\n      mstore\n      dup1\n      swap3\n      swap2\n      swap1\n      dup2\n      dup2\n      mstore\n      0x20\n      add\n      dup3\n      dup1\n      sload\n      tag_50\n      swap1\n      tag_38\n      jump\t// in\n    tag_50:\n      dup1\n      iszero\n      tag_51\n      jumpi\n      dup1\n      0x1f\n      lt\n      tag_52\n      jumpi\n      0x0100\n      dup1\n      dup4\n      sload\n      div\n      mul\n      dup4\n      mstore\n      swap2\n      0x20\n      add\n      swap2\n      jump(tag_51)\n    tag_52:\n      dup3\n      add\n      swap2\n      swap1\n      0x00\n      mstore\n      keccak256(0x00, 0x20)\n      swap1\n    tag_53:\n      dup2\n      sload\n      dup2\n      mstore\n      swap1\n      0x01\n      add\n      swap1\n      0x20\n      add\n      dup1\n      dup4\n      gt\n      tag_53\n      jumpi\n      dup3\n      swap1\n      sub\n      0x1f\n      and\n      dup3\n      add\n      swap2\n    tag_51:\n      pop\n      pop\n      pop\n      pop\n      pop\n      swap2\n      pop\n      dup1\n      dup1\n      sload\n      tag_54\n      swap1\n      tag_38\n      jump\t// in\n    tag_54:\n      dup1\n      0x1f\n      add\n      0x20\n      dup1\n      swap2\n      div\n      mul\n      0x20\n      add\n      mload(0x40)\n      swap1\n      dup2\n      add\n      0x40\n      mstore\n      dup1\n      swap3\n      swap2\n      swap1\n      dup2\n      dup2\n      mstore\n      0x20\n      add\n      dup3\n      dup1\n      sload\n      tag_55\n      swap1\n      tag_38\n      jump\t// in\n    tag_55:\n      dup1\n      iszero\n      tag_56\n      jumpi\n      dup1\n      0x1f\n      lt\n      tag_57\n      jumpi\n      0x0100\n      dup1\n      dup4\n      sload\n      div\n      mul\n      dup4\n      mstore\n      swap2\n      0x20\n      add\n      swap2\n      jump(tag_56)\n    tag_57:\n      dup3\n      add\n      swap2\n      swap1\n      0x00\n      mstore\n      keccak256(0x00, 0x20)\n      swap1\n    tag_58:\n      dup2\n      sload\n      dup2\n      mstore\n      swap1\n      0x01\n      add\n      swap1\n      0x20\n      add\n      dup1\n      dup4\n      gt\n      tag_58\n      jumpi\n      dup3\n      swap1\n      sub\n      0x1f\n      and\n      dup3\n      add\n      swap2\n    tag_56:\n      pop\n      pop\n      pop\n      pop\n      pop\n      swap1\n      pop\n      swap2\n      pop\n      swap2\n      pop\n        /* \"contracts/struct.sol\":584:705  function cekbuku2() public view returns (string memory, string memory){... */\n      swap1\n      swap2\n      jump\t// out\n        /* \"contracts/struct.sol\":769:923  function tambahbuk3(string memory title, string memory author, uint id, bool isReady) public {... */\n    tag_22:\n        /* \"contracts/struct.sol\":872:877  buku3 */\n      0x08\n        /* \"contracts/struct.sol\":883:915  buku(title, author, id, isReady) */\n      mload(0x40)\n      dup1\n      0x80\n      add\n      0x40\n      mstore\n      dup1\n        /* \"contracts/struct.sol\":888:893  title */\n      dup7\n        /* \"contracts/struct.sol\":883:915  buku(title, author, id, isReady) */\n      dup2\n      mstore\n      0x20\n      add\n        /* \"contracts/struct.sol\":895:901  author */\n      dup6\n        /* \"contracts/struct.sol\":883:915  buku(title, author, id, isReady) */\n      dup2\n      mstore\n      0x20\n      add\n        /* \"contracts/struct.sol\":903:905  id */\n      dup5\n        /* \"contracts/struct.sol\":883:915  buku(title, author, id, isReady) */\n      dup2\n      mstore\n      0x20\n      add\n        /* \"contracts/struct.sol\":907:914  isReady */\n      dup4\n        /* \"contracts/struct.sol\":883:915  buku(title, author, id, isReady) */\n      iszero\n      iszero\n      dup2\n      mstore\n      pop\n        /* \"contracts/struct.sol\":872:916  buku3.push(buku(title, author, id, isReady)) */\n      swap1\n      dup1\n      0x01\n      dup2\n      sload\n      add\n      dup1\n      dup3\n      sstore\n      dup1\n      swap2\n      pop\n      pop\n      0x01\n      swap1\n      sub\n      swap1\n      0x00\n      mstore\n      keccak256(0x00, 0x20)\n      swap1\n      0x04\n      mul\n      add\n      0x00\n      swap1\n      swap2\n      swap1\n      swap2\n      swap1\n      swap2\n      pop\n      0x00\n      dup3\n      add\n      mload\n      dup2\n      0x00\n      add\n      swap1\n      dup2\n      tag_61\n      swap2\n      swap1\n      tag_34\n      jump\t// in\n    tag_61:\n      pop\n      0x20\n      dup3\n      add\n      mload\n      dup2\n      0x01\n      add\n      swap1\n      dup2\n      tag_62\n      swap2\n      swap1\n      tag_34\n      jump\t// in\n    tag_62:\n      pop\n      0x40\n      dup3\n      add\n      mload\n      dup2\n      0x02\n      add\n      sstore\n      0x60\n      dup3\n      add\n      mload\n      dup2\n      0x03\n      add\n      exp(0x0100, 0x00)\n      dup2\n      sload\n      dup2\n      0xff\n      mul\n      not\n      and\n      swap1\n      dup4\n      iszero\n      iszero\n      mul\n      or\n      swap1\n      sstore\n      pop\n      pop\n      pop\n        /* \"contracts/struct.sol\":769:923  function tambahbuk3(string memory title, string memory author, uint id, bool isReady) public {... */\n      pop\n      pop\n      pop\n      pop\n      jump\t// out\n        /* \"contracts/struct.sol\":929:1130  function cekbuku3(uint _index) public view returns (string memory, string memory, uint, bool){... */\n    tag_26:\n        /* \"contracts/struct.sol\":981:994  string memory */\n      0x60\n        /* \"contracts/struct.sol\":996:1009  string memory */\n      dup1\n        /* \"contracts/struct.sol\":1011:1015  uint */\n      0x00\n        /* \"contracts/struct.sol\":1017:1021  bool */\n      dup1\n        /* \"contracts/struct.sol\":1028:1046  buku storage book3 */\n      0x00\n        /* \"contracts/struct.sol\":1049:1054  buku3 */\n      0x08\n        /* \"contracts/struct.sol\":1055:1061  _index */\n      dup7\n        /* \"contracts/struct.sol\":1049:1062  buku3[_index] */\n      dup2\n      sload\n      dup2\n      lt\n      tag_64\n      jumpi\n      tag_65\n      tag_66\n      jump\t// in\n    tag_65:\n    tag_64:\n      swap1\n      0x00\n      mstore\n      keccak256(0x00, 0x20)\n      swap1\n      0x04\n      mul\n      add\n        /* \"contracts/struct.sol\":1028:1062  buku storage book3 = buku3[_index] */\n      swap1\n      pop\n        /* \"contracts/struct.sol\":1076:1081  book3 */\n      dup1\n        /* \"contracts/struct.sol\":1076:1087  book3.title */\n      0x00\n      add\n        /* \"contracts/struct.sol\":1089:1094  book3 */\n      dup2\n        /* \"contracts/struct.sol\":1089:1101  book3.author */\n      0x01\n      add\n        /* \"contracts/struct.sol\":1103:1108  book3 */\n      dup3\n        /* \"contracts/struct.sol\":1103:1111  book3.id */\n      0x02\n      add\n      sload\n        /* \"contracts/struct.sol\":1113:1118  book3 */\n      dup4\n        /* \"contracts/struct.sol\":1113:1126  book3.isReady */\n      0x03\n      add\n      0x00\n      swap1\n      sload\n      swap1\n      0x0100\n      exp\n      swap1\n      div\n      0xff\n      and\n        /* \"contracts/struct.sol\":1068:1127  return (book3.title, book3.author, book3.id, book3.isReady) */\n      dup4\n      dup1\n      sload\n      tag_68\n      swap1\n      tag_38\n      jump\t// in\n    tag_68:\n      dup1\n      0x1f\n      add\n      0x20\n      dup1\n      swap2\n      div\n      mul\n      0x20\n      add\n      mload(0x40)\n      swap1\n      dup2\n      add\n      0x40\n      mstore\n      dup1\n      swap3\n      swap2\n      swap1\n      dup2\n      dup2\n      mstore\n      0x20\n      add\n      dup3\n      dup1\n      sload\n      tag_69\n      swap1\n      tag_38\n      jump\t// in\n    tag_69:\n      dup1\n      iszero\n      tag_70\n      jumpi\n      dup1\n      0x1f\n      lt\n      tag_71\n      jumpi\n      0x0100\n      dup1\n      dup4\n      sload\n      div\n      mul\n      dup4\n      mstore\n      swap2\n      0x20\n      add\n      swap2\n      jump(tag_70)\n    tag_71:\n      dup3\n      add\n      swap2\n      swap1\n      0x00\n      mstore\n      keccak256(0x00, 0x20)\n      swap1\n    tag_72:\n      dup2\n      sload\n      dup2\n      mstore\n      swap1\n      0x01\n      add\n      swap1\n      0x20\n      add\n      dup1\n      dup4\n      gt\n      tag_72\n      jumpi\n      dup3\n      swap1\n      sub\n      0x1f\n      and\n      dup3\n      add\n      swap2\n    tag_70:\n      pop\n      pop\n      pop\n      pop\n      pop\n      swap4\n      pop\n      dup3\n      dup1\n      sload\n      tag_73\n      swap1\n      tag_38\n      jump\t// in\n    tag_73:\n      dup1\n      0x1f\n      add\n      0x20\n      dup1\n      swap2\n      div\n      mul\n      0x20\n      add\n      mload(0x40)\n      swap1\n      dup2\n      add\n      0x40\n      mstore\n      dup1\n      swap3\n      swap2\n      swap1\n      dup2\n      dup2\n      mstore\n      0x20\n      add\n      dup3\n      dup1\n      sload\n      tag_74\n      swap1\n      tag_38\n      jump\t// in\n    tag_74:\n      dup1\n      iszero\n      tag_75\n      jumpi\n      dup1\n      0x1f\n      lt\n      tag_76\n      jumpi\n      0x0100\n      dup1\n      dup4\n      sload\n      div\n      mul\n      dup4\n      mstore\n      swap2\n      0x20\n      add\n      swap2\n      jump(tag_75)\n    tag_76:\n      dup3\n      add\n      swap2\n      swap1\n      0x00\n      mstore\n      keccak256(0x00, 0x20)\n      swap1\n    tag_77:\n      dup2\n      sload\n      dup2\n      mstore\n      swap1\n      0x01\n      add\n      swap1\n      0x20\n      add\n      dup1\n      dup4\n      gt\n      tag_77\n      jumpi\n      dup3\n      swap1\n      sub\n      0x1f\n      and\n      dup3\n      add\n      swap2\n    tag_75:\n      pop\n      pop\n      pop\n      pop\n      pop\n      swap3\n      pop\n      swap5\n      pop\n      swap5\n      pop\n      swap5\n      pop\n      swap5\n      pop\n      pop\n        /* \"contracts/struct.sol\":929:1130  function cekbuku3(uint _index) public view returns (string memory, string memory, uint, bool){... */\n      swap2\n      swap4\n      pop\n      swap2\n      swap4\n      jump\t// out\n        /* \"contracts/struct.sol\":743:762  buku[] public buku3 */\n    tag_30:\n      0x08\n      dup2\n      dup2\n      sload\n      dup2\n      lt\n      tag_78\n      jumpi\n      0x00\n      dup1\n      revert\n    tag_78:\n      swap1\n      0x00\n      mstore\n      keccak256(0x00, 0x20)\n      swap1\n      0x04\n      mul\n      add\n      0x00\n      swap2\n      pop\n      swap1\n      pop\n      dup1\n      0x00\n      add\n      dup1\n      sload\n      tag_80\n      swap1\n      tag_38\n      jump\t// in\n    tag_80:\n      dup1\n      0x1f\n      add\n      0x20\n      dup1\n      swap2\n      div\n      mul\n      0x20\n      add\n      mload(0x40)\n      swap1\n      dup2\n      add\n      0x40\n      mstore\n      dup1\n      swap3\n      swap2\n      swap1\n      dup2\n      dup2\n      mstore\n      0x20\n      add\n      dup3\n      dup1\n      sload\n      tag_81\n      swap1\n      tag_38\n      jump\t// in\n    tag_81:\n      dup1\n      iszero\n      tag_82\n      jumpi\n      dup1\n      0x1f\n      lt\n      tag_83\n      jumpi\n      0x0100\n      dup1\n      dup4\n      sload\n      div\n      mul\n      dup4\n      mstore\n      swap2\n      0x20\n      add\n      swap2\n      jump(tag_82)\n    tag_83:\n      dup3\n      add\n      swap2\n      swap1\n      0x00\n      mstore\n      keccak256(0x00, 0x20)\n      swap1\n    tag_84:\n      dup2\n      sload\n      dup2\n      mstore\n      swap1\n      0x01\n      add\n      swap1\n      0x20\n      add\n      dup1\n      dup4\n      gt\n      tag_84\n      jumpi\n      dup3\n      swap1\n      sub\n      0x1f\n      and\n      dup3\n      add\n      swap2\n    tag_82:\n      pop\n      pop\n      pop\n      pop\n      pop\n      swap1\n      dup1\n      0x01\n      add\n      dup1\n      sload\n      tag_85\n      swap1\n      tag_38\n      jump\t// in\n    tag_85:\n      dup1\n      0x1f\n      add\n      0x20\n      dup1\n      swap2\n      div\n      mul\n      0x20\n      add\n      mload(0x40)\n      swap1\n      dup2\n      add\n      0x40\n      mstore\n      dup1\n      swap3\n      swap2\n      swap1\n      dup2\n      dup2\n      mstore\n      0x20\n      add\n      dup3\n      dup1\n      sload\n      tag_86\n      swap1\n      tag_38\n      jump\t// in\n    tag_86:\n      dup1\n      iszero\n      tag_87\n      jumpi\n      dup1\n      0x1f\n      lt\n      tag_88\n      jumpi\n      0x0100\n      dup1\n      dup4\n      sload\n      div\n      mul\n      dup4\n      mstore\n      swap2\n      0x20\n      add\n      swap2\n      jump(tag_87)\n    tag_88:\n      dup3\n      add\n      swap2\n      swap1\n      0x00\n      mstore\n      keccak256(0x00, 0x20)\n      swap1\n    tag_89:\n      dup2\n      sload\n      dup2\n      mstore\n      swap1\n      0x01\n      add\n      swap1\n      0x20\n      add\n      dup1\n      dup4\n      gt\n      tag_89\n      jumpi\n      dup3\n      swap1\n      sub\n      0x1f\n      and\n      dup3\n      add\n      swap2\n    tag_87:\n      pop\n      pop\n      pop\n      pop\n      pop\n      swap1\n      dup1\n      0x02\n      add\n      sload\n      swap1\n      dup1\n      0x03\n      add\n      0x00\n      swap1\n      sload\n      swap1\n      0x0100\n      exp\n      swap1\n      div\n      0xff\n      and\n      swap1\n      pop\n      dup5\n      jump\t// out\n        /* \"#utility.yul\":7:106   */\n    tag_90:\n        /* \"#utility.yul\":59:65   */\n      0x00\n        /* \"#utility.yul\":93:98   */\n      dup2\n        /* \"#utility.yul\":87:99   */\n      mload\n        /* \"#utility.yul\":77:99   */\n      swap1\n      pop\n        /* \"#utility.yul\":7:106   */\n      swap2\n      swap1\n      pop\n      jump\t// out\n        /* \"#utility.yul\":112:281   */\n    tag_91:\n        /* \"#utility.yul\":196:207   */\n      0x00\n        /* \"#utility.yul\":230:236   */\n      dup3\n        /* \"#utility.yul\":225:228   */\n      dup3\n        /* \"#utility.yul\":218:237   */\n      mstore\n        /* \"#utility.yul\":270:274   */\n      0x20\n        /* \"#utility.yul\":265:268   */\n      dup3\n        /* \"#utility.yul\":261:275   */\n      add\n        /* \"#utility.yul\":246:275   */\n      swap1\n      pop\n        /* \"#utility.yul\":112:281   */\n      swap3\n      swap2\n      pop\n      pop\n      jump\t// out\n        /* \"#utility.yul\":287:426   */\n    tag_92:\n        /* \"#utility.yul\":376:382   */\n      dup3\n        /* \"#utility.yul\":371:374   */\n      dup2\n        /* \"#utility.yul\":366:369   */\n      dup4\n        /* \"#utility.yul\":360:383   */\n      mcopy\n        /* \"#utility.yul\":417:418   */\n      0x00\n        /* \"#utility.yul\":408:414   */\n      dup4\n        /* \"#utility.yul\":403:406   */\n      dup4\n        /* \"#utility.yul\":399:415   */\n      add\n        /* \"#utility.yul\":392:419   */\n      mstore\n        /* \"#utility.yul\":287:426   */\n      pop\n      pop\n      pop\n      jump\t// out\n        /* \"#utility.yul\":432:534   */\n    tag_93:\n        /* \"#utility.yul\":473:479   */\n      0x00\n        /* \"#utility.yul\":524:526   */\n      0x1f\n        /* \"#utility.yul\":520:527   */\n      not\n        /* \"#utility.yul\":515:517   */\n      0x1f\n        /* \"#utility.yul\":508:513   */\n      dup4\n        /* \"#utility.yul\":504:518   */\n      add\n        /* \"#utility.yul\":500:528   */\n      and\n        /* \"#utility.yul\":490:528   */\n      swap1\n      pop\n        /* \"#utility.yul\":432:534   */\n      swap2\n      swap1\n      pop\n      jump\t// out\n        /* \"#utility.yul\":540:917   */\n    tag_94:\n        /* \"#utility.yul\":628:631   */\n      0x00\n        /* \"#utility.yul\":656:695   */\n      tag_137\n        /* \"#utility.yul\":689:694   */\n      dup3\n        /* \"#utility.yul\":656:695   */\n      tag_90\n      jump\t// in\n    tag_137:\n        /* \"#utility.yul\":711:782   */\n      tag_138\n        /* \"#utility.yul\":775:781   */\n      dup2\n        /* \"#utility.yul\":770:773   */\n      dup6\n        /* \"#utility.yul\":711:782   */\n      tag_91\n      jump\t// in\n    tag_138:\n        /* \"#utility.yul\":704:782   */\n      swap4\n      pop\n        /* \"#utility.yul\":791:856   */\n      tag_139\n        /* \"#utility.yul\":849:855   */\n      dup2\n        /* \"#utility.yul\":844:847   */\n      dup6\n        /* \"#utility.yul\":837:841   */\n      0x20\n        /* \"#utility.yul\":830:835   */\n      dup7\n        /* \"#utility.yul\":826:842   */\n      add\n        /* \"#utility.yul\":791:856   */\n      tag_92\n      jump\t// in\n    tag_139:\n        /* \"#utility.yul\":881:910   */\n      tag_140\n        /* \"#utility.yul\":903:909   */\n      dup2\n        /* \"#utility.yul\":881:910   */\n      tag_93\n      jump\t// in\n    tag_140:\n        /* \"#utility.yul\":876:879   */\n      dup5\n        /* \"#utility.yul\":872:911   */\n      add\n        /* \"#utility.yul\":865:911   */\n      swap2\n      pop\n        /* \"#utility.yul\":632:917   */\n      pop\n        /* \"#utility.yul\":540:917   */\n      swap3\n      swap2\n      pop\n      pop\n      jump\t// out\n        /* \"#utility.yul\":923:1000   */\n    tag_95:\n        /* \"#utility.yul\":960:967   */\n      0x00\n        /* \"#utility.yul\":989:994   */\n      dup2\n        /* \"#utility.yul\":978:994   */\n      swap1\n      pop\n        /* \"#utility.yul\":923:1000   */\n      swap2\n      swap1\n      pop\n      jump\t// out\n        /* \"#utility.yul\":1006:1124   */\n    tag_96:\n        /* \"#utility.yul\":1093:1117   */\n      tag_143\n        /* \"#utility.yul\":1111:1116   */\n      dup2\n        /* \"#utility.yul\":1093:1117   */\n      tag_95\n      jump\t// in\n    tag_143:\n        /* \"#utility.yul\":1088:1091   */\n      dup3\n        /* \"#utility.yul\":1081:1118   */\n      mstore\n        /* \"#utility.yul\":1006:1124   */\n      pop\n      pop\n      jump\t// out\n        /* \"#utility.yul\":1130:1220   */\n    tag_97:\n        /* \"#utility.yul\":1164:1171   */\n      0x00\n        /* \"#utility.yul\":1207:1212   */\n      dup2\n        /* \"#utility.yul\":1200:1213   */\n      iszero\n        /* \"#utility.yul\":1193:1214   */\n      iszero\n        /* \"#utility.yul\":1182:1214   */\n      swap1\n      pop\n        /* \"#utility.yul\":1130:1220   */\n      swap2\n      swap1\n      pop\n      jump\t// out\n        /* \"#utility.yul\":1226:1335   */\n    tag_98:\n        /* \"#utility.yul\":1307:1328   */\n      tag_146\n        /* \"#utility.yul\":1322:1327   */\n      dup2\n        /* \"#utility.yul\":1307:1328   */\n      tag_97\n      jump\t// in\n    tag_146:\n        /* \"#utility.yul\":1302:1305   */\n      dup3\n        /* \"#utility.yul\":1295:1329   */\n      mstore\n        /* \"#utility.yul\":1226:1335   */\n      pop\n      pop\n      jump\t// out\n        /* \"#utility.yul\":1341:2064   */\n    tag_14:\n        /* \"#utility.yul\":1552:1556   */\n      0x00\n        /* \"#utility.yul\":1590:1593   */\n      0x80\n        /* \"#utility.yul\":1579:1588   */\n      dup3\n        /* \"#utility.yul\":1575:1594   */\n      add\n        /* \"#utility.yul\":1567:1594   */\n      swap1\n      pop\n        /* \"#utility.yul\":1640:1649   */\n      dup2\n        /* \"#utility.yul\":1634:1638   */\n      dup2\n        /* \"#utility.yul\":1630:1650   */\n      sub\n        /* \"#utility.yul\":1626:1627   */\n      0x00\n        /* \"#utility.yul\":1615:1624   */\n      dup4\n        /* \"#utility.yul\":1611:1628   */\n      add\n        /* \"#utility.yul\":1604:1651   */\n      mstore\n        /* \"#utility.yul\":1668:1746   */\n      tag_148\n        /* \"#utility.yul\":1741:1745   */\n      dup2\n        /* \"#utility.yul\":1732:1738   */\n      dup8\n        /* \"#utility.yul\":1668:1746   */\n      tag_94\n      jump\t// in\n    tag_148:\n        /* \"#utility.yul\":1660:1746   */\n      swap1\n      pop\n        /* \"#utility.yul\":1793:1802   */\n      dup2\n        /* \"#utility.yul\":1787:1791   */\n      dup2\n        /* \"#utility.yul\":1783:1803   */\n      sub\n        /* \"#utility.yul\":1778:1780   */\n      0x20\n        /* \"#utility.yul\":1767:1776   */\n      dup4\n        /* \"#utility.yul\":1763:1781   */\n      add\n        /* \"#utility.yul\":1756:1804   */\n      mstore\n        /* \"#utility.yul\":1821:1899   */\n      tag_149\n        /* \"#utility.yul\":1894:1898   */\n      dup2\n        /* \"#utility.yul\":1885:1891   */\n      dup7\n        /* \"#utility.yul\":1821:1899   */\n      tag_94\n      jump\t// in\n    tag_149:\n        /* \"#utility.yul\":1813:1899   */\n      swap1\n      pop\n        /* \"#utility.yul\":1909:1981   */\n      tag_150\n        /* \"#utility.yul\":1977:1979   */\n      0x40\n        /* \"#utility.yul\":1966:1975   */\n      dup4\n        /* \"#utility.yul\":1962:1980   */\n      add\n        /* \"#utility.yul\":1953:1959   */\n      dup6\n        /* \"#utility.yul\":1909:1981   */\n      tag_96\n      jump\t// in\n    tag_150:\n        /* \"#utility.yul\":1991:2057   */\n      tag_151\n        /* \"#utility.yul\":2053:2055   */\n      0x60\n        /* \"#utility.yul\":2042:2051   */\n      dup4\n        /* \"#utility.yul\":2038:2056   */\n      add\n        /* \"#utility.yul\":2029:2035   */\n      dup5\n        /* \"#utility.yul\":1991:2057   */\n      tag_98\n      jump\t// in\n    tag_151:\n        /* \"#utility.yul\":1341:2064   */\n      swap6\n      swap5\n      pop\n      pop\n      pop\n      pop\n      pop\n      jump\t// out\n        /* \"#utility.yul\":2070:2584   */\n    tag_18:\n        /* \"#utility.yul\":2231:2235   */\n      0x00\n        /* \"#utility.yul\":2269:2271   */\n      0x40\n        /* \"#utility.yul\":2258:2267   */\n      dup3\n        /* \"#utility.yul\":2254:2272   */\n      add\n        /* \"#utility.yul\":2246:2272   */\n      swap1\n      pop\n        /* \"#utility.yul\":2318:2327   */\n      dup2\n        /* \"#utility.yul\":2312:2316   */\n      dup2\n        /* \"#utility.yul\":2308:2328   */\n      sub\n        /* \"#utility.yul\":2304:2305   */\n      0x00\n        /* \"#utility.yul\":2293:2302   */\n      dup4\n        /* \"#utility.yul\":2289:2306   */\n      add\n        /* \"#utility.yul\":2282:2329   */\n      mstore\n        /* \"#utility.yul\":2346:2424   */\n      tag_153\n        /* \"#utility.yul\":2419:2423   */\n      dup2\n        /* \"#utility.yul\":2410:2416   */\n      dup6\n        /* \"#utility.yul\":2346:2424   */\n      tag_94\n      jump\t// in\n    tag_153:\n        /* \"#utility.yul\":2338:2424   */\n      swap1\n      pop\n        /* \"#utility.yul\":2471:2480   */\n      dup2\n        /* \"#utility.yul\":2465:2469   */\n      dup2\n        /* \"#utility.yul\":2461:2481   */\n      sub\n        /* \"#utility.yul\":2456:2458   */\n      0x20\n        /* \"#utility.yul\":2445:2454   */\n      dup4\n        /* \"#utility.yul\":2441:2459   */\n      add\n        /* \"#utility.yul\":2434:2482   */\n      mstore\n        /* \"#utility.yul\":2499:2577   */\n      tag_154\n        /* \"#utility.yul\":2572:2576   */\n      dup2\n        /* \"#utility.yul\":2563:2569   */\n      dup5\n        /* \"#utility.yul\":2499:2577   */\n      tag_94\n      jump\t// in\n    tag_154:\n        /* \"#utility.yul\":2491:2577   */\n      swap1\n      pop\n        /* \"#utility.yul\":2070:2584   */\n      swap4\n      swap3\n      pop\n      pop\n      pop\n      jump\t// out\n        /* \"#utility.yul\":2590:2665   */\n    tag_99:\n        /* \"#utility.yul\":2623:2629   */\n      0x00\n        /* \"#utility.yul\":2656:2658   */\n      0x40\n        /* \"#utility.yul\":2650:2659   */\n      mload\n        /* \"#utility.yul\":2640:2659   */\n      swap1\n      pop\n        /* \"#utility.yul\":2590:2665   */\n      swap1\n      jump\t// out\n        /* \"#utility.yul\":2671:2788   */\n    tag_100:\n        /* \"#utility.yul\":2780:2781   */\n      0x00\n        /* \"#utility.yul\":2777:2778   */\n      dup1\n        /* \"#utility.yul\":2770:2782   */\n      revert\n        /* \"#utility.yul\":2794:2911   */\n    tag_101:\n        /* \"#utility.yul\":2903:2904   */\n      0x00\n        /* \"#utility.yul\":2900:2901   */\n      dup1\n        /* \"#utility.yul\":2893:2905   */\n      revert\n        /* \"#utility.yul\":2917:3034   */\n    tag_102:\n        /* \"#utility.yul\":3026:3027   */\n      0x00\n        /* \"#utility.yul\":3023:3024   */\n      dup1\n        /* \"#utility.yul\":3016:3028   */\n      revert\n        /* \"#utility.yul\":3040:3157   */\n    tag_103:\n        /* \"#utility.yul\":3149:3150   */\n      0x00\n        /* \"#utility.yul\":3146:3147   */\n      dup1\n        /* \"#utility.yul\":3139:3151   */\n      revert\n        /* \"#utility.yul\":3163:3343   */\n    tag_104:\n        /* \"#utility.yul\":3211:3288   */\n      0x4e487b7100000000000000000000000000000000000000000000000000000000\n        /* \"#utility.yul\":3208:3209   */\n      0x00\n        /* \"#utility.yul\":3201:3289   */\n      mstore\n        /* \"#utility.yul\":3308:3312   */\n      0x41\n        /* \"#utility.yul\":3305:3306   */\n      0x04\n        /* \"#utility.yul\":3298:3313   */\n      mstore\n        /* \"#utility.yul\":3332:3336   */\n      0x24\n        /* \"#utility.yul\":3329:3330   */\n      0x00\n        /* \"#utility.yul\":3322:3337   */\n      revert\n        /* \"#utility.yul\":3349:3630   */\n    tag_105:\n        /* \"#utility.yul\":3432:3459   */\n      tag_162\n        /* \"#utility.yul\":3454:3458   */\n      dup3\n        /* \"#utility.yul\":3432:3459   */\n      tag_93\n      jump\t// in\n    tag_162:\n        /* \"#utility.yul\":3424:3430   */\n      dup2\n        /* \"#utility.yul\":3420:3460   */\n      add\n        /* \"#utility.yul\":3562:3568   */\n      dup2\n        /* \"#utility.yul\":3550:3560   */\n      dup2\n        /* \"#utility.yul\":3547:3569   */\n      lt\n        /* \"#utility.yul\":3526:3544   */\n      0xffffffffffffffff\n        /* \"#utility.yul\":3514:3524   */\n      dup3\n        /* \"#utility.yul\":3511:3545   */\n      gt\n        /* \"#utility.yul\":3508:3570   */\n      or\n        /* \"#utility.yul\":3505:3593   */\n      iszero\n      tag_163\n      jumpi\n        /* \"#utility.yul\":3573:3591   */\n      tag_164\n      tag_104\n      jump\t// in\n    tag_164:\n        /* \"#utility.yul\":3505:3593   */\n    tag_163:\n        /* \"#utility.yul\":3613:3623   */\n      dup1\n        /* \"#utility.yul\":3609:3611   */\n      0x40\n        /* \"#utility.yul\":3602:3624   */\n      mstore\n        /* \"#utility.yul\":3392:3630   */\n      pop\n        /* \"#utility.yul\":3349:3630   */\n      pop\n      pop\n      jump\t// out\n        /* \"#utility.yul\":3636:3765   */\n    tag_106:\n        /* \"#utility.yul\":3670:3676   */\n      0x00\n        /* \"#utility.yul\":3697:3717   */\n      tag_166\n      tag_99\n      jump\t// in\n    tag_166:\n        /* \"#utility.yul\":3687:3717   */\n      swap1\n      pop\n        /* \"#utility.yul\":3726:3759   */\n      tag_167\n        /* \"#utility.yul\":3754:3758   */\n      dup3\n        /* \"#utility.yul\":3746:3752   */\n      dup3\n        /* \"#utility.yul\":3726:3759   */\n      tag_105\n      jump\t// in\n    tag_167:\n        /* \"#utility.yul\":3636:3765   */\n      swap2\n      swap1\n      pop\n      jump\t// out\n        /* \"#utility.yul\":3771:4079   */\n    tag_107:\n        /* \"#utility.yul\":3833:3837   */\n      0x00\n        /* \"#utility.yul\":3923:3941   */\n      0xffffffffffffffff\n        /* \"#utility.yul\":3915:3921   */\n      dup3\n        /* \"#utility.yul\":3912:3942   */\n      gt\n        /* \"#utility.yul\":3909:3965   */\n      iszero\n      tag_169\n      jumpi\n        /* \"#utility.yul\":3945:3963   */\n      tag_170\n      tag_104\n      jump\t// in\n    tag_170:\n        /* \"#utility.yul\":3909:3965   */\n    tag_169:\n        /* \"#utility.yul\":3983:4012   */\n      tag_171\n        /* \"#utility.yul\":4005:4011   */\n      dup3\n        /* \"#utility.yul\":3983:4012   */\n      tag_93\n      jump\t// in\n    tag_171:\n        /* \"#utility.yul\":3975:4012   */\n      swap1\n      pop\n        /* \"#utility.yul\":4067:4071   */\n      0x20\n        /* \"#utility.yul\":4061:4065   */\n      dup2\n        /* \"#utility.yul\":4057:4072   */\n      add\n        /* \"#utility.yul\":4049:4072   */\n      swap1\n      pop\n        /* \"#utility.yul\":3771:4079   */\n      swap2\n      swap1\n      pop\n      jump\t// out\n        /* \"#utility.yul\":4085:4233   */\n    tag_108:\n        /* \"#utility.yul\":4183:4189   */\n      dup3\n        /* \"#utility.yul\":4178:4181   */\n      dup2\n        /* \"#utility.yul\":4173:4176   */\n      dup4\n        /* \"#utility.yul\":4160:4190   */\n      calldatacopy\n        /* \"#utility.yul\":4224:4225   */\n      0x00\n        /* \"#utility.yul\":4215:4221   */\n      dup4\n        /* \"#utility.yul\":4210:4213   */\n      dup4\n        /* \"#utility.yul\":4206:4222   */\n      add\n        /* \"#utility.yul\":4199:4226   */\n      mstore\n        /* \"#utility.yul\":4085:4233   */\n      pop\n      pop\n      pop\n      jump\t// out\n        /* \"#utility.yul\":4239:4664   */\n    tag_109:\n        /* \"#utility.yul\":4317:4322   */\n      0x00\n        /* \"#utility.yul\":4342:4408   */\n      tag_174\n        /* \"#utility.yul\":4358:4407   */\n      tag_175\n        /* \"#utility.yul\":4400:4406   */\n      dup5\n        /* \"#utility.yul\":4358:4407   */\n      tag_107\n      jump\t// in\n    tag_175:\n        /* \"#utility.yul\":4342:4408   */\n      tag_106\n      jump\t// in\n    tag_174:\n        /* \"#utility.yul\":4333:4408   */\n      swap1\n      pop\n        /* \"#utility.yul\":4431:4437   */\n      dup3\n        /* \"#utility.yul\":4424:4429   */\n      dup2\n        /* \"#utility.yul\":4417:4438   */\n      mstore\n        /* \"#utility.yul\":4469:4473   */\n      0x20\n        /* \"#utility.yul\":4462:4467   */\n      dup2\n        /* \"#utility.yul\":4458:4474   */\n      add\n        /* \"#utility.yul\":4507:4510   */\n      dup5\n        /* \"#utility.yul\":4498:4504   */\n      dup5\n        /* \"#utility.yul\":4493:4496   */\n      dup5\n        /* \"#utility.yul\":4489:4505   */\n      add\n        /* \"#utility.yul\":4486:4511   */\n      gt\n        /* \"#utility.yul\":4483:4595   */\n      iszero\n      tag_176\n      jumpi\n        /* \"#utility.yul\":4514:4593   */\n      tag_177\n      tag_103\n      jump\t// in\n    tag_177:\n        /* \"#utility.yul\":4483:4595   */\n    tag_176:\n        /* \"#utility.yul\":4604:4658   */\n      tag_178\n        /* \"#utility.yul\":4651:4657   */\n      dup5\n        /* \"#utility.yul\":4646:4649   */\n      dup3\n        /* \"#utility.yul\":4641:4644   */\n      dup6\n        /* \"#utility.yul\":4604:4658   */\n      tag_108\n      jump\t// in\n    tag_178:\n        /* \"#utility.yul\":4323:4664   */\n      pop\n        /* \"#utility.yul\":4239:4664   */\n      swap4\n      swap3\n      pop\n      pop\n      pop\n      jump\t// out\n        /* \"#utility.yul\":4684:5024   */\n    tag_110:\n        /* \"#utility.yul\":4740:4745   */\n      0x00\n        /* \"#utility.yul\":4789:4792   */\n      dup3\n        /* \"#utility.yul\":4782:4786   */\n      0x1f\n        /* \"#utility.yul\":4774:4780   */\n      dup4\n        /* \"#utility.yul\":4770:4787   */\n      add\n        /* \"#utility.yul\":4766:4793   */\n      slt\n        /* \"#utility.yul\":4756:4878   */\n      tag_180\n      jumpi\n        /* \"#utility.yul\":4797:4876   */\n      tag_181\n      tag_102\n      jump\t// in\n    tag_181:\n        /* \"#utility.yul\":4756:4878   */\n    tag_180:\n        /* \"#utility.yul\":4914:4920   */\n      dup2\n        /* \"#utility.yul\":4901:4921   */\n      calldataload\n        /* \"#utility.yul\":4939:5018   */\n      tag_182\n        /* \"#utility.yul\":5014:5017   */\n      dup5\n        /* \"#utility.yul\":5006:5012   */\n      dup3\n        /* \"#utility.yul\":4999:5003   */\n      0x20\n        /* \"#utility.yul\":4991:4997   */\n      dup7\n        /* \"#utility.yul\":4987:5004   */\n      add\n        /* \"#utility.yul\":4939:5018   */\n      tag_109\n      jump\t// in\n    tag_182:\n        /* \"#utility.yul\":4930:5018   */\n      swap2\n      pop\n        /* \"#utility.yul\":4746:5024   */\n      pop\n        /* \"#utility.yul\":4684:5024   */\n      swap3\n      swap2\n      pop\n      pop\n      jump\t// out\n        /* \"#utility.yul\":5030:5152   */\n    tag_111:\n        /* \"#utility.yul\":5103:5127   */\n      tag_184\n        /* \"#utility.yul\":5121:5126   */\n      dup2\n        /* \"#utility.yul\":5103:5127   */\n      tag_95\n      jump\t// in\n    tag_184:\n        /* \"#utility.yul\":5096:5101   */\n      dup2\n        /* \"#utility.yul\":5093:5128   */\n      eq\n        /* \"#utility.yul\":5083:5146   */\n      tag_185\n      jumpi\n        /* \"#utility.yul\":5142:5143   */\n      0x00\n        /* \"#utility.yul\":5139:5140   */\n      dup1\n        /* \"#utility.yul\":5132:5144   */\n      revert\n        /* \"#utility.yul\":5083:5146   */\n    tag_185:\n        /* \"#utility.yul\":5030:5152   */\n      pop\n      jump\t// out\n        /* \"#utility.yul\":5158:5297   */\n    tag_112:\n        /* \"#utility.yul\":5204:5209   */\n      0x00\n        /* \"#utility.yul\":5242:5248   */\n      dup2\n        /* \"#utility.yul\":5229:5249   */\n      calldataload\n        /* \"#utility.yul\":5220:5249   */\n      swap1\n      pop\n        /* \"#utility.yul\":5258:5291   */\n      tag_187\n        /* \"#utility.yul\":5285:5290   */\n      dup2\n        /* \"#utility.yul\":5258:5291   */\n      tag_111\n      jump\t// in\n    tag_187:\n        /* \"#utility.yul\":5158:5297   */\n      swap3\n      swap2\n      pop\n      pop\n      jump\t// out\n        /* \"#utility.yul\":5303:5419   */\n    tag_113:\n        /* \"#utility.yul\":5373:5394   */\n      tag_189\n        /* \"#utility.yul\":5388:5393   */\n      dup2\n        /* \"#utility.yul\":5373:5394   */\n      tag_97\n      jump\t// in\n    tag_189:\n        /* \"#utility.yul\":5366:5371   */\n      dup2\n        /* \"#utility.yul\":5363:5395   */\n      eq\n        /* \"#utility.yul\":5353:5413   */\n      tag_190\n      jumpi\n        /* \"#utility.yul\":5409:5410   */\n      0x00\n        /* \"#utility.yul\":5406:5407   */\n      dup1\n        /* \"#utility.yul\":5399:5411   */\n      revert\n        /* \"#utility.yul\":5353:5413   */\n    tag_190:\n        /* \"#utility.yul\":5303:5419   */\n      pop\n      jump\t// out\n        /* \"#utility.yul\":5425:5558   */\n    tag_114:\n        /* \"#utility.yul\":5468:5473   */\n      0x00\n        /* \"#utility.yul\":5506:5512   */\n      dup2\n        /* \"#utility.yul\":5493:5513   */\n      calldataload\n        /* \"#utility.yul\":5484:5513   */\n      swap1\n      pop\n        /* \"#utility.yul\":5522:5552   */\n      tag_192\n        /* \"#utility.yul\":5546:5551   */\n      dup2\n        /* \"#utility.yul\":5522:5552   */\n      tag_113\n      jump\t// in\n    tag_192:\n        /* \"#utility.yul\":5425:5558   */\n      swap3\n      swap2\n      pop\n      pop\n      jump\t// out\n        /* \"#utility.yul\":5564:6683   */\n    tag_21:\n        /* \"#utility.yul\":5667:5673   */\n      0x00\n        /* \"#utility.yul\":5675:5681   */\n      dup1\n        /* \"#utility.yul\":5683:5689   */\n      0x00\n        /* \"#utility.yul\":5691:5697   */\n      dup1\n        /* \"#utility.yul\":5740:5743   */\n      0x80\n        /* \"#utility.yul\":5728:5737   */\n      dup6\n        /* \"#utility.yul\":5719:5726   */\n      dup8\n        /* \"#utility.yul\":5715:5738   */\n      sub\n        /* \"#utility.yul\":5711:5744   */\n      slt\n        /* \"#utility.yul\":5708:5828   */\n      iszero\n      tag_194\n      jumpi\n        /* \"#utility.yul\":5747:5826   */\n      tag_195\n      tag_100\n      jump\t// in\n    tag_195:\n        /* \"#utility.yul\":5708:5828   */\n    tag_194:\n        /* \"#utility.yul\":5895:5896   */\n      0x00\n        /* \"#utility.yul\":5884:5893   */\n      dup6\n        /* \"#utility.yul\":5880:5897   */\n      add\n        /* \"#utility.yul\":5867:5898   */\n      calldataload\n        /* \"#utility.yul\":5925:5943   */\n      0xffffffffffffffff\n        /* \"#utility.yul\":5917:5923   */\n      dup2\n        /* \"#utility.yul\":5914:5944   */\n      gt\n        /* \"#utility.yul\":5911:6028   */\n      iszero\n      tag_196\n      jumpi\n        /* \"#utility.yul\":5947:6026   */\n      tag_197\n      tag_101\n      jump\t// in\n    tag_197:\n        /* \"#utility.yul\":5911:6028   */\n    tag_196:\n        /* \"#utility.yul\":6052:6115   */\n      tag_198\n        /* \"#utility.yul\":6107:6114   */\n      dup8\n        /* \"#utility.yul\":6098:6104   */\n      dup3\n        /* \"#utility.yul\":6087:6096   */\n      dup9\n        /* \"#utility.yul\":6083:6105   */\n      add\n        /* \"#utility.yul\":6052:6115   */\n      tag_110\n      jump\t// in\n    tag_198:\n        /* \"#utility.yul\":6042:6115   */\n      swap5\n      pop\n        /* \"#utility.yul\":5838:6125   */\n      pop\n        /* \"#utility.yul\":6192:6194   */\n      0x20\n        /* \"#utility.yul\":6181:6190   */\n      dup6\n        /* \"#utility.yul\":6177:6195   */\n      add\n        /* \"#utility.yul\":6164:6196   */\n      calldataload\n        /* \"#utility.yul\":6223:6241   */\n      0xffffffffffffffff\n        /* \"#utility.yul\":6215:6221   */\n      dup2\n        /* \"#utility.yul\":6212:6242   */\n      gt\n        /* \"#utility.yul\":6209:6326   */\n      iszero\n      tag_199\n      jumpi\n        /* \"#utility.yul\":6245:6324   */\n      tag_200\n      tag_101\n      jump\t// in\n    tag_200:\n        /* \"#utility.yul\":6209:6326   */\n    tag_199:\n        /* \"#utility.yul\":6350:6413   */\n      tag_201\n        /* \"#utility.yul\":6405:6412   */\n      dup8\n        /* \"#utility.yul\":6396:6402   */\n      dup3\n        /* \"#utility.yul\":6385:6394   */\n      dup9\n        /* \"#utility.yul\":6381:6403   */\n      add\n        /* \"#utility.yul\":6350:6413   */\n      tag_110\n      jump\t// in\n    tag_201:\n        /* \"#utility.yul\":6340:6413   */\n      swap4\n      pop\n        /* \"#utility.yul\":6135:6423   */\n      pop\n        /* \"#utility.yul\":6462:6464   */\n      0x40\n        /* \"#utility.yul\":6488:6541   */\n      tag_202\n        /* \"#utility.yul\":6533:6540   */\n      dup8\n        /* \"#utility.yul\":6524:6530   */\n      dup3\n        /* \"#utility.yul\":6513:6522   */\n      dup9\n        /* \"#utility.yul\":6509:6531   */\n      add\n        /* \"#utility.yul\":6488:6541   */\n      tag_112\n      jump\t// in\n    tag_202:\n        /* \"#utility.yul\":6478:6541   */\n      swap3\n      pop\n        /* \"#utility.yul\":6433:6551   */\n      pop\n        /* \"#utility.yul\":6590:6592   */\n      0x60\n        /* \"#utility.yul\":6616:6666   */\n      tag_203\n        /* \"#utility.yul\":6658:6665   */\n      dup8\n        /* \"#utility.yul\":6649:6655   */\n      dup3\n        /* \"#utility.yul\":6638:6647   */\n      dup9\n        /* \"#utility.yul\":6634:6656   */\n      add\n        /* \"#utility.yul\":6616:6666   */\n      tag_114\n      jump\t// in\n    tag_203:\n        /* \"#utility.yul\":6606:6666   */\n      swap2\n      pop\n        /* \"#utility.yul\":6561:6676   */\n      pop\n        /* \"#utility.yul\":5564:6683   */\n      swap3\n      swap6\n      swap2\n      swap5\n      pop\n      swap3\n      pop\n      jump\t// out\n        /* \"#utility.yul\":6689:7018   */\n    tag_25:\n        /* \"#utility.yul\":6748:6754   */\n      0x00\n        /* \"#utility.yul\":6797:6799   */\n      0x20\n        /* \"#utility.yul\":6785:6794   */\n      dup3\n        /* \"#utility.yul\":6776:6783   */\n      dup5\n        /* \"#utility.yul\":6772:6795   */\n      sub\n        /* \"#utility.yul\":6768:6800   */\n      slt\n        /* \"#utility.yul\":6765:6884   */\n      iszero\n      tag_205\n      jumpi\n        /* \"#utility.yul\":6803:6882   */\n      tag_206\n      tag_100\n      jump\t// in\n    tag_206:\n        /* \"#utility.yul\":6765:6884   */\n    tag_205:\n        /* \"#utility.yul\":6923:6924   */\n      0x00\n        /* \"#utility.yul\":6948:7001   */\n      tag_207\n        /* \"#utility.yul\":6993:7000   */\n      dup5\n        /* \"#utility.yul\":6984:6990   */\n      dup3\n        /* \"#utility.yul\":6973:6982   */\n      dup6\n        /* \"#utility.yul\":6969:6991   */\n      add\n        /* \"#utility.yul\":6948:7001   */\n      tag_112\n      jump\t// in\n    tag_207:\n        /* \"#utility.yul\":6938:7001   */\n      swap2\n      pop\n        /* \"#utility.yul\":6894:7011   */\n      pop\n        /* \"#utility.yul\":6689:7018   */\n      swap3\n      swap2\n      pop\n      pop\n      jump\t// out\n        /* \"#utility.yul\":7024:7204   */\n    tag_115:\n        /* \"#utility.yul\":7072:7149   */\n      0x4e487b7100000000000000000000000000000000000000000000000000000000\n        /* \"#utility.yul\":7069:7070   */\n      0x00\n        /* \"#utility.yul\":7062:7150   */\n      mstore\n        /* \"#utility.yul\":7169:7173   */\n      0x22\n        /* \"#utility.yul\":7166:7167   */\n      0x04\n        /* \"#utility.yul\":7159:7174   */\n      mstore\n        /* \"#utility.yul\":7193:7197   */\n      0x24\n        /* \"#utility.yul\":7190:7191   */\n      0x00\n        /* \"#utility.yul\":7183:7198   */\n      revert\n        /* \"#utility.yul\":7210:7530   */\n    tag_38:\n        /* \"#utility.yul\":7254:7260   */\n      0x00\n        /* \"#utility.yul\":7291:7292   */\n      0x02\n        /* \"#utility.yul\":7285:7289   */\n      dup3\n        /* \"#utility.yul\":7281:7293   */\n      div\n        /* \"#utility.yul\":7271:7293   */\n      swap1\n      pop\n        /* \"#utility.yul\":7338:7339   */\n      0x01\n        /* \"#utility.yul\":7332:7336   */\n      dup3\n        /* \"#utility.yul\":7328:7340   */\n      and\n        /* \"#utility.yul\":7359:7377   */\n      dup1\n        /* \"#utility.yul\":7349:7430   */\n      tag_210\n      jumpi\n        /* \"#utility.yul\":7415:7419   */\n      0x7f\n        /* \"#utility.yul\":7407:7413   */\n      dup3\n        /* \"#utility.yul\":7403:7420   */\n      and\n        /* \"#utility.yul\":7393:7420   */\n      swap2\n      pop\n        /* \"#utility.yul\":7349:7430   */\n    tag_210:\n        /* \"#utility.yul\":7477:7479   */\n      0x20\n        /* \"#utility.yul\":7469:7475   */\n      dup3\n        /* \"#utility.yul\":7466:7480   */\n      lt\n        /* \"#utility.yul\":7446:7464   */\n      dup2\n        /* \"#utility.yul\":7443:7481   */\n      sub\n        /* \"#utility.yul\":7440:7524   */\n      tag_211\n      jumpi\n        /* \"#utility.yul\":7496:7514   */\n      tag_212\n      tag_115\n      jump\t// in\n    tag_212:\n        /* \"#utility.yul\":7440:7524   */\n    tag_211:\n        /* \"#utility.yul\":7261:7530   */\n      pop\n        /* \"#utility.yul\":7210:7530   */\n      swap2\n      swap1\n      pop\n      jump\t// out\n        /* \"#utility.yul\":7536:7677   */\n    tag_116:\n        /* \"#utility.yul\":7585:7589   */\n      0x00\n        /* \"#utility.yul\":7608:7611   */\n      dup2\n        /* \"#utility.yul\":7600:7611   */\n      swap1\n      pop\n        /* \"#utility.yul\":7631:7634   */\n      dup2\n        /* \"#utility.yul\":7628:7629   */\n      0x00\n        /* \"#utility.yul\":7621:7635   */\n      mstore\n        /* \"#utility.yul\":7665:7669   */\n      0x20\n        /* \"#utility.yul\":7662:7663   */\n      0x00\n        /* \"#utility.yul\":7652:7670   */\n      keccak256\n        /* \"#utility.yul\":7644:7670   */\n      swap1\n      pop\n        /* \"#utility.yul\":7536:7677   */\n      swap2\n      swap1\n      pop\n      jump\t// out\n        /* \"#utility.yul\":7683:7776   */\n    tag_117:\n        /* \"#utility.yul\":7720:7726   */\n      0x00\n        /* \"#utility.yul\":7767:7769   */\n      0x20\n        /* \"#utility.yul\":7762:7764   */\n      0x1f\n        /* \"#utility.yul\":7755:7760   */\n      dup4\n        /* \"#utility.yul\":7751:7765   */\n      add\n        /* \"#utility.yul\":7747:7770   */\n      div\n        /* \"#utility.yul\":7737:7770   */\n      swap1\n      pop\n        /* \"#utility.yul\":7683:7776   */\n      swap2\n      swap1\n      pop\n      jump\t// out\n        /* \"#utility.yul\":7782:7889   */\n    tag_118:\n        /* \"#utility.yul\":7826:7834   */\n      0x00\n        /* \"#utility.yul\":7876:7881   */\n      dup3\n        /* \"#utility.yul\":7870:7874   */\n      dup3\n        /* \"#utility.yul\":7866:7882   */\n      shl\n        /* \"#utility.yul\":7845:7882   */\n      swap1\n      pop\n        /* \"#utility.yul\":7782:7889   */\n      swap3\n      swap2\n      pop\n      pop\n      jump\t// out\n        /* \"#utility.yul\":7895:8288   */\n    tag_119:\n        /* \"#utility.yul\":7964:7970   */\n      0x00\n        /* \"#utility.yul\":8014:8015   */\n      0x08\n        /* \"#utility.yul\":8002:8012   */\n      dup4\n        /* \"#utility.yul\":7998:8016   */\n      mul\n        /* \"#utility.yul\":8037:8134   */\n      tag_217\n        /* \"#utility.yul\":8067:8133   */\n      0xffffffffffffffffffffffffffffffffffffffffffffffffffffffffffffffff\n        /* \"#utility.yul\":8056:8065   */\n      dup3\n        /* \"#utility.yul\":8037:8134   */\n      tag_118\n      jump\t// in\n    tag_217:\n        /* \"#utility.yul\":8155:8194   */\n      tag_218\n        /* \"#utility.yul\":8185:8193   */\n      dup7\n        /* \"#utility.yul\":8174:8183   */\n      dup4\n        /* \"#utility.yul\":8155:8194   */\n      tag_118\n      jump\t// in\n    tag_218:\n        /* \"#utility.yul\":8143:8194   */\n      swap6\n      pop\n        /* \"#utility.yul\":8227:8231   */\n      dup1\n        /* \"#utility.yul\":8223:8232   */\n      not\n        /* \"#utility.yul\":8216:8221   */\n      dup5\n        /* \"#utility.yul\":8212:8233   */\n      and\n        /* \"#utility.yul\":8203:8233   */\n      swap4\n      pop\n        /* \"#utility.yul\":8276:8280   */\n      dup1\n        /* \"#utility.yul\":8266:8274   */\n      dup7\n        /* \"#utility.yul\":8262:8281   */\n      and\n        /* \"#utility.yul\":8255:8260   */\n      dup5\n        /* \"#utility.yul\":8252:8282   */\n      or\n        /* \"#utility.yul\":8242:8282   */\n      swap3\n      pop\n        /* \"#utility.yul\":7971:8288   */\n      pop\n      pop\n        /* \"#utility.yul\":7895:8288   */\n      swap4\n      swap3\n      pop\n      pop\n      pop\n      jump\t// out\n        /* \"#utility.yul\":8294:8354   */\n    tag_120:\n        /* \"#utility.yul\":8322:8325   */\n      0x00\n        /* \"#utility.yul\":8343:8348   */\n      dup2\n        /* \"#utility.yul\":8336:8348   */\n      swap1\n      pop\n        /* \"#utility.yul\":8294:8354   */\n      swap2\n      swap1\n      pop\n      jump\t// out\n        /* \"#utility.yul\":8360:8502   */\n    tag_121:\n        /* \"#utility.yul\":8410:8419   */\n      0x00\n        /* \"#utility.yul\":8443:8496   */\n      tag_221\n        /* \"#utility.yul\":8461:8495   */\n      tag_222\n        /* \"#utility.yul\":8470:8494   */\n      tag_223\n        /* \"#utility.yul\":8488:8493   */\n      dup5\n        /* \"#utility.yul\":8470:8494   */\n      tag_95\n      jump\t// in\n    tag_223:\n        /* \"#utility.yul\":8461:8495   */\n      tag_120\n      jump\t// in\n    tag_222:\n        /* \"#utility.yul\":8443:8496   */\n      tag_95\n      jump\t// in\n    tag_221:\n        /* \"#utility.yul\":8430:8496   */\n      swap1\n      pop\n        /* \"#utility.yul\":8360:8502   */\n      swap2\n      swap1\n      pop\n      jump\t// out\n        /* \"#utility.yul\":8508:8583   */\n    tag_122:\n        /* \"#utility.yul\":8551:8554   */\n      0x00\n        /* \"#utility.yul\":8572:8577   */\n      dup2\n        /* \"#utility.yul\":8565:8577   */\n      swap1\n      pop\n        /* \"#utility.yul\":8508:8583   */\n      swap2\n      swap1\n      pop\n      jump\t// out\n        /* \"#utility.yul\":8589:8858   */\n    tag_123:\n        /* \"#utility.yul\":8699:8738   */\n      tag_226\n        /* \"#utility.yul\":8730:8737   */\n      dup4\n        /* \"#utility.yul\":8699:8738   */\n      tag_121\n      jump\t// in\n    tag_226:\n        /* \"#utility.yul\":8760:8851   */\n      tag_227\n        /* \"#utility.yul\":8809:8850   */\n      tag_228\n        /* \"#utility.yul\":8833:8849   */\n      dup3\n        /* \"#utility.yul\":8809:8850   */\n      tag_122\n      jump\t// in\n    tag_228:\n        /* \"#utility.yul\":8801:8807   */\n      dup5\n        /* \"#utility.yul\":8794:8798   */\n      dup5\n        /* \"#utility.yul\":8788:8799   */\n      sload\n        /* \"#utility.yul\":8760:8851   */\n      tag_119\n      jump\t// in\n    tag_227:\n        /* \"#utility.yul\":8754:8758   */\n      dup3\n        /* \"#utility.yul\":8747:8852   */\n      sstore\n        /* \"#utility.yul\":8665:8858   */\n      pop\n        /* \"#utility.yul\":8589:8858   */\n      pop\n      pop\n      pop\n      jump\t// out\n        /* \"#utility.yul\":8864:8937   */\n    tag_124:\n        /* \"#utility.yul\":8909:8912   */\n      0x00\n        /* \"#utility.yul\":8864:8937   */\n      swap1\n      jump\t// out\n        /* \"#utility.yul\":8943:9132   */\n    tag_125:\n        /* \"#utility.yul\":9020:9052   */\n      tag_231\n      tag_124\n      jump\t// in\n    tag_231:\n        /* \"#utility.yul\":9061:9126   */\n      tag_232\n        /* \"#utility.yul\":9119:9125   */\n      dup2\n        /* \"#utility.yul\":9111:9117   */\n      dup5\n        /* \"#utility.yul\":9105:9109   */\n      dup5\n        /* \"#utility.yul\":9061:9126   */\n      tag_123\n      jump\t// in\n    tag_232:\n        /* \"#utility.yul\":8996:9132   */\n      pop\n        /* \"#utility.yul\":8943:9132   */\n      pop\n      pop\n      jump\t// out\n        /* \"#utility.yul\":9138:9324   */\n    tag_126:\n        /* \"#utility.yul\":9198:9318   */\n    tag_234:\n        /* \"#utility.yul\":9215:9218   */\n      dup2\n        /* \"#utility.yul\":9208:9213   */\n      dup2\n        /* \"#utility.yul\":9205:9219   */\n      lt\n        /* \"#utility.yul\":9198:9318   */\n      iszero\n      tag_236\n      jumpi\n        /* \"#utility.yul\":9269:9308   */\n      tag_237\n        /* \"#utility.yul\":9306:9307   */\n      0x00\n        /* \"#utility.yul\":9299:9304   */\n      dup3\n        /* \"#utility.yul\":9269:9308   */\n      tag_125\n      jump\t// in\n    tag_237:\n        /* \"#utility.yul\":9242:9243   */\n      0x01\n        /* \"#utility.yul\":9235:9240   */\n      dup2\n        /* \"#utility.yul\":9231:9244   */\n      add\n        /* \"#utility.yul\":9222:9244   */\n      swap1\n      pop\n        /* \"#utility.yul\":9198:9318   */\n      jump(tag_234)\n    tag_236:\n        /* \"#utility.yul\":9138:9324   */\n      pop\n      pop\n      jump\t// out\n        /* \"#utility.yul\":9330:9873   */\n    tag_127:\n        /* \"#utility.yul\":9431:9433   */\n      0x1f\n        /* \"#utility.yul\":9426:9429   */\n      dup3\n        /* \"#utility.yul\":9423:9434   */\n      gt\n        /* \"#utility.yul\":9420:9866   */\n      iszero\n      tag_239\n      jumpi\n        /* \"#utility.yul\":9465:9503   */\n      tag_240\n        /* \"#utility.yul\":9497:9502   */\n      dup2\n        /* \"#utility.yul\":9465:9503   */\n      tag_116\n      jump\t// in\n    tag_240:\n        /* \"#utility.yul\":9549:9578   */\n      tag_241\n        /* \"#utility.yul\":9567:9577   */\n      dup5\n        /* \"#utility.yul\":9549:9578   */\n      tag_117\n      jump\t// in\n    tag_241:\n        /* \"#utility.yul\":9539:9547   */\n      dup2\n        /* \"#utility.yul\":9535:9579   */\n      add\n        /* \"#utility.yul\":9732:9734   */\n      0x20\n        /* \"#utility.yul\":9720:9730   */\n      dup6\n        /* \"#utility.yul\":9717:9735   */\n      lt\n        /* \"#utility.yul\":9714:9763   */\n      iszero\n      tag_242\n      jumpi\n        /* \"#utility.yul\":9753:9761   */\n      dup2\n        /* \"#utility.yul\":9738:9761   */\n      swap1\n      pop\n        /* \"#utility.yul\":9714:9763   */\n    tag_242:\n        /* \"#utility.yul\":9776:9856   */\n      tag_243\n        /* \"#utility.yul\":9832:9854   */\n      tag_244\n        /* \"#utility.yul\":9850:9853   */\n      dup6\n        /* \"#utility.yul\":9832:9854   */\n      tag_117\n      jump\t// in\n    tag_244:\n        /* \"#utility.yul\":9822:9830   */\n      dup4\n        /* \"#utility.yul\":9818:9855   */\n      add\n        /* \"#utility.yul\":9805:9816   */\n      dup3\n        /* \"#utility.yul\":9776:9856   */\n      tag_126\n      jump\t// in\n    tag_243:\n        /* \"#utility.yul\":9435:9866   */\n      pop\n      pop\n        /* \"#utility.yul\":9420:9866   */\n    tag_239:\n        /* \"#utility.yul\":9330:9873   */\n      pop\n      pop\n      pop\n      jump\t// out\n        /* \"#utility.yul\":9879:9996   */\n    tag_128:\n        /* \"#utility.yul\":9933:9941   */\n      0x00\n        /* \"#utility.yul\":9983:9988   */\n      dup3\n        /* \"#utility.yul\":9977:9981   */\n      dup3\n        /* \"#utility.yul\":9973:9989   */\n      shr\n        /* \"#utility.yul\":9952:9989   */\n      swap1\n      pop\n        /* \"#utility.yul\":9879:9996   */\n      swap3\n      swap2\n      pop\n      pop\n      jump\t// out\n        /* \"#utility.yul\":10002:10171   */\n    tag_129:\n        /* \"#utility.yul\":10046:10052   */\n      0x00\n        /* \"#utility.yul\":10079:10130   */\n      tag_247\n        /* \"#utility.yul\":10127:10128   */\n      0x00\n        /* \"#utility.yul\":10123:10129   */\n      not\n        /* \"#utility.yul\":10115:10120   */\n      dup5\n        /* \"#utility.yul\":10112:10113   */\n      0x08\n        /* \"#utility.yul\":10108:10121   */\n      mul\n        /* \"#utility.yul\":10079:10130   */\n      tag_128\n      jump\t// in\n    tag_247:\n        /* \"#utility.yul\":10075:10131   */\n      not\n        /* \"#utility.yul\":10160:10164   */\n      dup1\n        /* \"#utility.yul\":10154:10158   */\n      dup4\n        /* \"#utility.yul\":10150:10165   */\n      and\n        /* \"#utility.yul\":10140:10165   */\n      swap2\n      pop\n        /* \"#utility.yul\":10053:10171   */\n      pop\n        /* \"#utility.yul\":10002:10171   */\n      swap3\n      swap2\n      pop\n      pop\n      jump\t// out\n        /* \"#utility.yul\":10176:10471   */\n    tag_130:\n        /* \"#utility.yul\":10252:10256   */\n      0x00\n        /* \"#utility.yul\":10398:10427   */\n      tag_249\n        /* \"#utility.yul\":10423:10426   */\n      dup4\n        /* \"#utility.yul\":10417:10421   */\n      dup4\n        /* \"#utility.yul\":10398:10427   */\n      tag_129\n      jump\t// in\n    tag_249:\n        /* \"#utility.yul\":10390:10427   */\n      swap2\n      pop\n        /* \"#utility.yul\":10460:10463   */\n      dup3\n        /* \"#utility.yul\":10457:10458   */\n      0x02\n        /* \"#utility.yul\":10453:10464   */\n      mul\n        /* \"#utility.yul\":10447:10451   */\n      dup3\n        /* \"#utility.yul\":10444:10465   */\n      or\n        /* \"#utility.yul\":10436:10465   */\n      swap1\n      pop\n        /* \"#utility.yul\":10176:10471   */\n      swap3\n      swap2\n      pop\n      pop\n      jump\t// out\n        /* \"#utility.yul\":10476:11871   */\n    tag_34:\n        /* \"#utility.yul\":10593:10630   */\n      tag_251\n        /* \"#utility.yul\":10626:10629   */\n      dup3\n        /* \"#utility.yul\":10593:10630   */\n      tag_90\n      jump\t// in\n    tag_251:\n        /* \"#utility.yul\":10695:10713   */\n      0xffffffffffffffff\n        /* \"#utility.yul\":10687:10693   */\n      dup2\n        /* \"#utility.yul\":10684:10714   */\n      gt\n        /* \"#utility.yul\":10681:10737   */\n      iszero\n      tag_252\n      jumpi\n        /* \"#utility.yul\":10717:10735   */\n      tag_253\n      tag_104\n      jump\t// in\n    tag_253:\n        /* \"#utility.yul\":10681:10737   */\n    tag_252:\n        /* \"#utility.yul\":10761:10799   */\n      tag_254\n        /* \"#utility.yul\":10793:10797   */\n      dup3\n        /* \"#utility.yul\":10787:10798   */\n      sload\n        /* \"#utility.yul\":10761:10799   */\n      tag_38\n      jump\t// in\n    tag_254:\n        /* \"#utility.yul\":10846:10913   */\n      tag_255\n        /* \"#utility.yul\":10906:10912   */\n      dup3\n        /* \"#utility.yul\":10898:10904   */\n      dup3\n        /* \"#utility.yul\":10892:10896   */\n      dup6\n        /* \"#utility.yul\":10846:10913   */\n      tag_127\n      jump\t// in\n    tag_255:\n        /* \"#utility.yul\":10940:10941   */\n      0x00\n        /* \"#utility.yul\":10964:10968   */\n      0x20\n        /* \"#utility.yul\":10951:10968   */\n      swap1\n      pop\n        /* \"#utility.yul\":10996:10998   */\n      0x1f\n        /* \"#utility.yul\":10988:10994   */\n      dup4\n        /* \"#utility.yul\":10985:10999   */\n      gt\n        /* \"#utility.yul\":11013:11014   */\n      0x01\n        /* \"#utility.yul\":11008:11626   */\n      dup2\n      eq\n      tag_257\n      jumpi\n        /* \"#utility.yul\":11670:11671   */\n      0x00\n        /* \"#utility.yul\":11687:11693   */\n      dup5\n        /* \"#utility.yul\":11684:11761   */\n      iszero\n      tag_258\n      jumpi\n        /* \"#utility.yul\":11736:11745   */\n      dup3\n        /* \"#utility.yul\":11731:11734   */\n      dup8\n        /* \"#utility.yul\":11727:11746   */\n      add\n        /* \"#utility.yul\":11721:11747   */\n      mload\n        /* \"#utility.yul\":11712:11747   */\n      swap1\n      pop\n        /* \"#utility.yul\":11684:11761   */\n    tag_258:\n        /* \"#utility.yul\":11787:11854   */\n      tag_259\n        /* \"#utility.yul\":11847:11853   */\n      dup6\n        /* \"#utility.yul\":11840:11845   */\n      dup3\n        /* \"#utility.yul\":11787:11854   */\n      tag_130\n      jump\t// in\n    tag_259:\n        /* \"#utility.yul\":11781:11785   */\n      dup7\n        /* \"#utility.yul\":11774:11855   */\n      sstore\n        /* \"#utility.yul\":11643:11865   */\n      pop\n        /* \"#utility.yul\":10978:11865   */\n      jump(tag_256)\n        /* \"#utility.yul\":11008:11626   */\n    tag_257:\n        /* \"#utility.yul\":11060:11064   */\n      0x1f\n        /* \"#utility.yul\":11056:11065   */\n      not\n        /* \"#utility.yul\":11048:11054   */\n      dup5\n        /* \"#utility.yul\":11044:11066   */\n      and\n        /* \"#utility.yul\":11094:11131   */\n      tag_260\n        /* \"#utility.yul\":11126:11130   */\n      dup7\n        /* \"#utility.yul\":11094:11131   */\n      tag_116\n      jump\t// in\n    tag_260:\n        /* \"#utility.yul\":11153:11154   */\n      0x00\n        /* \"#utility.yul\":11167:11375   */\n    tag_261:\n        /* \"#utility.yul\":11181:11188   */\n      dup3\n        /* \"#utility.yul\":11178:11179   */\n      dup2\n        /* \"#utility.yul\":11175:11189   */\n      lt\n        /* \"#utility.yul\":11167:11375   */\n      iszero\n      tag_263\n      jumpi\n        /* \"#utility.yul\":11260:11269   */\n      dup5\n        /* \"#utility.yul\":11255:11258   */\n      dup10\n        /* \"#utility.yul\":11251:11270   */\n      add\n        /* \"#utility.yul\":11245:11271   */\n      mload\n        /* \"#utility.yul\":11237:11243   */\n      dup3\n        /* \"#utility.yul\":11230:11272   */\n      sstore\n        /* \"#utility.yul\":11311:11312   */\n      0x01\n        /* \"#utility.yul\":11303:11309   */\n      dup3\n        /* \"#utility.yul\":11299:11313   */\n      add\n        /* \"#utility.yul\":11289:11313   */\n      swap2\n      pop\n        /* \"#utility.yul\":11358:11360   */\n      0x20\n        /* \"#utility.yul\":11347:11356   */\n      dup6\n        /* \"#utility.yul\":11343:11361   */\n      add\n        /* \"#utility.yul\":11330:11361   */\n      swap5\n      pop\n        /* \"#utility.yul\":11204:11208   */\n      0x20\n        /* \"#utility.yul\":11201:11202   */\n      dup2\n        /* \"#utility.yul\":11197:11209   */\n      add\n        /* \"#utility.yul\":11192:11209   */\n      swap1\n      pop\n        /* \"#utility.yul\":11167:11375   */\n      jump(tag_261)\n    tag_263:\n        /* \"#utility.yul\":11403:11409   */\n      dup7\n        /* \"#utility.yul\":11394:11401   */\n      dup4\n        /* \"#utility.yul\":11391:11410   */\n      lt\n        /* \"#utility.yul\":11388:11567   */\n      iszero\n      tag_264\n      jumpi\n        /* \"#utility.yul\":11461:11470   */\n      dup5\n        /* \"#utility.yul\":11456:11459   */\n      dup10\n        /* \"#utility.yul\":11452:11471   */\n      add\n        /* \"#utility.yul\":11446:11472   */\n      mload\n        /* \"#utility.yul\":11504:11552   */\n      tag_265\n        /* \"#utility.yul\":11546:11550   */\n      0x1f\n        /* \"#utility.yul\":11538:11544   */\n      dup10\n        /* \"#utility.yul\":11534:11551   */\n      and\n        /* \"#utility.yul\":11523:11532   */\n      dup3\n        /* \"#utility.yul\":11504:11552   */\n      tag_129\n      jump\t// in\n    tag_265:\n        /* \"#utility.yul\":11496:11502   */\n      dup4\n        /* \"#utility.yul\":11489:11553   */\n      sstore\n        /* \"#utility.yul\":11411:11567   */\n      pop\n        /* \"#utility.yul\":11388:11567   */\n    tag_264:\n        /* \"#utility.yul\":11613:11614   */\n      0x01\n        /* \"#utility.yul\":11609:11610   */\n      0x02\n        /* \"#utility.yul\":11601:11607   */\n      dup9\n        /* \"#utility.yul\":11597:11611   */\n      mul\n        /* \"#utility.yul\":11593:11615   */\n      add\n        /* \"#utility.yul\":11587:11591   */\n      dup9\n        /* \"#utility.yul\":11580:11616   */\n      sstore\n        /* \"#utility.yul\":11015:11626   */\n      pop\n      pop\n      pop\n        /* \"#utility.yul\":10978:11865   */\n    tag_256:\n      pop\n        /* \"#utility.yul\":10568:11871   */\n      pop\n      pop\n      pop\n        /* \"#utility.yul\":10476:11871   */\n      pop\n      pop\n      jump\t// out\n        /* \"#utility.yul\":11877:12057   */\n    tag_66:\n        /* \"#utility.yul\":11925:12002   */\n      0x4e487b7100000000000000000000000000000000000000000000000000000000\n        /* \"#utility.yul\":11922:11923   */\n      0x00\n        /* \"#utility.yul\":11915:12003   */\n      mstore\n        /* \"#utility.yul\":12022:12026   */\n      0x32\n        /* \"#utility.yul\":12019:12020   */\n      0x04\n        /* \"#utility.yul\":12012:12027   */\n      mstore\n        /* \"#utility.yul\":12046:12050   */\n      0x24\n        /* \"#utility.yul\":12043:12044   */\n      0x00\n        /* \"#utility.yul\":12036:12051   */\n      revert\n\n    auxdata: 0xa26469706673582212209f25830c1a29a37775882f5f7be03d3ff6aa3c173b24cd1a52790547e669561d64736f6c634300081a0033\n}\n",
				"bytecode": {
					"linkReferences": {},
					"object": "608060405260405180608001604052806040518060400160405280600f81526020017f416476616e636520526f7574696e67000000000000000000000000000000000081525081526020016040518060400160405280600781526020017f4a757374206d65000000000000000000000000000000000000000000000000008152508152602001600b81526020015f151581525060045f820151815f0190816100a79190610334565b5060208201518160010190816100bd9190610334565b50604082015181600201556060820151816003015f6101000a81548160ff02191690831515021790555050503480156100f4575f80fd5b50610403565b5f81519050919050565b7f4e487b71000000000000000000000000000000000000000000000000000000005f52604160045260245ffd5b7f4e487b71000000000000000000000000000000000000000000000000000000005f52602260045260245ffd5b5f600282049050600182168061017557607f821691505b60208210810361018857610187610131565b5b50919050565b5f819050815f5260205f209050919050565b5f6020601f8301049050919050565b5f82821b905092915050565b5f600883026101ea7fffffffffffffffffffffffffffffffffffffffffffffffffffffffffffffffff826101af565b6101f486836101af565b95508019841693508086168417925050509392505050565b5f819050919050565b5f819050919050565b5f61023861023361022e8461020c565b610215565b61020c565b9050919050565b5f819050919050565b6102518361021e565b61026561025d8261023f565b8484546101bb565b825550505050565b5f90565b61027961026d565b610284818484610248565b505050565b5b818110156102a75761029c5f82610271565b60018101905061028a565b5050565b601f8211156102ec576102bd8161018e565b6102c6846101a0565b810160208510156102d5578190505b6102e96102e1856101a0565b830182610289565b50505b505050565b5f82821c905092915050565b5f61030c5f19846008026102f1565b1980831691505092915050565b5f61032483836102fd565b9150826002028217905092915050565b61033d826100fa565b67ffffffffffffffff81111561035657610355610104565b5b610360825461015e565b61036b8282856102ab565b5f60209050601f83116001811461039c575f841561038a578287015190505b6103948582610319565b8655506103fb565b601f1984166103aa8661018e565b5f5b828110156103d1578489015182556001820191506020850194506020810190506103ac565b868310156103ee57848901516103ea601f8916826102fd565b8355505b6001600288020188555050505b505050505050565b610e92806104105f395ff3fe608060405234801561000f575f80fd5b5060043610610060575f3560e01c806352a158dd146100645780638c62ffde1461006e5780639960ee221461008f578063a9d817e8146100ae578063e7bf2ba7146100ca578063ea625179146100fd575b5f80fd5b61006c610130565b005b610076610218565b6040516100869493929190610888565b60405180910390f35b61009761035c565b6040516100a59291906108d9565b60405180910390f35b6100c860048036038101906100c39190610a9f565b610484565b005b6100e460048036038101906100df9190610b3b565b61052a565b6040516100f49493929190610888565b60405180910390f35b61011760048036038101906101129190610b3b565b610693565b6040516101279493929190610888565b60405180910390f35b60405180608001604052806040518060400160405280601081526020017f4261736963204e6574776f726b696e670000000000000000000000000000000081525081526020016040518060400160405280600281526020017f4d65000000000000000000000000000000000000000000000000000000000000815250815260200160018152602001600115158152505f80820151815f0190816101d39190610d60565b5060208201518160010190816101e99190610d60565b50604082015181600201556060820151816003015f6101000a81548160ff021916908315150217905550905050565b6060805f805f80015f6001015f600201545f6003015f9054906101000a900460ff1683805461024690610b93565b80601f016020809104026020016040519081016040528092919081815260200182805461027290610b93565b80156102bd5780601f10610294576101008083540402835291602001916102bd565b820191905f5260205f20905b8154815290600101906020018083116102a057829003601f168201915b505050505093508280546102d090610b93565b80601f01602080910402602001604051908101604052809291908181526020018280546102fc90610b93565b80156103475780601f1061031e57610100808354040283529160200191610347565b820191905f5260205f20905b81548152906001019060200180831161032a57829003601f168201915b50505050509250935093509350935090919293565b60608060045f01600460010181805461037490610b93565b80601f01602080910402602001604051908101604052809291908181526020018280546103a090610b93565b80156103eb5780601f106103c2576101008083540402835291602001916103eb565b820191905f5260205f20905b8154815290600101906020018083116103ce57829003601f168201915b505050505091508080546103fe90610b93565b80601f016020809104026020016040519081016040528092919081815260200182805461042a90610b93565b80156104755780601f1061044c57610100808354040283529160200191610475565b820191905f5260205f20905b81548152906001019060200180831161045857829003601f168201915b50505050509050915091509091565b60086040518060800160405280868152602001858152602001848152602001831515815250908060018154018082558091505060019003905f5260205f2090600402015f909190919091505f820151815f0190816104e29190610d60565b5060208201518160010190816104f89190610d60565b50604082015181600201556060820151816003015f6101000a81548160ff021916908315150217905550505050505050565b6060805f805f6008868154811061054457610543610e2f565b5b905f5260205f2090600402019050805f01816001018260020154836003015f9054906101000a900460ff1683805461057b90610b93565b80601f01602080910402602001604051908101604052809291908181526020018280546105a790610b93565b80156105f25780601f106105c9576101008083540402835291602001916105f2565b820191905f5260205f20905b8154815290600101906020018083116105d557829003601f168201915b5050505050935082805461060590610b93565b80601f016020809104026020016040519081016040528092919081815260200182805461063190610b93565b801561067c5780601f106106535761010080835404028352916020019161067c565b820191905f5260205f20905b81548152906001019060200180831161065f57829003601f168201915b505050505092509450945094509450509193509193565b600881815481106106a2575f80fd5b905f5260205f2090600402015f91509050805f0180546106c190610b93565b80601f01602080910402602001604051908101604052809291908181526020018280546106ed90610b93565b80156107385780601f1061070f57610100808354040283529160200191610738565b820191905f5260205f20905b81548152906001019060200180831161071b57829003601f168201915b50505050509080600101805461074d90610b93565b80601f016020809104026020016040519081016040528092919081815260200182805461077990610b93565b80156107c45780601f1061079b576101008083540402835291602001916107c4565b820191905f5260205f20905b8154815290600101906020018083116107a757829003601f168201915b505050505090806002015490806003015f9054906101000a900460ff16905084565b5f81519050919050565b5f82825260208201905092915050565b8281835e5f83830152505050565b5f601f19601f8301169050919050565b5f610828826107e6565b61083281856107f0565b9350610842818560208601610800565b61084b8161080e565b840191505092915050565b5f819050919050565b61086881610856565b82525050565b5f8115159050919050565b6108828161086e565b82525050565b5f6080820190508181035f8301526108a0818761081e565b905081810360208301526108b4818661081e565b90506108c3604083018561085f565b6108d06060830184610879565b95945050505050565b5f6040820190508181035f8301526108f1818561081e565b90508181036020830152610905818461081e565b90509392505050565b5f604051905090565b5f80fd5b5f80fd5b5f80fd5b5f80fd5b7f4e487b71000000000000000000000000000000000000000000000000000000005f52604160045260245ffd5b61095d8261080e565b810181811067ffffffffffffffff8211171561097c5761097b610927565b5b80604052505050565b5f61098e61090e565b905061099a8282610954565b919050565b5f67ffffffffffffffff8211156109b9576109b8610927565b5b6109c28261080e565b9050602081019050919050565b828183375f83830152505050565b5f6109ef6109ea8461099f565b610985565b905082815260208101848484011115610a0b57610a0a610923565b5b610a168482856109cf565b509392505050565b5f82601f830112610a3257610a3161091f565b5b8135610a428482602086016109dd565b91505092915050565b610a5481610856565b8114610a5e575f80fd5b50565b5f81359050610a6f81610a4b565b92915050565b610a7e8161086e565b8114610a88575f80fd5b50565b5f81359050610a9981610a75565b92915050565b5f805f8060808587031215610ab757610ab6610917565b5b5f85013567ffffffffffffffff811115610ad457610ad361091b565b5b610ae087828801610a1e565b945050602085013567ffffffffffffffff811115610b0157610b0061091b565b5b610b0d87828801610a1e565b9350506040610b1e87828801610a61565b9250506060610b2f87828801610a8b565b91505092959194509250565b5f60208284031215610b5057610b4f610917565b5b5f610b5d84828501610a61565b91505092915050565b7f4e487b71000000000000000000000000000000000000000000000000000000005f52602260045260245ffd5b5f6002820490506001821680610baa57607f821691505b602082108103610bbd57610bbc610b66565b5b50919050565b5f819050815f5260205f209050919050565b5f6020601f8301049050919050565b5f82821b905092915050565b5f60088302610c1f7fffffffffffffffffffffffffffffffffffffffffffffffffffffffffffffffff82610be4565b610c298683610be4565b95508019841693508086168417925050509392505050565b5f819050919050565b5f610c64610c5f610c5a84610856565b610c41565b610856565b9050919050565b5f819050919050565b610c7d83610c4a565b610c91610c8982610c6b565b848454610bf0565b825550505050565b5f90565b610ca5610c99565b610cb0818484610c74565b505050565b5b81811015610cd357610cc85f82610c9d565b600181019050610cb6565b5050565b601f821115610d1857610ce981610bc3565b610cf284610bd5565b81016020851015610d01578190505b610d15610d0d85610bd5565b830182610cb5565b50505b505050565b5f82821c905092915050565b5f610d385f1984600802610d1d565b1980831691505092915050565b5f610d508383610d29565b9150826002028217905092915050565b610d69826107e6565b67ffffffffffffffff811115610d8257610d81610927565b5b610d8c8254610b93565b610d97828285610cd7565b5f60209050601f831160018114610dc8575f8415610db6578287015190505b610dc08582610d45565b865550610e27565b601f198416610dd686610bc3565b5f5b82811015610dfd57848901518255600182019150602085019450602081019050610dd8565b86831015610e1a5784890151610e16601f891682610d29565b8355505b6001600288020188555050505b505050505050565b7f4e487b71000000000000000000000000000000000000000000000000000000005f52603260045260245ffdfea26469706673582212209f25830c1a29a37775882f5f7be03d3ff6aa3c173b24cd1a52790547e669561d64736f6c634300081a0033",
					"opcodes": "PUSH1 0x80 PUSH1 0x40 MSTORE PUSH1 0x40 MLOAD DUP1 PUSH1 0x80 ADD PUSH1 0x40 MSTORE DUP1 PUSH1 0x40 MLOAD DUP1 PUSH1 0x40 ADD PUSH1 0x40 MSTORE DUP1 PUSH1 0xF DUP2 MSTORE PUSH1 0x20 ADD PUSH32 0x416476616E636520526F7574696E670000000000000000000000000000000000 DUP2 MSTORE POP DUP2 MSTORE PUSH1 0x20 ADD PUSH1 0x40 MLOAD DUP1 PUSH1 0x40 ADD PUSH1 0x40 MSTORE DUP1 PUSH1 0x7 DUP2 MSTORE PUSH1 0x20 ADD PUSH32 0x4A757374206D6500000000000000000000000000000000000000000000000000 DUP2 MSTORE POP DUP2 MSTORE PUSH1 0x20 ADD PUSH1 0xB DUP2 MSTORE PUSH1 0x20 ADD PUSH0 ISZERO ISZERO DUP2 MSTORE POP PUSH1 0x4 PUSH0 DUP3 ADD MLOAD DUP2 PUSH0 ADD SWAP1 DUP2 PUSH2 0xA7 SWAP2 SWAP1 PUSH2 0x334 JUMP JUMPDEST POP PUSH1 0x20 DUP3 ADD MLOAD DUP2 PUSH1 0x1 ADD SWAP1 DUP2 PUSH2 0xBD SWAP2 SWAP1 PUSH2 0x334 JUMP JUMPDEST POP PUSH1 0x40 DUP3 ADD MLOAD DUP2 PUSH1 0x2 ADD SSTORE PUSH1 0x60 DUP3 ADD MLOAD DUP2 PUSH1 0x3 ADD PUSH0 PUSH2 0x100 EXP DUP2 SLOAD DUP2 PUSH1 0xFF MUL NOT AND SWAP1 DUP4 ISZERO ISZERO MUL OR SWAP1 SSTORE POP POP POP CALLVALUE DUP1 ISZERO PUSH2 0xF4 JUMPI PUSH0 DUP1 REVERT JUMPDEST POP PUSH2 0x403 JUMP JUMPDEST PUSH0 DUP2 MLOAD SWAP1 POP SWAP2 SWAP1 POP JUMP JUMPDEST PUSH32 0x4E487B7100000000000000000000000000000000000000000000000000000000 PUSH0 MSTORE PUSH1 0x41 PUSH1 0x4 MSTORE PUSH1 0x24 PUSH0 REVERT JUMPDEST PUSH32 0x4E487B7100000000000000000000000000000000000000000000000000000000 PUSH0 MSTORE PUSH1 0x22 PUSH1 0x4 MSTORE PUSH1 0x24 PUSH0 REVERT JUMPDEST PUSH0 PUSH1 0x2 DUP3 DIV SWAP1 POP PUSH1 0x1 DUP3 AND DUP1 PUSH2 0x175 JUMPI PUSH1 0x7F DUP3 AND SWAP2 POP JUMPDEST PUSH1 0x20 DUP3 LT DUP2 SUB PUSH2 0x188 JUMPI PUSH2 0x187 PUSH2 0x131 JUMP JUMPDEST JUMPDEST POP SWAP2 SWAP1 POP JUMP JUMPDEST PUSH0 DUP2 SWAP1 POP DUP2 PUSH0 MSTORE PUSH1 0x20 PUSH0 KECCAK256 SWAP1 POP SWAP2 SWAP1 POP JUMP JUMPDEST PUSH0 PUSH1 0x20 PUSH1 0x1F DUP4 ADD DIV SWAP1 POP SWAP2 SWAP1 POP JUMP JUMPDEST PUSH0 DUP3 DUP3 SHL SWAP1 POP SWAP3 SWAP2 POP POP JUMP JUMPDEST PUSH0 PUSH1 0x8 DUP4 MUL PUSH2 0x1EA PUSH32 0xFFFFFFFFFFFFFFFFFFFFFFFFFFFFFFFFFFFFFFFFFFFFFFFFFFFFFFFFFFFFFFFF DUP3 PUSH2 0x1AF JUMP JUMPDEST PUSH2 0x1F4 DUP7 DUP4 PUSH2 0x1AF JUMP JUMPDEST SWAP6 POP DUP1 NOT DUP5 AND SWAP4 POP DUP1 DUP7 AND DUP5 OR SWAP3 POP POP POP SWAP4 SWAP3 POP POP POP JUMP JUMPDEST PUSH0 DUP2 SWAP1 POP SWAP2 SWAP1 POP JUMP JUMPDEST PUSH0 DUP2 SWAP1 POP SWAP2 SWAP1 POP JUMP JUMPDEST PUSH0 PUSH2 0x238 PUSH2 0x233 PUSH2 0x22E DUP5 PUSH2 0x20C JUMP JUMPDEST PUSH2 0x215 JUMP JUMPDEST PUSH2 0x20C JUMP JUMPDEST SWAP1 POP SWAP2 SWAP1 POP JUMP JUMPDEST PUSH0 DUP2 SWAP1 POP SWAP2 SWAP1 POP JUMP JUMPDEST PUSH2 0x251 DUP4 PUSH2 0x21E JUMP JUMPDEST PUSH2 0x265 PUSH2 0x25D DUP3 PUSH2 0x23F JUMP JUMPDEST DUP5 DUP5 SLOAD PUSH2 0x1BB JUMP JUMPDEST DUP3 SSTORE POP POP POP POP JUMP JUMPDEST PUSH0 SWAP1 JUMP JUMPDEST PUSH2 0x279 PUSH2 0x26D JUMP JUMPDEST PUSH2 0x284 DUP2 DUP5 DUP5 PUSH2 0x248 JUMP JUMPDEST POP POP POP JUMP JUMPDEST JUMPDEST DUP2 DUP2 LT ISZERO PUSH2 0x2A7 JUMPI PUSH2 0x29C PUSH0 DUP3 PUSH2 0x271 JUMP JUMPDEST PUSH1 0x1 DUP2 ADD SWAP1 POP PUSH2 0x28A JUMP JUMPDEST POP POP JUMP JUMPDEST PUSH1 0x1F DUP3 GT ISZERO PUSH2 0x2EC JUMPI PUSH2 0x2BD DUP2 PUSH2 0x18E JUMP JUMPDEST PUSH2 0x2C6 DUP5 PUSH2 0x1A0 JUMP JUMPDEST DUP2 ADD PUSH1 0x20 DUP6 LT ISZERO PUSH2 0x2D5 JUMPI DUP2 SWAP1 POP JUMPDEST PUSH2 0x2E9 PUSH2 0x2E1 DUP6 PUSH2 0x1A0 JUMP JUMPDEST DUP4 ADD DUP3 PUSH2 0x289 JUMP JUMPDEST POP POP JUMPDEST POP POP POP JUMP JUMPDEST PUSH0 DUP3 DUP3 SHR SWAP1 POP SWAP3 SWAP2 POP POP JUMP JUMPDEST PUSH0 PUSH2 0x30C PUSH0 NOT DUP5 PUSH1 0x8 MUL PUSH2 0x2F1 JUMP JUMPDEST NOT DUP1 DUP4 AND SWAP2 POP POP SWAP3 SWAP2 POP POP JUMP JUMPDEST PUSH0 PUSH2 0x324 DUP4 DUP4 PUSH2 0x2FD JUMP JUMPDEST SWAP2 POP DUP3 PUSH1 0x2 MUL DUP3 OR SWAP1 POP SWAP3 SWAP2 POP POP JUMP JUMPDEST PUSH2 0x33D DUP3 PUSH2 0xFA JUMP JUMPDEST PUSH8 0xFFFFFFFFFFFFFFFF DUP2 GT ISZERO PUSH2 0x356 JUMPI PUSH2 0x355 PUSH2 0x104 JUMP JUMPDEST JUMPDEST PUSH2 0x360 DUP3 SLOAD PUSH2 0x15E JUMP JUMPDEST PUSH2 0x36B DUP3 DUP3 DUP6 PUSH2 0x2AB JUMP JUMPDEST PUSH0 PUSH1 0x20 SWAP1 POP PUSH1 0x1F DUP4 GT PUSH1 0x1 DUP2 EQ PUSH2 0x39C JUMPI PUSH0 DUP5 ISZERO PUSH2 0x38A JUMPI DUP3 DUP8 ADD MLOAD SWAP1 POP JUMPDEST PUSH2 0x394 DUP6 DUP3 PUSH2 0x319 JUMP JUMPDEST DUP7 SSTORE POP PUSH2 0x3FB JUMP JUMPDEST PUSH1 0x1F NOT DUP5 AND PUSH2 0x3AA DUP7 PUSH2 0x18E JUMP JUMPDEST PUSH0 JUMPDEST DUP3 DUP2 LT ISZERO PUSH2 0x3D1 JUMPI DUP5 DUP10 ADD MLOAD DUP3 SSTORE PUSH1 0x1 DUP3 ADD SWAP2 POP PUSH1 0x20 DUP6 ADD SWAP5 POP PUSH1 0x20 DUP2 ADD SWAP1 POP PUSH2 0x3AC JUMP JUMPDEST DUP7 DUP4 LT ISZERO PUSH2 0x3EE JUMPI DUP5 DUP10 ADD MLOAD PUSH2 0x3EA PUSH1 0x1F DUP10 AND DUP3 PUSH2 0x2FD JUMP JUMPDEST DUP4 SSTORE POP JUMPDEST PUSH1 0x1 PUSH1 0x2 DUP9 MUL ADD DUP9 SSTORE POP POP POP JUMPDEST POP POP POP POP POP POP JUMP JUMPDEST PUSH2 0xE92 DUP1 PUSH2 0x410 PUSH0 CODECOPY PUSH0 RETURN INVALID PUSH1 0x80 PUSH1 0x40 MSTORE CALLVALUE DUP1 ISZERO PUSH2 0xF JUMPI PUSH0 DUP1 REVERT JUMPDEST POP PUSH1 0x4 CALLDATASIZE LT PUSH2 0x60 JUMPI PUSH0 CALLDATALOAD PUSH1 0xE0 SHR DUP1 PUSH4 0x52A158DD EQ PUSH2 0x64 JUMPI DUP1 PUSH4 0x8C62FFDE EQ PUSH2 0x6E JUMPI DUP1 PUSH4 0x9960EE22 EQ PUSH2 0x8F JUMPI DUP1 PUSH4 0xA9D817E8 EQ PUSH2 0xAE JUMPI DUP1 PUSH4 0xE7BF2BA7 EQ PUSH2 0xCA JUMPI DUP1 PUSH4 0xEA625179 EQ PUSH2 0xFD JUMPI JUMPDEST PUSH0 DUP1 REVERT JUMPDEST PUSH2 0x6C PUSH2 0x130 JUMP JUMPDEST STOP JUMPDEST PUSH2 0x76 PUSH2 0x218 JUMP JUMPDEST PUSH1 0x40 MLOAD PUSH2 0x86 SWAP5 SWAP4 SWAP3 SWAP2 SWAP1 PUSH2 0x888 JUMP JUMPDEST PUSH1 0x40 MLOAD DUP1 SWAP2 SUB SWAP1 RETURN JUMPDEST PUSH2 0x97 PUSH2 0x35C JUMP JUMPDEST PUSH1 0x40 MLOAD PUSH2 0xA5 SWAP3 SWAP2 SWAP1 PUSH2 0x8D9 JUMP JUMPDEST PUSH1 0x40 MLOAD DUP1 SWAP2 SUB SWAP1 RETURN JUMPDEST PUSH2 0xC8 PUSH1 0x4 DUP1 CALLDATASIZE SUB DUP2 ADD SWAP1 PUSH2 0xC3 SWAP2 SWAP1 PUSH2 0xA9F JUMP JUMPDEST PUSH2 0x484 JUMP JUMPDEST STOP JUMPDEST PUSH2 0xE4 PUSH1 0x4 DUP1 CALLDATASIZE SUB DUP2 ADD SWAP1 PUSH2 0xDF SWAP2 SWAP1 PUSH2 0xB3B JUMP JUMPDEST PUSH2 0x52A JUMP JUMPDEST PUSH1 0x40 MLOAD PUSH2 0xF4 SWAP5 SWAP4 SWAP3 SWAP2 SWAP1 PUSH2 0x888 JUMP JUMPDEST PUSH1 0x40 MLOAD DUP1 SWAP2 SUB SWAP1 RETURN JUMPDEST PUSH2 0x117 PUSH1 0x4 DUP1 CALLDATASIZE SUB DUP2 ADD SWAP1 PUSH2 0x112 SWAP2 SWAP1 PUSH2 0xB3B JUMP JUMPDEST PUSH2 0x693 JUMP JUMPDEST PUSH1 0x40 MLOAD PUSH2 0x127 SWAP5 SWAP4 SWAP3 SWAP2 SWAP1 PUSH2 0x888 JUMP JUMPDEST PUSH1 0x40 MLOAD DUP1 SWAP2 SUB SWAP1 RETURN JUMPDEST PUSH1 0x40 MLOAD DUP1 PUSH1 0x80 ADD PUSH1 0x40 MSTORE DUP1 PUSH1 0x40 MLOAD DUP1 PUSH1 0x40 ADD PUSH1 0x40 MSTORE DUP1 PUSH1 0x10 DUP2 MSTORE PUSH1 0x20 ADD PUSH32 0x4261736963204E6574776F726B696E6700000000000000000000000000000000 DUP2 MSTORE POP DUP2 MSTORE PUSH1 0x20 ADD PUSH1 0x40 MLOAD DUP1 PUSH1 0x40 ADD PUSH1 0x40 MSTORE DUP1 PUSH1 0x2 DUP2 MSTORE PUSH1 0x20 ADD PUSH32 0x4D65000000000000000000000000000000000000000000000000000000000000 DUP2 MSTORE POP DUP2 MSTORE PUSH1 0x20 ADD PUSH1 0x1 DUP2 MSTORE PUSH1 0x20 ADD PUSH1 0x1 ISZERO ISZERO DUP2 MSTORE POP PUSH0 DUP1 DUP3 ADD MLOAD DUP2 PUSH0 ADD SWAP1 DUP2 PUSH2 0x1D3 SWAP2 SWAP1 PUSH2 0xD60 JUMP JUMPDEST POP PUSH1 0x20 DUP3 ADD MLOAD DUP2 PUSH1 0x1 ADD SWAP1 DUP2 PUSH2 0x1E9 SWAP2 SWAP1 PUSH2 0xD60 JUMP JUMPDEST POP PUSH1 0x40 DUP3 ADD MLOAD DUP2 PUSH1 0x2 ADD SSTORE PUSH1 0x60 DUP3 ADD MLOAD DUP2 PUSH1 0x3 ADD PUSH0 PUSH2 0x100 EXP DUP2 SLOAD DUP2 PUSH1 0xFF MUL NOT AND SWAP1 DUP4 ISZERO ISZERO MUL OR SWAP1 SSTORE POP SWAP1 POP POP JUMP JUMPDEST PUSH1 0x60 DUP1 PUSH0 DUP1 PUSH0 DUP1 ADD PUSH0 PUSH1 0x1 ADD PUSH0 PUSH1 0x2 ADD SLOAD PUSH0 PUSH1 0x3 ADD PUSH0 SWAP1 SLOAD SWAP1 PUSH2 0x100 EXP SWAP1 DIV PUSH1 0xFF AND DUP4 DUP1 SLOAD PUSH2 0x246 SWAP1 PUSH2 0xB93 JUMP JUMPDEST DUP1 PUSH1 0x1F ADD PUSH1 0x20 DUP1 SWAP2 DIV MUL PUSH1 0x20 ADD PUSH1 0x40 MLOAD SWAP1 DUP2 ADD PUSH1 0x40 MSTORE DUP1 SWAP3 SWAP2 SWAP1 DUP2 DUP2 MSTORE PUSH1 0x20 ADD DUP3 DUP1 SLOAD PUSH2 0x272 SWAP1 PUSH2 0xB93 JUMP JUMPDEST DUP1 ISZERO PUSH2 0x2BD JUMPI DUP1 PUSH1 0x1F LT PUSH2 0x294 JUMPI PUSH2 0x100 DUP1 DUP4 SLOAD DIV MUL DUP4 MSTORE SWAP2 PUSH1 0x20 ADD SWAP2 PUSH2 0x2BD JUMP JUMPDEST DUP3 ADD SWAP2 SWAP1 PUSH0 MSTORE PUSH1 0x20 PUSH0 KECCAK256 SWAP1 JUMPDEST DUP2 SLOAD DUP2 MSTORE SWAP1 PUSH1 0x1 ADD SWAP1 PUSH1 0x20 ADD DUP1 DUP4 GT PUSH2 0x2A0 JUMPI DUP3 SWAP1 SUB PUSH1 0x1F AND DUP3 ADD SWAP2 JUMPDEST POP POP POP POP POP SWAP4 POP DUP3 DUP1 SLOAD PUSH2 0x2D0 SWAP1 PUSH2 0xB93 JUMP JUMPDEST DUP1 PUSH1 0x1F ADD PUSH1 0x20 DUP1 SWAP2 DIV MUL PUSH1 0x20 ADD PUSH1 0x40 MLOAD SWAP1 DUP2 ADD PUSH1 0x40 MSTORE DUP1 SWAP3 SWAP2 SWAP1 DUP2 DUP2 MSTORE PUSH1 0x20 ADD DUP3 DUP1 SLOAD PUSH2 0x2FC SWAP1 PUSH2 0xB93 JUMP JUMPDEST DUP1 ISZERO PUSH2 0x347 JUMPI DUP1 PUSH1 0x1F LT PUSH2 0x31E JUMPI PUSH2 0x100 DUP1 DUP4 SLOAD DIV MUL DUP4 MSTORE SWAP2 PUSH1 0x20 ADD SWAP2 PUSH2 0x347 JUMP JUMPDEST DUP3 ADD SWAP2 SWAP1 PUSH0 MSTORE PUSH1 0x20 PUSH0 KECCAK256 SWAP1 JUMPDEST DUP2 SLOAD DUP2 MSTORE SWAP1 PUSH1 0x1 ADD SWAP1 PUSH1 0x20 ADD DUP1 DUP4 GT PUSH2 0x32A JUMPI DUP3 SWAP1 SUB PUSH1 0x1F AND DUP3 ADD SWAP2 JUMPDEST POP POP POP POP POP SWAP3 POP SWAP4 POP SWAP4 POP SWAP4 POP SWAP4 POP SWAP1 SWAP2 SWAP3 SWAP4 JUMP JUMPDEST PUSH1 0x60 DUP1 PUSH1 0x4 PUSH0 ADD PUSH1 0x4 PUSH1 0x1 ADD DUP2 DUP1 SLOAD PUSH2 0x374 SWAP1 PUSH2 0xB93 JUMP JUMPDEST DUP1 PUSH1 0x1F ADD PUSH1 0x20 DUP1 SWAP2 DIV MUL PUSH1 0x20 ADD PUSH1 0x40 MLOAD SWAP1 DUP2 ADD PUSH1 0x40 MSTORE DUP1 SWAP3 SWAP2 SWAP1 DUP2 DUP2 MSTORE PUSH1 0x20 ADD DUP3 DUP1 SLOAD PUSH2 0x3A0 SWAP1 PUSH2 0xB93 JUMP JUMPDEST DUP1 ISZERO PUSH2 0x3EB JUMPI DUP1 PUSH1 0x1F LT PUSH2 0x3C2 JUMPI PUSH2 0x100 DUP1 DUP4 SLOAD DIV MUL DUP4 MSTORE SWAP2 PUSH1 0x20 ADD SWAP2 PUSH2 0x3EB JUMP JUMPDEST DUP3 ADD SWAP2 SWAP1 PUSH0 MSTORE PUSH1 0x20 PUSH0 KECCAK256 SWAP1 JUMPDEST DUP2 SLOAD DUP2 MSTORE SWAP1 PUSH1 0x1 ADD SWAP1 PUSH1 0x20 ADD DUP1 DUP4 GT PUSH2 0x3CE JUMPI DUP3 SWAP1 SUB PUSH1 0x1F AND DUP3 ADD SWAP2 JUMPDEST POP POP POP POP POP SWAP2 POP DUP1 DUP1 SLOAD PUSH2 0x3FE SWAP1 PUSH2 0xB93 JUMP JUMPDEST DUP1 PUSH1 0x1F ADD PUSH1 0x20 DUP1 SWAP2 DIV MUL PUSH1 0x20 ADD PUSH1 0x40 MLOAD SWAP1 DUP2 ADD PUSH1 0x40 MSTORE DUP1 SWAP3 SWAP2 SWAP1 DUP2 DUP2 MSTORE PUSH1 0x20 ADD DUP3 DUP1 SLOAD PUSH2 0x42A SWAP1 PUSH2 0xB93 JUMP JUMPDEST DUP1 ISZERO PUSH2 0x475 JUMPI DUP1 PUSH1 0x1F LT PUSH2 0x44C JUMPI PUSH2 0x100 DUP1 DUP4 SLOAD DIV MUL DUP4 MSTORE SWAP2 PUSH1 0x20 ADD SWAP2 PUSH2 0x475 JUMP JUMPDEST DUP3 ADD SWAP2 SWAP1 PUSH0 MSTORE PUSH1 0x20 PUSH0 KECCAK256 SWAP1 JUMPDEST DUP2 SLOAD DUP2 MSTORE SWAP1 PUSH1 0x1 ADD SWAP1 PUSH1 0x20 ADD DUP1 DUP4 GT PUSH2 0x458 JUMPI DUP3 SWAP1 SUB PUSH1 0x1F AND DUP3 ADD SWAP2 JUMPDEST POP POP POP POP POP SWAP1 POP SWAP2 POP SWAP2 POP SWAP1 SWAP2 JUMP JUMPDEST PUSH1 0x8 PUSH1 0x40 MLOAD DUP1 PUSH1 0x80 ADD PUSH1 0x40 MSTORE DUP1 DUP7 DUP2 MSTORE PUSH1 0x20 ADD DUP6 DUP2 MSTORE PUSH1 0x20 ADD DUP5 DUP2 MSTORE PUSH1 0x20 ADD DUP4 ISZERO ISZERO DUP2 MSTORE POP SWAP1 DUP1 PUSH1 0x1 DUP2 SLOAD ADD DUP1 DUP3 SSTORE DUP1 SWAP2 POP POP PUSH1 0x1 SWAP1 SUB SWAP1 PUSH0 MSTORE PUSH1 0x20 PUSH0 KECCAK256 SWAP1 PUSH1 0x4 MUL ADD PUSH0 SWAP1 SWAP2 SWAP1 SWAP2 SWAP1 SWAP2 POP PUSH0 DUP3 ADD MLOAD DUP2 PUSH0 ADD SWAP1 DUP2 PUSH2 0x4E2 SWAP2 SWAP1 PUSH2 0xD60 JUMP JUMPDEST POP PUSH1 0x20 DUP3 ADD MLOAD DUP2 PUSH1 0x1 ADD SWAP1 DUP2 PUSH2 0x4F8 SWAP2 SWAP1 PUSH2 0xD60 JUMP JUMPDEST POP PUSH1 0x40 DUP3 ADD MLOAD DUP2 PUSH1 0x2 ADD SSTORE PUSH1 0x60 DUP3 ADD MLOAD DUP2 PUSH1 0x3 ADD PUSH0 PUSH2 0x100 EXP DUP2 SLOAD DUP2 PUSH1 0xFF MUL NOT AND SWAP1 DUP4 ISZERO ISZERO MUL OR SWAP1 SSTORE POP POP POP POP POP POP POP JUMP JUMPDEST PUSH1 0x60 DUP1 PUSH0 DUP1 PUSH0 PUSH1 0x8 DUP7 DUP2 SLOAD DUP2 LT PUSH2 0x544 JUMPI PUSH2 0x543 PUSH2 0xE2F JUMP JUMPDEST JUMPDEST SWAP1 PUSH0 MSTORE PUSH1 0x20 PUSH0 KECCAK256 SWAP1 PUSH1 0x4 MUL ADD SWAP1 POP DUP1 PUSH0 ADD DUP2 PUSH1 0x1 ADD DUP3 PUSH1 0x2 ADD SLOAD DUP4 PUSH1 0x3 ADD PUSH0 SWAP1 SLOAD SWAP1 PUSH2 0x100 EXP SWAP1 DIV PUSH1 0xFF AND DUP4 DUP1 SLOAD PUSH2 0x57B SWAP1 PUSH2 0xB93 JUMP JUMPDEST DUP1 PUSH1 0x1F ADD PUSH1 0x20 DUP1 SWAP2 DIV MUL PUSH1 0x20 ADD PUSH1 0x40 MLOAD SWAP1 DUP2 ADD PUSH1 0x40 MSTORE DUP1 SWAP3 SWAP2 SWAP1 DUP2 DUP2 MSTORE PUSH1 0x20 ADD DUP3 DUP1 SLOAD PUSH2 0x5A7 SWAP1 PUSH2 0xB93 JUMP JUMPDEST DUP1 ISZERO PUSH2 0x5F2 JUMPI DUP1 PUSH1 0x1F LT PUSH2 0x5C9 JUMPI PUSH2 0x100 DUP1 DUP4 SLOAD DIV MUL DUP4 MSTORE SWAP2 PUSH1 0x20 ADD SWAP2 PUSH2 0x5F2 JUMP JUMPDEST DUP3 ADD SWAP2 SWAP1 PUSH0 MSTORE PUSH1 0x20 PUSH0 KECCAK256 SWAP1 JUMPDEST DUP2 SLOAD DUP2 MSTORE SWAP1 PUSH1 0x1 ADD SWAP1 PUSH1 0x20 ADD DUP1 DUP4 GT PUSH2 0x5D5 JUMPI DUP3 SWAP1 SUB PUSH1 0x1F AND DUP3 ADD SWAP2 JUMPDEST POP POP POP POP POP SWAP4 POP DUP3 DUP1 SLOAD PUSH2 0x605 SWAP1 PUSH2 0xB93 JUMP JUMPDEST DUP1 PUSH1 0x1F ADD PUSH1 0x20 DUP1 SWAP2 DIV MUL PUSH1 0x20 ADD PUSH1 0x40 MLOAD SWAP1 DUP2 ADD PUSH1 0x40 MSTORE DUP1 SWAP3 SWAP2 SWAP1 DUP2 DUP2 MSTORE PUSH1 0x20 ADD DUP3 DUP1 SLOAD PUSH2 0x631 SWAP1 PUSH2 0xB93 JUMP JUMPDEST DUP1 ISZERO PUSH2 0x67C JUMPI DUP1 PUSH1 0x1F LT PUSH2 0x653 JUMPI PUSH2 0x100 DUP1 DUP4 SLOAD DIV MUL DUP4 MSTORE SWAP2 PUSH1 0x20 ADD SWAP2 PUSH2 0x67C JUMP JUMPDEST DUP3 ADD SWAP2 SWAP1 PUSH0 MSTORE PUSH1 0x20 PUSH0 KECCAK256 SWAP1 JUMPDEST DUP2 SLOAD DUP2 MSTORE SWAP1 PUSH1 0x1 ADD SWAP1 PUSH1 0x20 ADD DUP1 DUP4 GT PUSH2 0x65F JUMPI DUP3 SWAP1 SUB PUSH1 0x1F AND DUP3 ADD SWAP2 JUMPDEST POP POP POP POP POP SWAP3 POP SWAP5 POP SWAP5 POP SWAP5 POP SWAP5 POP POP SWAP2 SWAP4 POP SWAP2 SWAP4 JUMP JUMPDEST PUSH1 0x8 DUP2 DUP2 SLOAD DUP2 LT PUSH2 0x6A2 JUMPI PUSH0 DUP1 REVERT JUMPDEST SWAP1 PUSH0 MSTORE PUSH1 0x20 PUSH0 KECCAK256 SWAP1 PUSH1 0x4 MUL ADD PUSH0 SWAP2 POP SWAP1 POP DUP1 PUSH0 ADD DUP1 SLOAD PUSH2 0x6C1 SWAP1 PUSH2 0xB93 JUMP JUMPDEST DUP1 PUSH1 0x1F ADD PUSH1 0x20 DUP1 SWAP2 DIV MUL PUSH1 0x20 ADD PUSH1 0x40 MLOAD SWAP1 DUP2 ADD PUSH1 0x40 MSTORE DUP1 SWAP3 SWAP2 SWAP1 DUP2 DUP2 MSTORE PUSH1 0x20 ADD DUP3 DUP1 SLOAD PUSH2 0x6ED SWAP1 PUSH2 0xB93 JUMP JUMPDEST DUP1 ISZERO PUSH2 0x738 JUMPI DUP1 PUSH1 0x1F LT PUSH2 0x70F JUMPI PUSH2 0x100 DUP1 DUP4 SLOAD DIV MUL DUP4 MSTORE SWAP2 PUSH1 0x20 ADD SWAP2 PUSH2 0x738 JUMP JUMPDEST DUP3 ADD SWAP2 SWAP1 PUSH0 MSTORE PUSH1 0x20 PUSH0 KECCAK256 SWAP1 JUMPDEST DUP2 SLOAD DUP2 MSTORE SWAP1 PUSH1 0x1 ADD SWAP1 PUSH1 0x20 ADD DUP1 DUP4 GT PUSH2 0x71B JUMPI DUP3 SWAP1 SUB PUSH1 0x1F AND DUP3 ADD SWAP2 JUMPDEST POP POP POP POP POP SWAP1 DUP1 PUSH1 0x1 ADD DUP1 SLOAD PUSH2 0x74D SWAP1 PUSH2 0xB93 JUMP JUMPDEST DUP1 PUSH1 0x1F ADD PUSH1 0x20 DUP1 SWAP2 DIV MUL PUSH1 0x20 ADD PUSH1 0x40 MLOAD SWAP1 DUP2 ADD PUSH1 0x40 MSTORE DUP1 SWAP3 SWAP2 SWAP1 DUP2 DUP2 MSTORE PUSH1 0x20 ADD DUP3 DUP1 SLOAD PUSH2 0x779 SWAP1 PUSH2 0xB93 JUMP JUMPDEST DUP1 ISZERO PUSH2 0x7C4 JUMPI DUP1 PUSH1 0x1F LT PUSH2 0x79B JUMPI PUSH2 0x100 DUP1 DUP4 SLOAD DIV MUL DUP4 MSTORE SWAP2 PUSH1 0x20 ADD SWAP2 PUSH2 0x7C4 JUMP JUMPDEST DUP3 ADD SWAP2 SWAP1 PUSH0 MSTORE PUSH1 0x20 PUSH0 KECCAK256 SWAP1 JUMPDEST DUP2 SLOAD DUP2 MSTORE SWAP1 PUSH1 0x1 ADD SWAP1 PUSH1 0x20 ADD DUP1 DUP4 GT PUSH2 0x7A7 JUMPI DUP3 SWAP1 SUB PUSH1 0x1F AND DUP3 ADD SWAP2 JUMPDEST POP POP POP POP POP SWAP1 DUP1 PUSH1 0x2 ADD SLOAD SWAP1 DUP1 PUSH1 0x3 ADD PUSH0 SWAP1 SLOAD SWAP1 PUSH2 0x100 EXP SWAP1 DIV PUSH1 0xFF AND SWAP1 POP DUP5 JUMP JUMPDEST PUSH0 DUP2 MLOAD SWAP1 POP SWAP2 SWAP1 POP JUMP JUMPDEST PUSH0 DUP3 DUP3 MSTORE PUSH1 0x20 DUP3 ADD SWAP1 POP SWAP3 SWAP2 POP POP JUMP JUMPDEST DUP3 DUP2 DUP4 MCOPY PUSH0 DUP4 DUP4 ADD MSTORE POP POP POP JUMP JUMPDEST PUSH0 PUSH1 0x1F NOT PUSH1 0x1F DUP4 ADD AND SWAP1 POP SWAP2 SWAP1 POP JUMP JUMPDEST PUSH0 PUSH2 0x828 DUP3 PUSH2 0x7E6 JUMP JUMPDEST PUSH2 0x832 DUP2 DUP6 PUSH2 0x7F0 JUMP JUMPDEST SWAP4 POP PUSH2 0x842 DUP2 DUP6 PUSH1 0x20 DUP7 ADD PUSH2 0x800 JUMP JUMPDEST PUSH2 0x84B DUP2 PUSH2 0x80E JUMP JUMPDEST DUP5 ADD SWAP2 POP POP SWAP3 SWAP2 POP POP JUMP JUMPDEST PUSH0 DUP2 SWAP1 POP SWAP2 SWAP1 POP JUMP JUMPDEST PUSH2 0x868 DUP2 PUSH2 0x856 JUMP JUMPDEST DUP3 MSTORE POP POP JUMP JUMPDEST PUSH0 DUP2 ISZERO ISZERO SWAP1 POP SWAP2 SWAP1 POP JUMP JUMPDEST PUSH2 0x882 DUP2 PUSH2 0x86E JUMP JUMPDEST DUP3 MSTORE POP POP JUMP JUMPDEST PUSH0 PUSH1 0x80 DUP3 ADD SWAP1 POP DUP2 DUP2 SUB PUSH0 DUP4 ADD MSTORE PUSH2 0x8A0 DUP2 DUP8 PUSH2 0x81E JUMP JUMPDEST SWAP1 POP DUP2 DUP2 SUB PUSH1 0x20 DUP4 ADD MSTORE PUSH2 0x8B4 DUP2 DUP7 PUSH2 0x81E JUMP JUMPDEST SWAP1 POP PUSH2 0x8C3 PUSH1 0x40 DUP4 ADD DUP6 PUSH2 0x85F JUMP JUMPDEST PUSH2 0x8D0 PUSH1 0x60 DUP4 ADD DUP5 PUSH2 0x879 JUMP JUMPDEST SWAP6 SWAP5 POP POP POP POP POP JUMP JUMPDEST PUSH0 PUSH1 0x40 DUP3 ADD SWAP1 POP DUP2 DUP2 SUB PUSH0 DUP4 ADD MSTORE PUSH2 0x8F1 DUP2 DUP6 PUSH2 0x81E JUMP JUMPDEST SWAP1 POP DUP2 DUP2 SUB PUSH1 0x20 DUP4 ADD MSTORE PUSH2 0x905 DUP2 DUP5 PUSH2 0x81E JUMP JUMPDEST SWAP1 POP SWAP4 SWAP3 POP POP POP JUMP JUMPDEST PUSH0 PUSH1 0x40 MLOAD SWAP1 POP SWAP1 JUMP JUMPDEST PUSH0 DUP1 REVERT JUMPDEST PUSH0 DUP1 REVERT JUMPDEST PUSH0 DUP1 REVERT JUMPDEST PUSH0 DUP1 REVERT JUMPDEST PUSH32 0x4E487B7100000000000000000000000000000000000000000000000000000000 PUSH0 MSTORE PUSH1 0x41 PUSH1 0x4 MSTORE PUSH1 0x24 PUSH0 REVERT JUMPDEST PUSH2 0x95D DUP3 PUSH2 0x80E JUMP JUMPDEST DUP2 ADD DUP2 DUP2 LT PUSH8 0xFFFFFFFFFFFFFFFF DUP3 GT OR ISZERO PUSH2 0x97C JUMPI PUSH2 0x97B PUSH2 0x927 JUMP JUMPDEST JUMPDEST DUP1 PUSH1 0x40 MSTORE POP POP POP JUMP JUMPDEST PUSH0 PUSH2 0x98E PUSH2 0x90E JUMP JUMPDEST SWAP1 POP PUSH2 0x99A DUP3 DUP3 PUSH2 0x954 JUMP JUMPDEST SWAP2 SWAP1 POP JUMP JUMPDEST PUSH0 PUSH8 0xFFFFFFFFFFFFFFFF DUP3 GT ISZERO PUSH2 0x9B9 JUMPI PUSH2 0x9B8 PUSH2 0x927 JUMP JUMPDEST JUMPDEST PUSH2 0x9C2 DUP3 PUSH2 0x80E JUMP JUMPDEST SWAP1 POP PUSH1 0x20 DUP2 ADD SWAP1 POP SWAP2 SWAP1 POP JUMP JUMPDEST DUP3 DUP2 DUP4 CALLDATACOPY PUSH0 DUP4 DUP4 ADD MSTORE POP POP POP JUMP JUMPDEST PUSH0 PUSH2 0x9EF PUSH2 0x9EA DUP5 PUSH2 0x99F JUMP JUMPDEST PUSH2 0x985 JUMP JUMPDEST SWAP1 POP DUP3 DUP2 MSTORE PUSH1 0x20 DUP2 ADD DUP5 DUP5 DUP5 ADD GT ISZERO PUSH2 0xA0B JUMPI PUSH2 0xA0A PUSH2 0x923 JUMP JUMPDEST JUMPDEST PUSH2 0xA16 DUP5 DUP3 DUP6 PUSH2 0x9CF JUMP JUMPDEST POP SWAP4 SWAP3 POP POP POP JUMP JUMPDEST PUSH0 DUP3 PUSH1 0x1F DUP4 ADD SLT PUSH2 0xA32 JUMPI PUSH2 0xA31 PUSH2 0x91F JUMP JUMPDEST JUMPDEST DUP2 CALLDATALOAD PUSH2 0xA42 DUP5 DUP3 PUSH1 0x20 DUP7 ADD PUSH2 0x9DD JUMP JUMPDEST SWAP2 POP POP SWAP3 SWAP2 POP POP JUMP JUMPDEST PUSH2 0xA54 DUP2 PUSH2 0x856 JUMP JUMPDEST DUP2 EQ PUSH2 0xA5E JUMPI PUSH0 DUP1 REVERT JUMPDEST POP JUMP JUMPDEST PUSH0 DUP2 CALLDATALOAD SWAP1 POP PUSH2 0xA6F DUP2 PUSH2 0xA4B JUMP JUMPDEST SWAP3 SWAP2 POP POP JUMP JUMPDEST PUSH2 0xA7E DUP2 PUSH2 0x86E JUMP JUMPDEST DUP2 EQ PUSH2 0xA88 JUMPI PUSH0 DUP1 REVERT JUMPDEST POP JUMP JUMPDEST PUSH0 DUP2 CALLDATALOAD SWAP1 POP PUSH2 0xA99 DUP2 PUSH2 0xA75 JUMP JUMPDEST SWAP3 SWAP2 POP POP JUMP JUMPDEST PUSH0 DUP1 PUSH0 DUP1 PUSH1 0x80 DUP6 DUP8 SUB SLT ISZERO PUSH2 0xAB7 JUMPI PUSH2 0xAB6 PUSH2 0x917 JUMP JUMPDEST JUMPDEST PUSH0 DUP6 ADD CALLDATALOAD PUSH8 0xFFFFFFFFFFFFFFFF DUP2 GT ISZERO PUSH2 0xAD4 JUMPI PUSH2 0xAD3 PUSH2 0x91B JUMP JUMPDEST JUMPDEST PUSH2 0xAE0 DUP8 DUP3 DUP9 ADD PUSH2 0xA1E JUMP JUMPDEST SWAP5 POP POP PUSH1 0x20 DUP6 ADD CALLDATALOAD PUSH8 0xFFFFFFFFFFFFFFFF DUP2 GT ISZERO PUSH2 0xB01 JUMPI PUSH2 0xB00 PUSH2 0x91B JUMP JUMPDEST JUMPDEST PUSH2 0xB0D DUP8 DUP3 DUP9 ADD PUSH2 0xA1E JUMP JUMPDEST SWAP4 POP POP PUSH1 0x40 PUSH2 0xB1E DUP8 DUP3 DUP9 ADD PUSH2 0xA61 JUMP JUMPDEST SWAP3 POP POP PUSH1 0x60 PUSH2 0xB2F DUP8 DUP3 DUP9 ADD PUSH2 0xA8B JUMP JUMPDEST SWAP2 POP POP SWAP3 SWAP6 SWAP2 SWAP5 POP SWAP3 POP JUMP JUMPDEST PUSH0 PUSH1 0x20 DUP3 DUP5 SUB SLT ISZERO PUSH2 0xB50 JUMPI PUSH2 0xB4F PUSH2 0x917 JUMP JUMPDEST JUMPDEST PUSH0 PUSH2 0xB5D DUP5 DUP3 DUP6 ADD PUSH2 0xA61 JUMP JUMPDEST SWAP2 POP POP SWAP3 SWAP2 POP POP JUMP JUMPDEST PUSH32 0x4E487B7100000000000000000000000000000000000000000000000000000000 PUSH0 MSTORE PUSH1 0x22 PUSH1 0x4 MSTORE PUSH1 0x24 PUSH0 REVERT JUMPDEST PUSH0 PUSH1 0x2 DUP3 DIV SWAP1 POP PUSH1 0x1 DUP3 AND DUP1 PUSH2 0xBAA JUMPI PUSH1 0x7F DUP3 AND SWAP2 POP JUMPDEST PUSH1 0x20 DUP3 LT DUP2 SUB PUSH2 0xBBD JUMPI PUSH2 0xBBC PUSH2 0xB66 JUMP JUMPDEST JUMPDEST POP SWAP2 SWAP1 POP JUMP JUMPDEST PUSH0 DUP2 SWAP1 POP DUP2 PUSH0 MSTORE PUSH1 0x20 PUSH0 KECCAK256 SWAP1 POP SWAP2 SWAP1 POP JUMP JUMPDEST PUSH0 PUSH1 0x20 PUSH1 0x1F DUP4 ADD DIV SWAP1 POP SWAP2 SWAP1 POP JUMP JUMPDEST PUSH0 DUP3 DUP3 SHL SWAP1 POP SWAP3 SWAP2 POP POP JUMP JUMPDEST PUSH0 PUSH1 0x8 DUP4 MUL PUSH2 0xC1F PUSH32 0xFFFFFFFFFFFFFFFFFFFFFFFFFFFFFFFFFFFFFFFFFFFFFFFFFFFFFFFFFFFFFFFF DUP3 PUSH2 0xBE4 JUMP JUMPDEST PUSH2 0xC29 DUP7 DUP4 PUSH2 0xBE4 JUMP JUMPDEST SWAP6 POP DUP1 NOT DUP5 AND SWAP4 POP DUP1 DUP7 AND DUP5 OR SWAP3 POP POP POP SWAP4 SWAP3 POP POP POP JUMP JUMPDEST PUSH0 DUP2 SWAP1 POP SWAP2 SWAP1 POP JUMP JUMPDEST PUSH0 PUSH2 0xC64 PUSH2 0xC5F PUSH2 0xC5A DUP5 PUSH2 0x856 JUMP JUMPDEST PUSH2 0xC41 JUMP JUMPDEST PUSH2 0x856 JUMP JUMPDEST SWAP1 POP SWAP2 SWAP1 POP JUMP JUMPDEST PUSH0 DUP2 SWAP1 POP SWAP2 SWAP1 POP JUMP JUMPDEST PUSH2 0xC7D DUP4 PUSH2 0xC4A JUMP JUMPDEST PUSH2 0xC91 PUSH2 0xC89 DUP3 PUSH2 0xC6B JUMP JUMPDEST DUP5 DUP5 SLOAD PUSH2 0xBF0 JUMP JUMPDEST DUP3 SSTORE POP POP POP POP JUMP JUMPDEST PUSH0 SWAP1 JUMP JUMPDEST PUSH2 0xCA5 PUSH2 0xC99 JUMP JUMPDEST PUSH2 0xCB0 DUP2 DUP5 DUP5 PUSH2 0xC74 JUMP JUMPDEST POP POP POP JUMP JUMPDEST JUMPDEST DUP2 DUP2 LT ISZERO PUSH2 0xCD3 JUMPI PUSH2 0xCC8 PUSH0 DUP3 PUSH2 0xC9D JUMP JUMPDEST PUSH1 0x1 DUP2 ADD SWAP1 POP PUSH2 0xCB6 JUMP JUMPDEST POP POP JUMP JUMPDEST PUSH1 0x1F DUP3 GT ISZERO PUSH2 0xD18 JUMPI PUSH2 0xCE9 DUP2 PUSH2 0xBC3 JUMP JUMPDEST PUSH2 0xCF2 DUP5 PUSH2 0xBD5 JUMP JUMPDEST DUP2 ADD PUSH1 0x20 DUP6 LT ISZERO PUSH2 0xD01 JUMPI DUP2 SWAP1 POP JUMPDEST PUSH2 0xD15 PUSH2 0xD0D DUP6 PUSH2 0xBD5 JUMP JUMPDEST DUP4 ADD DUP3 PUSH2 0xCB5 JUMP JUMPDEST POP POP JUMPDEST POP POP POP JUMP JUMPDEST PUSH0 DUP3 DUP3 SHR SWAP1 POP SWAP3 SWAP2 POP POP JUMP JUMPDEST PUSH0 PUSH2 0xD38 PUSH0 NOT DUP5 PUSH1 0x8 MUL PUSH2 0xD1D JUMP JUMPDEST NOT DUP1 DUP4 AND SWAP2 POP POP SWAP3 SWAP2 POP POP JUMP JUMPDEST PUSH0 PUSH2 0xD50 DUP4 DUP4 PUSH2 0xD29 JUMP JUMPDEST SWAP2 POP DUP3 PUSH1 0x2 MUL DUP3 OR SWAP1 POP SWAP3 SWAP2 POP POP JUMP JUMPDEST PUSH2 0xD69 DUP3 PUSH2 0x7E6 JUMP JUMPDEST PUSH8 0xFFFFFFFFFFFFFFFF DUP2 GT ISZERO PUSH2 0xD82 JUMPI PUSH2 0xD81 PUSH2 0x927 JUMP JUMPDEST JUMPDEST PUSH2 0xD8C DUP3 SLOAD PUSH2 0xB93 JUMP JUMPDEST PUSH2 0xD97 DUP3 DUP3 DUP6 PUSH2 0xCD7 JUMP JUMPDEST PUSH0 PUSH1 0x20 SWAP1 POP PUSH1 0x1F DUP4 GT PUSH1 0x1 DUP2 EQ PUSH2 0xDC8 JUMPI PUSH0 DUP5 ISZERO PUSH2 0xDB6 JUMPI DUP3 DUP8 ADD MLOAD SWAP1 POP JUMPDEST PUSH2 0xDC0 DUP6 DUP3 PUSH2 0xD45 JUMP JUMPDEST DUP7 SSTORE POP PUSH2 0xE27 JUMP JUMPDEST PUSH1 0x1F NOT DUP5 AND PUSH2 0xDD6 DUP7 PUSH2 0xBC3 JUMP JUMPDEST PUSH0 JUMPDEST DUP3 DUP2 LT ISZERO PUSH2 0xDFD JUMPI DUP5 DUP10 ADD MLOAD DUP3 SSTORE PUSH1 0x1 DUP3 ADD SWAP2 POP PUSH1 0x20 DUP6 ADD SWAP5 POP PUSH1 0x20 DUP2 ADD SWAP1 POP PUSH2 0xDD8 JUMP JUMPDEST DUP7 DUP4 LT ISZERO PUSH2 0xE1A JUMPI DUP5 DUP10 ADD MLOAD PUSH2 0xE16 PUSH1 0x1F DUP10 AND DUP3 PUSH2 0xD29 JUMP JUMPDEST DUP4 SSTORE POP JUMPDEST PUSH1 0x1 PUSH1 0x2 DUP9 MUL ADD DUP9 SSTORE POP POP POP JUMPDEST POP POP POP POP POP POP JUMP JUMPDEST PUSH32 0x4E487B7100000000000000000000000000000000000000000000000000000000 PUSH0 MSTORE PUSH1 0x32 PUSH1 0x4 MSTORE PUSH1 0x24 PUSH0 REVERT INVALID LOG2 PUSH5 0x6970667358 0x22 SLT KECCAK256 SWAP16 0x25 DUP4 0xC BYTE 0x29 LOG3 PUSH24 0x75882F5F7BE03D3FF6AA3C173B24CD1A52790547E669561D PUSH5 0x736F6C6343 STOP ADDMOD BYTE STOP CALLER "
				},
				"gasEstimates": {
					"creation": {
						"codeDepositCost": "746000",
						"executionCost": "infinite",
						"totalCost": "infinite"
					},
					"external": {
						"buku3(uint256)": "infinite",
						"cekbuku1()": "infinite",
						"cekbuku2()": "infinite",
						"cekbuku3(uint256)": "infinite",
						"tambahbuk3(string,string,uint256,bool)": "infinite",
						"tambahbuku()": "infinite"
					}
				},
				"methodIdentifiers": {
					"buku3(uint256)": "ea625179",
					"cekbuku1()": "8c62ffde",
					"cekbuku2()": "9960ee22",
					"cekbuku3(uint256)": "e7bf2ba7",
					"tambahbuk3(string,string,uint256,bool)": "a9d817e8",
					"tambahbuku()": "52a158dd"
				}
			},
			"storageLayout": {
				"storage": [
					{
						"astId": 13,
						"contract": "contracts/struct.sol:structure",
						"label": "buku1",
						"offset": 0,
						"slot": "0",
						"type": "t_struct(buku)10_storage"
					},
					{
						"astId": 57,
						"contract": "contracts/struct.sol:structure",
						"label": "buku2",
						"offset": 0,
						"slot": "4",
						"type": "t_struct(buku)10_storage"
					},
					{
						"astId": 75,
						"contract": "contracts/struct.sol:structure",
						"label": "buku3",
						"offset": 0,
						"slot": "8",
						"type": "t_array(t_struct(buku)10_storage)dyn_storage"
					}
				],
				"types": {
					"t_array(t_struct(buku)10_storage)dyn_storage": {
						"base": "t_struct(buku)10_storage",
						"encoding": "dynamic_array",
						"label": "struct structure.buku[]",
						"numberOfBytes": "32"
					},
					"t_bool": {
						"encoding": "inplace",
						"label": "bool",
						"numberOfBytes": "1"
					},
					"t_string_storage": {
						"encoding": "bytes",
						"label": "string",
						"numberOfBytes": "32"
					},
					"t_struct(buku)10_storage": {
						"encoding": "inplace",
						"label": "struct structure.buku",
						"members": [
							{
								"astId": 3,
								"contract": "contracts/struct.sol:structure",
								"label": "title",
								"offset": 0,
								"slot": "0",
								"type": "t_string_storage"
							},
							{
								"astId": 5,
								"contract": "contracts/struct.sol:structure",
								"label": "author",
								"offset": 0,
								"slot": "1",
								"type": "t_string_storage"
							},
							{
								"astId": 7,
								"contract": "contracts/struct.sol:structure",
								"label": "id",
								"offset": 0,
								"slot": "2",
								"type": "t_uint256"
							},
							{
								"astId": 9,
								"contract": "contracts/struct.sol:structure",
								"label": "isReady",
								"offset": 0,
								"slot": "3",
								"type": "t_bool"
							}
						],
						"numberOfBytes": "128"
					},
					"t_uint256": {
						"encoding": "inplace",
						"label": "uint256",
						"numberOfBytes": "32"
					}
				}
			},
			"userdoc": {
				"kind": "user",
				"methods": {},
				"version": 1
			}
		}
	}
}