{
	"contracts/Array.sol": {
		"DynamisArray": {
			"abi": [
				{
					"inputs": [],
					"name": "getData",
					"outputs": [
						{
							"internalType": "uint256[]",
							"name": "",
							"type": "uint256[]"
						}
					],
					"stateMutability": "nonpayable",
					"type": "function"
				},
				{
					"inputs": [],
					"name": "getDataBaru",
					"outputs": [
						{
							"internalType": "uint256[]",
							"name": "",
							"type": "uint256[]"
						}
					],
					"stateMutability": "nonpayable",
					"type": "function"
				}
			],
			"devdoc": {
				"kind": "dev",
				"methods": {},
				"version": 1
			},
			"evm": {
				"assembly": "    /* \"contracts/Array.sol\":374:795  contract DynamisArray {... */\n  mstore(0x40, 0x80)\n  callvalue\n  dup1\n  iszero\n  tag_1\n  jumpi\n  0x00\n  dup1\n  revert\ntag_1:\n  pop\n  dataSize(sub_0)\n  dup1\n  dataOffset(sub_0)\n  0x00\n  codecopy\n  0x00\n  return\nstop\n\nsub_0: assembly {\n        /* \"contracts/Array.sol\":374:795  contract DynamisArray {... */\n      mstore(0x40, 0x80)\n      callvalue\n      dup1\n      iszero\n      tag_1\n      jumpi\n      0x00\n      dup1\n      revert\n    tag_1:\n      pop\n      jumpi(tag_2, lt(calldatasize, 0x04))\n      shr(0xe0, calldataload(0x00))\n      dup1\n      0x2629390f\n      eq\n      tag_3\n      jumpi\n      dup1\n      0x3bc5de30\n      eq\n      tag_4\n      jumpi\n    tag_2:\n      0x00\n      dup1\n      revert\n        /* \"contracts/Array.sol\":569:793  function getDataBaru() public returns(uint[] memory){... */\n    tag_3:\n      tag_5\n      tag_6\n      jump\t// in\n    tag_5:\n      mload(0x40)\n      tag_7\n      swap2\n      swap1\n      tag_8\n      jump\t// in\n    tag_7:\n      mload(0x40)\n      dup1\n      swap2\n      sub\n      swap1\n      return\n        /* \"contracts/Array.sol\":441:563  function getData() public returns(uint[] memory) {... */\n    tag_4:\n      tag_9\n      tag_10\n      jump\t// in\n    tag_9:\n      mload(0x40)\n      tag_11\n      swap2\n      swap1\n      tag_8\n      jump\t// in\n    tag_11:\n      mload(0x40)\n      dup1\n      swap2\n      sub\n      swap1\n      return\n        /* \"contracts/Array.sol\":569:793  function getDataBaru() public returns(uint[] memory){... */\n    tag_6:\n        /* \"contracts/Array.sol\":607:620  uint[] memory */\n      0x60\n        /* \"contracts/Array.sol\":677:678  3 */\n      0x03\n        /* \"contracts/Array.sol\":666:679  new uint[](3) */\n      0xffffffffffffffff\n      dup2\n      gt\n      iszero\n      tag_13\n      jumpi\n      tag_14\n      tag_15\n      jump\t// in\n    tag_14:\n    tag_13:\n      mload(0x40)\n      swap1\n      dup1\n      dup3\n      mstore\n      dup1\n      0x20\n      mul\n      0x20\n      add\n      dup3\n      add\n      0x40\n      mstore\n      dup1\n      iszero\n      tag_16\n      jumpi\n      dup2\n      0x20\n      add\n      0x20\n      dup3\n      mul\n      dup1\n      calldatasize\n      dup4\n      calldatacopy\n      dup1\n      dup3\n      add\n      swap2\n      pop\n      pop\n      swap1\n      pop\n    tag_16:\n      pop\n        /* \"contracts/Array.sol\":655:663  databaru */\n      0x01\n        /* \"contracts/Array.sol\":655:679  databaru = new uint[](3) */\n      swap1\n      dup1\n      mload\n      swap1\n      0x20\n      add\n      swap1\n      tag_17\n      swap3\n      swap2\n      swap1\n      tag_18\n      jump\t// in\n    tag_17:\n      pop\n        /* \"contracts/Array.sol\":703:705  10 */\n      0x0a\n        /* \"contracts/Array.sol\":689:697  databaru */\n      0x01\n        /* \"contracts/Array.sol\":698:699  0 */\n      0x00\n        /* \"contracts/Array.sol\":689:700  databaru[0] */\n      dup2\n      sload\n      dup2\n      lt\n      tag_19\n      jumpi\n      tag_20\n      tag_21\n      jump\t// in\n    tag_20:\n    tag_19:\n      swap1\n      0x00\n      mstore\n      keccak256(0x00, 0x20)\n      add\n        /* \"contracts/Array.sol\":689:705  databaru[0] = 10 */\n      dup2\n      swap1\n      sstore\n      pop\n        /* \"contracts/Array.sol\":729:731  30 */\n      0x1e\n        /* \"contracts/Array.sol\":715:723  databaru */\n      0x01\n        /* \"contracts/Array.sol\":724:725  1 */\n      dup1\n        /* \"contracts/Array.sol\":715:726  databaru[1] */\n      dup2\n      sload\n      dup2\n      lt\n      tag_23\n      jumpi\n      tag_24\n      tag_21\n      jump\t// in\n    tag_24:\n    tag_23:\n      swap1\n      0x00\n      mstore\n      keccak256(0x00, 0x20)\n      add\n        /* \"contracts/Array.sol\":715:731  databaru[1] = 30 */\n      dup2\n      swap1\n      sstore\n      pop\n        /* \"contracts/Array.sol\":755:757  30 */\n      0x1e\n        /* \"contracts/Array.sol\":741:749  databaru */\n      0x01\n        /* \"contracts/Array.sol\":750:751  2 */\n      0x02\n        /* \"contracts/Array.sol\":741:752  databaru[2] */\n      dup2\n      sload\n      dup2\n      lt\n      tag_26\n      jumpi\n      tag_27\n      tag_21\n      jump\t// in\n    tag_27:\n    tag_26:\n      swap1\n      0x00\n      mstore\n      keccak256(0x00, 0x20)\n      add\n        /* \"contracts/Array.sol\":741:757  databaru[2] = 30 */\n      dup2\n      swap1\n      sstore\n      pop\n        /* \"contracts/Array.sol\":776:784  databaru */\n      0x01\n        /* \"contracts/Array.sol\":768:785  return (databaru) */\n      dup1\n      sload\n      dup1\n      0x20\n      mul\n      0x20\n      add\n      mload(0x40)\n      swap1\n      dup2\n      add\n      0x40\n      mstore\n      dup1\n      swap3\n      swap2\n      swap1\n      dup2\n      dup2\n      mstore\n      0x20\n      add\n      dup3\n      dup1\n      sload\n      dup1\n      iszero\n      tag_29\n      jumpi\n      0x20\n      mul\n      dup3\n      add\n      swap2\n      swap1\n      0x00\n      mstore\n      keccak256(0x00, 0x20)\n      swap1\n    tag_30:\n      dup2\n      sload\n      dup2\n      mstore\n      0x20\n      add\n      swap1\n      0x01\n      add\n      swap1\n      dup1\n      dup4\n      gt\n      tag_30\n      jumpi\n    tag_29:\n      pop\n      pop\n      pop\n      pop\n      pop\n      swap1\n      pop\n        /* \"contracts/Array.sol\":569:793  function getDataBaru() public returns(uint[] memory){... */\n      swap1\n      jump\t// out\n        /* \"contracts/Array.sol\":441:563  function getData() public returns(uint[] memory) {... */\n    tag_10:\n        /* \"contracts/Array.sol\":475:488  uint[] memory */\n      0x60\n        /* \"contracts/Array.sol\":500:520  data = [10,20,30,40] */\n      mload(0x40)\n      dup1\n      0x80\n      add\n      0x40\n      mstore\n      dup1\n        /* \"contracts/Array.sol\":508:510  10 */\n      0x0a\n        /* \"contracts/Array.sol\":500:520  data = [10,20,30,40] */\n      0xff\n      and\n      dup2\n      mstore\n      0x20\n      add\n        /* \"contracts/Array.sol\":511:513  20 */\n      0x14\n        /* \"contracts/Array.sol\":500:520  data = [10,20,30,40] */\n      0xff\n      and\n      dup2\n      mstore\n      0x20\n      add\n        /* \"contracts/Array.sol\":514:516  30 */\n      0x1e\n        /* \"contracts/Array.sol\":500:520  data = [10,20,30,40] */\n      0xff\n      and\n      dup2\n      mstore\n      0x20\n      add\n        /* \"contracts/Array.sol\":517:519  40 */\n      0x28\n        /* \"contracts/Array.sol\":500:520  data = [10,20,30,40] */\n      0xff\n      and\n      dup2\n      mstore\n      pop\n        /* \"contracts/Array.sol\":500:504  data */\n      0x00\n        /* \"contracts/Array.sol\":500:520  data = [10,20,30,40] */\n      swap1\n      0x04\n      tag_32\n      swap3\n      swap2\n      swap1\n      tag_33\n      jump\t// in\n    tag_32:\n      pop\n        /* \"contracts/Array.sol\":552:556  data */\n      0x00\n        /* \"contracts/Array.sol\":545:556  return data */\n      dup1\n      sload\n      dup1\n      0x20\n      mul\n      0x20\n      add\n      mload(0x40)\n      swap1\n      dup2\n      add\n      0x40\n      mstore\n      dup1\n      swap3\n      swap2\n      swap1\n      dup2\n      dup2\n      mstore\n      0x20\n      add\n      dup3\n      dup1\n      sload\n      dup1\n      iszero\n      tag_34\n      jumpi\n      0x20\n      mul\n      dup3\n      add\n      swap2\n      swap1\n      0x00\n      mstore\n      keccak256(0x00, 0x20)\n      swap1\n    tag_35:\n      dup2\n      sload\n      dup2\n      mstore\n      0x20\n      add\n      swap1\n      0x01\n      add\n      swap1\n      dup1\n      dup4\n      gt\n      tag_35\n      jumpi\n    tag_34:\n      pop\n      pop\n      pop\n      pop\n      pop\n      swap1\n      pop\n        /* \"contracts/Array.sol\":441:563  function getData() public returns(uint[] memory) {... */\n      swap1\n      jump\t// out\n    tag_18:\n      dup3\n      dup1\n      sload\n      dup3\n      dup3\n      sstore\n      swap1\n      0x00\n      mstore\n      keccak256(0x00, 0x20)\n      swap1\n      dup2\n      add\n      swap3\n      dup3\n      iszero\n      tag_36\n      jumpi\n      swap2\n      0x20\n      mul\n      dup3\n      add\n    tag_37:\n      dup3\n      dup2\n      gt\n      iszero\n      tag_38\n      jumpi\n      dup3\n      mload\n      dup3\n      sstore\n      swap2\n      0x20\n      add\n      swap2\n      swap1\n      0x01\n      add\n      swap1\n      jump(tag_37)\n    tag_38:\n    tag_36:\n      pop\n      swap1\n      pop\n      tag_39\n      swap2\n      swap1\n      tag_40\n      jump\t// in\n    tag_39:\n      pop\n      swap1\n      jump\t// out\n    tag_33:\n      dup3\n      dup1\n      sload\n      dup3\n      dup3\n      sstore\n      swap1\n      0x00\n      mstore\n      keccak256(0x00, 0x20)\n      swap1\n      dup2\n      add\n      swap3\n      dup3\n      iszero\n      tag_41\n      jumpi\n      swap2\n      0x20\n      mul\n      dup3\n      add\n    tag_42:\n      dup3\n      dup2\n      gt\n      iszero\n      tag_43\n      jumpi\n      dup3\n      mload\n      dup3\n      swap1\n      0xff\n      and\n      swap1\n      sstore\n      swap2\n      0x20\n      add\n      swap2\n      swap1\n      0x01\n      add\n      swap1\n      jump(tag_42)\n    tag_43:\n    tag_41:\n      pop\n      swap1\n      pop\n      tag_44\n      swap2\n      swap1\n      tag_40\n      jump\t// in\n    tag_44:\n      pop\n      swap1\n      jump\t// out\n    tag_40:\n    tag_45:\n      dup1\n      dup3\n      gt\n      iszero\n      tag_46\n      jumpi\n      0x00\n      dup2\n      0x00\n      swap1\n      sstore\n      pop\n      0x01\n      add\n      jump(tag_45)\n    tag_46:\n      pop\n      swap1\n      jump\t// out\n        /* \"#utility.yul\":7:121   */\n    tag_47:\n        /* \"#utility.yul\":74:80   */\n      0x00\n        /* \"#utility.yul\":108:113   */\n      dup2\n        /* \"#utility.yul\":102:114   */\n      mload\n        /* \"#utility.yul\":92:114   */\n      swap1\n      pop\n        /* \"#utility.yul\":7:121   */\n      swap2\n      swap1\n      pop\n      jump\t// out\n        /* \"#utility.yul\":127:311   */\n    tag_48:\n        /* \"#utility.yul\":226:237   */\n      0x00\n        /* \"#utility.yul\":260:266   */\n      dup3\n        /* \"#utility.yul\":255:258   */\n      dup3\n        /* \"#utility.yul\":248:267   */\n      mstore\n        /* \"#utility.yul\":300:304   */\n      0x20\n        /* \"#utility.yul\":295:298   */\n      dup3\n        /* \"#utility.yul\":291:305   */\n      add\n        /* \"#utility.yul\":276:305   */\n      swap1\n      pop\n        /* \"#utility.yul\":127:311   */\n      swap3\n      swap2\n      pop\n      pop\n      jump\t// out\n        /* \"#utility.yul\":317:449   */\n    tag_49:\n        /* \"#utility.yul\":384:388   */\n      0x00\n        /* \"#utility.yul\":407:410   */\n      dup2\n        /* \"#utility.yul\":399:410   */\n      swap1\n      pop\n        /* \"#utility.yul\":437:441   */\n      0x20\n        /* \"#utility.yul\":432:435   */\n      dup3\n        /* \"#utility.yul\":428:442   */\n      add\n        /* \"#utility.yul\":420:442   */\n      swap1\n      pop\n        /* \"#utility.yul\":317:449   */\n      swap2\n      swap1\n      pop\n      jump\t// out\n        /* \"#utility.yul\":455:532   */\n    tag_50:\n        /* \"#utility.yul\":492:499   */\n      0x00\n        /* \"#utility.yul\":521:526   */\n      dup2\n        /* \"#utility.yul\":510:526   */\n      swap1\n      pop\n        /* \"#utility.yul\":455:532   */\n      swap2\n      swap1\n      pop\n      jump\t// out\n        /* \"#utility.yul\":538:646   */\n    tag_51:\n        /* \"#utility.yul\":615:639   */\n      tag_61\n        /* \"#utility.yul\":633:638   */\n      dup2\n        /* \"#utility.yul\":615:639   */\n      tag_50\n      jump\t// in\n    tag_61:\n        /* \"#utility.yul\":610:613   */\n      dup3\n        /* \"#utility.yul\":603:640   */\n      mstore\n        /* \"#utility.yul\":538:646   */\n      pop\n      pop\n      jump\t// out\n        /* \"#utility.yul\":652:831   */\n    tag_52:\n        /* \"#utility.yul\":721:731   */\n      0x00\n        /* \"#utility.yul\":742:788   */\n      tag_63\n        /* \"#utility.yul\":784:787   */\n      dup4\n        /* \"#utility.yul\":776:782   */\n      dup4\n        /* \"#utility.yul\":742:788   */\n      tag_51\n      jump\t// in\n    tag_63:\n        /* \"#utility.yul\":820:824   */\n      0x20\n        /* \"#utility.yul\":815:818   */\n      dup4\n        /* \"#utility.yul\":811:825   */\n      add\n        /* \"#utility.yul\":797:825   */\n      swap1\n      pop\n        /* \"#utility.yul\":652:831   */\n      swap3\n      swap2\n      pop\n      pop\n      jump\t// out\n        /* \"#utility.yul\":837:950   */\n    tag_53:\n        /* \"#utility.yul\":907:911   */\n      0x00\n        /* \"#utility.yul\":939:943   */\n      0x20\n        /* \"#utility.yul\":934:937   */\n      dup3\n        /* \"#utility.yul\":930:944   */\n      add\n        /* \"#utility.yul\":922:944   */\n      swap1\n      pop\n        /* \"#utility.yul\":837:950   */\n      swap2\n      swap1\n      pop\n      jump\t// out\n        /* \"#utility.yul\":986:1718   */\n    tag_54:\n        /* \"#utility.yul\":1105:1108   */\n      0x00\n        /* \"#utility.yul\":1134:1188   */\n      tag_66\n        /* \"#utility.yul\":1182:1187   */\n      dup3\n        /* \"#utility.yul\":1134:1188   */\n      tag_47\n      jump\t// in\n    tag_66:\n        /* \"#utility.yul\":1204:1290   */\n      tag_67\n        /* \"#utility.yul\":1283:1289   */\n      dup2\n        /* \"#utility.yul\":1278:1281   */\n      dup6\n        /* \"#utility.yul\":1204:1290   */\n      tag_48\n      jump\t// in\n    tag_67:\n        /* \"#utility.yul\":1197:1290   */\n      swap4\n      pop\n        /* \"#utility.yul\":1314:1370   */\n      tag_68\n        /* \"#utility.yul\":1364:1369   */\n      dup4\n        /* \"#utility.yul\":1314:1370   */\n      tag_49\n      jump\t// in\n    tag_68:\n        /* \"#utility.yul\":1393:1400   */\n      dup1\n        /* \"#utility.yul\":1424:1425   */\n      0x00\n        /* \"#utility.yul\":1409:1693   */\n    tag_69:\n        /* \"#utility.yul\":1434:1440   */\n      dup4\n        /* \"#utility.yul\":1431:1432   */\n      dup2\n        /* \"#utility.yul\":1428:1441   */\n      lt\n        /* \"#utility.yul\":1409:1693   */\n      iszero\n      tag_71\n      jumpi\n        /* \"#utility.yul\":1510:1516   */\n      dup2\n        /* \"#utility.yul\":1504:1517   */\n      mload\n        /* \"#utility.yul\":1537:1600   */\n      tag_72\n        /* \"#utility.yul\":1596:1599   */\n      dup9\n        /* \"#utility.yul\":1581:1594   */\n      dup3\n        /* \"#utility.yul\":1537:1600   */\n      tag_52\n      jump\t// in\n    tag_72:\n        /* \"#utility.yul\":1530:1600   */\n      swap8\n      pop\n        /* \"#utility.yul\":1623:1683   */\n      tag_73\n        /* \"#utility.yul\":1676:1682   */\n      dup4\n        /* \"#utility.yul\":1623:1683   */\n      tag_53\n      jump\t// in\n    tag_73:\n        /* \"#utility.yul\":1613:1683   */\n      swap3\n      pop\n        /* \"#utility.yul\":1469:1693   */\n      pop\n        /* \"#utility.yul\":1456:1457   */\n      0x01\n        /* \"#utility.yul\":1453:1454   */\n      dup2\n        /* \"#utility.yul\":1449:1458   */\n      add\n        /* \"#utility.yul\":1444:1458   */\n      swap1\n      pop\n        /* \"#utility.yul\":1409:1693   */\n      jump(tag_69)\n    tag_71:\n        /* \"#utility.yul\":1413:1427   */\n      pop\n        /* \"#utility.yul\":1709:1712   */\n      dup6\n        /* \"#utility.yul\":1702:1712   */\n      swap4\n      pop\n        /* \"#utility.yul\":1110:1718   */\n      pop\n      pop\n      pop\n        /* \"#utility.yul\":986:1718   */\n      swap3\n      swap2\n      pop\n      pop\n      jump\t// out\n        /* \"#utility.yul\":1724:2097   */\n    tag_8:\n        /* \"#utility.yul\":1867:1871   */\n      0x00\n        /* \"#utility.yul\":1905:1907   */\n      0x20\n        /* \"#utility.yul\":1894:1903   */\n      dup3\n        /* \"#utility.yul\":1890:1908   */\n      add\n        /* \"#utility.yul\":1882:1908   */\n      swap1\n      pop\n        /* \"#utility.yul\":1954:1963   */\n      dup2\n        /* \"#utility.yul\":1948:1952   */\n      dup2\n        /* \"#utility.yul\":1944:1964   */\n      sub\n        /* \"#utility.yul\":1940:1941   */\n      0x00\n        /* \"#utility.yul\":1929:1938   */\n      dup4\n        /* \"#utility.yul\":1925:1942   */\n      add\n        /* \"#utility.yul\":1918:1965   */\n      mstore\n        /* \"#utility.yul\":1982:2090   */\n      tag_75\n        /* \"#utility.yul\":2085:2089   */\n      dup2\n        /* \"#utility.yul\":2076:2082   */\n      dup5\n        /* \"#utility.yul\":1982:2090   */\n      tag_54\n      jump\t// in\n    tag_75:\n        /* \"#utility.yul\":1974:2090   */\n      swap1\n      pop\n        /* \"#utility.yul\":1724:2097   */\n      swap3\n      swap2\n      pop\n      pop\n      jump\t// out\n        /* \"#utility.yul\":2103:2283   */\n    tag_15:\n        /* \"#utility.yul\":2151:2228   */\n      0x4e487b7100000000000000000000000000000000000000000000000000000000\n        /* \"#utility.yul\":2148:2149   */\n      0x00\n        /* \"#utility.yul\":2141:2229   */\n      mstore\n        /* \"#utility.yul\":2248:2252   */\n      0x41\n        /* \"#utility.yul\":2245:2246   */\n      0x04\n        /* \"#utility.yul\":2238:2253   */\n      mstore\n        /* \"#utility.yul\":2272:2276   */\n      0x24\n        /* \"#utility.yul\":2269:2270   */\n      0x00\n        /* \"#utility.yul\":2262:2277   */\n      revert\n        /* \"#utility.yul\":2289:2469   */\n    tag_21:\n        /* \"#utility.yul\":2337:2414   */\n      0x4e487b7100000000000000000000000000000000000000000000000000000000\n        /* \"#utility.yul\":2334:2335   */\n      0x00\n        /* \"#utility.yul\":2327:2415   */\n      mstore\n        /* \"#utility.yul\":2434:2438   */\n      0x32\n        /* \"#utility.yul\":2431:2432   */\n      0x04\n        /* \"#utility.yul\":2424:2439   */\n      mstore\n        /* \"#utility.yul\":2458:2462   */\n      0x24\n        /* \"#utility.yul\":2455:2456   */\n      0x00\n        /* \"#utility.yul\":2448:2463   */\n      revert\n\n    auxdata: 0xa26469706673582212200a1b12d484fef44b232981c8bfc2d338a8b4c67b24d8484b0943fb3e6d452e2264736f6c634300081a0033\n}\n",
				"bytecode": {
					"linkReferences": {},
					"object": "6080604052348015600e575f80fd5b5061044d8061001c5f395ff3fe608060405234801561000f575f80fd5b5060043610610034575f3560e01c80632629390f146100385780633bc5de3014610056575b5f80fd5b610040610074565b60405161004d919061039d565b60405180910390f35b61005e610191565b60405161006b919061039d565b60405180910390f35b6060600367ffffffffffffffff811115610091576100906103bd565b5b6040519080825280602002602001820160405280156100bf5781602001602082028036833780820191505090505b50600190805190602001906100d5929190610227565b50600a60015f815481106100ec576100eb6103ea565b5b905f5260205f200181905550601e6001808154811061010e5761010d6103ea565b5b905f5260205f200181905550601e6001600281548110610131576101306103ea565b5b905f5260205f200181905550600180548060200260200160405190810160405280929190818152602001828054801561018757602002820191905f5260205f20905b815481526020019060010190808311610173575b5050505050905090565b60606040518060800160405280600a60ff168152602001601460ff168152602001601e60ff168152602001602860ff168152505f9060046101d3929190610272565b505f80548060200260200160405190810160405280929190818152602001828054801561021d57602002820191905f5260205f20905b815481526020019060010190808311610209575b5050505050905090565b828054828255905f5260205f20908101928215610261579160200282015b82811115610260578251825591602001919060010190610245565b5b50905061026e91906102c2565b5090565b828054828255905f5260205f209081019282156102b1579160200282015b828111156102b0578251829060ff16905591602001919060010190610290565b5b5090506102be91906102c2565b5090565b5b808211156102d9575f815f9055506001016102c3565b5090565b5f81519050919050565b5f82825260208201905092915050565b5f819050602082019050919050565b5f819050919050565b61031881610306565b82525050565b5f610329838361030f565b60208301905092915050565b5f602082019050919050565b5f61034b826102dd565b61035581856102e7565b9350610360836102f7565b805f5b83811015610390578151610377888261031e565b975061038283610335565b925050600181019050610363565b5085935050505092915050565b5f6020820190508181035f8301526103b58184610341565b905092915050565b7f4e487b71000000000000000000000000000000000000000000000000000000005f52604160045260245ffd5b7f4e487b71000000000000000000000000000000000000000000000000000000005f52603260045260245ffdfea26469706673582212200a1b12d484fef44b232981c8bfc2d338a8b4c67b24d8484b0943fb3e6d452e2264736f6c634300081a0033",
					"opcodes": "PUSH1 0x80 PUSH1 0x40 MSTORE CALLVALUE DUP1 ISZERO PUSH1 0xE JUMPI PUSH0 DUP1 REVERT JUMPDEST POP PUSH2 0x44D DUP1 PUSH2 0x1C PUSH0 CODECOPY PUSH0 RETURN INVALID PUSH1 0x80 PUSH1 0x40 MSTORE CALLVALUE DUP1 ISZERO PUSH2 0xF JUMPI PUSH0 DUP1 REVERT JUMPDEST POP PUSH1 0x4 CALLDATASIZE LT PUSH2 0x34 JUMPI PUSH0 CALLDATALOAD PUSH1 0xE0 SHR DUP1 PUSH4 0x2629390F EQ PUSH2 0x38 JUMPI DUP1 PUSH4 0x3BC5DE30 EQ PUSH2 0x56 JUMPI JUMPDEST PUSH0 DUP1 REVERT JUMPDEST PUSH2 0x40 PUSH2 0x74 JUMP JUMPDEST PUSH1 0x40 MLOAD PUSH2 0x4D SWAP2 SWAP1 PUSH2 0x39D JUMP JUMPDEST PUSH1 0x40 MLOAD DUP1 SWAP2 SUB SWAP1 RETURN JUMPDEST PUSH2 0x5E PUSH2 0x191 JUMP JUMPDEST PUSH1 0x40 MLOAD PUSH2 0x6B SWAP2 SWAP1 PUSH2 0x39D JUMP JUMPDEST PUSH1 0x40 MLOAD DUP1 SWAP2 SUB SWAP1 RETURN JUMPDEST PUSH1 0x60 PUSH1 0x3 PUSH8 0xFFFFFFFFFFFFFFFF DUP2 GT ISZERO PUSH2 0x91 JUMPI PUSH2 0x90 PUSH2 0x3BD JUMP JUMPDEST JUMPDEST PUSH1 0x40 MLOAD SWAP1 DUP1 DUP3 MSTORE DUP1 PUSH1 0x20 MUL PUSH1 0x20 ADD DUP3 ADD PUSH1 0x40 MSTORE DUP1 ISZERO PUSH2 0xBF JUMPI DUP2 PUSH1 0x20 ADD PUSH1 0x20 DUP3 MUL DUP1 CALLDATASIZE DUP4 CALLDATACOPY DUP1 DUP3 ADD SWAP2 POP POP SWAP1 POP JUMPDEST POP PUSH1 0x1 SWAP1 DUP1 MLOAD SWAP1 PUSH1 0x20 ADD SWAP1 PUSH2 0xD5 SWAP3 SWAP2 SWAP1 PUSH2 0x227 JUMP JUMPDEST POP PUSH1 0xA PUSH1 0x1 PUSH0 DUP2 SLOAD DUP2 LT PUSH2 0xEC JUMPI PUSH2 0xEB PUSH2 0x3EA JUMP JUMPDEST JUMPDEST SWAP1 PUSH0 MSTORE PUSH1 0x20 PUSH0 KECCAK256 ADD DUP2 SWAP1 SSTORE POP PUSH1 0x1E PUSH1 0x1 DUP1 DUP2 SLOAD DUP2 LT PUSH2 0x10E JUMPI PUSH2 0x10D PUSH2 0x3EA JUMP JUMPDEST JUMPDEST SWAP1 PUSH0 MSTORE PUSH1 0x20 PUSH0 KECCAK256 ADD DUP2 SWAP1 SSTORE POP PUSH1 0x1E PUSH1 0x1 PUSH1 0x2 DUP2 SLOAD DUP2 LT PUSH2 0x131 JUMPI PUSH2 0x130 PUSH2 0x3EA JUMP JUMPDEST JUMPDEST SWAP1 PUSH0 MSTORE PUSH1 0x20 PUSH0 KECCAK256 ADD DUP2 SWAP1 SSTORE POP PUSH1 0x1 DUP1 SLOAD DUP1 PUSH1 0x20 MUL PUSH1 0x20 ADD PUSH1 0x40 MLOAD SWAP1 DUP2 ADD PUSH1 0x40 MSTORE DUP1 SWAP3 SWAP2 SWAP1 DUP2 DUP2 MSTORE PUSH1 0x20 ADD DUP3 DUP1 SLOAD DUP1 ISZERO PUSH2 0x187 JUMPI PUSH1 0x20 MUL DUP3 ADD SWAP2 SWAP1 PUSH0 MSTORE PUSH1 0x20 PUSH0 KECCAK256 SWAP1 JUMPDEST DUP2 SLOAD DUP2 MSTORE PUSH1 0x20 ADD SWAP1 PUSH1 0x1 ADD SWAP1 DUP1 DUP4 GT PUSH2 0x173 JUMPI JUMPDEST POP POP POP POP POP SWAP1 POP SWAP1 JUMP JUMPDEST PUSH1 0x60 PUSH1 0x40 MLOAD DUP1 PUSH1 0x80 ADD PUSH1 0x40 MSTORE DUP1 PUSH1 0xA PUSH1 0xFF AND DUP2 MSTORE PUSH1 0x20 ADD PUSH1 0x14 PUSH1 0xFF AND DUP2 MSTORE PUSH1 0x20 ADD PUSH1 0x1E PUSH1 0xFF AND DUP2 MSTORE PUSH1 0x20 ADD PUSH1 0x28 PUSH1 0xFF AND DUP2 MSTORE POP PUSH0 SWAP1 PUSH1 0x4 PUSH2 0x1D3 SWAP3 SWAP2 SWAP1 PUSH2 0x272 JUMP JUMPDEST POP PUSH0 DUP1 SLOAD DUP1 PUSH1 0x20 MUL PUSH1 0x20 ADD PUSH1 0x40 MLOAD SWAP1 DUP2 ADD PUSH1 0x40 MSTORE DUP1 SWAP3 SWAP2 SWAP1 DUP2 DUP2 MSTORE PUSH1 0x20 ADD DUP3 DUP1 SLOAD DUP1 ISZERO PUSH2 0x21D JUMPI PUSH1 0x20 MUL DUP3 ADD SWAP2 SWAP1 PUSH0 MSTORE PUSH1 0x20 PUSH0 KECCAK256 SWAP1 JUMPDEST DUP2 SLOAD DUP2 MSTORE PUSH1 0x20 ADD SWAP1 PUSH1 0x1 ADD SWAP1 DUP1 DUP4 GT PUSH2 0x209 JUMPI JUMPDEST POP POP POP POP POP SWAP1 POP SWAP1 JUMP JUMPDEST DUP3 DUP1 SLOAD DUP3 DUP3 SSTORE SWAP1 PUSH0 MSTORE PUSH1 0x20 PUSH0 KECCAK256 SWAP1 DUP2 ADD SWAP3 DUP3 ISZERO PUSH2 0x261 JUMPI SWAP2 PUSH1 0x20 MUL DUP3 ADD JUMPDEST DUP3 DUP2 GT ISZERO PUSH2 0x260 JUMPI DUP3 MLOAD DUP3 SSTORE SWAP2 PUSH1 0x20 ADD SWAP2 SWAP1 PUSH1 0x1 ADD SWAP1 PUSH2 0x245 JUMP JUMPDEST JUMPDEST POP SWAP1 POP PUSH2 0x26E SWAP2 SWAP1 PUSH2 0x2C2 JUMP JUMPDEST POP SWAP1 JUMP JUMPDEST DUP3 DUP1 SLOAD DUP3 DUP3 SSTORE SWAP1 PUSH0 MSTORE PUSH1 0x20 PUSH0 KECCAK256 SWAP1 DUP2 ADD SWAP3 DUP3 ISZERO PUSH2 0x2B1 JUMPI SWAP2 PUSH1 0x20 MUL DUP3 ADD JUMPDEST DUP3 DUP2 GT ISZERO PUSH2 0x2B0 JUMPI DUP3 MLOAD DUP3 SWAP1 PUSH1 0xFF AND SWAP1 SSTORE SWAP2 PUSH1 0x20 ADD SWAP2 SWAP1 PUSH1 0x1 ADD SWAP1 PUSH2 0x290 JUMP JUMPDEST JUMPDEST POP SWAP1 POP PUSH2 0x2BE SWAP2 SWAP1 PUSH2 0x2C2 JUMP JUMPDEST POP SWAP1 JUMP JUMPDEST JUMPDEST DUP1 DUP3 GT ISZERO PUSH2 0x2D9 JUMPI PUSH0 DUP2 PUSH0 SWAP1 SSTORE POP PUSH1 0x1 ADD PUSH2 0x2C3 JUMP JUMPDEST POP SWAP1 JUMP JUMPDEST PUSH0 DUP2 MLOAD SWAP1 POP SWAP2 SWAP1 POP JUMP JUMPDEST PUSH0 DUP3 DUP3 MSTORE PUSH1 0x20 DUP3 ADD SWAP1 POP SWAP3 SWAP2 POP POP JUMP JUMPDEST PUSH0 DUP2 SWAP1 POP PUSH1 0x20 DUP3 ADD SWAP1 POP SWAP2 SWAP1 POP JUMP JUMPDEST PUSH0 DUP2 SWAP1 POP SWAP2 SWAP1 POP JUMP JUMPDEST PUSH2 0x318 DUP2 PUSH2 0x306 JUMP JUMPDEST DUP3 MSTORE POP POP JUMP JUMPDEST PUSH0 PUSH2 0x329 DUP4 DUP4 PUSH2 0x30F JUMP JUMPDEST PUSH1 0x20 DUP4 ADD SWAP1 POP SWAP3 SWAP2 POP POP JUMP JUMPDEST PUSH0 PUSH1 0x20 DUP3 ADD SWAP1 POP SWAP2 SWAP1 POP JUMP JUMPDEST PUSH0 PUSH2 0x34B DUP3 PUSH2 0x2DD JUMP JUMPDEST PUSH2 0x355 DUP2 DUP6 PUSH2 0x2E7 JUMP JUMPDEST SWAP4 POP PUSH2 0x360 DUP4 PUSH2 0x2F7 JUMP JUMPDEST DUP1 PUSH0 JUMPDEST DUP4 DUP2 LT ISZERO PUSH2 0x390 JUMPI DUP2 MLOAD PUSH2 0x377 DUP9 DUP3 PUSH2 0x31E JUMP JUMPDEST SWAP8 POP PUSH2 0x382 DUP4 PUSH2 0x335 JUMP JUMPDEST SWAP3 POP POP PUSH1 0x1 DUP2 ADD SWAP1 POP PUSH2 0x363 JUMP JUMPDEST POP DUP6 SWAP4 POP POP POP POP SWAP3 SWAP2 POP POP JUMP JUMPDEST PUSH0 PUSH1 0x20 DUP3 ADD SWAP1 POP DUP2 DUP2 SUB PUSH0 DUP4 ADD MSTORE PUSH2 0x3B5 DUP2 DUP5 PUSH2 0x341 JUMP JUMPDEST SWAP1 POP SWAP3 SWAP2 POP POP JUMP JUMPDEST PUSH32 0x4E487B7100000000000000000000000000000000000000000000000000000000 PUSH0 MSTORE PUSH1 0x41 PUSH1 0x4 MSTORE PUSH1 0x24 PUSH0 REVERT JUMPDEST PUSH32 0x4E487B7100000000000000000000000000000000000000000000000000000000 PUSH0 MSTORE PUSH1 0x32 PUSH1 0x4 MSTORE PUSH1 0x24 PUSH0 REVERT INVALID LOG2 PUSH5 0x6970667358 0x22 SLT KECCAK256 EXP SHL SLT 0xD4 DUP5 INVALID DELEGATECALL 0x4B 0x23 0x29 DUP2 0xC8 0xBF 0xC2 0xD3 CODESIZE 0xA8 0xB4 0xC6 PUSH28 0x24D8484B0943FB3E6D452E2264736F6C634300081A00330000000000 "
				},
				"gasEstimates": {
					"creation": {
						"codeDepositCost": "220200",
						"executionCost": "261",
						"totalCost": "220461"
					},
					"external": {
						"getData()": "infinite",
						"getDataBaru()": "infinite"
					}
				},
				"methodIdentifiers": {
					"getData()": "3bc5de30",
					"getDataBaru()": "2629390f"
				}
			},
			"storageLayout": {
				"storage": [
					{
						"astId": 57,
						"contract": "contracts/Array.sol:DynamisArray",
						"label": "data",
						"offset": 0,
						"slot": "0",
						"type": "t_array(t_uint256)dyn_storage"
					},
					{
						"astId": 60,
						"contract": "contracts/Array.sol:DynamisArray",
						"label": "databaru",
						"offset": 0,
						"slot": "1",
						"type": "t_array(t_uint256)dyn_storage"
					}
				],
				"types": {
					"t_array(t_uint256)dyn_storage": {
						"base": "t_uint256",
						"encoding": "dynamic_array",
						"label": "uint256[]",
						"numberOfBytes": "32"
					},
					"t_uint256": {
						"encoding": "inplace",
						"label": "uint256",
						"numberOfBytes": "32"
					}
				}
			},
			"userdoc": {
				"kind": "user",
				"methods": {},
				"version": 1
			}
		}
	}
}