{
	"contracts/Array.sol": {
		"FixArray": {
			"abi": [
				{
					"inputs": [],
					"name": "getData1",
					"outputs": [
						{
							"internalType": "uint256",
							"name": "",
							"type": "uint256"
						}
					],
					"stateMutability": "pure",
					"type": "function"
				},
				{
					"inputs": [],
					"name": "getDataAll",
					"outputs": [
						{
							"internalType": "uint256[5]",
							"name": "",
							"type": "uint256[5]"
						}
					],
					"stateMutability": "pure",
					"type": "function"
				}
			],
			"devdoc": {
				"kind": "dev",
				"methods": {},
				"version": 1
			},
			"evm": {
				"assembly": "    /* \"contracts/Array.sol\":65:372  contract FixArray {... */\n  mstore(0x40, 0x80)\n  callvalue\n  dup1\n  iszero\n  tag_1\n  jumpi\n  0x00\n  dup1\n  revert\ntag_1:\n  pop\n  dataSize(sub_0)\n  dup1\n  dataOffset(sub_0)\n  0x00\n  codecopy\n  0x00\n  return\nstop\n\nsub_0: assembly {\n        /* \"contracts/Array.sol\":65:372  contract FixArray {... */\n      mstore(0x40, 0x80)\n      callvalue\n      dup1\n      iszero\n      tag_1\n      jumpi\n      0x00\n      dup1\n      revert\n    tag_1:\n      pop\n      jumpi(tag_2, lt(calldatasize, 0x04))\n      shr(0xe0, calldataload(0x00))\n      dup1\n      0x9944cc71\n      eq\n      tag_3\n      jumpi\n      dup1\n      0x9ac2bada\n      eq\n      tag_4\n      jumpi\n    tag_2:\n      0x00\n      dup1\n      revert\n        /* \"contracts/Array.sol\":237:369  function getData1() public pure returns (uint){... */\n    tag_3:\n      tag_5\n      tag_6\n      jump\t// in\n    tag_5:\n      mload(0x40)\n      tag_7\n      swap2\n      swap1\n      tag_8\n      jump\t// in\n    tag_7:\n      mload(0x40)\n      dup1\n      swap2\n      sub\n      swap1\n      return\n        /* \"contracts/Array.sol\":89:231  function getDataAll() public pure returns (uint [5] memory){... */\n    tag_4:\n      tag_9\n      tag_10\n      jump\t// in\n    tag_9:\n      mload(0x40)\n      tag_11\n      swap2\n      swap1\n      tag_12\n      jump\t// in\n    tag_11:\n      mload(0x40)\n      dup1\n      swap2\n      sub\n      swap1\n      return\n        /* \"contracts/Array.sol\":237:369  function getData1() public pure returns (uint){... */\n    tag_6:\n        /* \"contracts/Array.sol\":278:282  uint */\n      0x00\n        /* \"contracts/Array.sol\":293:312  uint[5] memory data */\n      dup1\n        /* \"contracts/Array.sol\":293:338  uint[5] memory data = [uint(50),60,70,80,100] */\n      mload(0x40)\n      dup1\n      0xa0\n      add\n      0x40\n      mstore\n      dup1\n        /* \"contracts/Array.sol\":321:323  50 */\n      0x32\n        /* \"contracts/Array.sol\":293:338  uint[5] memory data = [uint(50),60,70,80,100] */\n      dup2\n      mstore\n      0x20\n      add\n        /* \"contracts/Array.sol\":325:327  60 */\n      0x3c\n        /* \"contracts/Array.sol\":293:338  uint[5] memory data = [uint(50),60,70,80,100] */\n      dup2\n      mstore\n      0x20\n      add\n        /* \"contracts/Array.sol\":328:330  70 */\n      0x46\n        /* \"contracts/Array.sol\":293:338  uint[5] memory data = [uint(50),60,70,80,100] */\n      dup2\n      mstore\n      0x20\n      add\n        /* \"contracts/Array.sol\":331:333  80 */\n      0x50\n        /* \"contracts/Array.sol\":293:338  uint[5] memory data = [uint(50),60,70,80,100] */\n      dup2\n      mstore\n      0x20\n      add\n        /* \"contracts/Array.sol\":334:337  100 */\n      0x64\n        /* \"contracts/Array.sol\":293:338  uint[5] memory data = [uint(50),60,70,80,100] */\n      dup2\n      mstore\n      pop\n      swap1\n      pop\n        /* \"contracts/Array.sol\":355:359  data */\n      dup1\n        /* \"contracts/Array.sol\":360:361  1 */\n      0x01\n        /* \"contracts/Array.sol\":355:362  data[1] */\n      0x05\n      dup2\n      lt\n      tag_14\n      jumpi\n      tag_15\n      tag_16\n      jump\t// in\n    tag_15:\n    tag_14:\n      0x20\n      mul\n      add\n      mload\n        /* \"contracts/Array.sol\":348:362  return data[1] */\n      swap2\n      pop\n      pop\n        /* \"contracts/Array.sol\":237:369  function getData1() public pure returns (uint){... */\n      swap1\n      jump\t// out\n        /* \"contracts/Array.sol\":89:231  function getDataAll() public pure returns (uint [5] memory){... */\n    tag_10:\n        /* \"contracts/Array.sol\":132:147  uint [5] memory */\n      tag_17\n      tag_18\n      jump\t// in\n    tag_17:\n        /* \"contracts/Array.sol\":158:177  uint[5] memory data */\n      0x00\n        /* \"contracts/Array.sol\":158:203  uint[5] memory data = [uint(50),60,70,80,100] */\n      mload(0x40)\n      dup1\n      0xa0\n      add\n      0x40\n      mstore\n      dup1\n        /* \"contracts/Array.sol\":186:188  50 */\n      0x32\n        /* \"contracts/Array.sol\":158:203  uint[5] memory data = [uint(50),60,70,80,100] */\n      dup2\n      mstore\n      0x20\n      add\n        /* \"contracts/Array.sol\":190:192  60 */\n      0x3c\n        /* \"contracts/Array.sol\":158:203  uint[5] memory data = [uint(50),60,70,80,100] */\n      dup2\n      mstore\n      0x20\n      add\n        /* \"contracts/Array.sol\":193:195  70 */\n      0x46\n        /* \"contracts/Array.sol\":158:203  uint[5] memory data = [uint(50),60,70,80,100] */\n      dup2\n      mstore\n      0x20\n      add\n        /* \"contracts/Array.sol\":196:198  80 */\n      0x50\n        /* \"contracts/Array.sol\":158:203  uint[5] memory data = [uint(50),60,70,80,100] */\n      dup2\n      mstore\n      0x20\n      add\n        /* \"contracts/Array.sol\":199:202  100 */\n      0x64\n        /* \"contracts/Array.sol\":158:203  uint[5] memory data = [uint(50),60,70,80,100] */\n      dup2\n      mstore\n      pop\n      swap1\n      pop\n        /* \"contracts/Array.sol\":220:224  data */\n      dup1\n        /* \"contracts/Array.sol\":213:224  return data */\n      swap2\n      pop\n      pop\n        /* \"contracts/Array.sol\":89:231  function getDataAll() public pure returns (uint [5] memory){... */\n      swap1\n      jump\t// out\n    tag_18:\n      mload(0x40)\n      dup1\n      0xa0\n      add\n      0x40\n      mstore\n      dup1\n      0x05\n      swap1\n      0x20\n      dup3\n      mul\n      dup1\n      calldatasize\n      dup4\n      calldatacopy\n      dup1\n      dup3\n      add\n      swap2\n      pop\n      pop\n      swap1\n      pop\n      pop\n      swap1\n      jump\t// out\n        /* \"#utility.yul\":7:84   */\n    tag_20:\n        /* \"#utility.yul\":44:51   */\n      0x00\n        /* \"#utility.yul\":73:78   */\n      dup2\n        /* \"#utility.yul\":62:78   */\n      swap1\n      pop\n        /* \"#utility.yul\":7:84   */\n      swap2\n      swap1\n      pop\n      jump\t// out\n        /* \"#utility.yul\":90:208   */\n    tag_21:\n        /* \"#utility.yul\":177:201   */\n      tag_32\n        /* \"#utility.yul\":195:200   */\n      dup2\n        /* \"#utility.yul\":177:201   */\n      tag_20\n      jump\t// in\n    tag_32:\n        /* \"#utility.yul\":172:175   */\n      dup3\n        /* \"#utility.yul\":165:202   */\n      mstore\n        /* \"#utility.yul\":90:208   */\n      pop\n      pop\n      jump\t// out\n        /* \"#utility.yul\":214:436   */\n    tag_8:\n        /* \"#utility.yul\":307:311   */\n      0x00\n        /* \"#utility.yul\":345:347   */\n      0x20\n        /* \"#utility.yul\":334:343   */\n      dup3\n        /* \"#utility.yul\":330:348   */\n      add\n        /* \"#utility.yul\":322:348   */\n      swap1\n      pop\n        /* \"#utility.yul\":358:429   */\n      tag_34\n        /* \"#utility.yul\":426:427   */\n      0x00\n        /* \"#utility.yul\":415:424   */\n      dup4\n        /* \"#utility.yul\":411:428   */\n      add\n        /* \"#utility.yul\":402:408   */\n      dup5\n        /* \"#utility.yul\":358:429   */\n      tag_21\n      jump\t// in\n    tag_34:\n        /* \"#utility.yul\":214:436   */\n      swap3\n      swap2\n      pop\n      pop\n      jump\t// out\n        /* \"#utility.yul\":442:546   */\n    tag_22:\n        /* \"#utility.yul\":507:513   */\n      0x00\n        /* \"#utility.yul\":535:539   */\n      0x05\n        /* \"#utility.yul\":525:539   */\n      swap1\n      pop\n        /* \"#utility.yul\":442:546   */\n      swap2\n      swap1\n      pop\n      jump\t// out\n        /* \"#utility.yul\":552:695   */\n    tag_23:\n        /* \"#utility.yul\":649:660   */\n      0x00\n        /* \"#utility.yul\":686:689   */\n      dup2\n        /* \"#utility.yul\":671:689   */\n      swap1\n      pop\n        /* \"#utility.yul\":552:695   */\n      swap3\n      swap2\n      pop\n      pop\n      jump\t// out\n        /* \"#utility.yul\":701:799   */\n    tag_24:\n        /* \"#utility.yul\":766:770   */\n      0x00\n        /* \"#utility.yul\":789:792   */\n      dup2\n        /* \"#utility.yul\":781:792   */\n      swap1\n      pop\n        /* \"#utility.yul\":701:799   */\n      swap2\n      swap1\n      pop\n      jump\t// out\n        /* \"#utility.yul\":805:913   */\n    tag_25:\n        /* \"#utility.yul\":882:906   */\n      tag_39\n        /* \"#utility.yul\":900:905   */\n      dup2\n        /* \"#utility.yul\":882:906   */\n      tag_20\n      jump\t// in\n    tag_39:\n        /* \"#utility.yul\":877:880   */\n      dup3\n        /* \"#utility.yul\":870:907   */\n      mstore\n        /* \"#utility.yul\":805:913   */\n      pop\n      pop\n      jump\t// out\n        /* \"#utility.yul\":919:1098   */\n    tag_26:\n        /* \"#utility.yul\":988:998   */\n      0x00\n        /* \"#utility.yul\":1009:1055   */\n      tag_41\n        /* \"#utility.yul\":1051:1054   */\n      dup4\n        /* \"#utility.yul\":1043:1049   */\n      dup4\n        /* \"#utility.yul\":1009:1055   */\n      tag_25\n      jump\t// in\n    tag_41:\n        /* \"#utility.yul\":1087:1091   */\n      0x20\n        /* \"#utility.yul\":1082:1085   */\n      dup4\n        /* \"#utility.yul\":1078:1092   */\n      add\n        /* \"#utility.yul\":1064:1092   */\n      swap1\n      pop\n        /* \"#utility.yul\":919:1098   */\n      swap3\n      swap2\n      pop\n      pop\n      jump\t// out\n        /* \"#utility.yul\":1104:1215   */\n    tag_27:\n        /* \"#utility.yul\":1172:1176   */\n      0x00\n        /* \"#utility.yul\":1204:1208   */\n      0x20\n        /* \"#utility.yul\":1199:1202   */\n      dup3\n        /* \"#utility.yul\":1195:1209   */\n      add\n        /* \"#utility.yul\":1187:1209   */\n      swap1\n      pop\n        /* \"#utility.yul\":1104:1215   */\n      swap2\n      swap1\n      pop\n      jump\t// out\n        /* \"#utility.yul\":1253:1947   */\n    tag_28:\n        /* \"#utility.yul\":1389:1441   */\n      tag_44\n        /* \"#utility.yul\":1435:1440   */\n      dup2\n        /* \"#utility.yul\":1389:1441   */\n      tag_22\n      jump\t// in\n    tag_44:\n        /* \"#utility.yul\":1457:1541   */\n      tag_45\n        /* \"#utility.yul\":1534:1540   */\n      dup2\n        /* \"#utility.yul\":1529:1532   */\n      dup5\n        /* \"#utility.yul\":1457:1541   */\n      tag_23\n      jump\t// in\n    tag_45:\n        /* \"#utility.yul\":1450:1541   */\n      swap3\n      pop\n        /* \"#utility.yul\":1565:1619   */\n      tag_46\n        /* \"#utility.yul\":1613:1618   */\n      dup3\n        /* \"#utility.yul\":1565:1619   */\n      tag_24\n      jump\t// in\n    tag_46:\n        /* \"#utility.yul\":1642:1649   */\n      dup1\n        /* \"#utility.yul\":1673:1674   */\n      0x00\n        /* \"#utility.yul\":1658:1940   */\n    tag_47:\n        /* \"#utility.yul\":1683:1689   */\n      dup4\n        /* \"#utility.yul\":1680:1681   */\n      dup2\n        /* \"#utility.yul\":1677:1690   */\n      lt\n        /* \"#utility.yul\":1658:1940   */\n      iszero\n      tag_49\n      jumpi\n        /* \"#utility.yul\":1759:1765   */\n      dup2\n        /* \"#utility.yul\":1753:1766   */\n      mload\n        /* \"#utility.yul\":1786:1849   */\n      tag_50\n        /* \"#utility.yul\":1845:1848   */\n      dup8\n        /* \"#utility.yul\":1830:1843   */\n      dup3\n        /* \"#utility.yul\":1786:1849   */\n      tag_26\n      jump\t// in\n    tag_50:\n        /* \"#utility.yul\":1779:1849   */\n      swap7\n      pop\n        /* \"#utility.yul\":1872:1930   */\n      tag_51\n        /* \"#utility.yul\":1923:1929   */\n      dup4\n        /* \"#utility.yul\":1872:1930   */\n      tag_27\n      jump\t// in\n    tag_51:\n        /* \"#utility.yul\":1862:1930   */\n      swap3\n      pop\n        /* \"#utility.yul\":1718:1940   */\n      pop\n        /* \"#utility.yul\":1705:1706   */\n      0x01\n        /* \"#utility.yul\":1702:1703   */\n      dup2\n        /* \"#utility.yul\":1698:1707   */\n      add\n        /* \"#utility.yul\":1693:1707   */\n      swap1\n      pop\n        /* \"#utility.yul\":1658:1940   */\n      jump(tag_47)\n    tag_49:\n        /* \"#utility.yul\":1662:1676   */\n      pop\n        /* \"#utility.yul\":1365:1947   */\n      pop\n      pop\n      pop\n        /* \"#utility.yul\":1253:1947   */\n      pop\n      pop\n      jump\t// out\n        /* \"#utility.yul\":1953:2268   */\n    tag_12:\n        /* \"#utility.yul\":2092:2096   */\n      0x00\n        /* \"#utility.yul\":2130:2133   */\n      0xa0\n        /* \"#utility.yul\":2119:2128   */\n      dup3\n        /* \"#utility.yul\":2115:2134   */\n      add\n        /* \"#utility.yul\":2107:2134   */\n      swap1\n      pop\n        /* \"#utility.yul\":2144:2261   */\n      tag_53\n        /* \"#utility.yul\":2258:2259   */\n      0x00\n        /* \"#utility.yul\":2247:2256   */\n      dup4\n        /* \"#utility.yul\":2243:2260   */\n      add\n        /* \"#utility.yul\":2234:2240   */\n      dup5\n        /* \"#utility.yul\":2144:2261   */\n      tag_28\n      jump\t// in\n    tag_53:\n        /* \"#utility.yul\":1953:2268   */\n      swap3\n      swap2\n      pop\n      pop\n      jump\t// out\n        /* \"#utility.yul\":2274:2454   */\n    tag_16:\n        /* \"#utility.yul\":2322:2399   */\n      0x4e487b7100000000000000000000000000000000000000000000000000000000\n        /* \"#utility.yul\":2319:2320   */\n      0x00\n        /* \"#utility.yul\":2312:2400   */\n      mstore\n        /* \"#utility.yul\":2419:2423   */\n      0x32\n        /* \"#utility.yul\":2416:2417   */\n      0x04\n        /* \"#utility.yul\":2409:2424   */\n      mstore\n        /* \"#utility.yul\":2443:2447   */\n      0x24\n        /* \"#utility.yul\":2440:2441   */\n      0x00\n        /* \"#utility.yul\":2433:2448   */\n      revert\n\n    auxdata: 0xa2646970667358221220dd07c807d780df321e616d49029bc44826cbec00037a214de8f99a6c090976bb64736f6c634300081a0033\n}\n",
				"bytecode": {
					"linkReferences": {},
					"object": "6080604052348015600e575f80fd5b506102758061001c5f395ff3fe608060405234801561000f575f80fd5b5060043610610034575f3560e01c80639944cc71146100385780639ac2bada14610056575b5f80fd5b610040610074565b60405161004d919061013b565b60405180910390f35b61005e6100c3565b60405161006b91906101f9565b60405180910390f35b5f806040518060a0016040528060328152602001603c8152602001604681526020016050815260200160648152509050806001600581106100b8576100b7610212565b5b602002015191505090565b6100cb610101565b5f6040518060a0016040528060328152602001603c81526020016046815260200160508152602001606481525090508091505090565b6040518060a00160405280600590602082028036833780820191505090505090565b5f819050919050565b61013581610123565b82525050565b5f60208201905061014e5f83018461012c565b92915050565b5f60059050919050565b5f81905092915050565b5f819050919050565b61017a81610123565b82525050565b5f61018b8383610171565b60208301905092915050565b5f602082019050919050565b6101ac81610154565b6101b6818461015e565b92506101c182610168565b805f5b838110156101f15781516101d88782610180565b96506101e383610197565b9250506001810190506101c4565b505050505050565b5f60a08201905061020c5f8301846101a3565b92915050565b7f4e487b71000000000000000000000000000000000000000000000000000000005f52603260045260245ffdfea2646970667358221220dd07c807d780df321e616d49029bc44826cbec00037a214de8f99a6c090976bb64736f6c634300081a0033",
					"opcodes": "PUSH1 0x80 PUSH1 0x40 MSTORE CALLVALUE DUP1 ISZERO PUSH1 0xE JUMPI PUSH0 DUP1 REVERT JUMPDEST POP PUSH2 0x275 DUP1 PUSH2 0x1C PUSH0 CODECOPY PUSH0 RETURN INVALID PUSH1 0x80 PUSH1 0x40 MSTORE CALLVALUE DUP1 ISZERO PUSH2 0xF JUMPI PUSH0 DUP1 REVERT JUMPDEST POP PUSH1 0x4 CALLDATASIZE LT PUSH2 0x34 JUMPI PUSH0 CALLDATALOAD PUSH1 0xE0 SHR DUP1 PUSH4 0x9944CC71 EQ PUSH2 0x38 JUMPI DUP1 PUSH4 0x9AC2BADA EQ PUSH2 0x56 JUMPI JUMPDEST PUSH0 DUP1 REVERT JUMPDEST PUSH2 0x40 PUSH2 0x74 JUMP JUMPDEST PUSH1 0x40 MLOAD PUSH2 0x4D SWAP2 SWAP1 PUSH2 0x13B JUMP JUMPDEST PUSH1 0x40 MLOAD DUP1 SWAP2 SUB SWAP1 RETURN JUMPDEST PUSH2 0x5E PUSH2 0xC3 JUMP JUMPDEST PUSH1 0x40 MLOAD PUSH2 0x6B SWAP2 SWAP1 PUSH2 0x1F9 JUMP JUMPDEST PUSH1 0x40 MLOAD DUP1 SWAP2 SUB SWAP1 RETURN JUMPDEST PUSH0 DUP1 PUSH1 0x40 MLOAD DUP1 PUSH1 0xA0 ADD PUSH1 0x40 MSTORE DUP1 PUSH1 0x32 DUP2 MSTORE PUSH1 0x20 ADD PUSH1 0x3C DUP2 MSTORE PUSH1 0x20 ADD PUSH1 0x46 DUP2 MSTORE PUSH1 0x20 ADD PUSH1 0x50 DUP2 MSTORE PUSH1 0x20 ADD PUSH1 0x64 DUP2 MSTORE POP SWAP1 POP DUP1 PUSH1 0x1 PUSH1 0x5 DUP2 LT PUSH2 0xB8 JUMPI PUSH2 0xB7 PUSH2 0x212 JUMP JUMPDEST JUMPDEST PUSH1 0x20 MUL ADD MLOAD SWAP2 POP POP SWAP1 JUMP JUMPDEST PUSH2 0xCB PUSH2 0x101 JUMP JUMPDEST PUSH0 PUSH1 0x40 MLOAD DUP1 PUSH1 0xA0 ADD PUSH1 0x40 MSTORE DUP1 PUSH1 0x32 DUP2 MSTORE PUSH1 0x20 ADD PUSH1 0x3C DUP2 MSTORE PUSH1 0x20 ADD PUSH1 0x46 DUP2 MSTORE PUSH1 0x20 ADD PUSH1 0x50 DUP2 MSTORE PUSH1 0x20 ADD PUSH1 0x64 DUP2 MSTORE POP SWAP1 POP DUP1 SWAP2 POP POP SWAP1 JUMP JUMPDEST PUSH1 0x40 MLOAD DUP1 PUSH1 0xA0 ADD PUSH1 0x40 MSTORE DUP1 PUSH1 0x5 SWAP1 PUSH1 0x20 DUP3 MUL DUP1 CALLDATASIZE DUP4 CALLDATACOPY DUP1 DUP3 ADD SWAP2 POP POP SWAP1 POP POP SWAP1 JUMP JUMPDEST PUSH0 DUP2 SWAP1 POP SWAP2 SWAP1 POP JUMP JUMPDEST PUSH2 0x135 DUP2 PUSH2 0x123 JUMP JUMPDEST DUP3 MSTORE POP POP JUMP JUMPDEST PUSH0 PUSH1 0x20 DUP3 ADD SWAP1 POP PUSH2 0x14E PUSH0 DUP4 ADD DUP5 PUSH2 0x12C JUMP JUMPDEST SWAP3 SWAP2 POP POP JUMP JUMPDEST PUSH0 PUSH1 0x5 SWAP1 POP SWAP2 SWAP1 POP JUMP JUMPDEST PUSH0 DUP2 SWAP1 POP SWAP3 SWAP2 POP POP JUMP JUMPDEST PUSH0 DUP2 SWAP1 POP SWAP2 SWAP1 POP JUMP JUMPDEST PUSH2 0x17A DUP2 PUSH2 0x123 JUMP JUMPDEST DUP3 MSTORE POP POP JUMP JUMPDEST PUSH0 PUSH2 0x18B DUP4 DUP4 PUSH2 0x171 JUMP JUMPDEST PUSH1 0x20 DUP4 ADD SWAP1 POP SWAP3 SWAP2 POP POP JUMP JUMPDEST PUSH0 PUSH1 0x20 DUP3 ADD SWAP1 POP SWAP2 SWAP1 POP JUMP JUMPDEST PUSH2 0x1AC DUP2 PUSH2 0x154 JUMP JUMPDEST PUSH2 0x1B6 DUP2 DUP5 PUSH2 0x15E JUMP JUMPDEST SWAP3 POP PUSH2 0x1C1 DUP3 PUSH2 0x168 JUMP JUMPDEST DUP1 PUSH0 JUMPDEST DUP4 DUP2 LT ISZERO PUSH2 0x1F1 JUMPI DUP2 MLOAD PUSH2 0x1D8 DUP8 DUP3 PUSH2 0x180 JUMP JUMPDEST SWAP7 POP PUSH2 0x1E3 DUP4 PUSH2 0x197 JUMP JUMPDEST SWAP3 POP POP PUSH1 0x1 DUP2 ADD SWAP1 POP PUSH2 0x1C4 JUMP JUMPDEST POP POP POP POP POP POP JUMP JUMPDEST PUSH0 PUSH1 0xA0 DUP3 ADD SWAP1 POP PUSH2 0x20C PUSH0 DUP4 ADD DUP5 PUSH2 0x1A3 JUMP JUMPDEST SWAP3 SWAP2 POP POP JUMP JUMPDEST PUSH32 0x4E487B7100000000000000000000000000000000000000000000000000000000 PUSH0 MSTORE PUSH1 0x32 PUSH1 0x4 MSTORE PUSH1 0x24 PUSH0 REVERT INVALID LOG2 PUSH5 0x6970667358 0x22 SLT KECCAK256 0xDD SMOD 0xC8 SMOD 0xD7 DUP1 0xDF ORIGIN 0x1E PUSH2 0x6D49 MUL SWAP12 0xC4 BASEFEE 0x26 0xCB 0xEC STOP SUB PUSH27 0x214DE8F99A6C090976BB64736F6C634300081A0033000000000000 "
				},
				"gasEstimates": {
					"creation": {
						"codeDepositCost": "125800",
						"executionCost": "169",
						"totalCost": "125969"
					},
					"external": {
						"getData1()": "470",
						"getDataAll()": "infinite"
					}
				},
				"methodIdentifiers": {
					"getData1()": "9944cc71",
					"getDataAll()": "9ac2bada"
				}
			},
			"storageLayout": {
				"storage": [],
				"types": null
			},
			"userdoc": {
				"kind": "user",
				"methods": {},
				"version": 1
			}
		}
	}
}