{
	"contracts/Contract-bygpt.sol": {
		"Child": {
			"abi": [
				{
					"inputs": [],
					"name": "getData",
					"outputs": [
						{
							"internalType": "uint256",
							"name": "",
							"type": "uint256"
						}
					],
					"stateMutability": "view",
					"type": "function"
				},
				{
					"inputs": [],
					"name": "getDataInfo",
					"outputs": [
						{
							"internalType": "uint256",
							"name": "",
							"type": "uint256"
						}
					],
					"stateMutability": "view",
					"type": "function"
				},
				{
					"inputs": [],
					"name": "getResultCompute",
					"outputs": [
						{
							"internalType": "uint256",
							"name": "",
							"type": "uint256"
						}
					],
					"stateMutability": "view",
					"type": "function"
				},
				{
					"inputs": [],
					"name": "info",
					"outputs": [
						{
							"internalType": "uint256",
							"name": "",
							"type": "uint256"
						}
					],
					"stateMutability": "view",
					"type": "function"
				},
				{
					"inputs": [
						{
							"internalType": "uint256",
							"name": "a",
							"type": "uint256"
						},
						{
							"internalType": "uint256",
							"name": "b",
							"type": "uint256"
						}
					],
					"name": "setCompute",
					"outputs": [],
					"stateMutability": "nonpayable",
					"type": "function"
				},
				{
					"inputs": [],
					"name": "setincerement",
					"outputs": [
						{
							"internalType": "uint256",
							"name": "",
							"type": "uint256"
						}
					],
					"stateMutability": "pure",
					"type": "function"
				},
				{
					"inputs": [
						{
							"internalType": "uint256",
							"name": "a",
							"type": "uint256"
						}
					],
					"name": "updateData",
					"outputs": [],
					"stateMutability": "nonpayable",
					"type": "function"
				}
			],
			"devdoc": {
				"kind": "dev",
				"methods": {},
				"version": 1
			},
			"evm": {
				"assembly": "    /* \"contracts/Contract-bygpt.sol\":1062:1573  contract Child is Parent {... */\n  mstore(0x40, 0x80)\n  callvalue\n  dup1\n  iszero\n  tag_1\n  jumpi\n  0x00\n  dup1\n  revert\ntag_1:\n  pop\n    /* \"contracts/Contract-bygpt.sol\":285:286  2 */\n  0x02\n    /* \"contracts/Contract-bygpt.sol\":278:282  info */\n  0x01\n    /* \"contracts/Contract-bygpt.sol\":278:286  info = 2 */\n  dup2\n  swap1\n  sstore\n  pop\n    /* \"contracts/Contract-bygpt.sol\":1062:1573  contract Child is Parent {... */\n  dataSize(sub_0)\n  dup1\n  dataOffset(sub_0)\n  0x00\n  codecopy\n  0x00\n  return\nstop\n\nsub_0: assembly {\n        /* \"contracts/Contract-bygpt.sol\":1062:1573  contract Child is Parent {... */\n      mstore(0x40, 0x80)\n      callvalue\n      dup1\n      iszero\n      tag_1\n      jumpi\n      0x00\n      dup1\n      revert\n    tag_1:\n      pop\n      jumpi(tag_2, lt(calldatasize, 0x04))\n      shr(0xe0, calldataload(0x00))\n      dup1\n      0x75d8662a\n      gt\n      tag_10\n      jumpi\n      dup1\n      0x75d8662a\n      eq\n      tag_6\n      jumpi\n      dup1\n      0x93a3abdd\n      eq\n      tag_7\n      jumpi\n      dup1\n      0xe6a4541a\n      eq\n      tag_8\n      jumpi\n      dup1\n      0xf4eee1d3\n      eq\n      tag_9\n      jumpi\n      jump(tag_2)\n    tag_10:\n      dup1\n      0x09e96008\n      eq\n      tag_3\n      jumpi\n      dup1\n      0x370158ea\n      eq\n      tag_4\n      jumpi\n      dup1\n      0x3bc5de30\n      eq\n      tag_5\n      jumpi\n    tag_2:\n      0x00\n      dup1\n      revert\n        /* \"contracts/Contract-bygpt.sol\":539:599  function updateData(uint a) public {... */\n    tag_3:\n      tag_11\n      0x04\n      dup1\n      calldatasize\n      sub\n      dup2\n      add\n      swap1\n      tag_12\n      swap2\n      swap1\n      tag_13\n      jump\t// in\n    tag_12:\n      tag_14\n      jump\t// in\n    tag_11:\n      stop\n        /* \"contracts/Contract-bygpt.sol\":232:248  uint public info */\n    tag_4:\n      tag_15\n      tag_16\n      jump\t// in\n    tag_15:\n      mload(0x40)\n      tag_17\n      swap2\n      swap1\n      tag_18\n      jump\t// in\n    tag_17:\n      mload(0x40)\n      dup1\n      swap2\n      sub\n      swap1\n      return\n        /* \"contracts/Contract-bygpt.sol\":605:678  function getData() public view returns (uint){... */\n    tag_5:\n      tag_19\n      tag_20\n      jump\t// in\n    tag_19:\n      mload(0x40)\n      tag_21\n      swap2\n      swap1\n      tag_18\n      jump\t// in\n    tag_21:\n      mload(0x40)\n      dup1\n      swap2\n      sub\n      swap1\n      return\n        /* \"contracts/Contract-bygpt.sol\":390:478  function setincerement() public pure returns (uint){... */\n    tag_6:\n      tag_22\n      tag_23\n      jump\t// in\n    tag_22:\n      mload(0x40)\n      tag_24\n      swap2\n      swap1\n      tag_18\n      jump\t// in\n    tag_24:\n      mload(0x40)\n      dup1\n      swap2\n      sub\n      swap1\n      return\n        /* \"contracts/Contract-bygpt.sol\":1490:1571  function getDataInfo() public view returns(uint) {... */\n    tag_7:\n      tag_25\n      tag_26\n      jump\t// in\n    tag_25:\n      mload(0x40)\n      tag_27\n      swap2\n      swap1\n      tag_18\n      jump\t// in\n    tag_27:\n      mload(0x40)\n      dup1\n      swap2\n      sub\n      swap1\n      return\n        /* \"contracts/Contract-bygpt.sol\":1330:1414  function getResultCompute() public view returns(uint) {... */\n    tag_8:\n      tag_28\n      tag_29\n      jump\t// in\n    tag_28:\n      mload(0x40)\n      tag_30\n      swap2\n      swap1\n      tag_18\n      jump\t// in\n    tag_30:\n      mload(0x40)\n      dup1\n      swap2\n      sub\n      swap1\n      return\n        /* \"contracts/Contract-bygpt.sol\":1194:1276  function setCompute(uint a, uint b) public {... */\n    tag_9:\n      tag_31\n      0x04\n      dup1\n      calldatasize\n      sub\n      dup2\n      add\n      swap1\n      tag_32\n      swap2\n      swap1\n      tag_33\n      jump\t// in\n    tag_32:\n      tag_34\n      jump\t// in\n    tag_31:\n      stop\n        /* \"contracts/Contract-bygpt.sol\":539:599  function updateData(uint a) public {... */\n    tag_14:\n        /* \"contracts/Contract-bygpt.sol\":591:592  a */\n      dup1\n        /* \"contracts/Contract-bygpt.sol\":584:588  data */\n      0x00\n        /* \"contracts/Contract-bygpt.sol\":584:592  data = a */\n      dup2\n      swap1\n      sstore\n      pop\n        /* \"contracts/Contract-bygpt.sol\":539:599  function updateData(uint a) public {... */\n      pop\n      jump\t// out\n        /* \"contracts/Contract-bygpt.sol\":232:248  uint public info */\n    tag_16:\n      sload(0x01)\n      dup2\n      jump\t// out\n        /* \"contracts/Contract-bygpt.sol\":605:678  function getData() public view returns (uint){... */\n    tag_20:\n        /* \"contracts/Contract-bygpt.sol\":645:649  uint */\n      0x00\n        /* \"contracts/Contract-bygpt.sol\":667:671  data */\n      dup1\n      sload\n        /* \"contracts/Contract-bygpt.sol\":660:671  return data */\n      swap1\n      pop\n        /* \"contracts/Contract-bygpt.sol\":605:678  function getData() public view returns (uint){... */\n      swap1\n      jump\t// out\n        /* \"contracts/Contract-bygpt.sol\":390:478  function setincerement() public pure returns (uint){... */\n    tag_23:\n        /* \"contracts/Contract-bygpt.sol\":436:440  uint */\n      0x00\n        /* \"contracts/Contract-bygpt.sol\":458:471  incerement(2) */\n      tag_38\n        /* \"contracts/Contract-bygpt.sol\":469:470  2 */\n      0x02\n        /* \"contracts/Contract-bygpt.sol\":458:468  incerement */\n      tag_39\n        /* \"contracts/Contract-bygpt.sol\":458:471  incerement(2) */\n      jump\t// in\n    tag_38:\n        /* \"contracts/Contract-bygpt.sol\":451:471  return incerement(2) */\n      swap1\n      pop\n        /* \"contracts/Contract-bygpt.sol\":390:478  function setincerement() public pure returns (uint){... */\n      swap1\n      jump\t// out\n        /* \"contracts/Contract-bygpt.sol\":1490:1571  function getDataInfo() public view returns(uint) {... */\n    tag_26:\n        /* \"contracts/Contract-bygpt.sol\":1533:1537  uint */\n      0x00\n        /* \"contracts/Contract-bygpt.sol\":1556:1557  c */\n      0x03\n      0x00\n      swap1\n      sload\n      swap1\n      0x0100\n      exp\n      swap1\n      div\n      0xffffffffffffffffffffffffffffffffffffffff\n      and\n        /* \"contracts/Contract-bygpt.sol\":1556:1562  c.info */\n      0xffffffffffffffffffffffffffffffffffffffff\n      and\n      0x370158ea\n        /* \"contracts/Contract-bygpt.sol\":1556:1564  c.info() */\n      mload(0x40)\n      dup2\n      0xffffffff\n      and\n      0xe0\n      shl\n      dup2\n      mstore\n      0x04\n      add\n      0x20\n      mload(0x40)\n      dup1\n      dup4\n      sub\n      dup2\n      dup7\n      gas\n      staticcall\n      iszero\n      dup1\n      iszero\n      tag_42\n      jumpi\n      returndatasize\n      0x00\n      dup1\n      returndatacopy\n      revert(0x00, returndatasize)\n    tag_42:\n      pop\n      pop\n      pop\n      pop\n      mload(0x40)\n      returndatasize\n      not(0x1f)\n      0x1f\n      dup3\n      add\n      and\n      dup3\n      add\n      dup1\n      0x40\n      mstore\n      pop\n      dup2\n      add\n      swap1\n      tag_43\n      swap2\n      swap1\n      tag_44\n      jump\t// in\n    tag_43:\n        /* \"contracts/Contract-bygpt.sol\":1549:1564  return c.info() */\n      swap1\n      pop\n        /* \"contracts/Contract-bygpt.sol\":1490:1571  function getDataInfo() public view returns(uint) {... */\n      swap1\n      jump\t// out\n        /* \"contracts/Contract-bygpt.sol\":1330:1414  function getResultCompute() public view returns(uint) {... */\n    tag_29:\n        /* \"contracts/Contract-bygpt.sol\":1378:1382  uint */\n      0x00\n        /* \"contracts/Contract-bygpt.sol\":1401:1407  result */\n      sload(0x02)\n        /* \"contracts/Contract-bygpt.sol\":1394:1407  return result */\n      swap1\n      pop\n        /* \"contracts/Contract-bygpt.sol\":1330:1414  function getResultCompute() public view returns(uint) {... */\n      swap1\n      jump\t// out\n        /* \"contracts/Contract-bygpt.sol\":1194:1276  function setCompute(uint a, uint b) public {... */\n    tag_34:\n        /* \"contracts/Contract-bygpt.sol\":1256:1269  compute(a, b) */\n      tag_47\n        /* \"contracts/Contract-bygpt.sol\":1264:1265  a */\n      dup3\n        /* \"contracts/Contract-bygpt.sol\":1267:1268  b */\n      dup3\n        /* \"contracts/Contract-bygpt.sol\":1256:1263  compute */\n      tag_48\n        /* \"contracts/Contract-bygpt.sol\":1256:1269  compute(a, b) */\n      jump\t// in\n    tag_47:\n        /* \"contracts/Contract-bygpt.sol\":1247:1253  result */\n      0x02\n        /* \"contracts/Contract-bygpt.sol\":1247:1269  result = compute(a, b) */\n      dup2\n      swap1\n      sstore\n      pop\n        /* \"contracts/Contract-bygpt.sol\":1194:1276  function setCompute(uint a, uint b) public {... */\n      pop\n      pop\n      jump\t// out\n        /* \"contracts/Contract-bygpt.sol\":299:383  function incerement(uint a) private pure returns(uint) {... */\n    tag_39:\n        /* \"contracts/Contract-bygpt.sol\":348:352  uint */\n      0x00\n        /* \"contracts/Contract-bygpt.sol\":375:376  1 */\n      0x01\n        /* \"contracts/Contract-bygpt.sol\":371:372  a */\n      dup3\n        /* \"contracts/Contract-bygpt.sol\":371:376  a + 1 */\n      tag_50\n      swap2\n      swap1\n      tag_51\n      jump\t// in\n    tag_50:\n        /* \"contracts/Contract-bygpt.sol\":364:376  return a + 1 */\n      swap1\n      pop\n        /* \"contracts/Contract-bygpt.sol\":299:383  function incerement(uint a) private pure returns(uint) {... */\n      swap2\n      swap1\n      pop\n      jump\t// out\n        /* \"contracts/Contract-bygpt.sol\":727:817  function compute(uint a, uint b) internal pure returns (uint){... */\n    tag_48:\n        /* \"contracts/Contract-bygpt.sol\":783:787  uint */\n      0x00\n        /* \"contracts/Contract-bygpt.sol\":809:810  b */\n      dup2\n        /* \"contracts/Contract-bygpt.sol\":805:806  a */\n      dup4\n        /* \"contracts/Contract-bygpt.sol\":805:810  a + b */\n      tag_53\n      swap2\n      swap1\n      tag_51\n      jump\t// in\n    tag_53:\n        /* \"contracts/Contract-bygpt.sol\":798:810  return a + b */\n      swap1\n      pop\n        /* \"contracts/Contract-bygpt.sol\":727:817  function compute(uint a, uint b) internal pure returns (uint){... */\n      swap3\n      swap2\n      pop\n      pop\n      jump\t// out\n        /* \"#utility.yul\":88:205   */\n    tag_55:\n        /* \"#utility.yul\":197:198   */\n      0x00\n        /* \"#utility.yul\":194:195   */\n      dup1\n        /* \"#utility.yul\":187:199   */\n      revert\n        /* \"#utility.yul\":334:411   */\n    tag_57:\n        /* \"#utility.yul\":371:378   */\n      0x00\n        /* \"#utility.yul\":400:405   */\n      dup2\n        /* \"#utility.yul\":389:405   */\n      swap1\n      pop\n        /* \"#utility.yul\":334:411   */\n      swap2\n      swap1\n      pop\n      jump\t// out\n        /* \"#utility.yul\":417:539   */\n    tag_58:\n        /* \"#utility.yul\":490:514   */\n      tag_69\n        /* \"#utility.yul\":508:513   */\n      dup2\n        /* \"#utility.yul\":490:514   */\n      tag_57\n      jump\t// in\n    tag_69:\n        /* \"#utility.yul\":483:488   */\n      dup2\n        /* \"#utility.yul\":480:515   */\n      eq\n        /* \"#utility.yul\":470:533   */\n      tag_70\n      jumpi\n        /* \"#utility.yul\":529:530   */\n      0x00\n        /* \"#utility.yul\":526:527   */\n      dup1\n        /* \"#utility.yul\":519:531   */\n      revert\n        /* \"#utility.yul\":470:533   */\n    tag_70:\n        /* \"#utility.yul\":417:539   */\n      pop\n      jump\t// out\n        /* \"#utility.yul\":545:684   */\n    tag_59:\n        /* \"#utility.yul\":591:596   */\n      0x00\n        /* \"#utility.yul\":629:635   */\n      dup2\n        /* \"#utility.yul\":616:636   */\n      calldataload\n        /* \"#utility.yul\":607:636   */\n      swap1\n      pop\n        /* \"#utility.yul\":645:678   */\n      tag_72\n        /* \"#utility.yul\":672:677   */\n      dup2\n        /* \"#utility.yul\":645:678   */\n      tag_58\n      jump\t// in\n    tag_72:\n        /* \"#utility.yul\":545:684   */\n      swap3\n      swap2\n      pop\n      pop\n      jump\t// out\n        /* \"#utility.yul\":690:1019   */\n    tag_13:\n        /* \"#utility.yul\":749:755   */\n      0x00\n        /* \"#utility.yul\":798:800   */\n      0x20\n        /* \"#utility.yul\":786:795   */\n      dup3\n        /* \"#utility.yul\":777:784   */\n      dup5\n        /* \"#utility.yul\":773:796   */\n      sub\n        /* \"#utility.yul\":769:801   */\n      slt\n        /* \"#utility.yul\":766:885   */\n      iszero\n      tag_74\n      jumpi\n        /* \"#utility.yul\":804:883   */\n      tag_75\n      tag_55\n      jump\t// in\n    tag_75:\n        /* \"#utility.yul\":766:885   */\n    tag_74:\n        /* \"#utility.yul\":924:925   */\n      0x00\n        /* \"#utility.yul\":949:1002   */\n      tag_76\n        /* \"#utility.yul\":994:1001   */\n      dup5\n        /* \"#utility.yul\":985:991   */\n      dup3\n        /* \"#utility.yul\":974:983   */\n      dup6\n        /* \"#utility.yul\":970:992   */\n      add\n        /* \"#utility.yul\":949:1002   */\n      tag_59\n      jump\t// in\n    tag_76:\n        /* \"#utility.yul\":939:1002   */\n      swap2\n      pop\n        /* \"#utility.yul\":895:1012   */\n      pop\n        /* \"#utility.yul\":690:1019   */\n      swap3\n      swap2\n      pop\n      pop\n      jump\t// out\n        /* \"#utility.yul\":1025:1143   */\n    tag_60:\n        /* \"#utility.yul\":1112:1136   */\n      tag_78\n        /* \"#utility.yul\":1130:1135   */\n      dup2\n        /* \"#utility.yul\":1112:1136   */\n      tag_57\n      jump\t// in\n    tag_78:\n        /* \"#utility.yul\":1107:1110   */\n      dup3\n        /* \"#utility.yul\":1100:1137   */\n      mstore\n        /* \"#utility.yul\":1025:1143   */\n      pop\n      pop\n      jump\t// out\n        /* \"#utility.yul\":1149:1371   */\n    tag_18:\n        /* \"#utility.yul\":1242:1246   */\n      0x00\n        /* \"#utility.yul\":1280:1282   */\n      0x20\n        /* \"#utility.yul\":1269:1278   */\n      dup3\n        /* \"#utility.yul\":1265:1283   */\n      add\n        /* \"#utility.yul\":1257:1283   */\n      swap1\n      pop\n        /* \"#utility.yul\":1293:1364   */\n      tag_80\n        /* \"#utility.yul\":1361:1362   */\n      0x00\n        /* \"#utility.yul\":1350:1359   */\n      dup4\n        /* \"#utility.yul\":1346:1363   */\n      add\n        /* \"#utility.yul\":1337:1343   */\n      dup5\n        /* \"#utility.yul\":1293:1364   */\n      tag_60\n      jump\t// in\n    tag_80:\n        /* \"#utility.yul\":1149:1371   */\n      swap3\n      swap2\n      pop\n      pop\n      jump\t// out\n        /* \"#utility.yul\":1377:1851   */\n    tag_33:\n        /* \"#utility.yul\":1445:1451   */\n      0x00\n        /* \"#utility.yul\":1453:1459   */\n      dup1\n        /* \"#utility.yul\":1502:1504   */\n      0x40\n        /* \"#utility.yul\":1490:1499   */\n      dup4\n        /* \"#utility.yul\":1481:1488   */\n      dup6\n        /* \"#utility.yul\":1477:1500   */\n      sub\n        /* \"#utility.yul\":1473:1505   */\n      slt\n        /* \"#utility.yul\":1470:1589   */\n      iszero\n      tag_82\n      jumpi\n        /* \"#utility.yul\":1508:1587   */\n      tag_83\n      tag_55\n      jump\t// in\n    tag_83:\n        /* \"#utility.yul\":1470:1589   */\n    tag_82:\n        /* \"#utility.yul\":1628:1629   */\n      0x00\n        /* \"#utility.yul\":1653:1706   */\n      tag_84\n        /* \"#utility.yul\":1698:1705   */\n      dup6\n        /* \"#utility.yul\":1689:1695   */\n      dup3\n        /* \"#utility.yul\":1678:1687   */\n      dup7\n        /* \"#utility.yul\":1674:1696   */\n      add\n        /* \"#utility.yul\":1653:1706   */\n      tag_59\n      jump\t// in\n    tag_84:\n        /* \"#utility.yul\":1643:1706   */\n      swap3\n      pop\n        /* \"#utility.yul\":1599:1716   */\n      pop\n        /* \"#utility.yul\":1755:1757   */\n      0x20\n        /* \"#utility.yul\":1781:1834   */\n      tag_85\n        /* \"#utility.yul\":1826:1833   */\n      dup6\n        /* \"#utility.yul\":1817:1823   */\n      dup3\n        /* \"#utility.yul\":1806:1815   */\n      dup7\n        /* \"#utility.yul\":1802:1824   */\n      add\n        /* \"#utility.yul\":1781:1834   */\n      tag_59\n      jump\t// in\n    tag_85:\n        /* \"#utility.yul\":1771:1834   */\n      swap2\n      pop\n        /* \"#utility.yul\":1726:1844   */\n      pop\n        /* \"#utility.yul\":1377:1851   */\n      swap3\n      pop\n      swap3\n      swap1\n      pop\n      jump\t// out\n        /* \"#utility.yul\":1857:2000   */\n    tag_61:\n        /* \"#utility.yul\":1914:1919   */\n      0x00\n        /* \"#utility.yul\":1945:1951   */\n      dup2\n        /* \"#utility.yul\":1939:1952   */\n      mload\n        /* \"#utility.yul\":1930:1952   */\n      swap1\n      pop\n        /* \"#utility.yul\":1961:1994   */\n      tag_87\n        /* \"#utility.yul\":1988:1993   */\n      dup2\n        /* \"#utility.yul\":1961:1994   */\n      tag_58\n      jump\t// in\n    tag_87:\n        /* \"#utility.yul\":1857:2000   */\n      swap3\n      swap2\n      pop\n      pop\n      jump\t// out\n        /* \"#utility.yul\":2006:2357   */\n    tag_44:\n        /* \"#utility.yul\":2076:2082   */\n      0x00\n        /* \"#utility.yul\":2125:2127   */\n      0x20\n        /* \"#utility.yul\":2113:2122   */\n      dup3\n        /* \"#utility.yul\":2104:2111   */\n      dup5\n        /* \"#utility.yul\":2100:2123   */\n      sub\n        /* \"#utility.yul\":2096:2128   */\n      slt\n        /* \"#utility.yul\":2093:2212   */\n      iszero\n      tag_89\n      jumpi\n        /* \"#utility.yul\":2131:2210   */\n      tag_90\n      tag_55\n      jump\t// in\n    tag_90:\n        /* \"#utility.yul\":2093:2212   */\n    tag_89:\n        /* \"#utility.yul\":2251:2252   */\n      0x00\n        /* \"#utility.yul\":2276:2340   */\n      tag_91\n        /* \"#utility.yul\":2332:2339   */\n      dup5\n        /* \"#utility.yul\":2323:2329   */\n      dup3\n        /* \"#utility.yul\":2312:2321   */\n      dup6\n        /* \"#utility.yul\":2308:2330   */\n      add\n        /* \"#utility.yul\":2276:2340   */\n      tag_61\n      jump\t// in\n    tag_91:\n        /* \"#utility.yul\":2266:2340   */\n      swap2\n      pop\n        /* \"#utility.yul\":2222:2350   */\n      pop\n        /* \"#utility.yul\":2006:2357   */\n      swap3\n      swap2\n      pop\n      pop\n      jump\t// out\n        /* \"#utility.yul\":2363:2543   */\n    tag_62:\n        /* \"#utility.yul\":2411:2488   */\n      0x4e487b7100000000000000000000000000000000000000000000000000000000\n        /* \"#utility.yul\":2408:2409   */\n      0x00\n        /* \"#utility.yul\":2401:2489   */\n      mstore\n        /* \"#utility.yul\":2508:2512   */\n      0x11\n        /* \"#utility.yul\":2505:2506   */\n      0x04\n        /* \"#utility.yul\":2498:2513   */\n      mstore\n        /* \"#utility.yul\":2532:2536   */\n      0x24\n        /* \"#utility.yul\":2529:2530   */\n      0x00\n        /* \"#utility.yul\":2522:2537   */\n      revert\n        /* \"#utility.yul\":2549:2740   */\n    tag_51:\n        /* \"#utility.yul\":2589:2592   */\n      0x00\n        /* \"#utility.yul\":2608:2628   */\n      tag_94\n        /* \"#utility.yul\":2626:2627   */\n      dup3\n        /* \"#utility.yul\":2608:2628   */\n      tag_57\n      jump\t// in\n    tag_94:\n        /* \"#utility.yul\":2603:2628   */\n      swap2\n      pop\n        /* \"#utility.yul\":2642:2662   */\n      tag_95\n        /* \"#utility.yul\":2660:2661   */\n      dup4\n        /* \"#utility.yul\":2642:2662   */\n      tag_57\n      jump\t// in\n    tag_95:\n        /* \"#utility.yul\":2637:2662   */\n      swap3\n      pop\n        /* \"#utility.yul\":2685:2686   */\n      dup3\n        /* \"#utility.yul\":2682:2683   */\n      dup3\n        /* \"#utility.yul\":2678:2687   */\n      add\n        /* \"#utility.yul\":2671:2687   */\n      swap1\n      pop\n        /* \"#utility.yul\":2706:2709   */\n      dup1\n        /* \"#utility.yul\":2703:2704   */\n      dup3\n        /* \"#utility.yul\":2700:2710   */\n      gt\n        /* \"#utility.yul\":2697:2733   */\n      iszero\n      tag_96\n      jumpi\n        /* \"#utility.yul\":2713:2731   */\n      tag_97\n      tag_62\n      jump\t// in\n    tag_97:\n        /* \"#utility.yul\":2697:2733   */\n    tag_96:\n        /* \"#utility.yul\":2549:2740   */\n      swap3\n      swap2\n      pop\n      pop\n      jump\t// out\n\n    auxdata: 0xa26469706673582212205222b45b5d7cc480ba21dbca9794d1e6f45956d9846ba59ebadd20ba9af4809664736f6c634300081a0033\n}\n",
				"bytecode": {
					"linkReferences": {},
					"object": "6080604052348015600e575f80fd5b5060026001819055506103ec806100245f395ff3fe608060405234801561000f575f80fd5b506004361061007b575f3560e01c806375d8662a1161005957806375d8662a146100d757806393a3abdd146100f5578063e6a4541a14610113578063f4eee1d3146101315761007b565b806309e960081461007f578063370158ea1461009b5780633bc5de30146100b9575b5f80fd5b61009960048036038101906100949190610286565b61014d565b005b6100a3610156565b6040516100b091906102c0565b60405180910390f35b6100c161015c565b6040516100ce91906102c0565b60405180910390f35b6100df610164565b6040516100ec91906102c0565b60405180910390f35b6100fd610174565b60405161010a91906102c0565b60405180910390f35b61011b610208565b60405161012891906102c0565b60405180910390f35b61014b600480360381019061014691906102d9565b610211565b005b805f8190555050565b60015481565b5f8054905090565b5f61016f6002610225565b905090565b5f60035f9054906101000a900473ffffffffffffffffffffffffffffffffffffffff1673ffffffffffffffffffffffffffffffffffffffff1663370158ea6040518163ffffffff1660e01b8152600401602060405180830381865afa1580156101df573d5f803e3d5ffd5b505050506040513d601f19601f82011682018060405250810190610203919061032b565b905090565b5f600254905090565b61021b828261023a565b6002819055505050565b5f6001826102339190610383565b9050919050565b5f81836102479190610383565b905092915050565b5f80fd5b5f819050919050565b61026581610253565b811461026f575f80fd5b50565b5f813590506102808161025c565b92915050565b5f6020828403121561029b5761029a61024f565b5b5f6102a884828501610272565b91505092915050565b6102ba81610253565b82525050565b5f6020820190506102d35f8301846102b1565b92915050565b5f80604083850312156102ef576102ee61024f565b5b5f6102fc85828601610272565b925050602061030d85828601610272565b9150509250929050565b5f815190506103258161025c565b92915050565b5f602082840312156103405761033f61024f565b5b5f61034d84828501610317565b91505092915050565b7f4e487b71000000000000000000000000000000000000000000000000000000005f52601160045260245ffd5b5f61038d82610253565b915061039883610253565b92508282019050808211156103b0576103af610356565b5b9291505056fea26469706673582212205222b45b5d7cc480ba21dbca9794d1e6f45956d9846ba59ebadd20ba9af4809664736f6c634300081a0033",
					"opcodes": "PUSH1 0x80 PUSH1 0x40 MSTORE CALLVALUE DUP1 ISZERO PUSH1 0xE JUMPI PUSH0 DUP1 REVERT JUMPDEST POP PUSH1 0x2 PUSH1 0x1 DUP2 SWAP1 SSTORE POP PUSH2 0x3EC DUP1 PUSH2 0x24 PUSH0 CODECOPY PUSH0 RETURN INVALID PUSH1 0x80 PUSH1 0x40 MSTORE CALLVALUE DUP1 ISZERO PUSH2 0xF JUMPI PUSH0 DUP1 REVERT JUMPDEST POP PUSH1 0x4 CALLDATASIZE LT PUSH2 0x7B JUMPI PUSH0 CALLDATALOAD PUSH1 0xE0 SHR DUP1 PUSH4 0x75D8662A GT PUSH2 0x59 JUMPI DUP1 PUSH4 0x75D8662A EQ PUSH2 0xD7 JUMPI DUP1 PUSH4 0x93A3ABDD EQ PUSH2 0xF5 JUMPI DUP1 PUSH4 0xE6A4541A EQ PUSH2 0x113 JUMPI DUP1 PUSH4 0xF4EEE1D3 EQ PUSH2 0x131 JUMPI PUSH2 0x7B JUMP JUMPDEST DUP1 PUSH4 0x9E96008 EQ PUSH2 0x7F JUMPI DUP1 PUSH4 0x370158EA EQ PUSH2 0x9B JUMPI DUP1 PUSH4 0x3BC5DE30 EQ PUSH2 0xB9 JUMPI JUMPDEST PUSH0 DUP1 REVERT JUMPDEST PUSH2 0x99 PUSH1 0x4 DUP1 CALLDATASIZE SUB DUP2 ADD SWAP1 PUSH2 0x94 SWAP2 SWAP1 PUSH2 0x286 JUMP JUMPDEST PUSH2 0x14D JUMP JUMPDEST STOP JUMPDEST PUSH2 0xA3 PUSH2 0x156 JUMP JUMPDEST PUSH1 0x40 MLOAD PUSH2 0xB0 SWAP2 SWAP1 PUSH2 0x2C0 JUMP JUMPDEST PUSH1 0x40 MLOAD DUP1 SWAP2 SUB SWAP1 RETURN JUMPDEST PUSH2 0xC1 PUSH2 0x15C JUMP JUMPDEST PUSH1 0x40 MLOAD PUSH2 0xCE SWAP2 SWAP1 PUSH2 0x2C0 JUMP JUMPDEST PUSH1 0x40 MLOAD DUP1 SWAP2 SUB SWAP1 RETURN JUMPDEST PUSH2 0xDF PUSH2 0x164 JUMP JUMPDEST PUSH1 0x40 MLOAD PUSH2 0xEC SWAP2 SWAP1 PUSH2 0x2C0 JUMP JUMPDEST PUSH1 0x40 MLOAD DUP1 SWAP2 SUB SWAP1 RETURN JUMPDEST PUSH2 0xFD PUSH2 0x174 JUMP JUMPDEST PUSH1 0x40 MLOAD PUSH2 0x10A SWAP2 SWAP1 PUSH2 0x2C0 JUMP JUMPDEST PUSH1 0x40 MLOAD DUP1 SWAP2 SUB SWAP1 RETURN JUMPDEST PUSH2 0x11B PUSH2 0x208 JUMP JUMPDEST PUSH1 0x40 MLOAD PUSH2 0x128 SWAP2 SWAP1 PUSH2 0x2C0 JUMP JUMPDEST PUSH1 0x40 MLOAD DUP1 SWAP2 SUB SWAP1 RETURN JUMPDEST PUSH2 0x14B PUSH1 0x4 DUP1 CALLDATASIZE SUB DUP2 ADD SWAP1 PUSH2 0x146 SWAP2 SWAP1 PUSH2 0x2D9 JUMP JUMPDEST PUSH2 0x211 JUMP JUMPDEST STOP JUMPDEST DUP1 PUSH0 DUP2 SWAP1 SSTORE POP POP JUMP JUMPDEST PUSH1 0x1 SLOAD DUP2 JUMP JUMPDEST PUSH0 DUP1 SLOAD SWAP1 POP SWAP1 JUMP JUMPDEST PUSH0 PUSH2 0x16F PUSH1 0x2 PUSH2 0x225 JUMP JUMPDEST SWAP1 POP SWAP1 JUMP JUMPDEST PUSH0 PUSH1 0x3 PUSH0 SWAP1 SLOAD SWAP1 PUSH2 0x100 EXP SWAP1 DIV PUSH20 0xFFFFFFFFFFFFFFFFFFFFFFFFFFFFFFFFFFFFFFFF AND PUSH20 0xFFFFFFFFFFFFFFFFFFFFFFFFFFFFFFFFFFFFFFFF AND PUSH4 0x370158EA PUSH1 0x40 MLOAD DUP2 PUSH4 0xFFFFFFFF AND PUSH1 0xE0 SHL DUP2 MSTORE PUSH1 0x4 ADD PUSH1 0x20 PUSH1 0x40 MLOAD DUP1 DUP4 SUB DUP2 DUP7 GAS STATICCALL ISZERO DUP1 ISZERO PUSH2 0x1DF JUMPI RETURNDATASIZE PUSH0 DUP1 RETURNDATACOPY RETURNDATASIZE PUSH0 REVERT JUMPDEST POP POP POP POP PUSH1 0x40 MLOAD RETURNDATASIZE PUSH1 0x1F NOT PUSH1 0x1F DUP3 ADD AND DUP3 ADD DUP1 PUSH1 0x40 MSTORE POP DUP2 ADD SWAP1 PUSH2 0x203 SWAP2 SWAP1 PUSH2 0x32B JUMP JUMPDEST SWAP1 POP SWAP1 JUMP JUMPDEST PUSH0 PUSH1 0x2 SLOAD SWAP1 POP SWAP1 JUMP JUMPDEST PUSH2 0x21B DUP3 DUP3 PUSH2 0x23A JUMP JUMPDEST PUSH1 0x2 DUP2 SWAP1 SSTORE POP POP POP JUMP JUMPDEST PUSH0 PUSH1 0x1 DUP3 PUSH2 0x233 SWAP2 SWAP1 PUSH2 0x383 JUMP JUMPDEST SWAP1 POP SWAP2 SWAP1 POP JUMP JUMPDEST PUSH0 DUP2 DUP4 PUSH2 0x247 SWAP2 SWAP1 PUSH2 0x383 JUMP JUMPDEST SWAP1 POP SWAP3 SWAP2 POP POP JUMP JUMPDEST PUSH0 DUP1 REVERT JUMPDEST PUSH0 DUP2 SWAP1 POP SWAP2 SWAP1 POP JUMP JUMPDEST PUSH2 0x265 DUP2 PUSH2 0x253 JUMP JUMPDEST DUP2 EQ PUSH2 0x26F JUMPI PUSH0 DUP1 REVERT JUMPDEST POP JUMP JUMPDEST PUSH0 DUP2 CALLDATALOAD SWAP1 POP PUSH2 0x280 DUP2 PUSH2 0x25C JUMP JUMPDEST SWAP3 SWAP2 POP POP JUMP JUMPDEST PUSH0 PUSH1 0x20 DUP3 DUP5 SUB SLT ISZERO PUSH2 0x29B JUMPI PUSH2 0x29A PUSH2 0x24F JUMP JUMPDEST JUMPDEST PUSH0 PUSH2 0x2A8 DUP5 DUP3 DUP6 ADD PUSH2 0x272 JUMP JUMPDEST SWAP2 POP POP SWAP3 SWAP2 POP POP JUMP JUMPDEST PUSH2 0x2BA DUP2 PUSH2 0x253 JUMP JUMPDEST DUP3 MSTORE POP POP JUMP JUMPDEST PUSH0 PUSH1 0x20 DUP3 ADD SWAP1 POP PUSH2 0x2D3 PUSH0 DUP4 ADD DUP5 PUSH2 0x2B1 JUMP JUMPDEST SWAP3 SWAP2 POP POP JUMP JUMPDEST PUSH0 DUP1 PUSH1 0x40 DUP4 DUP6 SUB SLT ISZERO PUSH2 0x2EF JUMPI PUSH2 0x2EE PUSH2 0x24F JUMP JUMPDEST JUMPDEST PUSH0 PUSH2 0x2FC DUP6 DUP3 DUP7 ADD PUSH2 0x272 JUMP JUMPDEST SWAP3 POP POP PUSH1 0x20 PUSH2 0x30D DUP6 DUP3 DUP7 ADD PUSH2 0x272 JUMP JUMPDEST SWAP2 POP POP SWAP3 POP SWAP3 SWAP1 POP JUMP JUMPDEST PUSH0 DUP2 MLOAD SWAP1 POP PUSH2 0x325 DUP2 PUSH2 0x25C JUMP JUMPDEST SWAP3 SWAP2 POP POP JUMP JUMPDEST PUSH0 PUSH1 0x20 DUP3 DUP5 SUB SLT ISZERO PUSH2 0x340 JUMPI PUSH2 0x33F PUSH2 0x24F JUMP JUMPDEST JUMPDEST PUSH0 PUSH2 0x34D DUP5 DUP3 DUP6 ADD PUSH2 0x317 JUMP JUMPDEST SWAP2 POP POP SWAP3 SWAP2 POP POP JUMP JUMPDEST PUSH32 0x4E487B7100000000000000000000000000000000000000000000000000000000 PUSH0 MSTORE PUSH1 0x11 PUSH1 0x4 MSTORE PUSH1 0x24 PUSH0 REVERT JUMPDEST PUSH0 PUSH2 0x38D DUP3 PUSH2 0x253 JUMP JUMPDEST SWAP2 POP PUSH2 0x398 DUP4 PUSH2 0x253 JUMP JUMPDEST SWAP3 POP DUP3 DUP3 ADD SWAP1 POP DUP1 DUP3 GT ISZERO PUSH2 0x3B0 JUMPI PUSH2 0x3AF PUSH2 0x356 JUMP JUMPDEST JUMPDEST SWAP3 SWAP2 POP POP JUMP INVALID LOG2 PUSH5 0x6970667358 0x22 SLT KECCAK256 MSTORE 0x22 0xB4 JUMPDEST TSTORE PUSH29 0xC480BA21DBCA9794D1E6F45956D9846BA59EBADD20BA9AF4809664736F PUSH13 0x634300081A0033000000000000 "
				},
				"gasEstimates": {
					"creation": {
						"codeDepositCost": "200800",
						"executionCost": "22357",
						"totalCost": "223157"
					},
					"external": {
						"getData()": "2477",
						"getDataInfo()": "infinite",
						"getResultCompute()": "2476",
						"info()": "2448",
						"setCompute(uint256,uint256)": "infinite",
						"setincerement()": "infinite",
						"updateData(uint256)": "22515"
					}
				},
				"methodIdentifiers": {
					"getData()": "3bc5de30",
					"getDataInfo()": "93a3abdd",
					"getResultCompute()": "e6a4541a",
					"info()": "370158ea",
					"setCompute(uint256,uint256)": "f4eee1d3",
					"setincerement()": "75d8662a",
					"updateData(uint256)": "09e96008"
				}
			},
			"storageLayout": {
				"storage": [
					{
						"astId": 3,
						"contract": "contracts/Contract-bygpt.sol:Child",
						"label": "data",
						"offset": 0,
						"slot": "0",
						"type": "t_uint256"
					},
					{
						"astId": 5,
						"contract": "contracts/Contract-bygpt.sol:Child",
						"label": "info",
						"offset": 0,
						"slot": "1",
						"type": "t_uint256"
					},
					{
						"astId": 97,
						"contract": "contracts/Contract-bygpt.sol:Child",
						"label": "result",
						"offset": 0,
						"slot": "2",
						"type": "t_uint256"
					},
					{
						"astId": 100,
						"contract": "contracts/Contract-bygpt.sol:Child",
						"label": "c",
						"offset": 0,
						"slot": "3",
						"type": "t_contract(Parent)68"
					}
				],
				"types": {
					"t_contract(Parent)68": {
						"encoding": "inplace",
						"label": "contract Parent",
						"numberOfBytes": "20"
					},
					"t_uint256": {
						"encoding": "inplace",
						"label": "uint256",
						"numberOfBytes": "32"
					}
				}
			},
			"userdoc": {
				"kind": "user",
				"methods": {},
				"version": 1
			}
		}
	}
}