{
	"contracts/struct-bygpt.sol": {
		"BookContract": {
			"abi": [
				{
					"inputs": [
						{
							"internalType": "uint256",
							"name": "",
							"type": "uint256"
						}
					],
					"name": "buku3",
					"outputs": [
						{
							"internalType": "string",
							"name": "title",
							"type": "string"
						},
						{
							"internalType": "string",
							"name": "author",
							"type": "string"
						},
						{
							"internalType": "uint256",
							"name": "id",
							"type": "uint256"
						},
						{
							"internalType": "bool",
							"name": "isReady",
							"type": "bool"
						}
					],
					"stateMutability": "view",
					"type": "function"
				},
				{
					"inputs": [
						{
							"internalType": "uint256",
							"name": "_index",
							"type": "uint256"
						}
					],
					"name": "cekbuku3",
					"outputs": [
						{
							"internalType": "string",
							"name": "",
							"type": "string"
						},
						{
							"internalType": "string",
							"name": "",
							"type": "string"
						},
						{
							"internalType": "uint256",
							"name": "",
							"type": "uint256"
						},
						{
							"internalType": "bool",
							"name": "",
							"type": "bool"
						}
					],
					"stateMutability": "view",
					"type": "function"
				},
				{
					"inputs": [],
					"name": "getTotalBooks",
					"outputs": [
						{
							"internalType": "uint256",
							"name": "",
							"type": "uint256"
						}
					],
					"stateMutability": "view",
					"type": "function"
				},
				{
					"inputs": [
						{
							"internalType": "string",
							"name": "title",
							"type": "string"
						},
						{
							"internalType": "string",
							"name": "author",
							"type": "string"
						},
						{
							"internalType": "uint256",
							"name": "id",
							"type": "uint256"
						},
						{
							"internalType": "bool",
							"name": "isReady",
							"type": "bool"
						}
					],
					"name": "newBook",
					"outputs": [],
					"stateMutability": "nonpayable",
					"type": "function"
				}
			],
			"devdoc": {
				"kind": "dev",
				"methods": {},
				"version": 1
			},
			"evm": {
				"assembly": "    /* \"contracts/struct-bygpt.sol\":138:830  contract BookContract {... */\n  mstore(0x40, 0x80)\n  callvalue\n  dup1\n  iszero\n  tag_1\n  jumpi\n  0x00\n  dup1\n  revert\ntag_1:\n  pop\n  dataSize(sub_0)\n  dup1\n  dataOffset(sub_0)\n  0x00\n  codecopy\n  0x00\n  return\nstop\n\nsub_0: assembly {\n        /* \"contracts/struct-bygpt.sol\":138:830  contract BookContract {... */\n      mstore(0x40, 0x80)\n      callvalue\n      dup1\n      iszero\n      tag_1\n      jumpi\n      0x00\n      dup1\n      revert\n    tag_1:\n      pop\n      jumpi(tag_2, lt(calldatasize, 0x04))\n      shr(0xe0, calldataload(0x00))\n      dup1\n      0x68931b21\n      eq\n      tag_3\n      jumpi\n      dup1\n      0xe7bf2ba7\n      eq\n      tag_4\n      jumpi\n      dup1\n      0xea625179\n      eq\n      tag_5\n      jumpi\n      dup1\n      0xf5974f83\n      eq\n      tag_6\n      jumpi\n    tag_2:\n      0x00\n      dup1\n      revert\n        /* \"contracts/struct-bygpt.sol\":740:828  function getTotalBooks() public view returns (uint) {... */\n    tag_3:\n      tag_7\n      tag_8\n      jump\t// in\n    tag_7:\n      mload(0x40)\n      tag_9\n      swap2\n      swap1\n      tag_10\n      jump\t// in\n    tag_9:\n      mload(0x40)\n      dup1\n      swap2\n      sub\n      swap1\n      return\n        /* \"contracts/struct-bygpt.sol\":458:734  function cekbuku3(uint _index) public view returns (string memory, string memory, uint, bool) {... */\n    tag_4:\n      tag_11\n      0x04\n      dup1\n      calldatasize\n      sub\n      dup2\n      add\n      swap1\n      tag_12\n      swap2\n      swap1\n      tag_13\n      jump\t// in\n    tag_12:\n      tag_14\n      jump\t// in\n    tag_11:\n      mload(0x40)\n      tag_15\n      swap5\n      swap4\n      swap3\n      swap2\n      swap1\n      tag_16\n      jump\t// in\n    tag_15:\n      mload(0x40)\n      dup1\n      swap2\n      sub\n      swap1\n      return\n        /* \"contracts/struct-bygpt.sol\":275:294  Buku[] public buku3 */\n    tag_5:\n      tag_17\n      0x04\n      dup1\n      calldatasize\n      sub\n      dup2\n      add\n      swap1\n      tag_18\n      swap2\n      swap1\n      tag_13\n      jump\t// in\n    tag_18:\n      tag_19\n      jump\t// in\n    tag_17:\n      mload(0x40)\n      tag_20\n      swap5\n      swap4\n      swap3\n      swap2\n      swap1\n      tag_16\n      jump\t// in\n    tag_20:\n      mload(0x40)\n      dup1\n      swap2\n      sub\n      swap1\n      return\n        /* \"contracts/struct-bygpt.sol\":301:452  function newBook(string memory title, string memory author, uint id, bool isReady) public {... */\n    tag_6:\n      tag_21\n      0x04\n      dup1\n      calldatasize\n      sub\n      dup2\n      add\n      swap1\n      tag_22\n      swap2\n      swap1\n      tag_23\n      jump\t// in\n    tag_22:\n      tag_24\n      jump\t// in\n    tag_21:\n      stop\n        /* \"contracts/struct-bygpt.sol\":740:828  function getTotalBooks() public view returns (uint) {... */\n    tag_8:\n        /* \"contracts/struct-bygpt.sol\":786:790  uint */\n      0x00\n        /* \"contracts/struct-bygpt.sol\":809:814  buku3 */\n      dup1\n        /* \"contracts/struct-bygpt.sol\":809:821  buku3.length */\n      dup1\n      sload\n      swap1\n      pop\n        /* \"contracts/struct-bygpt.sol\":802:821  return buku3.length */\n      swap1\n      pop\n        /* \"contracts/struct-bygpt.sol\":740:828  function getTotalBooks() public view returns (uint) {... */\n      swap1\n      jump\t// out\n        /* \"contracts/struct-bygpt.sol\":458:734  function cekbuku3(uint _index) public view returns (string memory, string memory, uint, bool) {... */\n    tag_14:\n        /* \"contracts/struct-bygpt.sol\":510:523  string memory */\n      0x60\n        /* \"contracts/struct-bygpt.sol\":525:538  string memory */\n      dup1\n        /* \"contracts/struct-bygpt.sol\":540:544  uint */\n      0x00\n        /* \"contracts/struct-bygpt.sol\":546:550  bool */\n      dup1\n        /* \"contracts/struct-bygpt.sol\":579:584  buku3 */\n      0x00\n        /* \"contracts/struct-bygpt.sol\":579:591  buku3.length */\n      dup1\n      sload\n      swap1\n      pop\n        /* \"contracts/struct-bygpt.sol\":570:576  _index */\n      dup6\n        /* \"contracts/struct-bygpt.sol\":570:591  _index < buku3.length */\n      lt\n        /* \"contracts/struct-bygpt.sol\":562:614  require(_index < buku3.length, \"Index out of range\") */\n      tag_27\n      jumpi\n      mload(0x40)\n      0x08c379a000000000000000000000000000000000000000000000000000000000\n      dup2\n      mstore\n      0x04\n      add\n      tag_28\n      swap1\n      tag_29\n      jump\t// in\n    tag_28:\n      mload(0x40)\n      dup1\n      swap2\n      sub\n      swap1\n      revert\n    tag_27:\n        /* \"contracts/struct-bygpt.sol\":624:642  Buku storage book3 */\n      0x00\n        /* \"contracts/struct-bygpt.sol\":645:650  buku3 */\n      dup1\n        /* \"contracts/struct-bygpt.sol\":651:657  _index */\n      dup7\n        /* \"contracts/struct-bygpt.sol\":645:658  buku3[_index] */\n      dup2\n      sload\n      dup2\n      lt\n      tag_30\n      jumpi\n      tag_31\n      tag_32\n      jump\t// in\n    tag_31:\n    tag_30:\n      swap1\n      0x00\n      mstore\n      keccak256(0x00, 0x20)\n      swap1\n      0x04\n      mul\n      add\n        /* \"contracts/struct-bygpt.sol\":624:658  Buku storage book3 = buku3[_index] */\n      swap1\n      pop\n        /* \"contracts/struct-bygpt.sol\":676:681  book3 */\n      dup1\n        /* \"contracts/struct-bygpt.sol\":676:687  book3.title */\n      0x00\n      add\n        /* \"contracts/struct-bygpt.sol\":689:694  book3 */\n      dup2\n        /* \"contracts/struct-bygpt.sol\":689:701  book3.author */\n      0x01\n      add\n        /* \"contracts/struct-bygpt.sol\":703:708  book3 */\n      dup3\n        /* \"contracts/struct-bygpt.sol\":703:711  book3.id */\n      0x02\n      add\n      sload\n        /* \"contracts/struct-bygpt.sol\":713:718  book3 */\n      dup4\n        /* \"contracts/struct-bygpt.sol\":713:726  book3.isReady */\n      0x03\n      add\n      0x00\n      swap1\n      sload\n      swap1\n      0x0100\n      exp\n      swap1\n      div\n      0xff\n      and\n        /* \"contracts/struct-bygpt.sol\":668:727  return (book3.title, book3.author, book3.id, book3.isReady) */\n      dup4\n      dup1\n      sload\n      tag_34\n      swap1\n      tag_35\n      jump\t// in\n    tag_34:\n      dup1\n      0x1f\n      add\n      0x20\n      dup1\n      swap2\n      div\n      mul\n      0x20\n      add\n      mload(0x40)\n      swap1\n      dup2\n      add\n      0x40\n      mstore\n      dup1\n      swap3\n      swap2\n      swap1\n      dup2\n      dup2\n      mstore\n      0x20\n      add\n      dup3\n      dup1\n      sload\n      tag_36\n      swap1\n      tag_35\n      jump\t// in\n    tag_36:\n      dup1\n      iszero\n      tag_37\n      jumpi\n      dup1\n      0x1f\n      lt\n      tag_38\n      jumpi\n      0x0100\n      dup1\n      dup4\n      sload\n      div\n      mul\n      dup4\n      mstore\n      swap2\n      0x20\n      add\n      swap2\n      jump(tag_37)\n    tag_38:\n      dup3\n      add\n      swap2\n      swap1\n      0x00\n      mstore\n      keccak256(0x00, 0x20)\n      swap1\n    tag_39:\n      dup2\n      sload\n      dup2\n      mstore\n      swap1\n      0x01\n      add\n      swap1\n      0x20\n      add\n      dup1\n      dup4\n      gt\n      tag_39\n      jumpi\n      dup3\n      swap1\n      sub\n      0x1f\n      and\n      dup3\n      add\n      swap2\n    tag_37:\n      pop\n      pop\n      pop\n      pop\n      pop\n      swap4\n      pop\n      dup3\n      dup1\n      sload\n      tag_40\n      swap1\n      tag_35\n      jump\t// in\n    tag_40:\n      dup1\n      0x1f\n      add\n      0x20\n      dup1\n      swap2\n      div\n      mul\n      0x20\n      add\n      mload(0x40)\n      swap1\n      dup2\n      add\n      0x40\n      mstore\n      dup1\n      swap3\n      swap2\n      swap1\n      dup2\n      dup2\n      mstore\n      0x20\n      add\n      dup3\n      dup1\n      sload\n      tag_41\n      swap1\n      tag_35\n      jump\t// in\n    tag_41:\n      dup1\n      iszero\n      tag_42\n      jumpi\n      dup1\n      0x1f\n      lt\n      tag_43\n      jumpi\n      0x0100\n      dup1\n      dup4\n      sload\n      div\n      mul\n      dup4\n      mstore\n      swap2\n      0x20\n      add\n      swap2\n      jump(tag_42)\n    tag_43:\n      dup3\n      add\n      swap2\n      swap1\n      0x00\n      mstore\n      keccak256(0x00, 0x20)\n      swap1\n    tag_44:\n      dup2\n      sload\n      dup2\n      mstore\n      swap1\n      0x01\n      add\n      swap1\n      0x20\n      add\n      dup1\n      dup4\n      gt\n      tag_44\n      jumpi\n      dup3\n      swap1\n      sub\n      0x1f\n      and\n      dup3\n      add\n      swap2\n    tag_42:\n      pop\n      pop\n      pop\n      pop\n      pop\n      swap3\n      pop\n      swap5\n      pop\n      swap5\n      pop\n      swap5\n      pop\n      swap5\n      pop\n      pop\n        /* \"contracts/struct-bygpt.sol\":458:734  function cekbuku3(uint _index) public view returns (string memory, string memory, uint, bool) {... */\n      swap2\n      swap4\n      pop\n      swap2\n      swap4\n      jump\t// out\n        /* \"contracts/struct-bygpt.sol\":275:294  Buku[] public buku3 */\n    tag_19:\n      0x00\n      dup2\n      dup2\n      sload\n      dup2\n      lt\n      tag_45\n      jumpi\n      0x00\n      dup1\n      revert\n    tag_45:\n      swap1\n      0x00\n      mstore\n      keccak256(0x00, 0x20)\n      swap1\n      0x04\n      mul\n      add\n      0x00\n      swap2\n      pop\n      swap1\n      pop\n      dup1\n      0x00\n      add\n      dup1\n      sload\n      tag_47\n      swap1\n      tag_35\n      jump\t// in\n    tag_47:\n      dup1\n      0x1f\n      add\n      0x20\n      dup1\n      swap2\n      div\n      mul\n      0x20\n      add\n      mload(0x40)\n      swap1\n      dup2\n      add\n      0x40\n      mstore\n      dup1\n      swap3\n      swap2\n      swap1\n      dup2\n      dup2\n      mstore\n      0x20\n      add\n      dup3\n      dup1\n      sload\n      tag_48\n      swap1\n      tag_35\n      jump\t// in\n    tag_48:\n      dup1\n      iszero\n      tag_49\n      jumpi\n      dup1\n      0x1f\n      lt\n      tag_50\n      jumpi\n      0x0100\n      dup1\n      dup4\n      sload\n      div\n      mul\n      dup4\n      mstore\n      swap2\n      0x20\n      add\n      swap2\n      jump(tag_49)\n    tag_50:\n      dup3\n      add\n      swap2\n      swap1\n      0x00\n      mstore\n      keccak256(0x00, 0x20)\n      swap1\n    tag_51:\n      dup2\n      sload\n      dup2\n      mstore\n      swap1\n      0x01\n      add\n      swap1\n      0x20\n      add\n      dup1\n      dup4\n      gt\n      tag_51\n      jumpi\n      dup3\n      swap1\n      sub\n      0x1f\n      and\n      dup3\n      add\n      swap2\n    tag_49:\n      pop\n      pop\n      pop\n      pop\n      pop\n      swap1\n      dup1\n      0x01\n      add\n      dup1\n      sload\n      tag_52\n      swap1\n      tag_35\n      jump\t// in\n    tag_52:\n      dup1\n      0x1f\n      add\n      0x20\n      dup1\n      swap2\n      div\n      mul\n      0x20\n      add\n      mload(0x40)\n      swap1\n      dup2\n      add\n      0x40\n      mstore\n      dup1\n      swap3\n      swap2\n      swap1\n      dup2\n      dup2\n      mstore\n      0x20\n      add\n      dup3\n      dup1\n      sload\n      tag_53\n      swap1\n      tag_35\n      jump\t// in\n    tag_53:\n      dup1\n      iszero\n      tag_54\n      jumpi\n      dup1\n      0x1f\n      lt\n      tag_55\n      jumpi\n      0x0100\n      dup1\n      dup4\n      sload\n      div\n      mul\n      dup4\n      mstore\n      swap2\n      0x20\n      add\n      swap2\n      jump(tag_54)\n    tag_55:\n      dup3\n      add\n      swap2\n      swap1\n      0x00\n      mstore\n      keccak256(0x00, 0x20)\n      swap1\n    tag_56:\n      dup2\n      sload\n      dup2\n      mstore\n      swap1\n      0x01\n      add\n      swap1\n      0x20\n      add\n      dup1\n      dup4\n      gt\n      tag_56\n      jumpi\n      dup3\n      swap1\n      sub\n      0x1f\n      and\n      dup3\n      add\n      swap2\n    tag_54:\n      pop\n      pop\n      pop\n      pop\n      pop\n      swap1\n      dup1\n      0x02\n      add\n      sload\n      swap1\n      dup1\n      0x03\n      add\n      0x00\n      swap1\n      sload\n      swap1\n      0x0100\n      exp\n      swap1\n      div\n      0xff\n      and\n      swap1\n      pop\n      dup5\n      jump\t// out\n        /* \"contracts/struct-bygpt.sol\":301:452  function newBook(string memory title, string memory author, uint id, bool isReady) public {... */\n    tag_24:\n        /* \"contracts/struct-bygpt.sol\":401:406  buku3 */\n      0x00\n        /* \"contracts/struct-bygpt.sol\":412:444  Buku(title, author, id, isReady) */\n      mload(0x40)\n      dup1\n      0x80\n      add\n      0x40\n      mstore\n      dup1\n        /* \"contracts/struct-bygpt.sol\":417:422  title */\n      dup7\n        /* \"contracts/struct-bygpt.sol\":412:444  Buku(title, author, id, isReady) */\n      dup2\n      mstore\n      0x20\n      add\n        /* \"contracts/struct-bygpt.sol\":424:430  author */\n      dup6\n        /* \"contracts/struct-bygpt.sol\":412:444  Buku(title, author, id, isReady) */\n      dup2\n      mstore\n      0x20\n      add\n        /* \"contracts/struct-bygpt.sol\":432:434  id */\n      dup5\n        /* \"contracts/struct-bygpt.sol\":412:444  Buku(title, author, id, isReady) */\n      dup2\n      mstore\n      0x20\n      add\n        /* \"contracts/struct-bygpt.sol\":436:443  isReady */\n      dup4\n        /* \"contracts/struct-bygpt.sol\":412:444  Buku(title, author, id, isReady) */\n      iszero\n      iszero\n      dup2\n      mstore\n      pop\n        /* \"contracts/struct-bygpt.sol\":401:445  buku3.push(Buku(title, author, id, isReady)) */\n      swap1\n      dup1\n      0x01\n      dup2\n      sload\n      add\n      dup1\n      dup3\n      sstore\n      dup1\n      swap2\n      pop\n      pop\n      0x01\n      swap1\n      sub\n      swap1\n      0x00\n      mstore\n      keccak256(0x00, 0x20)\n      swap1\n      0x04\n      mul\n      add\n      0x00\n      swap1\n      swap2\n      swap1\n      swap2\n      swap1\n      swap2\n      pop\n      0x00\n      dup3\n      add\n      mload\n      dup2\n      0x00\n      add\n      swap1\n      dup2\n      tag_59\n      swap2\n      swap1\n      tag_60\n      jump\t// in\n    tag_59:\n      pop\n      0x20\n      dup3\n      add\n      mload\n      dup2\n      0x01\n      add\n      swap1\n      dup2\n      tag_61\n      swap2\n      swap1\n      tag_60\n      jump\t// in\n    tag_61:\n      pop\n      0x40\n      dup3\n      add\n      mload\n      dup2\n      0x02\n      add\n      sstore\n      0x60\n      dup3\n      add\n      mload\n      dup2\n      0x03\n      add\n      exp(0x0100, 0x00)\n      dup2\n      sload\n      dup2\n      0xff\n      mul\n      not\n      and\n      swap1\n      dup4\n      iszero\n      iszero\n      mul\n      or\n      swap1\n      sstore\n      pop\n      pop\n      pop\n        /* \"contracts/struct-bygpt.sol\":301:452  function newBook(string memory title, string memory author, uint id, bool isReady) public {... */\n      pop\n      pop\n      pop\n      pop\n      jump\t// out\n        /* \"#utility.yul\":7:84   */\n    tag_62:\n        /* \"#utility.yul\":44:51   */\n      0x00\n        /* \"#utility.yul\":73:78   */\n      dup2\n        /* \"#utility.yul\":62:78   */\n      swap1\n      pop\n        /* \"#utility.yul\":7:84   */\n      swap2\n      swap1\n      pop\n      jump\t// out\n        /* \"#utility.yul\":90:208   */\n    tag_63:\n        /* \"#utility.yul\":177:201   */\n      tag_108\n        /* \"#utility.yul\":195:200   */\n      dup2\n        /* \"#utility.yul\":177:201   */\n      tag_62\n      jump\t// in\n    tag_108:\n        /* \"#utility.yul\":172:175   */\n      dup3\n        /* \"#utility.yul\":165:202   */\n      mstore\n        /* \"#utility.yul\":90:208   */\n      pop\n      pop\n      jump\t// out\n        /* \"#utility.yul\":214:436   */\n    tag_10:\n        /* \"#utility.yul\":307:311   */\n      0x00\n        /* \"#utility.yul\":345:347   */\n      0x20\n        /* \"#utility.yul\":334:343   */\n      dup3\n        /* \"#utility.yul\":330:348   */\n      add\n        /* \"#utility.yul\":322:348   */\n      swap1\n      pop\n        /* \"#utility.yul\":358:429   */\n      tag_110\n        /* \"#utility.yul\":426:427   */\n      0x00\n        /* \"#utility.yul\":415:424   */\n      dup4\n        /* \"#utility.yul\":411:428   */\n      add\n        /* \"#utility.yul\":402:408   */\n      dup5\n        /* \"#utility.yul\":358:429   */\n      tag_63\n      jump\t// in\n    tag_110:\n        /* \"#utility.yul\":214:436   */\n      swap3\n      swap2\n      pop\n      pop\n      jump\t// out\n        /* \"#utility.yul\":442:517   */\n    tag_64:\n        /* \"#utility.yul\":475:481   */\n      0x00\n        /* \"#utility.yul\":508:510   */\n      0x40\n        /* \"#utility.yul\":502:511   */\n      mload\n        /* \"#utility.yul\":492:511   */\n      swap1\n      pop\n        /* \"#utility.yul\":442:517   */\n      swap1\n      jump\t// out\n        /* \"#utility.yul\":523:640   */\n    tag_65:\n        /* \"#utility.yul\":632:633   */\n      0x00\n        /* \"#utility.yul\":629:630   */\n      dup1\n        /* \"#utility.yul\":622:634   */\n      revert\n        /* \"#utility.yul\":646:763   */\n    tag_66:\n        /* \"#utility.yul\":755:756   */\n      0x00\n        /* \"#utility.yul\":752:753   */\n      dup1\n        /* \"#utility.yul\":745:757   */\n      revert\n        /* \"#utility.yul\":769:891   */\n    tag_67:\n        /* \"#utility.yul\":842:866   */\n      tag_115\n        /* \"#utility.yul\":860:865   */\n      dup2\n        /* \"#utility.yul\":842:866   */\n      tag_62\n      jump\t// in\n    tag_115:\n        /* \"#utility.yul\":835:840   */\n      dup2\n        /* \"#utility.yul\":832:867   */\n      eq\n        /* \"#utility.yul\":822:885   */\n      tag_116\n      jumpi\n        /* \"#utility.yul\":881:882   */\n      0x00\n        /* \"#utility.yul\":878:879   */\n      dup1\n        /* \"#utility.yul\":871:883   */\n      revert\n        /* \"#utility.yul\":822:885   */\n    tag_116:\n        /* \"#utility.yul\":769:891   */\n      pop\n      jump\t// out\n        /* \"#utility.yul\":897:1036   */\n    tag_68:\n        /* \"#utility.yul\":943:948   */\n      0x00\n        /* \"#utility.yul\":981:987   */\n      dup2\n        /* \"#utility.yul\":968:988   */\n      calldataload\n        /* \"#utility.yul\":959:988   */\n      swap1\n      pop\n        /* \"#utility.yul\":997:1030   */\n      tag_118\n        /* \"#utility.yul\":1024:1029   */\n      dup2\n        /* \"#utility.yul\":997:1030   */\n      tag_67\n      jump\t// in\n    tag_118:\n        /* \"#utility.yul\":897:1036   */\n      swap3\n      swap2\n      pop\n      pop\n      jump\t// out\n        /* \"#utility.yul\":1042:1371   */\n    tag_13:\n        /* \"#utility.yul\":1101:1107   */\n      0x00\n        /* \"#utility.yul\":1150:1152   */\n      0x20\n        /* \"#utility.yul\":1138:1147   */\n      dup3\n        /* \"#utility.yul\":1129:1136   */\n      dup5\n        /* \"#utility.yul\":1125:1148   */\n      sub\n        /* \"#utility.yul\":1121:1153   */\n      slt\n        /* \"#utility.yul\":1118:1237   */\n      iszero\n      tag_120\n      jumpi\n        /* \"#utility.yul\":1156:1235   */\n      tag_121\n      tag_65\n      jump\t// in\n    tag_121:\n        /* \"#utility.yul\":1118:1237   */\n    tag_120:\n        /* \"#utility.yul\":1276:1277   */\n      0x00\n        /* \"#utility.yul\":1301:1354   */\n      tag_122\n        /* \"#utility.yul\":1346:1353   */\n      dup5\n        /* \"#utility.yul\":1337:1343   */\n      dup3\n        /* \"#utility.yul\":1326:1335   */\n      dup6\n        /* \"#utility.yul\":1322:1344   */\n      add\n        /* \"#utility.yul\":1301:1354   */\n      tag_68\n      jump\t// in\n    tag_122:\n        /* \"#utility.yul\":1291:1354   */\n      swap2\n      pop\n        /* \"#utility.yul\":1247:1364   */\n      pop\n        /* \"#utility.yul\":1042:1371   */\n      swap3\n      swap2\n      pop\n      pop\n      jump\t// out\n        /* \"#utility.yul\":1377:1476   */\n    tag_69:\n        /* \"#utility.yul\":1429:1435   */\n      0x00\n        /* \"#utility.yul\":1463:1468   */\n      dup2\n        /* \"#utility.yul\":1457:1469   */\n      mload\n        /* \"#utility.yul\":1447:1469   */\n      swap1\n      pop\n        /* \"#utility.yul\":1377:1476   */\n      swap2\n      swap1\n      pop\n      jump\t// out\n        /* \"#utility.yul\":1482:1651   */\n    tag_70:\n        /* \"#utility.yul\":1566:1577   */\n      0x00\n        /* \"#utility.yul\":1600:1606   */\n      dup3\n        /* \"#utility.yul\":1595:1598   */\n      dup3\n        /* \"#utility.yul\":1588:1607   */\n      mstore\n        /* \"#utility.yul\":1640:1644   */\n      0x20\n        /* \"#utility.yul\":1635:1638   */\n      dup3\n        /* \"#utility.yul\":1631:1645   */\n      add\n        /* \"#utility.yul\":1616:1645   */\n      swap1\n      pop\n        /* \"#utility.yul\":1482:1651   */\n      swap3\n      swap2\n      pop\n      pop\n      jump\t// out\n        /* \"#utility.yul\":1657:1796   */\n    tag_71:\n        /* \"#utility.yul\":1746:1752   */\n      dup3\n        /* \"#utility.yul\":1741:1744   */\n      dup2\n        /* \"#utility.yul\":1736:1739   */\n      dup4\n        /* \"#utility.yul\":1730:1753   */\n      mcopy\n        /* \"#utility.yul\":1787:1788   */\n      0x00\n        /* \"#utility.yul\":1778:1784   */\n      dup4\n        /* \"#utility.yul\":1773:1776   */\n      dup4\n        /* \"#utility.yul\":1769:1785   */\n      add\n        /* \"#utility.yul\":1762:1789   */\n      mstore\n        /* \"#utility.yul\":1657:1796   */\n      pop\n      pop\n      pop\n      jump\t// out\n        /* \"#utility.yul\":1802:1904   */\n    tag_72:\n        /* \"#utility.yul\":1843:1849   */\n      0x00\n        /* \"#utility.yul\":1894:1896   */\n      0x1f\n        /* \"#utility.yul\":1890:1897   */\n      not\n        /* \"#utility.yul\":1885:1887   */\n      0x1f\n        /* \"#utility.yul\":1878:1883   */\n      dup4\n        /* \"#utility.yul\":1874:1888   */\n      add\n        /* \"#utility.yul\":1870:1898   */\n      and\n        /* \"#utility.yul\":1860:1898   */\n      swap1\n      pop\n        /* \"#utility.yul\":1802:1904   */\n      swap2\n      swap1\n      pop\n      jump\t// out\n        /* \"#utility.yul\":1910:2287   */\n    tag_73:\n        /* \"#utility.yul\":1998:2001   */\n      0x00\n        /* \"#utility.yul\":2026:2065   */\n      tag_128\n        /* \"#utility.yul\":2059:2064   */\n      dup3\n        /* \"#utility.yul\":2026:2065   */\n      tag_69\n      jump\t// in\n    tag_128:\n        /* \"#utility.yul\":2081:2152   */\n      tag_129\n        /* \"#utility.yul\":2145:2151   */\n      dup2\n        /* \"#utility.yul\":2140:2143   */\n      dup6\n        /* \"#utility.yul\":2081:2152   */\n      tag_70\n      jump\t// in\n    tag_129:\n        /* \"#utility.yul\":2074:2152   */\n      swap4\n      pop\n        /* \"#utility.yul\":2161:2226   */\n      tag_130\n        /* \"#utility.yul\":2219:2225   */\n      dup2\n        /* \"#utility.yul\":2214:2217   */\n      dup6\n        /* \"#utility.yul\":2207:2211   */\n      0x20\n        /* \"#utility.yul\":2200:2205   */\n      dup7\n        /* \"#utility.yul\":2196:2212   */\n      add\n        /* \"#utility.yul\":2161:2226   */\n      tag_71\n      jump\t// in\n    tag_130:\n        /* \"#utility.yul\":2251:2280   */\n      tag_131\n        /* \"#utility.yul\":2273:2279   */\n      dup2\n        /* \"#utility.yul\":2251:2280   */\n      tag_72\n      jump\t// in\n    tag_131:\n        /* \"#utility.yul\":2246:2249   */\n      dup5\n        /* \"#utility.yul\":2242:2281   */\n      add\n        /* \"#utility.yul\":2235:2281   */\n      swap2\n      pop\n        /* \"#utility.yul\":2002:2287   */\n      pop\n        /* \"#utility.yul\":1910:2287   */\n      swap3\n      swap2\n      pop\n      pop\n      jump\t// out\n        /* \"#utility.yul\":2293:2383   */\n    tag_74:\n        /* \"#utility.yul\":2327:2334   */\n      0x00\n        /* \"#utility.yul\":2370:2375   */\n      dup2\n        /* \"#utility.yul\":2363:2376   */\n      iszero\n        /* \"#utility.yul\":2356:2377   */\n      iszero\n        /* \"#utility.yul\":2345:2377   */\n      swap1\n      pop\n        /* \"#utility.yul\":2293:2383   */\n      swap2\n      swap1\n      pop\n      jump\t// out\n        /* \"#utility.yul\":2389:2498   */\n    tag_75:\n        /* \"#utility.yul\":2470:2491   */\n      tag_134\n        /* \"#utility.yul\":2485:2490   */\n      dup2\n        /* \"#utility.yul\":2470:2491   */\n      tag_74\n      jump\t// in\n    tag_134:\n        /* \"#utility.yul\":2465:2468   */\n      dup3\n        /* \"#utility.yul\":2458:2492   */\n      mstore\n        /* \"#utility.yul\":2389:2498   */\n      pop\n      pop\n      jump\t// out\n        /* \"#utility.yul\":2504:3227   */\n    tag_16:\n        /* \"#utility.yul\":2715:2719   */\n      0x00\n        /* \"#utility.yul\":2753:2756   */\n      0x80\n        /* \"#utility.yul\":2742:2751   */\n      dup3\n        /* \"#utility.yul\":2738:2757   */\n      add\n        /* \"#utility.yul\":2730:2757   */\n      swap1\n      pop\n        /* \"#utility.yul\":2803:2812   */\n      dup2\n        /* \"#utility.yul\":2797:2801   */\n      dup2\n        /* \"#utility.yul\":2793:2813   */\n      sub\n        /* \"#utility.yul\":2789:2790   */\n      0x00\n        /* \"#utility.yul\":2778:2787   */\n      dup4\n        /* \"#utility.yul\":2774:2791   */\n      add\n        /* \"#utility.yul\":2767:2814   */\n      mstore\n        /* \"#utility.yul\":2831:2909   */\n      tag_136\n        /* \"#utility.yul\":2904:2908   */\n      dup2\n        /* \"#utility.yul\":2895:2901   */\n      dup8\n        /* \"#utility.yul\":2831:2909   */\n      tag_73\n      jump\t// in\n    tag_136:\n        /* \"#utility.yul\":2823:2909   */\n      swap1\n      pop\n        /* \"#utility.yul\":2956:2965   */\n      dup2\n        /* \"#utility.yul\":2950:2954   */\n      dup2\n        /* \"#utility.yul\":2946:2966   */\n      sub\n        /* \"#utility.yul\":2941:2943   */\n      0x20\n        /* \"#utility.yul\":2930:2939   */\n      dup4\n        /* \"#utility.yul\":2926:2944   */\n      add\n        /* \"#utility.yul\":2919:2967   */\n      mstore\n        /* \"#utility.yul\":2984:3062   */\n      tag_137\n        /* \"#utility.yul\":3057:3061   */\n      dup2\n        /* \"#utility.yul\":3048:3054   */\n      dup7\n        /* \"#utility.yul\":2984:3062   */\n      tag_73\n      jump\t// in\n    tag_137:\n        /* \"#utility.yul\":2976:3062   */\n      swap1\n      pop\n        /* \"#utility.yul\":3072:3144   */\n      tag_138\n        /* \"#utility.yul\":3140:3142   */\n      0x40\n        /* \"#utility.yul\":3129:3138   */\n      dup4\n        /* \"#utility.yul\":3125:3143   */\n      add\n        /* \"#utility.yul\":3116:3122   */\n      dup6\n        /* \"#utility.yul\":3072:3144   */\n      tag_63\n      jump\t// in\n    tag_138:\n        /* \"#utility.yul\":3154:3220   */\n      tag_139\n        /* \"#utility.yul\":3216:3218   */\n      0x60\n        /* \"#utility.yul\":3205:3214   */\n      dup4\n        /* \"#utility.yul\":3201:3219   */\n      add\n        /* \"#utility.yul\":3192:3198   */\n      dup5\n        /* \"#utility.yul\":3154:3220   */\n      tag_75\n      jump\t// in\n    tag_139:\n        /* \"#utility.yul\":2504:3227   */\n      swap6\n      swap5\n      pop\n      pop\n      pop\n      pop\n      pop\n      jump\t// out\n        /* \"#utility.yul\":3233:3350   */\n    tag_76:\n        /* \"#utility.yul\":3342:3343   */\n      0x00\n        /* \"#utility.yul\":3339:3340   */\n      dup1\n        /* \"#utility.yul\":3332:3344   */\n      revert\n        /* \"#utility.yul\":3356:3473   */\n    tag_77:\n        /* \"#utility.yul\":3465:3466   */\n      0x00\n        /* \"#utility.yul\":3462:3463   */\n      dup1\n        /* \"#utility.yul\":3455:3467   */\n      revert\n        /* \"#utility.yul\":3479:3659   */\n    tag_78:\n        /* \"#utility.yul\":3527:3604   */\n      0x4e487b7100000000000000000000000000000000000000000000000000000000\n        /* \"#utility.yul\":3524:3525   */\n      0x00\n        /* \"#utility.yul\":3517:3605   */\n      mstore\n        /* \"#utility.yul\":3624:3628   */\n      0x41\n        /* \"#utility.yul\":3621:3622   */\n      0x04\n        /* \"#utility.yul\":3614:3629   */\n      mstore\n        /* \"#utility.yul\":3648:3652   */\n      0x24\n        /* \"#utility.yul\":3645:3646   */\n      0x00\n        /* \"#utility.yul\":3638:3653   */\n      revert\n        /* \"#utility.yul\":3665:3946   */\n    tag_79:\n        /* \"#utility.yul\":3748:3775   */\n      tag_144\n        /* \"#utility.yul\":3770:3774   */\n      dup3\n        /* \"#utility.yul\":3748:3775   */\n      tag_72\n      jump\t// in\n    tag_144:\n        /* \"#utility.yul\":3740:3746   */\n      dup2\n        /* \"#utility.yul\":3736:3776   */\n      add\n        /* \"#utility.yul\":3878:3884   */\n      dup2\n        /* \"#utility.yul\":3866:3876   */\n      dup2\n        /* \"#utility.yul\":3863:3885   */\n      lt\n        /* \"#utility.yul\":3842:3860   */\n      0xffffffffffffffff\n        /* \"#utility.yul\":3830:3840   */\n      dup3\n        /* \"#utility.yul\":3827:3861   */\n      gt\n        /* \"#utility.yul\":3824:3886   */\n      or\n        /* \"#utility.yul\":3821:3909   */\n      iszero\n      tag_145\n      jumpi\n        /* \"#utility.yul\":3889:3907   */\n      tag_146\n      tag_78\n      jump\t// in\n    tag_146:\n        /* \"#utility.yul\":3821:3909   */\n    tag_145:\n        /* \"#utility.yul\":3929:3939   */\n      dup1\n        /* \"#utility.yul\":3925:3927   */\n      0x40\n        /* \"#utility.yul\":3918:3940   */\n      mstore\n        /* \"#utility.yul\":3708:3946   */\n      pop\n        /* \"#utility.yul\":3665:3946   */\n      pop\n      pop\n      jump\t// out\n        /* \"#utility.yul\":3952:4081   */\n    tag_80:\n        /* \"#utility.yul\":3986:3992   */\n      0x00\n        /* \"#utility.yul\":4013:4033   */\n      tag_148\n      tag_64\n      jump\t// in\n    tag_148:\n        /* \"#utility.yul\":4003:4033   */\n      swap1\n      pop\n        /* \"#utility.yul\":4042:4075   */\n      tag_149\n        /* \"#utility.yul\":4070:4074   */\n      dup3\n        /* \"#utility.yul\":4062:4068   */\n      dup3\n        /* \"#utility.yul\":4042:4075   */\n      tag_79\n      jump\t// in\n    tag_149:\n        /* \"#utility.yul\":3952:4081   */\n      swap2\n      swap1\n      pop\n      jump\t// out\n        /* \"#utility.yul\":4087:4395   */\n    tag_81:\n        /* \"#utility.yul\":4149:4153   */\n      0x00\n        /* \"#utility.yul\":4239:4257   */\n      0xffffffffffffffff\n        /* \"#utility.yul\":4231:4237   */\n      dup3\n        /* \"#utility.yul\":4228:4258   */\n      gt\n        /* \"#utility.yul\":4225:4281   */\n      iszero\n      tag_151\n      jumpi\n        /* \"#utility.yul\":4261:4279   */\n      tag_152\n      tag_78\n      jump\t// in\n    tag_152:\n        /* \"#utility.yul\":4225:4281   */\n    tag_151:\n        /* \"#utility.yul\":4299:4328   */\n      tag_153\n        /* \"#utility.yul\":4321:4327   */\n      dup3\n        /* \"#utility.yul\":4299:4328   */\n      tag_72\n      jump\t// in\n    tag_153:\n        /* \"#utility.yul\":4291:4328   */\n      swap1\n      pop\n        /* \"#utility.yul\":4383:4387   */\n      0x20\n        /* \"#utility.yul\":4377:4381   */\n      dup2\n        /* \"#utility.yul\":4373:4388   */\n      add\n        /* \"#utility.yul\":4365:4388   */\n      swap1\n      pop\n        /* \"#utility.yul\":4087:4395   */\n      swap2\n      swap1\n      pop\n      jump\t// out\n        /* \"#utility.yul\":4401:4549   */\n    tag_82:\n        /* \"#utility.yul\":4499:4505   */\n      dup3\n        /* \"#utility.yul\":4494:4497   */\n      dup2\n        /* \"#utility.yul\":4489:4492   */\n      dup4\n        /* \"#utility.yul\":4476:4506   */\n      calldatacopy\n        /* \"#utility.yul\":4540:4541   */\n      0x00\n        /* \"#utility.yul\":4531:4537   */\n      dup4\n        /* \"#utility.yul\":4526:4529   */\n      dup4\n        /* \"#utility.yul\":4522:4538   */\n      add\n        /* \"#utility.yul\":4515:4542   */\n      mstore\n        /* \"#utility.yul\":4401:4549   */\n      pop\n      pop\n      pop\n      jump\t// out\n        /* \"#utility.yul\":4555:4980   */\n    tag_83:\n        /* \"#utility.yul\":4633:4638   */\n      0x00\n        /* \"#utility.yul\":4658:4724   */\n      tag_156\n        /* \"#utility.yul\":4674:4723   */\n      tag_157\n        /* \"#utility.yul\":4716:4722   */\n      dup5\n        /* \"#utility.yul\":4674:4723   */\n      tag_81\n      jump\t// in\n    tag_157:\n        /* \"#utility.yul\":4658:4724   */\n      tag_80\n      jump\t// in\n    tag_156:\n        /* \"#utility.yul\":4649:4724   */\n      swap1\n      pop\n        /* \"#utility.yul\":4747:4753   */\n      dup3\n        /* \"#utility.yul\":4740:4745   */\n      dup2\n        /* \"#utility.yul\":4733:4754   */\n      mstore\n        /* \"#utility.yul\":4785:4789   */\n      0x20\n        /* \"#utility.yul\":4778:4783   */\n      dup2\n        /* \"#utility.yul\":4774:4790   */\n      add\n        /* \"#utility.yul\":4823:4826   */\n      dup5\n        /* \"#utility.yul\":4814:4820   */\n      dup5\n        /* \"#utility.yul\":4809:4812   */\n      dup5\n        /* \"#utility.yul\":4805:4821   */\n      add\n        /* \"#utility.yul\":4802:4827   */\n      gt\n        /* \"#utility.yul\":4799:4911   */\n      iszero\n      tag_158\n      jumpi\n        /* \"#utility.yul\":4830:4909   */\n      tag_159\n      tag_77\n      jump\t// in\n    tag_159:\n        /* \"#utility.yul\":4799:4911   */\n    tag_158:\n        /* \"#utility.yul\":4920:4974   */\n      tag_160\n        /* \"#utility.yul\":4967:4973   */\n      dup5\n        /* \"#utility.yul\":4962:4965   */\n      dup3\n        /* \"#utility.yul\":4957:4960   */\n      dup6\n        /* \"#utility.yul\":4920:4974   */\n      tag_82\n      jump\t// in\n    tag_160:\n        /* \"#utility.yul\":4639:4980   */\n      pop\n        /* \"#utility.yul\":4555:4980   */\n      swap4\n      swap3\n      pop\n      pop\n      pop\n      jump\t// out\n        /* \"#utility.yul\":5000:5340   */\n    tag_84:\n        /* \"#utility.yul\":5056:5061   */\n      0x00\n        /* \"#utility.yul\":5105:5108   */\n      dup3\n        /* \"#utility.yul\":5098:5102   */\n      0x1f\n        /* \"#utility.yul\":5090:5096   */\n      dup4\n        /* \"#utility.yul\":5086:5103   */\n      add\n        /* \"#utility.yul\":5082:5109   */\n      slt\n        /* \"#utility.yul\":5072:5194   */\n      tag_162\n      jumpi\n        /* \"#utility.yul\":5113:5192   */\n      tag_163\n      tag_76\n      jump\t// in\n    tag_163:\n        /* \"#utility.yul\":5072:5194   */\n    tag_162:\n        /* \"#utility.yul\":5230:5236   */\n      dup2\n        /* \"#utility.yul\":5217:5237   */\n      calldataload\n        /* \"#utility.yul\":5255:5334   */\n      tag_164\n        /* \"#utility.yul\":5330:5333   */\n      dup5\n        /* \"#utility.yul\":5322:5328   */\n      dup3\n        /* \"#utility.yul\":5315:5319   */\n      0x20\n        /* \"#utility.yul\":5307:5313   */\n      dup7\n        /* \"#utility.yul\":5303:5320   */\n      add\n        /* \"#utility.yul\":5255:5334   */\n      tag_83\n      jump\t// in\n    tag_164:\n        /* \"#utility.yul\":5246:5334   */\n      swap2\n      pop\n        /* \"#utility.yul\":5062:5340   */\n      pop\n        /* \"#utility.yul\":5000:5340   */\n      swap3\n      swap2\n      pop\n      pop\n      jump\t// out\n        /* \"#utility.yul\":5346:5462   */\n    tag_85:\n        /* \"#utility.yul\":5416:5437   */\n      tag_166\n        /* \"#utility.yul\":5431:5436   */\n      dup2\n        /* \"#utility.yul\":5416:5437   */\n      tag_74\n      jump\t// in\n    tag_166:\n        /* \"#utility.yul\":5409:5414   */\n      dup2\n        /* \"#utility.yul\":5406:5438   */\n      eq\n        /* \"#utility.yul\":5396:5456   */\n      tag_167\n      jumpi\n        /* \"#utility.yul\":5452:5453   */\n      0x00\n        /* \"#utility.yul\":5449:5450   */\n      dup1\n        /* \"#utility.yul\":5442:5454   */\n      revert\n        /* \"#utility.yul\":5396:5456   */\n    tag_167:\n        /* \"#utility.yul\":5346:5462   */\n      pop\n      jump\t// out\n        /* \"#utility.yul\":5468:5601   */\n    tag_86:\n        /* \"#utility.yul\":5511:5516   */\n      0x00\n        /* \"#utility.yul\":5549:5555   */\n      dup2\n        /* \"#utility.yul\":5536:5556   */\n      calldataload\n        /* \"#utility.yul\":5527:5556   */\n      swap1\n      pop\n        /* \"#utility.yul\":5565:5595   */\n      tag_169\n        /* \"#utility.yul\":5589:5594   */\n      dup2\n        /* \"#utility.yul\":5565:5595   */\n      tag_85\n      jump\t// in\n    tag_169:\n        /* \"#utility.yul\":5468:5601   */\n      swap3\n      swap2\n      pop\n      pop\n      jump\t// out\n        /* \"#utility.yul\":5607:6726   */\n    tag_23:\n        /* \"#utility.yul\":5710:5716   */\n      0x00\n        /* \"#utility.yul\":5718:5724   */\n      dup1\n        /* \"#utility.yul\":5726:5732   */\n      0x00\n        /* \"#utility.yul\":5734:5740   */\n      dup1\n        /* \"#utility.yul\":5783:5786   */\n      0x80\n        /* \"#utility.yul\":5771:5780   */\n      dup6\n        /* \"#utility.yul\":5762:5769   */\n      dup8\n        /* \"#utility.yul\":5758:5781   */\n      sub\n        /* \"#utility.yul\":5754:5787   */\n      slt\n        /* \"#utility.yul\":5751:5871   */\n      iszero\n      tag_171\n      jumpi\n        /* \"#utility.yul\":5790:5869   */\n      tag_172\n      tag_65\n      jump\t// in\n    tag_172:\n        /* \"#utility.yul\":5751:5871   */\n    tag_171:\n        /* \"#utility.yul\":5938:5939   */\n      0x00\n        /* \"#utility.yul\":5927:5936   */\n      dup6\n        /* \"#utility.yul\":5923:5940   */\n      add\n        /* \"#utility.yul\":5910:5941   */\n      calldataload\n        /* \"#utility.yul\":5968:5986   */\n      0xffffffffffffffff\n        /* \"#utility.yul\":5960:5966   */\n      dup2\n        /* \"#utility.yul\":5957:5987   */\n      gt\n        /* \"#utility.yul\":5954:6071   */\n      iszero\n      tag_173\n      jumpi\n        /* \"#utility.yul\":5990:6069   */\n      tag_174\n      tag_66\n      jump\t// in\n    tag_174:\n        /* \"#utility.yul\":5954:6071   */\n    tag_173:\n        /* \"#utility.yul\":6095:6158   */\n      tag_175\n        /* \"#utility.yul\":6150:6157   */\n      dup8\n        /* \"#utility.yul\":6141:6147   */\n      dup3\n        /* \"#utility.yul\":6130:6139   */\n      dup9\n        /* \"#utility.yul\":6126:6148   */\n      add\n        /* \"#utility.yul\":6095:6158   */\n      tag_84\n      jump\t// in\n    tag_175:\n        /* \"#utility.yul\":6085:6158   */\n      swap5\n      pop\n        /* \"#utility.yul\":5881:6168   */\n      pop\n        /* \"#utility.yul\":6235:6237   */\n      0x20\n        /* \"#utility.yul\":6224:6233   */\n      dup6\n        /* \"#utility.yul\":6220:6238   */\n      add\n        /* \"#utility.yul\":6207:6239   */\n      calldataload\n        /* \"#utility.yul\":6266:6284   */\n      0xffffffffffffffff\n        /* \"#utility.yul\":6258:6264   */\n      dup2\n        /* \"#utility.yul\":6255:6285   */\n      gt\n        /* \"#utility.yul\":6252:6369   */\n      iszero\n      tag_176\n      jumpi\n        /* \"#utility.yul\":6288:6367   */\n      tag_177\n      tag_66\n      jump\t// in\n    tag_177:\n        /* \"#utility.yul\":6252:6369   */\n    tag_176:\n        /* \"#utility.yul\":6393:6456   */\n      tag_178\n        /* \"#utility.yul\":6448:6455   */\n      dup8\n        /* \"#utility.yul\":6439:6445   */\n      dup3\n        /* \"#utility.yul\":6428:6437   */\n      dup9\n        /* \"#utility.yul\":6424:6446   */\n      add\n        /* \"#utility.yul\":6393:6456   */\n      tag_84\n      jump\t// in\n    tag_178:\n        /* \"#utility.yul\":6383:6456   */\n      swap4\n      pop\n        /* \"#utility.yul\":6178:6466   */\n      pop\n        /* \"#utility.yul\":6505:6507   */\n      0x40\n        /* \"#utility.yul\":6531:6584   */\n      tag_179\n        /* \"#utility.yul\":6576:6583   */\n      dup8\n        /* \"#utility.yul\":6567:6573   */\n      dup3\n        /* \"#utility.yul\":6556:6565   */\n      dup9\n        /* \"#utility.yul\":6552:6574   */\n      add\n        /* \"#utility.yul\":6531:6584   */\n      tag_68\n      jump\t// in\n    tag_179:\n        /* \"#utility.yul\":6521:6584   */\n      swap3\n      pop\n        /* \"#utility.yul\":6476:6594   */\n      pop\n        /* \"#utility.yul\":6633:6635   */\n      0x60\n        /* \"#utility.yul\":6659:6709   */\n      tag_180\n        /* \"#utility.yul\":6701:6708   */\n      dup8\n        /* \"#utility.yul\":6692:6698   */\n      dup3\n        /* \"#utility.yul\":6681:6690   */\n      dup9\n        /* \"#utility.yul\":6677:6699   */\n      add\n        /* \"#utility.yul\":6659:6709   */\n      tag_86\n      jump\t// in\n    tag_180:\n        /* \"#utility.yul\":6649:6709   */\n      swap2\n      pop\n        /* \"#utility.yul\":6604:6719   */\n      pop\n        /* \"#utility.yul\":5607:6726   */\n      swap3\n      swap6\n      swap2\n      swap5\n      pop\n      swap3\n      pop\n      jump\t// out\n        /* \"#utility.yul\":6732:6900   */\n    tag_87:\n        /* \"#utility.yul\":6872:6892   */\n      0x496e646578206f7574206f662072616e67650000000000000000000000000000\n        /* \"#utility.yul\":6868:6869   */\n      0x00\n        /* \"#utility.yul\":6860:6866   */\n      dup3\n        /* \"#utility.yul\":6856:6870   */\n      add\n        /* \"#utility.yul\":6849:6893   */\n      mstore\n        /* \"#utility.yul\":6732:6900   */\n      pop\n      jump\t// out\n        /* \"#utility.yul\":6906:7272   */\n    tag_88:\n        /* \"#utility.yul\":7048:7051   */\n      0x00\n        /* \"#utility.yul\":7069:7136   */\n      tag_183\n        /* \"#utility.yul\":7133:7135   */\n      0x12\n        /* \"#utility.yul\":7128:7131   */\n      dup4\n        /* \"#utility.yul\":7069:7136   */\n      tag_70\n      jump\t// in\n    tag_183:\n        /* \"#utility.yul\":7062:7136   */\n      swap2\n      pop\n        /* \"#utility.yul\":7145:7238   */\n      tag_184\n        /* \"#utility.yul\":7234:7237   */\n      dup3\n        /* \"#utility.yul\":7145:7238   */\n      tag_87\n      jump\t// in\n    tag_184:\n        /* \"#utility.yul\":7263:7265   */\n      0x20\n        /* \"#utility.yul\":7258:7261   */\n      dup3\n        /* \"#utility.yul\":7254:7266   */\n      add\n        /* \"#utility.yul\":7247:7266   */\n      swap1\n      pop\n        /* \"#utility.yul\":6906:7272   */\n      swap2\n      swap1\n      pop\n      jump\t// out\n        /* \"#utility.yul\":7278:7697   */\n    tag_29:\n        /* \"#utility.yul\":7444:7448   */\n      0x00\n        /* \"#utility.yul\":7482:7484   */\n      0x20\n        /* \"#utility.yul\":7471:7480   */\n      dup3\n        /* \"#utility.yul\":7467:7485   */\n      add\n        /* \"#utility.yul\":7459:7485   */\n      swap1\n      pop\n        /* \"#utility.yul\":7531:7540   */\n      dup2\n        /* \"#utility.yul\":7525:7529   */\n      dup2\n        /* \"#utility.yul\":7521:7541   */\n      sub\n        /* \"#utility.yul\":7517:7518   */\n      0x00\n        /* \"#utility.yul\":7506:7515   */\n      dup4\n        /* \"#utility.yul\":7502:7519   */\n      add\n        /* \"#utility.yul\":7495:7542   */\n      mstore\n        /* \"#utility.yul\":7559:7690   */\n      tag_186\n        /* \"#utility.yul\":7685:7689   */\n      dup2\n        /* \"#utility.yul\":7559:7690   */\n      tag_88\n      jump\t// in\n    tag_186:\n        /* \"#utility.yul\":7551:7690   */\n      swap1\n      pop\n        /* \"#utility.yul\":7278:7697   */\n      swap2\n      swap1\n      pop\n      jump\t// out\n        /* \"#utility.yul\":7703:7883   */\n    tag_32:\n        /* \"#utility.yul\":7751:7828   */\n      0x4e487b7100000000000000000000000000000000000000000000000000000000\n        /* \"#utility.yul\":7748:7749   */\n      0x00\n        /* \"#utility.yul\":7741:7829   */\n      mstore\n        /* \"#utility.yul\":7848:7852   */\n      0x32\n        /* \"#utility.yul\":7845:7846   */\n      0x04\n        /* \"#utility.yul\":7838:7853   */\n      mstore\n        /* \"#utility.yul\":7872:7876   */\n      0x24\n        /* \"#utility.yul\":7869:7870   */\n      0x00\n        /* \"#utility.yul\":7862:7877   */\n      revert\n        /* \"#utility.yul\":7889:8069   */\n    tag_89:\n        /* \"#utility.yul\":7937:8014   */\n      0x4e487b7100000000000000000000000000000000000000000000000000000000\n        /* \"#utility.yul\":7934:7935   */\n      0x00\n        /* \"#utility.yul\":7927:8015   */\n      mstore\n        /* \"#utility.yul\":8034:8038   */\n      0x22\n        /* \"#utility.yul\":8031:8032   */\n      0x04\n        /* \"#utility.yul\":8024:8039   */\n      mstore\n        /* \"#utility.yul\":8058:8062   */\n      0x24\n        /* \"#utility.yul\":8055:8056   */\n      0x00\n        /* \"#utility.yul\":8048:8063   */\n      revert\n        /* \"#utility.yul\":8075:8395   */\n    tag_35:\n        /* \"#utility.yul\":8119:8125   */\n      0x00\n        /* \"#utility.yul\":8156:8157   */\n      0x02\n        /* \"#utility.yul\":8150:8154   */\n      dup3\n        /* \"#utility.yul\":8146:8158   */\n      div\n        /* \"#utility.yul\":8136:8158   */\n      swap1\n      pop\n        /* \"#utility.yul\":8203:8204   */\n      0x01\n        /* \"#utility.yul\":8197:8201   */\n      dup3\n        /* \"#utility.yul\":8193:8205   */\n      and\n        /* \"#utility.yul\":8224:8242   */\n      dup1\n        /* \"#utility.yul\":8214:8295   */\n      tag_190\n      jumpi\n        /* \"#utility.yul\":8280:8284   */\n      0x7f\n        /* \"#utility.yul\":8272:8278   */\n      dup3\n        /* \"#utility.yul\":8268:8285   */\n      and\n        /* \"#utility.yul\":8258:8285   */\n      swap2\n      pop\n        /* \"#utility.yul\":8214:8295   */\n    tag_190:\n        /* \"#utility.yul\":8342:8344   */\n      0x20\n        /* \"#utility.yul\":8334:8340   */\n      dup3\n        /* \"#utility.yul\":8331:8345   */\n      lt\n        /* \"#utility.yul\":8311:8329   */\n      dup2\n        /* \"#utility.yul\":8308:8346   */\n      sub\n        /* \"#utility.yul\":8305:8389   */\n      tag_191\n      jumpi\n        /* \"#utility.yul\":8361:8379   */\n      tag_192\n      tag_89\n      jump\t// in\n    tag_192:\n        /* \"#utility.yul\":8305:8389   */\n    tag_191:\n        /* \"#utility.yul\":8126:8395   */\n      pop\n        /* \"#utility.yul\":8075:8395   */\n      swap2\n      swap1\n      pop\n      jump\t// out\n        /* \"#utility.yul\":8401:8542   */\n    tag_90:\n        /* \"#utility.yul\":8450:8454   */\n      0x00\n        /* \"#utility.yul\":8473:8476   */\n      dup2\n        /* \"#utility.yul\":8465:8476   */\n      swap1\n      pop\n        /* \"#utility.yul\":8496:8499   */\n      dup2\n        /* \"#utility.yul\":8493:8494   */\n      0x00\n        /* \"#utility.yul\":8486:8500   */\n      mstore\n        /* \"#utility.yul\":8530:8534   */\n      0x20\n        /* \"#utility.yul\":8527:8528   */\n      0x00\n        /* \"#utility.yul\":8517:8535   */\n      keccak256\n        /* \"#utility.yul\":8509:8535   */\n      swap1\n      pop\n        /* \"#utility.yul\":8401:8542   */\n      swap2\n      swap1\n      pop\n      jump\t// out\n        /* \"#utility.yul\":8548:8641   */\n    tag_91:\n        /* \"#utility.yul\":8585:8591   */\n      0x00\n        /* \"#utility.yul\":8632:8634   */\n      0x20\n        /* \"#utility.yul\":8627:8629   */\n      0x1f\n        /* \"#utility.yul\":8620:8625   */\n      dup4\n        /* \"#utility.yul\":8616:8630   */\n      add\n        /* \"#utility.yul\":8612:8635   */\n      div\n        /* \"#utility.yul\":8602:8635   */\n      swap1\n      pop\n        /* \"#utility.yul\":8548:8641   */\n      swap2\n      swap1\n      pop\n      jump\t// out\n        /* \"#utility.yul\":8647:8754   */\n    tag_92:\n        /* \"#utility.yul\":8691:8699   */\n      0x00\n        /* \"#utility.yul\":8741:8746   */\n      dup3\n        /* \"#utility.yul\":8735:8739   */\n      dup3\n        /* \"#utility.yul\":8731:8747   */\n      shl\n        /* \"#utility.yul\":8710:8747   */\n      swap1\n      pop\n        /* \"#utility.yul\":8647:8754   */\n      swap3\n      swap2\n      pop\n      pop\n      jump\t// out\n        /* \"#utility.yul\":8760:9153   */\n    tag_93:\n        /* \"#utility.yul\":8829:8835   */\n      0x00\n        /* \"#utility.yul\":8879:8880   */\n      0x08\n        /* \"#utility.yul\":8867:8877   */\n      dup4\n        /* \"#utility.yul\":8863:8881   */\n      mul\n        /* \"#utility.yul\":8902:8999   */\n      tag_197\n        /* \"#utility.yul\":8932:8998   */\n      0xffffffffffffffffffffffffffffffffffffffffffffffffffffffffffffffff\n        /* \"#utility.yul\":8921:8930   */\n      dup3\n        /* \"#utility.yul\":8902:8999   */\n      tag_92\n      jump\t// in\n    tag_197:\n        /* \"#utility.yul\":9020:9059   */\n      tag_198\n        /* \"#utility.yul\":9050:9058   */\n      dup7\n        /* \"#utility.yul\":9039:9048   */\n      dup4\n        /* \"#utility.yul\":9020:9059   */\n      tag_92\n      jump\t// in\n    tag_198:\n        /* \"#utility.yul\":9008:9059   */\n      swap6\n      pop\n        /* \"#utility.yul\":9092:9096   */\n      dup1\n        /* \"#utility.yul\":9088:9097   */\n      not\n        /* \"#utility.yul\":9081:9086   */\n      dup5\n        /* \"#utility.yul\":9077:9098   */\n      and\n        /* \"#utility.yul\":9068:9098   */\n      swap4\n      pop\n        /* \"#utility.yul\":9141:9145   */\n      dup1\n        /* \"#utility.yul\":9131:9139   */\n      dup7\n        /* \"#utility.yul\":9127:9146   */\n      and\n        /* \"#utility.yul\":9120:9125   */\n      dup5\n        /* \"#utility.yul\":9117:9147   */\n      or\n        /* \"#utility.yul\":9107:9147   */\n      swap3\n      pop\n        /* \"#utility.yul\":8836:9153   */\n      pop\n      pop\n        /* \"#utility.yul\":8760:9153   */\n      swap4\n      swap3\n      pop\n      pop\n      pop\n      jump\t// out\n        /* \"#utility.yul\":9159:9219   */\n    tag_94:\n        /* \"#utility.yul\":9187:9190   */\n      0x00\n        /* \"#utility.yul\":9208:9213   */\n      dup2\n        /* \"#utility.yul\":9201:9213   */\n      swap1\n      pop\n        /* \"#utility.yul\":9159:9219   */\n      swap2\n      swap1\n      pop\n      jump\t// out\n        /* \"#utility.yul\":9225:9367   */\n    tag_95:\n        /* \"#utility.yul\":9275:9284   */\n      0x00\n        /* \"#utility.yul\":9308:9361   */\n      tag_201\n        /* \"#utility.yul\":9326:9360   */\n      tag_202\n        /* \"#utility.yul\":9335:9359   */\n      tag_203\n        /* \"#utility.yul\":9353:9358   */\n      dup5\n        /* \"#utility.yul\":9335:9359   */\n      tag_62\n      jump\t// in\n    tag_203:\n        /* \"#utility.yul\":9326:9360   */\n      tag_94\n      jump\t// in\n    tag_202:\n        /* \"#utility.yul\":9308:9361   */\n      tag_62\n      jump\t// in\n    tag_201:\n        /* \"#utility.yul\":9295:9361   */\n      swap1\n      pop\n        /* \"#utility.yul\":9225:9367   */\n      swap2\n      swap1\n      pop\n      jump\t// out\n        /* \"#utility.yul\":9373:9448   */\n    tag_96:\n        /* \"#utility.yul\":9416:9419   */\n      0x00\n        /* \"#utility.yul\":9437:9442   */\n      dup2\n        /* \"#utility.yul\":9430:9442   */\n      swap1\n      pop\n        /* \"#utility.yul\":9373:9448   */\n      swap2\n      swap1\n      pop\n      jump\t// out\n        /* \"#utility.yul\":9454:9723   */\n    tag_97:\n        /* \"#utility.yul\":9564:9603   */\n      tag_206\n        /* \"#utility.yul\":9595:9602   */\n      dup4\n        /* \"#utility.yul\":9564:9603   */\n      tag_95\n      jump\t// in\n    tag_206:\n        /* \"#utility.yul\":9625:9716   */\n      tag_207\n        /* \"#utility.yul\":9674:9715   */\n      tag_208\n        /* \"#utility.yul\":9698:9714   */\n      dup3\n        /* \"#utility.yul\":9674:9715   */\n      tag_96\n      jump\t// in\n    tag_208:\n        /* \"#utility.yul\":9666:9672   */\n      dup5\n        /* \"#utility.yul\":9659:9663   */\n      dup5\n        /* \"#utility.yul\":9653:9664   */\n      sload\n        /* \"#utility.yul\":9625:9716   */\n      tag_93\n      jump\t// in\n    tag_207:\n        /* \"#utility.yul\":9619:9623   */\n      dup3\n        /* \"#utility.yul\":9612:9717   */\n      sstore\n        /* \"#utility.yul\":9530:9723   */\n      pop\n        /* \"#utility.yul\":9454:9723   */\n      pop\n      pop\n      pop\n      jump\t// out\n        /* \"#utility.yul\":9729:9802   */\n    tag_98:\n        /* \"#utility.yul\":9774:9777   */\n      0x00\n        /* \"#utility.yul\":9729:9802   */\n      swap1\n      jump\t// out\n        /* \"#utility.yul\":9808:9997   */\n    tag_99:\n        /* \"#utility.yul\":9885:9917   */\n      tag_211\n      tag_98\n      jump\t// in\n    tag_211:\n        /* \"#utility.yul\":9926:9991   */\n      tag_212\n        /* \"#utility.yul\":9984:9990   */\n      dup2\n        /* \"#utility.yul\":9976:9982   */\n      dup5\n        /* \"#utility.yul\":9970:9974   */\n      dup5\n        /* \"#utility.yul\":9926:9991   */\n      tag_97\n      jump\t// in\n    tag_212:\n        /* \"#utility.yul\":9861:9997   */\n      pop\n        /* \"#utility.yul\":9808:9997   */\n      pop\n      pop\n      jump\t// out\n        /* \"#utility.yul\":10003:10189   */\n    tag_100:\n        /* \"#utility.yul\":10063:10183   */\n    tag_214:\n        /* \"#utility.yul\":10080:10083   */\n      dup2\n        /* \"#utility.yul\":10073:10078   */\n      dup2\n        /* \"#utility.yul\":10070:10084   */\n      lt\n        /* \"#utility.yul\":10063:10183   */\n      iszero\n      tag_216\n      jumpi\n        /* \"#utility.yul\":10134:10173   */\n      tag_217\n        /* \"#utility.yul\":10171:10172   */\n      0x00\n        /* \"#utility.yul\":10164:10169   */\n      dup3\n        /* \"#utility.yul\":10134:10173   */\n      tag_99\n      jump\t// in\n    tag_217:\n        /* \"#utility.yul\":10107:10108   */\n      0x01\n        /* \"#utility.yul\":10100:10105   */\n      dup2\n        /* \"#utility.yul\":10096:10109   */\n      add\n        /* \"#utility.yul\":10087:10109   */\n      swap1\n      pop\n        /* \"#utility.yul\":10063:10183   */\n      jump(tag_214)\n    tag_216:\n        /* \"#utility.yul\":10003:10189   */\n      pop\n      pop\n      jump\t// out\n        /* \"#utility.yul\":10195:10738   */\n    tag_101:\n        /* \"#utility.yul\":10296:10298   */\n      0x1f\n        /* \"#utility.yul\":10291:10294   */\n      dup3\n        /* \"#utility.yul\":10288:10299   */\n      gt\n        /* \"#utility.yul\":10285:10731   */\n      iszero\n      tag_219\n      jumpi\n        /* \"#utility.yul\":10330:10368   */\n      tag_220\n        /* \"#utility.yul\":10362:10367   */\n      dup2\n        /* \"#utility.yul\":10330:10368   */\n      tag_90\n      jump\t// in\n    tag_220:\n        /* \"#utility.yul\":10414:10443   */\n      tag_221\n        /* \"#utility.yul\":10432:10442   */\n      dup5\n        /* \"#utility.yul\":10414:10443   */\n      tag_91\n      jump\t// in\n    tag_221:\n        /* \"#utility.yul\":10404:10412   */\n      dup2\n        /* \"#utility.yul\":10400:10444   */\n      add\n        /* \"#utility.yul\":10597:10599   */\n      0x20\n        /* \"#utility.yul\":10585:10595   */\n      dup6\n        /* \"#utility.yul\":10582:10600   */\n      lt\n        /* \"#utility.yul\":10579:10628   */\n      iszero\n      tag_222\n      jumpi\n        /* \"#utility.yul\":10618:10626   */\n      dup2\n        /* \"#utility.yul\":10603:10626   */\n      swap1\n      pop\n        /* \"#utility.yul\":10579:10628   */\n    tag_222:\n        /* \"#utility.yul\":10641:10721   */\n      tag_223\n        /* \"#utility.yul\":10697:10719   */\n      tag_224\n        /* \"#utility.yul\":10715:10718   */\n      dup6\n        /* \"#utility.yul\":10697:10719   */\n      tag_91\n      jump\t// in\n    tag_224:\n        /* \"#utility.yul\":10687:10695   */\n      dup4\n        /* \"#utility.yul\":10683:10720   */\n      add\n        /* \"#utility.yul\":10670:10681   */\n      dup3\n        /* \"#utility.yul\":10641:10721   */\n      tag_100\n      jump\t// in\n    tag_223:\n        /* \"#utility.yul\":10300:10731   */\n      pop\n      pop\n        /* \"#utility.yul\":10285:10731   */\n    tag_219:\n        /* \"#utility.yul\":10195:10738   */\n      pop\n      pop\n      pop\n      jump\t// out\n        /* \"#utility.yul\":10744:10861   */\n    tag_102:\n        /* \"#utility.yul\":10798:10806   */\n      0x00\n        /* \"#utility.yul\":10848:10853   */\n      dup3\n        /* \"#utility.yul\":10842:10846   */\n      dup3\n        /* \"#utility.yul\":10838:10854   */\n      shr\n        /* \"#utility.yul\":10817:10854   */\n      swap1\n      pop\n        /* \"#utility.yul\":10744:10861   */\n      swap3\n      swap2\n      pop\n      pop\n      jump\t// out\n        /* \"#utility.yul\":10867:11036   */\n    tag_103:\n        /* \"#utility.yul\":10911:10917   */\n      0x00\n        /* \"#utility.yul\":10944:10995   */\n      tag_227\n        /* \"#utility.yul\":10992:10993   */\n      0x00\n        /* \"#utility.yul\":10988:10994   */\n      not\n        /* \"#utility.yul\":10980:10985   */\n      dup5\n        /* \"#utility.yul\":10977:10978   */\n      0x08\n        /* \"#utility.yul\":10973:10986   */\n      mul\n        /* \"#utility.yul\":10944:10995   */\n      tag_102\n      jump\t// in\n    tag_227:\n        /* \"#utility.yul\":10940:10996   */\n      not\n        /* \"#utility.yul\":11025:11029   */\n      dup1\n        /* \"#utility.yul\":11019:11023   */\n      dup4\n        /* \"#utility.yul\":11015:11030   */\n      and\n        /* \"#utility.yul\":11005:11030   */\n      swap2\n      pop\n        /* \"#utility.yul\":10918:11036   */\n      pop\n        /* \"#utility.yul\":10867:11036   */\n      swap3\n      swap2\n      pop\n      pop\n      jump\t// out\n        /* \"#utility.yul\":11041:11336   */\n    tag_104:\n        /* \"#utility.yul\":11117:11121   */\n      0x00\n        /* \"#utility.yul\":11263:11292   */\n      tag_229\n        /* \"#utility.yul\":11288:11291   */\n      dup4\n        /* \"#utility.yul\":11282:11286   */\n      dup4\n        /* \"#utility.yul\":11263:11292   */\n      tag_103\n      jump\t// in\n    tag_229:\n        /* \"#utility.yul\":11255:11292   */\n      swap2\n      pop\n        /* \"#utility.yul\":11325:11328   */\n      dup3\n        /* \"#utility.yul\":11322:11323   */\n      0x02\n        /* \"#utility.yul\":11318:11329   */\n      mul\n        /* \"#utility.yul\":11312:11316   */\n      dup3\n        /* \"#utility.yul\":11309:11330   */\n      or\n        /* \"#utility.yul\":11301:11330   */\n      swap1\n      pop\n        /* \"#utility.yul\":11041:11336   */\n      swap3\n      swap2\n      pop\n      pop\n      jump\t// out\n        /* \"#utility.yul\":11341:12736   */\n    tag_60:\n        /* \"#utility.yul\":11458:11495   */\n      tag_231\n        /* \"#utility.yul\":11491:11494   */\n      dup3\n        /* \"#utility.yul\":11458:11495   */\n      tag_69\n      jump\t// in\n    tag_231:\n        /* \"#utility.yul\":11560:11578   */\n      0xffffffffffffffff\n        /* \"#utility.yul\":11552:11558   */\n      dup2\n        /* \"#utility.yul\":11549:11579   */\n      gt\n        /* \"#utility.yul\":11546:11602   */\n      iszero\n      tag_232\n      jumpi\n        /* \"#utility.yul\":11582:11600   */\n      tag_233\n      tag_78\n      jump\t// in\n    tag_233:\n        /* \"#utility.yul\":11546:11602   */\n    tag_232:\n        /* \"#utility.yul\":11626:11664   */\n      tag_234\n        /* \"#utility.yul\":11658:11662   */\n      dup3\n        /* \"#utility.yul\":11652:11663   */\n      sload\n        /* \"#utility.yul\":11626:11664   */\n      tag_35\n      jump\t// in\n    tag_234:\n        /* \"#utility.yul\":11711:11778   */\n      tag_235\n        /* \"#utility.yul\":11771:11777   */\n      dup3\n        /* \"#utility.yul\":11763:11769   */\n      dup3\n        /* \"#utility.yul\":11757:11761   */\n      dup6\n        /* \"#utility.yul\":11711:11778   */\n      tag_101\n      jump\t// in\n    tag_235:\n        /* \"#utility.yul\":11805:11806   */\n      0x00\n        /* \"#utility.yul\":11829:11833   */\n      0x20\n        /* \"#utility.yul\":11816:11833   */\n      swap1\n      pop\n        /* \"#utility.yul\":11861:11863   */\n      0x1f\n        /* \"#utility.yul\":11853:11859   */\n      dup4\n        /* \"#utility.yul\":11850:11864   */\n      gt\n        /* \"#utility.yul\":11878:11879   */\n      0x01\n        /* \"#utility.yul\":11873:12491   */\n      dup2\n      eq\n      tag_237\n      jumpi\n        /* \"#utility.yul\":12535:12536   */\n      0x00\n        /* \"#utility.yul\":12552:12558   */\n      dup5\n        /* \"#utility.yul\":12549:12626   */\n      iszero\n      tag_238\n      jumpi\n        /* \"#utility.yul\":12601:12610   */\n      dup3\n        /* \"#utility.yul\":12596:12599   */\n      dup8\n        /* \"#utility.yul\":12592:12611   */\n      add\n        /* \"#utility.yul\":12586:12612   */\n      mload\n        /* \"#utility.yul\":12577:12612   */\n      swap1\n      pop\n        /* \"#utility.yul\":12549:12626   */\n    tag_238:\n        /* \"#utility.yul\":12652:12719   */\n      tag_239\n        /* \"#utility.yul\":12712:12718   */\n      dup6\n        /* \"#utility.yul\":12705:12710   */\n      dup3\n        /* \"#utility.yul\":12652:12719   */\n      tag_104\n      jump\t// in\n    tag_239:\n        /* \"#utility.yul\":12646:12650   */\n      dup7\n        /* \"#utility.yul\":12639:12720   */\n      sstore\n        /* \"#utility.yul\":12508:12730   */\n      pop\n        /* \"#utility.yul\":11843:12730   */\n      jump(tag_236)\n        /* \"#utility.yul\":11873:12491   */\n    tag_237:\n        /* \"#utility.yul\":11925:11929   */\n      0x1f\n        /* \"#utility.yul\":11921:11930   */\n      not\n        /* \"#utility.yul\":11913:11919   */\n      dup5\n        /* \"#utility.yul\":11909:11931   */\n      and\n        /* \"#utility.yul\":11959:11996   */\n      tag_240\n        /* \"#utility.yul\":11991:11995   */\n      dup7\n        /* \"#utility.yul\":11959:11996   */\n      tag_90\n      jump\t// in\n    tag_240:\n        /* \"#utility.yul\":12018:12019   */\n      0x00\n        /* \"#utility.yul\":12032:12240   */\n    tag_241:\n        /* \"#utility.yul\":12046:12053   */\n      dup3\n        /* \"#utility.yul\":12043:12044   */\n      dup2\n        /* \"#utility.yul\":12040:12054   */\n      lt\n        /* \"#utility.yul\":12032:12240   */\n      iszero\n      tag_243\n      jumpi\n        /* \"#utility.yul\":12125:12134   */\n      dup5\n        /* \"#utility.yul\":12120:12123   */\n      dup10\n        /* \"#utility.yul\":12116:12135   */\n      add\n        /* \"#utility.yul\":12110:12136   */\n      mload\n        /* \"#utility.yul\":12102:12108   */\n      dup3\n        /* \"#utility.yul\":12095:12137   */\n      sstore\n        /* \"#utility.yul\":12176:12177   */\n      0x01\n        /* \"#utility.yul\":12168:12174   */\n      dup3\n        /* \"#utility.yul\":12164:12178   */\n      add\n        /* \"#utility.yul\":12154:12178   */\n      swap2\n      pop\n        /* \"#utility.yul\":12223:12225   */\n      0x20\n        /* \"#utility.yul\":12212:12221   */\n      dup6\n        /* \"#utility.yul\":12208:12226   */\n      add\n        /* \"#utility.yul\":12195:12226   */\n      swap5\n      pop\n        /* \"#utility.yul\":12069:12073   */\n      0x20\n        /* \"#utility.yul\":12066:12067   */\n      dup2\n        /* \"#utility.yul\":12062:12074   */\n      add\n        /* \"#utility.yul\":12057:12074   */\n      swap1\n      pop\n        /* \"#utility.yul\":12032:12240   */\n      jump(tag_241)\n    tag_243:\n        /* \"#utility.yul\":12268:12274   */\n      dup7\n        /* \"#utility.yul\":12259:12266   */\n      dup4\n        /* \"#utility.yul\":12256:12275   */\n      lt\n        /* \"#utility.yul\":12253:12432   */\n      iszero\n      tag_244\n      jumpi\n        /* \"#utility.yul\":12326:12335   */\n      dup5\n        /* \"#utility.yul\":12321:12324   */\n      dup10\n        /* \"#utility.yul\":12317:12336   */\n      add\n        /* \"#utility.yul\":12311:12337   */\n      mload\n        /* \"#utility.yul\":12369:12417   */\n      tag_245\n        /* \"#utility.yul\":12411:12415   */\n      0x1f\n        /* \"#utility.yul\":12403:12409   */\n      dup10\n        /* \"#utility.yul\":12399:12416   */\n      and\n        /* \"#utility.yul\":12388:12397   */\n      dup3\n        /* \"#utility.yul\":12369:12417   */\n      tag_103\n      jump\t// in\n    tag_245:\n        /* \"#utility.yul\":12361:12367   */\n      dup4\n        /* \"#utility.yul\":12354:12418   */\n      sstore\n        /* \"#utility.yul\":12276:12432   */\n      pop\n        /* \"#utility.yul\":12253:12432   */\n    tag_244:\n        /* \"#utility.yul\":12478:12479   */\n      0x01\n        /* \"#utility.yul\":12474:12475   */\n      0x02\n        /* \"#utility.yul\":12466:12472   */\n      dup9\n        /* \"#utility.yul\":12462:12476   */\n      mul\n        /* \"#utility.yul\":12458:12480   */\n      add\n        /* \"#utility.yul\":12452:12456   */\n      dup9\n        /* \"#utility.yul\":12445:12481   */\n      sstore\n        /* \"#utility.yul\":11880:12491   */\n      pop\n      pop\n      pop\n        /* \"#utility.yul\":11843:12730   */\n    tag_236:\n      pop\n        /* \"#utility.yul\":11433:12736   */\n      pop\n      pop\n      pop\n        /* \"#utility.yul\":11341:12736   */\n      pop\n      pop\n      jump\t// out\n\n    auxdata: 0xa2646970667358221220316ec7c4e5b2f3a1daca38c0dd66e1374f042bbbbfea30c158faa18ff608d51f64736f6c634300081a0033\n}\n",
				"bytecode": {
					"linkReferences": {},
					"object": "6080604052348015600e575f80fd5b50610b968061001c5f395ff3fe608060405234801561000f575f80fd5b506004361061004a575f3560e01c806368931b211461004e578063e7bf2ba71461006c578063ea6251791461009f578063f5974f83146100d2575b5f80fd5b6100566100ee565b60405161006391906104b6565b60405180910390f35b6100866004803603810190610081919061050a565b6100f9565b60405161009694939291906105bf565b60405180910390f35b6100b960048036038101906100b4919061050a565b6102a7565b6040516100c994939291906105bf565b60405180910390f35b6100ec60048036038101906100e79190610766565b6103f9565b005b5f8080549050905090565b6060805f805f805490508510610144576040517f08c379a000000000000000000000000000000000000000000000000000000000815260040161013b9061084c565b60405180910390fd5b5f8086815481106101585761015761086a565b5b905f5260205f2090600402019050805f01816001018260020154836003015f9054906101000a900460ff1683805461018f906108c4565b80601f01602080910402602001604051908101604052809291908181526020018280546101bb906108c4565b80156102065780601f106101dd57610100808354040283529160200191610206565b820191905f5260205f20905b8154815290600101906020018083116101e957829003601f168201915b50505050509350828054610219906108c4565b80601f0160208091040260200160405190810160405280929190818152602001828054610245906108c4565b80156102905780601f1061026757610100808354040283529160200191610290565b820191905f5260205f20905b81548152906001019060200180831161027357829003601f168201915b505050505092509450945094509450509193509193565b5f81815481106102b5575f80fd5b905f5260205f2090600402015f91509050805f0180546102d4906108c4565b80601f0160208091040260200160405190810160405280929190818152602001828054610300906108c4565b801561034b5780601f106103225761010080835404028352916020019161034b565b820191905f5260205f20905b81548152906001019060200180831161032e57829003601f168201915b505050505090806001018054610360906108c4565b80601f016020809104026020016040519081016040528092919081815260200182805461038c906108c4565b80156103d75780601f106103ae576101008083540402835291602001916103d7565b820191905f5260205f20905b8154815290600101906020018083116103ba57829003601f168201915b505050505090806002015490806003015f9054906101000a900460ff16905084565b5f6040518060800160405280868152602001858152602001848152602001831515815250908060018154018082558091505060019003905f5260205f2090600402015f909190919091505f820151815f0190816104569190610a91565b50602082015181600101908161046c9190610a91565b50604082015181600201556060820151816003015f6101000a81548160ff021916908315150217905550505050505050565b5f819050919050565b6104b08161049e565b82525050565b5f6020820190506104c95f8301846104a7565b92915050565b5f604051905090565b5f80fd5b5f80fd5b6104e98161049e565b81146104f3575f80fd5b50565b5f81359050610504816104e0565b92915050565b5f6020828403121561051f5761051e6104d8565b5b5f61052c848285016104f6565b91505092915050565b5f81519050919050565b5f82825260208201905092915050565b8281835e5f83830152505050565b5f601f19601f8301169050919050565b5f61057782610535565b610581818561053f565b935061059181856020860161054f565b61059a8161055d565b840191505092915050565b5f8115159050919050565b6105b9816105a5565b82525050565b5f6080820190508181035f8301526105d7818761056d565b905081810360208301526105eb818661056d565b90506105fa60408301856104a7565b61060760608301846105b0565b95945050505050565b5f80fd5b5f80fd5b7f4e487b71000000000000000000000000000000000000000000000000000000005f52604160045260245ffd5b61064e8261055d565b810181811067ffffffffffffffff8211171561066d5761066c610618565b5b80604052505050565b5f61067f6104cf565b905061068b8282610645565b919050565b5f67ffffffffffffffff8211156106aa576106a9610618565b5b6106b38261055d565b9050602081019050919050565b828183375f83830152505050565b5f6106e06106db84610690565b610676565b9050828152602081018484840111156106fc576106fb610614565b5b6107078482856106c0565b509392505050565b5f82601f83011261072357610722610610565b5b81356107338482602086016106ce565b91505092915050565b610745816105a5565b811461074f575f80fd5b50565b5f813590506107608161073c565b92915050565b5f805f806080858703121561077e5761077d6104d8565b5b5f85013567ffffffffffffffff81111561079b5761079a6104dc565b5b6107a78782880161070f565b945050602085013567ffffffffffffffff8111156107c8576107c76104dc565b5b6107d48782880161070f565b93505060406107e5878288016104f6565b92505060606107f687828801610752565b91505092959194509250565b7f496e646578206f7574206f662072616e676500000000000000000000000000005f82015250565b5f61083660128361053f565b915061084182610802565b602082019050919050565b5f6020820190508181035f8301526108638161082a565b9050919050565b7f4e487b71000000000000000000000000000000000000000000000000000000005f52603260045260245ffd5b7f4e487b71000000000000000000000000000000000000000000000000000000005f52602260045260245ffd5b5f60028204905060018216806108db57607f821691505b6020821081036108ee576108ed610897565b5b50919050565b5f819050815f5260205f209050919050565b5f6020601f8301049050919050565b5f82821b905092915050565b5f600883026109507fffffffffffffffffffffffffffffffffffffffffffffffffffffffffffffffff82610915565b61095a8683610915565b95508019841693508086168417925050509392505050565b5f819050919050565b5f61099561099061098b8461049e565b610972565b61049e565b9050919050565b5f819050919050565b6109ae8361097b565b6109c26109ba8261099c565b848454610921565b825550505050565b5f90565b6109d66109ca565b6109e18184846109a5565b505050565b5b81811015610a04576109f95f826109ce565b6001810190506109e7565b5050565b601f821115610a4957610a1a816108f4565b610a2384610906565b81016020851015610a32578190505b610a46610a3e85610906565b8301826109e6565b50505b505050565b5f82821c905092915050565b5f610a695f1984600802610a4e565b1980831691505092915050565b5f610a818383610a5a565b9150826002028217905092915050565b610a9a82610535565b67ffffffffffffffff811115610ab357610ab2610618565b5b610abd82546108c4565b610ac8828285610a08565b5f60209050601f831160018114610af9575f8415610ae7578287015190505b610af18582610a76565b865550610b58565b601f198416610b07866108f4565b5f5b82811015610b2e57848901518255600182019150602085019450602081019050610b09565b86831015610b4b5784890151610b47601f891682610a5a565b8355505b6001600288020188555050505b50505050505056fea2646970667358221220316ec7c4e5b2f3a1daca38c0dd66e1374f042bbbbfea30c158faa18ff608d51f64736f6c634300081a0033",
					"opcodes": "PUSH1 0x80 PUSH1 0x40 MSTORE CALLVALUE DUP1 ISZERO PUSH1 0xE JUMPI PUSH0 DUP1 REVERT JUMPDEST POP PUSH2 0xB96 DUP1 PUSH2 0x1C PUSH0 CODECOPY PUSH0 RETURN INVALID PUSH1 0x80 PUSH1 0x40 MSTORE CALLVALUE DUP1 ISZERO PUSH2 0xF JUMPI PUSH0 DUP1 REVERT JUMPDEST POP PUSH1 0x4 CALLDATASIZE LT PUSH2 0x4A JUMPI PUSH0 CALLDATALOAD PUSH1 0xE0 SHR DUP1 PUSH4 0x68931B21 EQ PUSH2 0x4E JUMPI DUP1 PUSH4 0xE7BF2BA7 EQ PUSH2 0x6C JUMPI DUP1 PUSH4 0xEA625179 EQ PUSH2 0x9F JUMPI DUP1 PUSH4 0xF5974F83 EQ PUSH2 0xD2 JUMPI JUMPDEST PUSH0 DUP1 REVERT JUMPDEST PUSH2 0x56 PUSH2 0xEE JUMP JUMPDEST PUSH1 0x40 MLOAD PUSH2 0x63 SWAP2 SWAP1 PUSH2 0x4B6 JUMP JUMPDEST PUSH1 0x40 MLOAD DUP1 SWAP2 SUB SWAP1 RETURN JUMPDEST PUSH2 0x86 PUSH1 0x4 DUP1 CALLDATASIZE SUB DUP2 ADD SWAP1 PUSH2 0x81 SWAP2 SWAP1 PUSH2 0x50A JUMP JUMPDEST PUSH2 0xF9 JUMP JUMPDEST PUSH1 0x40 MLOAD PUSH2 0x96 SWAP5 SWAP4 SWAP3 SWAP2 SWAP1 PUSH2 0x5BF JUMP JUMPDEST PUSH1 0x40 MLOAD DUP1 SWAP2 SUB SWAP1 RETURN JUMPDEST PUSH2 0xB9 PUSH1 0x4 DUP1 CALLDATASIZE SUB DUP2 ADD SWAP1 PUSH2 0xB4 SWAP2 SWAP1 PUSH2 0x50A JUMP JUMPDEST PUSH2 0x2A7 JUMP JUMPDEST PUSH1 0x40 MLOAD PUSH2 0xC9 SWAP5 SWAP4 SWAP3 SWAP2 SWAP1 PUSH2 0x5BF JUMP JUMPDEST PUSH1 0x40 MLOAD DUP1 SWAP2 SUB SWAP1 RETURN JUMPDEST PUSH2 0xEC PUSH1 0x4 DUP1 CALLDATASIZE SUB DUP2 ADD SWAP1 PUSH2 0xE7 SWAP2 SWAP1 PUSH2 0x766 JUMP JUMPDEST PUSH2 0x3F9 JUMP JUMPDEST STOP JUMPDEST PUSH0 DUP1 DUP1 SLOAD SWAP1 POP SWAP1 POP SWAP1 JUMP JUMPDEST PUSH1 0x60 DUP1 PUSH0 DUP1 PUSH0 DUP1 SLOAD SWAP1 POP DUP6 LT PUSH2 0x144 JUMPI PUSH1 0x40 MLOAD PUSH32 0x8C379A000000000000000000000000000000000000000000000000000000000 DUP2 MSTORE PUSH1 0x4 ADD PUSH2 0x13B SWAP1 PUSH2 0x84C JUMP JUMPDEST PUSH1 0x40 MLOAD DUP1 SWAP2 SUB SWAP1 REVERT JUMPDEST PUSH0 DUP1 DUP7 DUP2 SLOAD DUP2 LT PUSH2 0x158 JUMPI PUSH2 0x157 PUSH2 0x86A JUMP JUMPDEST JUMPDEST SWAP1 PUSH0 MSTORE PUSH1 0x20 PUSH0 KECCAK256 SWAP1 PUSH1 0x4 MUL ADD SWAP1 POP DUP1 PUSH0 ADD DUP2 PUSH1 0x1 ADD DUP3 PUSH1 0x2 ADD SLOAD DUP4 PUSH1 0x3 ADD PUSH0 SWAP1 SLOAD SWAP1 PUSH2 0x100 EXP SWAP1 DIV PUSH1 0xFF AND DUP4 DUP1 SLOAD PUSH2 0x18F SWAP1 PUSH2 0x8C4 JUMP JUMPDEST DUP1 PUSH1 0x1F ADD PUSH1 0x20 DUP1 SWAP2 DIV MUL PUSH1 0x20 ADD PUSH1 0x40 MLOAD SWAP1 DUP2 ADD PUSH1 0x40 MSTORE DUP1 SWAP3 SWAP2 SWAP1 DUP2 DUP2 MSTORE PUSH1 0x20 ADD DUP3 DUP1 SLOAD PUSH2 0x1BB SWAP1 PUSH2 0x8C4 JUMP JUMPDEST DUP1 ISZERO PUSH2 0x206 JUMPI DUP1 PUSH1 0x1F LT PUSH2 0x1DD JUMPI PUSH2 0x100 DUP1 DUP4 SLOAD DIV MUL DUP4 MSTORE SWAP2 PUSH1 0x20 ADD SWAP2 PUSH2 0x206 JUMP JUMPDEST DUP3 ADD SWAP2 SWAP1 PUSH0 MSTORE PUSH1 0x20 PUSH0 KECCAK256 SWAP1 JUMPDEST DUP2 SLOAD DUP2 MSTORE SWAP1 PUSH1 0x1 ADD SWAP1 PUSH1 0x20 ADD DUP1 DUP4 GT PUSH2 0x1E9 JUMPI DUP3 SWAP1 SUB PUSH1 0x1F AND DUP3 ADD SWAP2 JUMPDEST POP POP POP POP POP SWAP4 POP DUP3 DUP1 SLOAD PUSH2 0x219 SWAP1 PUSH2 0x8C4 JUMP JUMPDEST DUP1 PUSH1 0x1F ADD PUSH1 0x20 DUP1 SWAP2 DIV MUL PUSH1 0x20 ADD PUSH1 0x40 MLOAD SWAP1 DUP2 ADD PUSH1 0x40 MSTORE DUP1 SWAP3 SWAP2 SWAP1 DUP2 DUP2 MSTORE PUSH1 0x20 ADD DUP3 DUP1 SLOAD PUSH2 0x245 SWAP1 PUSH2 0x8C4 JUMP JUMPDEST DUP1 ISZERO PUSH2 0x290 JUMPI DUP1 PUSH1 0x1F LT PUSH2 0x267 JUMPI PUSH2 0x100 DUP1 DUP4 SLOAD DIV MUL DUP4 MSTORE SWAP2 PUSH1 0x20 ADD SWAP2 PUSH2 0x290 JUMP JUMPDEST DUP3 ADD SWAP2 SWAP1 PUSH0 MSTORE PUSH1 0x20 PUSH0 KECCAK256 SWAP1 JUMPDEST DUP2 SLOAD DUP2 MSTORE SWAP1 PUSH1 0x1 ADD SWAP1 PUSH1 0x20 ADD DUP1 DUP4 GT PUSH2 0x273 JUMPI DUP3 SWAP1 SUB PUSH1 0x1F AND DUP3 ADD SWAP2 JUMPDEST POP POP POP POP POP SWAP3 POP SWAP5 POP SWAP5 POP SWAP5 POP SWAP5 POP POP SWAP2 SWAP4 POP SWAP2 SWAP4 JUMP JUMPDEST PUSH0 DUP2 DUP2 SLOAD DUP2 LT PUSH2 0x2B5 JUMPI PUSH0 DUP1 REVERT JUMPDEST SWAP1 PUSH0 MSTORE PUSH1 0x20 PUSH0 KECCAK256 SWAP1 PUSH1 0x4 MUL ADD PUSH0 SWAP2 POP SWAP1 POP DUP1 PUSH0 ADD DUP1 SLOAD PUSH2 0x2D4 SWAP1 PUSH2 0x8C4 JUMP JUMPDEST DUP1 PUSH1 0x1F ADD PUSH1 0x20 DUP1 SWAP2 DIV MUL PUSH1 0x20 ADD PUSH1 0x40 MLOAD SWAP1 DUP2 ADD PUSH1 0x40 MSTORE DUP1 SWAP3 SWAP2 SWAP1 DUP2 DUP2 MSTORE PUSH1 0x20 ADD DUP3 DUP1 SLOAD PUSH2 0x300 SWAP1 PUSH2 0x8C4 JUMP JUMPDEST DUP1 ISZERO PUSH2 0x34B JUMPI DUP1 PUSH1 0x1F LT PUSH2 0x322 JUMPI PUSH2 0x100 DUP1 DUP4 SLOAD DIV MUL DUP4 MSTORE SWAP2 PUSH1 0x20 ADD SWAP2 PUSH2 0x34B JUMP JUMPDEST DUP3 ADD SWAP2 SWAP1 PUSH0 MSTORE PUSH1 0x20 PUSH0 KECCAK256 SWAP1 JUMPDEST DUP2 SLOAD DUP2 MSTORE SWAP1 PUSH1 0x1 ADD SWAP1 PUSH1 0x20 ADD DUP1 DUP4 GT PUSH2 0x32E JUMPI DUP3 SWAP1 SUB PUSH1 0x1F AND DUP3 ADD SWAP2 JUMPDEST POP POP POP POP POP SWAP1 DUP1 PUSH1 0x1 ADD DUP1 SLOAD PUSH2 0x360 SWAP1 PUSH2 0x8C4 JUMP JUMPDEST DUP1 PUSH1 0x1F ADD PUSH1 0x20 DUP1 SWAP2 DIV MUL PUSH1 0x20 ADD PUSH1 0x40 MLOAD SWAP1 DUP2 ADD PUSH1 0x40 MSTORE DUP1 SWAP3 SWAP2 SWAP1 DUP2 DUP2 MSTORE PUSH1 0x20 ADD DUP3 DUP1 SLOAD PUSH2 0x38C SWAP1 PUSH2 0x8C4 JUMP JUMPDEST DUP1 ISZERO PUSH2 0x3D7 JUMPI DUP1 PUSH1 0x1F LT PUSH2 0x3AE JUMPI PUSH2 0x100 DUP1 DUP4 SLOAD DIV MUL DUP4 MSTORE SWAP2 PUSH1 0x20 ADD SWAP2 PUSH2 0x3D7 JUMP JUMPDEST DUP3 ADD SWAP2 SWAP1 PUSH0 MSTORE PUSH1 0x20 PUSH0 KECCAK256 SWAP1 JUMPDEST DUP2 SLOAD DUP2 MSTORE SWAP1 PUSH1 0x1 ADD SWAP1 PUSH1 0x20 ADD DUP1 DUP4 GT PUSH2 0x3BA JUMPI DUP3 SWAP1 SUB PUSH1 0x1F AND DUP3 ADD SWAP2 JUMPDEST POP POP POP POP POP SWAP1 DUP1 PUSH1 0x2 ADD SLOAD SWAP1 DUP1 PUSH1 0x3 ADD PUSH0 SWAP1 SLOAD SWAP1 PUSH2 0x100 EXP SWAP1 DIV PUSH1 0xFF AND SWAP1 POP DUP5 JUMP JUMPDEST PUSH0 PUSH1 0x40 MLOAD DUP1 PUSH1 0x80 ADD PUSH1 0x40 MSTORE DUP1 DUP7 DUP2 MSTORE PUSH1 0x20 ADD DUP6 DUP2 MSTORE PUSH1 0x20 ADD DUP5 DUP2 MSTORE PUSH1 0x20 ADD DUP4 ISZERO ISZERO DUP2 MSTORE POP SWAP1 DUP1 PUSH1 0x1 DUP2 SLOAD ADD DUP1 DUP3 SSTORE DUP1 SWAP2 POP POP PUSH1 0x1 SWAP1 SUB SWAP1 PUSH0 MSTORE PUSH1 0x20 PUSH0 KECCAK256 SWAP1 PUSH1 0x4 MUL ADD PUSH0 SWAP1 SWAP2 SWAP1 SWAP2 SWAP1 SWAP2 POP PUSH0 DUP3 ADD MLOAD DUP2 PUSH0 ADD SWAP1 DUP2 PUSH2 0x456 SWAP2 SWAP1 PUSH2 0xA91 JUMP JUMPDEST POP PUSH1 0x20 DUP3 ADD MLOAD DUP2 PUSH1 0x1 ADD SWAP1 DUP2 PUSH2 0x46C SWAP2 SWAP1 PUSH2 0xA91 JUMP JUMPDEST POP PUSH1 0x40 DUP3 ADD MLOAD DUP2 PUSH1 0x2 ADD SSTORE PUSH1 0x60 DUP3 ADD MLOAD DUP2 PUSH1 0x3 ADD PUSH0 PUSH2 0x100 EXP DUP2 SLOAD DUP2 PUSH1 0xFF MUL NOT AND SWAP1 DUP4 ISZERO ISZERO MUL OR SWAP1 SSTORE POP POP POP POP POP POP POP JUMP JUMPDEST PUSH0 DUP2 SWAP1 POP SWAP2 SWAP1 POP JUMP JUMPDEST PUSH2 0x4B0 DUP2 PUSH2 0x49E JUMP JUMPDEST DUP3 MSTORE POP POP JUMP JUMPDEST PUSH0 PUSH1 0x20 DUP3 ADD SWAP1 POP PUSH2 0x4C9 PUSH0 DUP4 ADD DUP5 PUSH2 0x4A7 JUMP JUMPDEST SWAP3 SWAP2 POP POP JUMP JUMPDEST PUSH0 PUSH1 0x40 MLOAD SWAP1 POP SWAP1 JUMP JUMPDEST PUSH0 DUP1 REVERT JUMPDEST PUSH0 DUP1 REVERT JUMPDEST PUSH2 0x4E9 DUP2 PUSH2 0x49E JUMP JUMPDEST DUP2 EQ PUSH2 0x4F3 JUMPI PUSH0 DUP1 REVERT JUMPDEST POP JUMP JUMPDEST PUSH0 DUP2 CALLDATALOAD SWAP1 POP PUSH2 0x504 DUP2 PUSH2 0x4E0 JUMP JUMPDEST SWAP3 SWAP2 POP POP JUMP JUMPDEST PUSH0 PUSH1 0x20 DUP3 DUP5 SUB SLT ISZERO PUSH2 0x51F JUMPI PUSH2 0x51E PUSH2 0x4D8 JUMP JUMPDEST JUMPDEST PUSH0 PUSH2 0x52C DUP5 DUP3 DUP6 ADD PUSH2 0x4F6 JUMP JUMPDEST SWAP2 POP POP SWAP3 SWAP2 POP POP JUMP JUMPDEST PUSH0 DUP2 MLOAD SWAP1 POP SWAP2 SWAP1 POP JUMP JUMPDEST PUSH0 DUP3 DUP3 MSTORE PUSH1 0x20 DUP3 ADD SWAP1 POP SWAP3 SWAP2 POP POP JUMP JUMPDEST DUP3 DUP2 DUP4 MCOPY PUSH0 DUP4 DUP4 ADD MSTORE POP POP POP JUMP JUMPDEST PUSH0 PUSH1 0x1F NOT PUSH1 0x1F DUP4 ADD AND SWAP1 POP SWAP2 SWAP1 POP JUMP JUMPDEST PUSH0 PUSH2 0x577 DUP3 PUSH2 0x535 JUMP JUMPDEST PUSH2 0x581 DUP2 DUP6 PUSH2 0x53F JUMP JUMPDEST SWAP4 POP PUSH2 0x591 DUP2 DUP6 PUSH1 0x20 DUP7 ADD PUSH2 0x54F JUMP JUMPDEST PUSH2 0x59A DUP2 PUSH2 0x55D JUMP JUMPDEST DUP5 ADD SWAP2 POP POP SWAP3 SWAP2 POP POP JUMP JUMPDEST PUSH0 DUP2 ISZERO ISZERO SWAP1 POP SWAP2 SWAP1 POP JUMP JUMPDEST PUSH2 0x5B9 DUP2 PUSH2 0x5A5 JUMP JUMPDEST DUP3 MSTORE POP POP JUMP JUMPDEST PUSH0 PUSH1 0x80 DUP3 ADD SWAP1 POP DUP2 DUP2 SUB PUSH0 DUP4 ADD MSTORE PUSH2 0x5D7 DUP2 DUP8 PUSH2 0x56D JUMP JUMPDEST SWAP1 POP DUP2 DUP2 SUB PUSH1 0x20 DUP4 ADD MSTORE PUSH2 0x5EB DUP2 DUP7 PUSH2 0x56D JUMP JUMPDEST SWAP1 POP PUSH2 0x5FA PUSH1 0x40 DUP4 ADD DUP6 PUSH2 0x4A7 JUMP JUMPDEST PUSH2 0x607 PUSH1 0x60 DUP4 ADD DUP5 PUSH2 0x5B0 JUMP JUMPDEST SWAP6 SWAP5 POP POP POP POP POP JUMP JUMPDEST PUSH0 DUP1 REVERT JUMPDEST PUSH0 DUP1 REVERT JUMPDEST PUSH32 0x4E487B7100000000000000000000000000000000000000000000000000000000 PUSH0 MSTORE PUSH1 0x41 PUSH1 0x4 MSTORE PUSH1 0x24 PUSH0 REVERT JUMPDEST PUSH2 0x64E DUP3 PUSH2 0x55D JUMP JUMPDEST DUP2 ADD DUP2 DUP2 LT PUSH8 0xFFFFFFFFFFFFFFFF DUP3 GT OR ISZERO PUSH2 0x66D JUMPI PUSH2 0x66C PUSH2 0x618 JUMP JUMPDEST JUMPDEST DUP1 PUSH1 0x40 MSTORE POP POP POP JUMP JUMPDEST PUSH0 PUSH2 0x67F PUSH2 0x4CF JUMP JUMPDEST SWAP1 POP PUSH2 0x68B DUP3 DUP3 PUSH2 0x645 JUMP JUMPDEST SWAP2 SWAP1 POP JUMP JUMPDEST PUSH0 PUSH8 0xFFFFFFFFFFFFFFFF DUP3 GT ISZERO PUSH2 0x6AA JUMPI PUSH2 0x6A9 PUSH2 0x618 JUMP JUMPDEST JUMPDEST PUSH2 0x6B3 DUP3 PUSH2 0x55D JUMP JUMPDEST SWAP1 POP PUSH1 0x20 DUP2 ADD SWAP1 POP SWAP2 SWAP1 POP JUMP JUMPDEST DUP3 DUP2 DUP4 CALLDATACOPY PUSH0 DUP4 DUP4 ADD MSTORE POP POP POP JUMP JUMPDEST PUSH0 PUSH2 0x6E0 PUSH2 0x6DB DUP5 PUSH2 0x690 JUMP JUMPDEST PUSH2 0x676 JUMP JUMPDEST SWAP1 POP DUP3 DUP2 MSTORE PUSH1 0x20 DUP2 ADD DUP5 DUP5 DUP5 ADD GT ISZERO PUSH2 0x6FC JUMPI PUSH2 0x6FB PUSH2 0x614 JUMP JUMPDEST JUMPDEST PUSH2 0x707 DUP5 DUP3 DUP6 PUSH2 0x6C0 JUMP JUMPDEST POP SWAP4 SWAP3 POP POP POP JUMP JUMPDEST PUSH0 DUP3 PUSH1 0x1F DUP4 ADD SLT PUSH2 0x723 JUMPI PUSH2 0x722 PUSH2 0x610 JUMP JUMPDEST JUMPDEST DUP2 CALLDATALOAD PUSH2 0x733 DUP5 DUP3 PUSH1 0x20 DUP7 ADD PUSH2 0x6CE JUMP JUMPDEST SWAP2 POP POP SWAP3 SWAP2 POP POP JUMP JUMPDEST PUSH2 0x745 DUP2 PUSH2 0x5A5 JUMP JUMPDEST DUP2 EQ PUSH2 0x74F JUMPI PUSH0 DUP1 REVERT JUMPDEST POP JUMP JUMPDEST PUSH0 DUP2 CALLDATALOAD SWAP1 POP PUSH2 0x760 DUP2 PUSH2 0x73C JUMP JUMPDEST SWAP3 SWAP2 POP POP JUMP JUMPDEST PUSH0 DUP1 PUSH0 DUP1 PUSH1 0x80 DUP6 DUP8 SUB SLT ISZERO PUSH2 0x77E JUMPI PUSH2 0x77D PUSH2 0x4D8 JUMP JUMPDEST JUMPDEST PUSH0 DUP6 ADD CALLDATALOAD PUSH8 0xFFFFFFFFFFFFFFFF DUP2 GT ISZERO PUSH2 0x79B JUMPI PUSH2 0x79A PUSH2 0x4DC JUMP JUMPDEST JUMPDEST PUSH2 0x7A7 DUP8 DUP3 DUP9 ADD PUSH2 0x70F JUMP JUMPDEST SWAP5 POP POP PUSH1 0x20 DUP6 ADD CALLDATALOAD PUSH8 0xFFFFFFFFFFFFFFFF DUP2 GT ISZERO PUSH2 0x7C8 JUMPI PUSH2 0x7C7 PUSH2 0x4DC JUMP JUMPDEST JUMPDEST PUSH2 0x7D4 DUP8 DUP3 DUP9 ADD PUSH2 0x70F JUMP JUMPDEST SWAP4 POP POP PUSH1 0x40 PUSH2 0x7E5 DUP8 DUP3 DUP9 ADD PUSH2 0x4F6 JUMP JUMPDEST SWAP3 POP POP PUSH1 0x60 PUSH2 0x7F6 DUP8 DUP3 DUP9 ADD PUSH2 0x752 JUMP JUMPDEST SWAP2 POP POP SWAP3 SWAP6 SWAP2 SWAP5 POP SWAP3 POP JUMP JUMPDEST PUSH32 0x496E646578206F7574206F662072616E67650000000000000000000000000000 PUSH0 DUP3 ADD MSTORE POP JUMP JUMPDEST PUSH0 PUSH2 0x836 PUSH1 0x12 DUP4 PUSH2 0x53F JUMP JUMPDEST SWAP2 POP PUSH2 0x841 DUP3 PUSH2 0x802 JUMP JUMPDEST PUSH1 0x20 DUP3 ADD SWAP1 POP SWAP2 SWAP1 POP JUMP JUMPDEST PUSH0 PUSH1 0x20 DUP3 ADD SWAP1 POP DUP2 DUP2 SUB PUSH0 DUP4 ADD MSTORE PUSH2 0x863 DUP2 PUSH2 0x82A JUMP JUMPDEST SWAP1 POP SWAP2 SWAP1 POP JUMP JUMPDEST PUSH32 0x4E487B7100000000000000000000000000000000000000000000000000000000 PUSH0 MSTORE PUSH1 0x32 PUSH1 0x4 MSTORE PUSH1 0x24 PUSH0 REVERT JUMPDEST PUSH32 0x4E487B7100000000000000000000000000000000000000000000000000000000 PUSH0 MSTORE PUSH1 0x22 PUSH1 0x4 MSTORE PUSH1 0x24 PUSH0 REVERT JUMPDEST PUSH0 PUSH1 0x2 DUP3 DIV SWAP1 POP PUSH1 0x1 DUP3 AND DUP1 PUSH2 0x8DB JUMPI PUSH1 0x7F DUP3 AND SWAP2 POP JUMPDEST PUSH1 0x20 DUP3 LT DUP2 SUB PUSH2 0x8EE JUMPI PUSH2 0x8ED PUSH2 0x897 JUMP JUMPDEST JUMPDEST POP SWAP2 SWAP1 POP JUMP JUMPDEST PUSH0 DUP2 SWAP1 POP DUP2 PUSH0 MSTORE PUSH1 0x20 PUSH0 KECCAK256 SWAP1 POP SWAP2 SWAP1 POP JUMP JUMPDEST PUSH0 PUSH1 0x20 PUSH1 0x1F DUP4 ADD DIV SWAP1 POP SWAP2 SWAP1 POP JUMP JUMPDEST PUSH0 DUP3 DUP3 SHL SWAP1 POP SWAP3 SWAP2 POP POP JUMP JUMPDEST PUSH0 PUSH1 0x8 DUP4 MUL PUSH2 0x950 PUSH32 0xFFFFFFFFFFFFFFFFFFFFFFFFFFFFFFFFFFFFFFFFFFFFFFFFFFFFFFFFFFFFFFFF DUP3 PUSH2 0x915 JUMP JUMPDEST PUSH2 0x95A DUP7 DUP4 PUSH2 0x915 JUMP JUMPDEST SWAP6 POP DUP1 NOT DUP5 AND SWAP4 POP DUP1 DUP7 AND DUP5 OR SWAP3 POP POP POP SWAP4 SWAP3 POP POP POP JUMP JUMPDEST PUSH0 DUP2 SWAP1 POP SWAP2 SWAP1 POP JUMP JUMPDEST PUSH0 PUSH2 0x995 PUSH2 0x990 PUSH2 0x98B DUP5 PUSH2 0x49E JUMP JUMPDEST PUSH2 0x972 JUMP JUMPDEST PUSH2 0x49E JUMP JUMPDEST SWAP1 POP SWAP2 SWAP1 POP JUMP JUMPDEST PUSH0 DUP2 SWAP1 POP SWAP2 SWAP1 POP JUMP JUMPDEST PUSH2 0x9AE DUP4 PUSH2 0x97B JUMP JUMPDEST PUSH2 0x9C2 PUSH2 0x9BA DUP3 PUSH2 0x99C JUMP JUMPDEST DUP5 DUP5 SLOAD PUSH2 0x921 JUMP JUMPDEST DUP3 SSTORE POP POP POP POP JUMP JUMPDEST PUSH0 SWAP1 JUMP JUMPDEST PUSH2 0x9D6 PUSH2 0x9CA JUMP JUMPDEST PUSH2 0x9E1 DUP2 DUP5 DUP5 PUSH2 0x9A5 JUMP JUMPDEST POP POP POP JUMP JUMPDEST JUMPDEST DUP2 DUP2 LT ISZERO PUSH2 0xA04 JUMPI PUSH2 0x9F9 PUSH0 DUP3 PUSH2 0x9CE JUMP JUMPDEST PUSH1 0x1 DUP2 ADD SWAP1 POP PUSH2 0x9E7 JUMP JUMPDEST POP POP JUMP JUMPDEST PUSH1 0x1F DUP3 GT ISZERO PUSH2 0xA49 JUMPI PUSH2 0xA1A DUP2 PUSH2 0x8F4 JUMP JUMPDEST PUSH2 0xA23 DUP5 PUSH2 0x906 JUMP JUMPDEST DUP2 ADD PUSH1 0x20 DUP6 LT ISZERO PUSH2 0xA32 JUMPI DUP2 SWAP1 POP JUMPDEST PUSH2 0xA46 PUSH2 0xA3E DUP6 PUSH2 0x906 JUMP JUMPDEST DUP4 ADD DUP3 PUSH2 0x9E6 JUMP JUMPDEST POP POP JUMPDEST POP POP POP JUMP JUMPDEST PUSH0 DUP3 DUP3 SHR SWAP1 POP SWAP3 SWAP2 POP POP JUMP JUMPDEST PUSH0 PUSH2 0xA69 PUSH0 NOT DUP5 PUSH1 0x8 MUL PUSH2 0xA4E JUMP JUMPDEST NOT DUP1 DUP4 AND SWAP2 POP POP SWAP3 SWAP2 POP POP JUMP JUMPDEST PUSH0 PUSH2 0xA81 DUP4 DUP4 PUSH2 0xA5A JUMP JUMPDEST SWAP2 POP DUP3 PUSH1 0x2 MUL DUP3 OR SWAP1 POP SWAP3 SWAP2 POP POP JUMP JUMPDEST PUSH2 0xA9A DUP3 PUSH2 0x535 JUMP JUMPDEST PUSH8 0xFFFFFFFFFFFFFFFF DUP2 GT ISZERO PUSH2 0xAB3 JUMPI PUSH2 0xAB2 PUSH2 0x618 JUMP JUMPDEST JUMPDEST PUSH2 0xABD DUP3 SLOAD PUSH2 0x8C4 JUMP JUMPDEST PUSH2 0xAC8 DUP3 DUP3 DUP6 PUSH2 0xA08 JUMP JUMPDEST PUSH0 PUSH1 0x20 SWAP1 POP PUSH1 0x1F DUP4 GT PUSH1 0x1 DUP2 EQ PUSH2 0xAF9 JUMPI PUSH0 DUP5 ISZERO PUSH2 0xAE7 JUMPI DUP3 DUP8 ADD MLOAD SWAP1 POP JUMPDEST PUSH2 0xAF1 DUP6 DUP3 PUSH2 0xA76 JUMP JUMPDEST DUP7 SSTORE POP PUSH2 0xB58 JUMP JUMPDEST PUSH1 0x1F NOT DUP5 AND PUSH2 0xB07 DUP7 PUSH2 0x8F4 JUMP JUMPDEST PUSH0 JUMPDEST DUP3 DUP2 LT ISZERO PUSH2 0xB2E JUMPI DUP5 DUP10 ADD MLOAD DUP3 SSTORE PUSH1 0x1 DUP3 ADD SWAP2 POP PUSH1 0x20 DUP6 ADD SWAP5 POP PUSH1 0x20 DUP2 ADD SWAP1 POP PUSH2 0xB09 JUMP JUMPDEST DUP7 DUP4 LT ISZERO PUSH2 0xB4B JUMPI DUP5 DUP10 ADD MLOAD PUSH2 0xB47 PUSH1 0x1F DUP10 AND DUP3 PUSH2 0xA5A JUMP JUMPDEST DUP4 SSTORE POP JUMPDEST PUSH1 0x1 PUSH1 0x2 DUP9 MUL ADD DUP9 SSTORE POP POP POP JUMPDEST POP POP POP POP POP POP JUMP INVALID LOG2 PUSH5 0x6970667358 0x22 SLT KECCAK256 BALANCE PUSH15 0xC7C4E5B2F3A1DACA38C0DD66E1374F DIV 0x2B 0xBB 0xBF 0xEA ADDRESS 0xC1 PC STATICCALL LOG1 DUP16 0xF6 ADDMOD 0xD5 0x1F PUSH5 0x736F6C6343 STOP ADDMOD BYTE STOP CALLER "
				},
				"gasEstimates": {
					"creation": {
						"codeDepositCost": "593200",
						"executionCost": "623",
						"totalCost": "593823"
					},
					"external": {
						"buku3(uint256)": "infinite",
						"cekbuku3(uint256)": "infinite",
						"getTotalBooks()": "2418",
						"newBook(string,string,uint256,bool)": "infinite"
					}
				},
				"methodIdentifiers": {
					"buku3(uint256)": "ea625179",
					"cekbuku3(uint256)": "e7bf2ba7",
					"getTotalBooks()": "68931b21",
					"newBook(string,string,uint256,bool)": "f5974f83"
				}
			},
			"storageLayout": {
				"storage": [
					{
						"astId": 14,
						"contract": "contracts/struct-bygpt.sol:BookContract",
						"label": "buku3",
						"offset": 0,
						"slot": "0",
						"type": "t_array(t_struct(Buku)10_storage)dyn_storage"
					}
				],
				"types": {
					"t_array(t_struct(Buku)10_storage)dyn_storage": {
						"base": "t_struct(Buku)10_storage",
						"encoding": "dynamic_array",
						"label": "struct BookContract.Buku[]",
						"numberOfBytes": "32"
					},
					"t_bool": {
						"encoding": "inplace",
						"label": "bool",
						"numberOfBytes": "1"
					},
					"t_string_storage": {
						"encoding": "bytes",
						"label": "string",
						"numberOfBytes": "32"
					},
					"t_struct(Buku)10_storage": {
						"encoding": "inplace",
						"label": "struct BookContract.Buku",
						"members": [
							{
								"astId": 3,
								"contract": "contracts/struct-bygpt.sol:BookContract",
								"label": "title",
								"offset": 0,
								"slot": "0",
								"type": "t_string_storage"
							},
							{
								"astId": 5,
								"contract": "contracts/struct-bygpt.sol:BookContract",
								"label": "author",
								"offset": 0,
								"slot": "1",
								"type": "t_string_storage"
							},
							{
								"astId": 7,
								"contract": "contracts/struct-bygpt.sol:BookContract",
								"label": "id",
								"offset": 0,
								"slot": "2",
								"type": "t_uint256"
							},
							{
								"astId": 9,
								"contract": "contracts/struct-bygpt.sol:BookContract",
								"label": "isReady",
								"offset": 0,
								"slot": "3",
								"type": "t_bool"
							}
						],
						"numberOfBytes": "128"
					},
					"t_uint256": {
						"encoding": "inplace",
						"label": "uint256",
						"numberOfBytes": "32"
					}
				}
			},
			"userdoc": {
				"kind": "user",
				"methods": {},
				"version": 1
			}
		}
	}
}