{
	"contracts/AddressContract.sol": {
		"Transaksi": {
			"abi": [
				{
					"inputs": [],
					"name": "getReceivedAmount",
					"outputs": [
						{
							"internalType": "uint256",
							"name": "",
							"type": "uint256"
						}
					],
					"stateMutability": "view",
					"type": "function"
				},
				{
					"inputs": [],
					"name": "receiveEther",
					"outputs": [],
					"stateMutability": "payable",
					"type": "function"
				},
				{
					"inputs": [
						{
							"internalType": "address payable",
							"name": "_address",
							"type": "address"
						},
						{
							"internalType": "uint256",
							"name": "nominal",
							"type": "uint256"
						}
					],
					"name": "sendFund",
					"outputs": [
						{
							"internalType": "bool",
							"name": "",
							"type": "bool"
						}
					],
					"stateMutability": "nonpayable",
					"type": "function"
				},
				{
					"inputs": [
						{
							"internalType": "address payable",
							"name": "_address",
							"type": "address"
						},
						{
							"internalType": "uint256",
							"name": "nominal",
							"type": "uint256"
						}
					],
					"name": "transferFund",
					"outputs": [],
					"stateMutability": "nonpayable",
					"type": "function"
				}
			],
			"devdoc": {
				"kind": "dev",
				"methods": {},
				"version": 1
			},
			"evm": {
				"assembly": "    /* \"contracts/AddressContract.sol\":656:1312  contract Transaksi {... */\n  mstore(0x40, 0x80)\n  callvalue\n  dup1\n  iszero\n  tag_1\n  jumpi\n  0x00\n  dup1\n  revert\ntag_1:\n  pop\n  dataSize(sub_0)\n  dup1\n  dataOffset(sub_0)\n  0x00\n  codecopy\n  0x00\n  return\nstop\n\nsub_0: assembly {\n        /* \"contracts/AddressContract.sol\":656:1312  contract Transaksi {... */\n      mstore(0x40, 0x80)\n      jumpi(tag_1, lt(calldatasize, 0x04))\n      shr(0xe0, calldataload(0x00))\n      dup1\n      0x4b569450\n      eq\n      tag_2\n      jumpi\n      dup1\n      0xa3912ec8\n      eq\n      tag_3\n      jumpi\n      dup1\n      0xdba3f076\n      eq\n      tag_4\n      jumpi\n      dup1\n      0xe2dc35e0\n      eq\n      tag_5\n      jumpi\n    tag_1:\n      0x00\n      dup1\n      revert\n        /* \"contracts/AddressContract.sol\":1187:1304  function sendFund(address payable _address, uint nominal) public returns(bool){... */\n    tag_2:\n      callvalue\n      dup1\n      iszero\n      tag_6\n      jumpi\n      0x00\n      dup1\n      revert\n    tag_6:\n      pop\n      tag_7\n      0x04\n      dup1\n      calldatasize\n      sub\n      0x40\n      dup2\n      lt\n      iszero\n      tag_8\n      jumpi\n      0x00\n      dup1\n      revert\n    tag_8:\n      dup2\n      add\n      swap1\n      dup1\n      dup1\n      calldataload\n      0xffffffffffffffffffffffffffffffffffffffff\n      and\n      swap1\n      0x20\n      add\n      swap1\n      swap3\n      swap2\n      swap1\n      dup1\n      calldataload\n      swap1\n      0x20\n      add\n      swap1\n      swap3\n      swap2\n      swap1\n      pop\n      pop\n      pop\n      tag_9\n      jump\t// in\n    tag_7:\n      mload(0x40)\n      dup1\n      dup3\n      iszero\n      iszero\n      dup2\n      mstore\n      0x20\n      add\n      swap2\n      pop\n      pop\n      mload(0x40)\n      dup1\n      swap2\n      sub\n      swap1\n      return\n        /* \"contracts/AddressContract.sol\":768:850  function receiveEther() payable public {... */\n    tag_3:\n      tag_10\n      tag_11\n      jump\t// in\n    tag_10:\n      stop\n        /* \"contracts/AddressContract.sol\":896:990  function getReceivedAmount() public view returns (uint) {... */\n    tag_4:\n      callvalue\n      dup1\n      iszero\n      tag_12\n      jumpi\n      0x00\n      dup1\n      revert\n    tag_12:\n      pop\n      tag_13\n      tag_14\n      jump\t// in\n    tag_13:\n      mload(0x40)\n      dup1\n      dup3\n      dup2\n      mstore\n      0x20\n      add\n      swap2\n      pop\n      pop\n      mload(0x40)\n      dup1\n      swap2\n      sub\n      swap1\n      return\n        /* \"contracts/AddressContract.sol\":1035:1147  function transferFund(address payable _address, uint nominal) public {... */\n    tag_5:\n      callvalue\n      dup1\n      iszero\n      tag_15\n      jumpi\n      0x00\n      dup1\n      revert\n    tag_15:\n      pop\n      tag_16\n      0x04\n      dup1\n      calldatasize\n      sub\n      0x40\n      dup2\n      lt\n      iszero\n      tag_17\n      jumpi\n      0x00\n      dup1\n      revert\n    tag_17:\n      dup2\n      add\n      swap1\n      dup1\n      dup1\n      calldataload\n      0xffffffffffffffffffffffffffffffffffffffff\n      and\n      swap1\n      0x20\n      add\n      swap1\n      swap3\n      swap2\n      swap1\n      dup1\n      calldataload\n      swap1\n      0x20\n      add\n      swap1\n      swap3\n      swap2\n      swap1\n      pop\n      pop\n      pop\n      tag_18\n      jump\t// in\n    tag_16:\n      stop\n        /* \"contracts/AddressContract.sol\":1187:1304  function sendFund(address payable _address, uint nominal) public returns(bool){... */\n    tag_9:\n        /* \"contracts/AddressContract.sol\":1260:1264  bool */\n      0x00\n        /* \"contracts/AddressContract.sol\":1275:1283  _address */\n      dup3\n        /* \"contracts/AddressContract.sol\":1275:1288  _address.send */\n      0xffffffffffffffffffffffffffffffffffffffff\n      and\n        /* \"contracts/AddressContract.sol\":1275:1297  _address.send(nominal) */\n      0x08fc\n        /* \"contracts/AddressContract.sol\":1289:1296  nominal */\n      dup4\n        /* \"contracts/AddressContract.sol\":1275:1297  _address.send(nominal) */\n      swap1\n      dup2\n      iszero\n      mul\n      swap1\n      mload(0x40)\n      0x00\n      mload(0x40)\n      dup1\n      dup4\n      sub\n      dup2\n      dup6\n      dup9\n      dup9\n      call\n      swap4\n      pop\n      pop\n      pop\n      pop\n      pop\n        /* \"contracts/AddressContract.sol\":1187:1304  function sendFund(address payable _address, uint nominal) public returns(bool){... */\n      swap3\n      swap2\n      pop\n      pop\n      jump\t// out\n        /* \"contracts/AddressContract.sol\":768:850  function receiveEther() payable public {... */\n    tag_11:\n        /* \"contracts/AddressContract.sol\":834:843  msg.value */\n      callvalue\n        /* \"contracts/AddressContract.sol\":817:831  receivedAmount */\n      0x00\n        /* \"contracts/AddressContract.sol\":817:843  receivedAmount = msg.value */\n      dup2\n      swap1\n      sstore\n      pop\n        /* \"contracts/AddressContract.sol\":768:850  function receiveEther() payable public {... */\n      jump\t// out\n        /* \"contracts/AddressContract.sol\":896:990  function getReceivedAmount() public view returns (uint) {... */\n    tag_14:\n        /* \"contracts/AddressContract.sol\":946:950  uint */\n      0x00\n        /* \"contracts/AddressContract.sol\":969:983  receivedAmount */\n      dup1\n      sload\n        /* \"contracts/AddressContract.sol\":962:983  return receivedAmount */\n      swap1\n      pop\n        /* \"contracts/AddressContract.sol\":896:990  function getReceivedAmount() public view returns (uint) {... */\n      swap1\n      jump\t// out\n        /* \"contracts/AddressContract.sol\":1035:1147  function transferFund(address payable _address, uint nominal) public {... */\n    tag_18:\n        /* \"contracts/AddressContract.sol\":1114:1122  _address */\n      dup2\n        /* \"contracts/AddressContract.sol\":1114:1131  _address.transfer */\n      0xffffffffffffffffffffffffffffffffffffffff\n      and\n        /* \"contracts/AddressContract.sol\":1114:1140  _address.transfer(nominal) */\n      0x08fc\n        /* \"contracts/AddressContract.sol\":1132:1139  nominal */\n      dup3\n        /* \"contracts/AddressContract.sol\":1114:1140  _address.transfer(nominal) */\n      swap1\n      dup2\n      iszero\n      mul\n      swap1\n      mload(0x40)\n      0x00\n      mload(0x40)\n      dup1\n      dup4\n      sub\n      dup2\n      dup6\n      dup9\n      dup9\n      call\n      swap4\n      pop\n      pop\n      pop\n      pop\n      iszero\n      dup1\n      iszero\n      tag_25\n      jumpi\n      returndatasize\n      0x00\n      dup1\n      returndatacopy\n      revert(0x00, returndatasize)\n    tag_25:\n      pop\n        /* \"contracts/AddressContract.sol\":1035:1147  function transferFund(address payable _address, uint nominal) public {... */\n      pop\n      pop\n      jump\t// out\n\n    auxdata: 0xa2646970667358221220fd9b061adba751bb36b8cb97eee09878bb3e95aef11b17719032132d7a80ae0464736f6c63430007060033\n}\n",
				"bytecode": {
					"linkReferences": {},
					"object": "608060405234801561001057600080fd5b50610216806100206000396000f3fe60806040526004361061003f5760003560e01c80634b56945014610044578063a3912ec8146100b5578063dba3f076146100bf578063e2dc35e0146100ea575b600080fd5b34801561005057600080fd5b5061009d6004803603604081101561006757600080fd5b81019080803573ffffffffffffffffffffffffffffffffffffffff16906020019092919080359060200190929190505050610145565b60405180821515815260200191505060405180910390f35b6100bd610183565b005b3480156100cb57600080fd5b506100d461018c565b6040518082815260200191505060405180910390f35b3480156100f657600080fd5b506101436004803603604081101561010d57600080fd5b81019080803573ffffffffffffffffffffffffffffffffffffffff16906020019092919080359060200190929190505050610195565b005b60008273ffffffffffffffffffffffffffffffffffffffff166108fc839081150290604051600060405180830381858888f193505050505092915050565b34600081905550565b60008054905090565b8173ffffffffffffffffffffffffffffffffffffffff166108fc829081150290604051600060405180830381858888f193505050501580156101db573d6000803e3d6000fd5b50505056fea2646970667358221220fd9b061adba751bb36b8cb97eee09878bb3e95aef11b17719032132d7a80ae0464736f6c63430007060033",
					"opcodes": "PUSH1 0x80 PUSH1 0x40 MSTORE CALLVALUE DUP1 ISZERO PUSH2 0x10 JUMPI PUSH1 0x0 DUP1 REVERT JUMPDEST POP PUSH2 0x216 DUP1 PUSH2 0x20 PUSH1 0x0 CODECOPY PUSH1 0x0 RETURN INVALID PUSH1 0x80 PUSH1 0x40 MSTORE PUSH1 0x4 CALLDATASIZE LT PUSH2 0x3F JUMPI PUSH1 0x0 CALLDATALOAD PUSH1 0xE0 SHR DUP1 PUSH4 0x4B569450 EQ PUSH2 0x44 JUMPI DUP1 PUSH4 0xA3912EC8 EQ PUSH2 0xB5 JUMPI DUP1 PUSH4 0xDBA3F076 EQ PUSH2 0xBF JUMPI DUP1 PUSH4 0xE2DC35E0 EQ PUSH2 0xEA JUMPI JUMPDEST PUSH1 0x0 DUP1 REVERT JUMPDEST CALLVALUE DUP1 ISZERO PUSH2 0x50 JUMPI PUSH1 0x0 DUP1 REVERT JUMPDEST POP PUSH2 0x9D PUSH1 0x4 DUP1 CALLDATASIZE SUB PUSH1 0x40 DUP2 LT ISZERO PUSH2 0x67 JUMPI PUSH1 0x0 DUP1 REVERT JUMPDEST DUP2 ADD SWAP1 DUP1 DUP1 CALLDATALOAD PUSH20 0xFFFFFFFFFFFFFFFFFFFFFFFFFFFFFFFFFFFFFFFF AND SWAP1 PUSH1 0x20 ADD SWAP1 SWAP3 SWAP2 SWAP1 DUP1 CALLDATALOAD SWAP1 PUSH1 0x20 ADD SWAP1 SWAP3 SWAP2 SWAP1 POP POP POP PUSH2 0x145 JUMP JUMPDEST PUSH1 0x40 MLOAD DUP1 DUP3 ISZERO ISZERO DUP2 MSTORE PUSH1 0x20 ADD SWAP2 POP POP PUSH1 0x40 MLOAD DUP1 SWAP2 SUB SWAP1 RETURN JUMPDEST PUSH2 0xBD PUSH2 0x183 JUMP JUMPDEST STOP JUMPDEST CALLVALUE DUP1 ISZERO PUSH2 0xCB JUMPI PUSH1 0x0 DUP1 REVERT JUMPDEST POP PUSH2 0xD4 PUSH2 0x18C JUMP JUMPDEST PUSH1 0x40 MLOAD DUP1 DUP3 DUP2 MSTORE PUSH1 0x20 ADD SWAP2 POP POP PUSH1 0x40 MLOAD DUP1 SWAP2 SUB SWAP1 RETURN JUMPDEST CALLVALUE DUP1 ISZERO PUSH2 0xF6 JUMPI PUSH1 0x0 DUP1 REVERT JUMPDEST POP PUSH2 0x143 PUSH1 0x4 DUP1 CALLDATASIZE SUB PUSH1 0x40 DUP2 LT ISZERO PUSH2 0x10D JUMPI PUSH1 0x0 DUP1 REVERT JUMPDEST DUP2 ADD SWAP1 DUP1 DUP1 CALLDATALOAD PUSH20 0xFFFFFFFFFFFFFFFFFFFFFFFFFFFFFFFFFFFFFFFF AND SWAP1 PUSH1 0x20 ADD SWAP1 SWAP3 SWAP2 SWAP1 DUP1 CALLDATALOAD SWAP1 PUSH1 0x20 ADD SWAP1 SWAP3 SWAP2 SWAP1 POP POP POP PUSH2 0x195 JUMP JUMPDEST STOP JUMPDEST PUSH1 0x0 DUP3 PUSH20 0xFFFFFFFFFFFFFFFFFFFFFFFFFFFFFFFFFFFFFFFF AND PUSH2 0x8FC DUP4 SWAP1 DUP2 ISZERO MUL SWAP1 PUSH1 0x40 MLOAD PUSH1 0x0 PUSH1 0x40 MLOAD DUP1 DUP4 SUB DUP2 DUP6 DUP9 DUP9 CALL SWAP4 POP POP POP POP POP SWAP3 SWAP2 POP POP JUMP JUMPDEST CALLVALUE PUSH1 0x0 DUP2 SWAP1 SSTORE POP JUMP JUMPDEST PUSH1 0x0 DUP1 SLOAD SWAP1 POP SWAP1 JUMP JUMPDEST DUP2 PUSH20 0xFFFFFFFFFFFFFFFFFFFFFFFFFFFFFFFFFFFFFFFF AND PUSH2 0x8FC DUP3 SWAP1 DUP2 ISZERO MUL SWAP1 PUSH1 0x40 MLOAD PUSH1 0x0 PUSH1 0x40 MLOAD DUP1 DUP4 SUB DUP2 DUP6 DUP9 DUP9 CALL SWAP4 POP POP POP POP ISZERO DUP1 ISZERO PUSH2 0x1DB JUMPI RETURNDATASIZE PUSH1 0x0 DUP1 RETURNDATACOPY RETURNDATASIZE PUSH1 0x0 REVERT JUMPDEST POP POP POP JUMP INVALID LOG2 PUSH5 0x6970667358 0x22 SLT KECCAK256 REVERT SWAP12 MOD BYTE 0xDB 0xA7 MLOAD 0xBB CALLDATASIZE 0xB8 0xCB SWAP8 0xEE 0xE0 SWAP9 PUSH25 0xBB3E95AEF11B17719032132D7A80AE0464736F6C6343000706 STOP CALLER "
				},
				"gasEstimates": {
					"creation": {
						"codeDepositCost": "106800",
						"executionCost": "153",
						"totalCost": "106953"
					},
					"external": {
						"getReceivedAmount()": "1035",
						"receiveEther()": "20133",
						"sendFund(address,uint256)": "infinite",
						"transferFund(address,uint256)": "infinite"
					}
				},
				"methodIdentifiers": {
					"getReceivedAmount()": "dba3f076",
					"receiveEther()": "a3912ec8",
					"sendFund(address,uint256)": "4b569450",
					"transferFund(address,uint256)": "e2dc35e0"
				}
			},
			"storageLayout": {
				"storage": [
					{
						"astId": 47,
						"contract": "contracts/AddressContract.sol:Transaksi",
						"label": "receivedAmount",
						"offset": 0,
						"slot": "0",
						"type": "t_uint256"
					}
				],
				"types": {
					"t_uint256": {
						"encoding": "inplace",
						"label": "uint256",
						"numberOfBytes": "32"
					}
				}
			},
			"userdoc": {
				"kind": "user",
				"methods": {},
				"version": 1
			}
		}
	}
}