{
	"data": {
		"bytecode": {
			"linkReferences": {},
			"object": "6080604052348015600e575f80fd5b5060ff8061001b5f395ff3fe608060405260043610602f575f3560e01c80636f9fb98a146033578063a3912ec8146058578063dba3f076146060575b5f80fd5b348015603d575f80fd5b5060446085565b604051604f919060b2565b60405180910390f35b605e608c565b005b348015606a575f80fd5b5060716094565b604051607c919060b2565b60405180910390f35b5f47905090565b345f81905550565b5f8054905090565b5f819050919050565b60ac81609c565b82525050565b5f60208201905060c35f83018460a5565b9291505056fea26469706673582212207aa1d87f2f3e8c5721a7e0c2a113ccc344694980129d463cfa0d891b9ccc51af64736f6c634300081a0033",
			"opcodes": "PUSH1 0x80 PUSH1 0x40 MSTORE CALLVALUE DUP1 ISZERO PUSH1 0xE JUMPI PUSH0 DUP1 REVERT JUMPDEST POP PUSH1 0xFF DUP1 PUSH2 0x1B PUSH0 CODECOPY PUSH0 RETURN INVALID PUSH1 0x80 PUSH1 0x40 MSTORE PUSH1 0x4 CALLDATASIZE LT PUSH1 0x2F JUMPI PUSH0 CALLDATALOAD PUSH1 0xE0 SHR DUP1 PUSH4 0x6F9FB98A EQ PUSH1 0x33 JUMPI DUP1 PUSH4 0xA3912EC8 EQ PUSH1 0x58 JUMPI DUP1 PUSH4 0xDBA3F076 EQ PUSH1 0x60 JUMPI JUMPDEST PUSH0 DUP1 REVERT JUMPDEST CALLVALUE DUP1 ISZERO PUSH1 0x3D JUMPI PUSH0 DUP1 REVERT JUMPDEST POP PUSH1 0x44 PUSH1 0x85 JUMP JUMPDEST PUSH1 0x40 MLOAD PUSH1 0x4F SWAP2 SWAP1 PUSH1 0xB2 JUMP JUMPDEST PUSH1 0x40 MLOAD DUP1 SWAP2 SUB SWAP1 RETURN JUMPDEST PUSH1 0x5E PUSH1 0x8C JUMP JUMPDEST STOP JUMPDEST CALLVALUE DUP1 ISZERO PUSH1 0x6A JUMPI PUSH0 DUP1 REVERT JUMPDEST POP PUSH1 0x71 PUSH1 0x94 JUMP JUMPDEST PUSH1 0x40 MLOAD PUSH1 0x7C SWAP2 SWAP1 PUSH1 0xB2 JUMP JUMPDEST PUSH1 0x40 MLOAD DUP1 SWAP2 SUB SWAP1 RETURN JUMPDEST PUSH0 SELFBALANCE SWAP1 POP SWAP1 JUMP JUMPDEST CALLVALUE PUSH0 DUP2 SWAP1 SSTORE POP JUMP JUMPDEST PUSH0 DUP1 SLOAD SWAP1 POP SWAP1 JUMP JUMPDEST PUSH0 DUP2 SWAP1 POP SWAP2 SWAP1 POP JUMP JUMPDEST PUSH1 0xAC DUP2 PUSH1 0x9C JUMP JUMPDEST DUP3 MSTORE POP POP JUMP JUMPDEST PUSH0 PUSH1 0x20 DUP3 ADD SWAP1 POP PUSH1 0xC3 PUSH0 DUP4 ADD DUP5 PUSH1 0xA5 JUMP JUMPDEST SWAP3 SWAP2 POP POP JUMP INVALID LOG2 PUSH5 0x6970667358 0x22 SLT KECCAK256 PUSH27 0xA1D87F2F3E8C5721A7E0C2A113CCC344694980129D463CFA0D891B SWAP13 0xCC MLOAD 0xAF PUSH5 0x736F6C6343 STOP ADDMOD BYTE STOP CALLER "
		},
		"gasEstimates": {
			"creation": {
				"codeDepositCost": "51000",
				"executionCost": "97",
				"totalCost": "51097"
			},
			"external": {
				"getContractBalance()": "312",
				"getReceivedAmount()": "2454",
				"receiveEther()": "22231"
			}
		},
		"methodIdentifiers": {
			"getContractBalance()": "6f9fb98a",
			"getReceivedAmount()": "dba3f076",
			"receiveEther()": "a3912ec8"
		}
	},
	"abi": [
		{
			"inputs": [],
			"name": "getContractBalance",
			"outputs": [
				{
					"internalType": "uint256",
					"name": "",
					"type": "uint256"
				}
			],
			"stateMutability": "view",
			"type": "function"
		},
		{
			"inputs": [],
			"name": "getReceivedAmount",
			"outputs": [
				{
					"internalType": "uint256",
					"name": "",
					"type": "uint256"
				}
			],
			"stateMutability": "view",
			"type": "function"
		},
		{
			"inputs": [],
			"name": "receiveEther",
			"outputs": [],
			"stateMutability": "payable",
			"type": "function"
		}
	]
}