{
	"data": {
		"bytecode": {
			"linkReferences": {},
			"object": "6080604052348015600f57600080fd5b50609d8061001e6000396000f3fe6080604052348015600f57600080fd5b506004361060285760003560e01c806346b3353b14602d575b600080fd5b6033605f565b604051808273ffffffffffffffffffffffffffffffffffffffff16815260200191505060405180910390f35b60003390509056fea2646970667358221220ccf5185184314235112c5977f52935d0de1f9b5212e6046bbbf9ab29749dc92a64736f6c63430007060033",
			"opcodes": "PUSH1 0x80 PUSH1 0x40 MSTORE CALLVALUE DUP1 ISZERO PUSH1 0xF JUMPI PUSH1 0x0 DUP1 REVERT JUMPDEST POP PUSH1 0x9D DUP1 PUSH2 0x1E PUSH1 0x0 CODECOPY PUSH1 0x0 RETURN INVALID PUSH1 0x80 PUSH1 0x40 MSTORE CALLVALUE DUP1 ISZERO PUSH1 0xF JUMPI PUSH1 0x0 DUP1 REVERT JUMPDEST POP PUSH1 0x4 CALLDATASIZE LT PUSH1 0x28 JUMPI PUSH1 0x0 CALLDATALOAD PUSH1 0xE0 SHR DUP1 PUSH4 0x46B3353B EQ PUSH1 0x2D JUMPI JUMPDEST PUSH1 0x0 DUP1 REVERT JUMPDEST PUSH1 0x33 PUSH1 0x5F JUMP JUMPDEST PUSH1 0x40 MLOAD DUP1 DUP3 PUSH20 0xFFFFFFFFFFFFFFFFFFFFFFFFFFFFFFFFFFFFFFFF AND DUP2 MSTORE PUSH1 0x20 ADD SWAP2 POP POP PUSH1 0x40 MLOAD DUP1 SWAP2 SUB SWAP1 RETURN JUMPDEST PUSH1 0x0 CALLER SWAP1 POP SWAP1 JUMP INVALID LOG2 PUSH5 0x6970667358 0x22 SLT KECCAK256 0xCC CREATE2 XOR MLOAD DUP5 BALANCE TIMESTAMP CALLDATALOAD GT 0x2C MSIZE PUSH24 0xF52935D0DE1F9B5212E6046BBBF9AB29749DC92A64736F6C PUSH4 0x43000706 STOP CALLER "
		},
		"gasEstimates": {
			"creation": {
				"codeDepositCost": "31400",
				"executionCost": "81",
				"totalCost": "31481"
			},
			"external": {
				"getCallerAddress()": "196"
			}
		},
		"methodIdentifiers": {
			"getCallerAddress()": "46b3353b"
		}
	},
	"abi": [
		{
			"inputs": [],
			"name": "getCallerAddress",
			"outputs": [
				{
					"internalType": "address",
					"name": "caller",
					"type": "address"
				}
			],
			"stateMutability": "view",
			"type": "function"
		}
	]
}