{
	"data": {
		"bytecode": {
			"linkReferences": {},
			"object": "6080604052348015600f57600080fd5b50609d8061001e6000396000f3fe6080604052348015600f57600080fd5b506004361060285760003560e01c806346b3353b14602d575b600080fd5b6033605f565b604051808273ffffffffffffffffffffffffffffffffffffffff16815260200191505060405180910390f35b60003390509056fea26469706673582212205e1eaaa4bb1c91cf754d7ad479a6ce7d2a07acae05436a729faf13c76cf5dfc964736f6c63430007060033",
			"opcodes": "PUSH1 0x80 PUSH1 0x40 MSTORE CALLVALUE DUP1 ISZERO PUSH1 0xF JUMPI PUSH1 0x0 DUP1 REVERT JUMPDEST POP PUSH1 0x9D DUP1 PUSH2 0x1E PUSH1 0x0 CODECOPY PUSH1 0x0 RETURN INVALID PUSH1 0x80 PUSH1 0x40 MSTORE CALLVALUE DUP1 ISZERO PUSH1 0xF JUMPI PUSH1 0x0 DUP1 REVERT JUMPDEST POP PUSH1 0x4 CALLDATASIZE LT PUSH1 0x28 JUMPI PUSH1 0x0 CALLDATALOAD PUSH1 0xE0 SHR DUP1 PUSH4 0x46B3353B EQ PUSH1 0x2D JUMPI JUMPDEST PUSH1 0x0 DUP1 REVERT JUMPDEST PUSH1 0x33 PUSH1 0x5F JUMP JUMPDEST PUSH1 0x40 MLOAD DUP1 DUP3 PUSH20 0xFFFFFFFFFFFFFFFFFFFFFFFFFFFFFFFFFFFFFFFF AND DUP2 MSTORE PUSH1 0x20 ADD SWAP2 POP POP PUSH1 0x40 MLOAD DUP1 SWAP2 SUB SWAP1 RETURN JUMPDEST PUSH1 0x0 CALLER SWAP1 POP SWAP1 JUMP INVALID LOG2 PUSH5 0x6970667358 0x22 SLT KECCAK256 0x5E 0x1E 0xAA LOG4 0xBB SHR SWAP2 0xCF PUSH22 0x4D7AD479A6CE7D2A07ACAE05436A729FAF13C76CF5DF 0xC9 PUSH5 0x736F6C6343 STOP SMOD MOD STOP CALLER "
		},
		"gasEstimates": {
			"creation": {
				"codeDepositCost": "31400",
				"executionCost": "81",
				"totalCost": "31481"
			},
			"external": {
				"getCallerAddress()": "196"
			}
		},
		"methodIdentifiers": {
			"getCallerAddress()": "46b3353b"
		}
	},
	"abi": [
		{
			"inputs": [],
			"name": "getCallerAddress",
			"outputs": [
				{
					"internalType": "address",
					"name": "caller",
					"type": "address"
				}
			],
			"stateMutability": "view",
			"type": "function"
		}
	]
}