{
	"data": {
		"bytecode": {
			"linkReferences": {},
			"object": "608060405234801561001057600080fd5b50610126806100206000396000f3fe6080604052348015600f57600080fd5b506004361060325760003560e01c80636a3e66b9146037578063f604bf5714608a575b600080fd5b607460048036036060811015604b57600080fd5b8101908080359060200190929190803590602001909291908035906020019092919050505060d3565b6040518082815260200191505060405180910390f35b60bd60048036036040811015609e57600080fd5b81019080803590602001909291908035906020019092919050505060e3565b6040518082815260200191505060405180910390f35b6000818385010190509392505050565b600081830190509291505056fea2646970667358221220f359c5f2d934574ca0a1446267f2208b41c04c4767668e96a3b0d4dec6a780ec64736f6c63430007060033",
			"opcodes": "PUSH1 0x80 PUSH1 0x40 MSTORE CALLVALUE DUP1 ISZERO PUSH2 0x10 JUMPI PUSH1 0x0 DUP1 REVERT JUMPDEST POP PUSH2 0x126 DUP1 PUSH2 0x20 PUSH1 0x0 CODECOPY PUSH1 0x0 RETURN INVALID PUSH1 0x80 PUSH1 0x40 MSTORE CALLVALUE DUP1 ISZERO PUSH1 0xF JUMPI PUSH1 0x0 DUP1 REVERT JUMPDEST POP PUSH1 0x4 CALLDATASIZE LT PUSH1 0x32 JUMPI PUSH1 0x0 CALLDATALOAD PUSH1 0xE0 SHR DUP1 PUSH4 0x6A3E66B9 EQ PUSH1 0x37 JUMPI DUP1 PUSH4 0xF604BF57 EQ PUSH1 0x8A JUMPI JUMPDEST PUSH1 0x0 DUP1 REVERT JUMPDEST PUSH1 0x74 PUSH1 0x4 DUP1 CALLDATASIZE SUB PUSH1 0x60 DUP2 LT ISZERO PUSH1 0x4B JUMPI PUSH1 0x0 DUP1 REVERT JUMPDEST DUP2 ADD SWAP1 DUP1 DUP1 CALLDATALOAD SWAP1 PUSH1 0x20 ADD SWAP1 SWAP3 SWAP2 SWAP1 DUP1 CALLDATALOAD SWAP1 PUSH1 0x20 ADD SWAP1 SWAP3 SWAP2 SWAP1 DUP1 CALLDATALOAD SWAP1 PUSH1 0x20 ADD SWAP1 SWAP3 SWAP2 SWAP1 POP POP POP PUSH1 0xD3 JUMP JUMPDEST PUSH1 0x40 MLOAD DUP1 DUP3 DUP2 MSTORE PUSH1 0x20 ADD SWAP2 POP POP PUSH1 0x40 MLOAD DUP1 SWAP2 SUB SWAP1 RETURN JUMPDEST PUSH1 0xBD PUSH1 0x4 DUP1 CALLDATASIZE SUB PUSH1 0x40 DUP2 LT ISZERO PUSH1 0x9E JUMPI PUSH1 0x0 DUP1 REVERT JUMPDEST DUP2 ADD SWAP1 DUP1 DUP1 CALLDATALOAD SWAP1 PUSH1 0x20 ADD SWAP1 SWAP3 SWAP2 SWAP1 DUP1 CALLDATALOAD SWAP1 PUSH1 0x20 ADD SWAP1 SWAP3 SWAP2 SWAP1 POP POP POP PUSH1 0xE3 JUMP JUMPDEST PUSH1 0x40 MLOAD DUP1 DUP3 DUP2 MSTORE PUSH1 0x20 ADD SWAP2 POP POP PUSH1 0x40 MLOAD DUP1 SWAP2 SUB SWAP1 RETURN JUMPDEST PUSH1 0x0 DUP2 DUP4 DUP6 ADD ADD SWAP1 POP SWAP4 SWAP3 POP POP POP JUMP JUMPDEST PUSH1 0x0 DUP2 DUP4 ADD SWAP1 POP SWAP3 SWAP2 POP POP JUMP INVALID LOG2 PUSH5 0x6970667358 0x22 SLT KECCAK256 RETURN MSIZE 0xC5 CALLCODE 0xD9 CALLVALUE JUMPI 0x4C LOG0 LOG1 DIFFICULTY PUSH3 0x67F220 DUP12 COINBASE 0xC0 0x4C SELFBALANCE PUSH8 0x668E96A3B0D4DEC6 0xA7 DUP1 0xEC PUSH5 0x736F6C6343 STOP SMOD MOD STOP CALLER "
		},
		"gasEstimates": {
			"creation": {
				"codeDepositCost": "58800",
				"executionCost": "111",
				"totalCost": "58911"
			},
			"external": {
				"tambah(uint256,uint256)": "335",
				"tambah(uint256,uint256,uint256)": "348"
			}
		},
		"methodIdentifiers": {
			"tambah(uint256,uint256)": "f604bf57",
			"tambah(uint256,uint256,uint256)": "6a3e66b9"
		}
	},
	"abi": [
		{
			"inputs": [
				{
					"internalType": "uint256",
					"name": "a",
					"type": "uint256"
				},
				{
					"internalType": "uint256",
					"name": "b",
					"type": "uint256"
				},
				{
					"internalType": "uint256",
					"name": "c",
					"type": "uint256"
				}
			],
			"name": "tambah",
			"outputs": [
				{
					"internalType": "uint256",
					"name": "hasil",
					"type": "uint256"
				}
			],
			"stateMutability": "pure",
			"type": "function"
		},
		{
			"inputs": [
				{
					"internalType": "uint256",
					"name": "a",
					"type": "uint256"
				},
				{
					"internalType": "uint256",
					"name": "b",
					"type": "uint256"
				}
			],
			"name": "tambah",
			"outputs": [
				{
					"internalType": "uint256",
					"name": "hasil",
					"type": "uint256"
				}
			],
			"stateMutability": "pure",
			"type": "function"
		}
	]
}